:1040000000000220C1640000F7640000F9640000B1
:10401000FB640000FD640000FF640000F564000024
:10402000F5640000F5640000F5640000016500001F
:1040300003650000F56400000565000007650000E9
:10404000096500000B6500000D6500000F650000AC
:10405000116500001365000015650000176500007C
:10406000196500001B6500001D6500001F6500004C
:10407000216500002365000025650000276500001C
:10408000296500002B6500002D6500002F650000EC
:1040900031650000336500003565000037650000BC
:1040A000396500003B6500003D6500003F6500008C
:1040B0004165000043650000D16F000047650000C6
:1040C000496500004B6500004D6500004F6500002C
:1040D00051650000536500005565000000000000B8
:1040E00000000000000000000000000000000000D0
:1040F00000000000000000000000000000000000C0
:1041000010B5054C237833B9044B13B10448AFF311
:1041100000800123237010BD780000200000000003
:10412000E075000008B5064B1BB106480649AFF321
:1041300000800648036813B1054B03B1984708BDDA
:1041400000000000E07500007C00002078000020E6
:1041500000000000154B002B08BF134B9D46A3F534
:10416000803A00218B460F461348144A121A02F077
:10417000A2FF0F4B002B00D098470E4B002B00D016
:1041800098470020002104000D000D48002802D0AF
:104190000C48AFF3008002F05FFF2000290000F020
:1041A000B7FB02F045FF00BF00000800000002203E
:1041B000000000000000000078000020200A00201D
:1041C000000000000000000080B586B000AFAA2308
:1041D0009BB23B8004237B807B6800221A707B6843
:1041E000013301221A707B68023300221A70032304
:1041F0003B8102233B823B460D48194601F0BEFE3F
:1042000000BF0B4801F094FC0346002BF9D1FB687A
:1042100001331B787B617B691B027B61FB681B7828
:104220007A6913447B617B6918461837BD4680BDA7
:1042300000A0004090B585B000AF104B3C460FCBBE
:1042400084E80F0001233B7001237B700C4BBB60A3
:1042500001233B733B460B48194601F02DFCFFF749
:10426000B3FF024640F221439A4201D0002300E00E
:10427000012318461437BD4690BD00BFE47000000E
:10428000DDFB050000A0004080B500AF00F08AF81B
:1042900000F09EF800F010F800F04AF800F0ACF8DA
:1042A00000F0C0F800F0FCF800F038F900F054F924
:1042B00000F070F980BD00BF80B500AF512004212F
:1042C00001F0E4F91348022101F0E0F9124801215C
:1042D00000F0F2FF1148012100F0EEFF104801212B
:1042E00000F0EAFF0F48012100F0E6FF0E4801212F
:1042F00000F0E2FF0D48012100F0DEFF0020012167
:10430000012201F011FB02200121012201F00CFB2E
:1043100080BD00BF0200060000B2020000C2020021
:1043200030140800000202000012020000D2020055
:10433000B0B586B000AF1948012100F0BDFF0020E4
:104340000121012201F0F0FA0120002101F09EFE7E
:10435000134B3C1D1D460FCD0FC42B68236000235B
:104360003B7101237B710123BB714FF480533B816F
:104370002023FB6000233B7501237B750023BB7565
:1043800000233B613B1D184600F07EFB002000210E
:1043900000F0EEFB1837BD46B0BD00BF004304007F
:1043A000F470000080B500AF074B074A126822F096
:1043B00003021A60044B044A126822F00C021A60CD
:1043C000024802F07FF980BD00800C40006CDC02E6
:1043D00080B400AF074B074A126822F4C0521A603B
:1043E000044B044A126822F400521A60BD465DF87C
:1043F000047B704700800C4080B582B000AF084A53
:104400003B1D1188927819809A7000237B710123DB
:10441000BB713B1D184601F0AFFE0837BD4680BD9D
:1044200008710000B0B588B000AF1B4B07F108045D
:104430001D460FCD0FC495E8030084E803004FF438
:10444000E1333B6105233B7501237B750123BB757C
:1044500000233B830023BB760023FB7600233B77BE
:1044600007F108030D48194601F01EFF00233B71B8
:1044700000237B710023BB710023FB7100237B7140
:104480000023BB710023FB713B1D0448194601F05A
:104490006FFF2037BD46B0BD0C71000000C000406A
:1044A000B0B588B000AF1B4B07F108041D460FCD17
:1044B0000FC495E8030084E803004FF4E1333B6147
:1044C00005233B7501237B750123BB7500233B83CB
:1044D0000023BB760023FB7600233B7707F108031C
:1044E0000D48194601F0E0FE00233B7100237B716B
:1044F0000023BB710023FB7100237B710023BB7180
:104500000023FB713B1D0448194601F031FF2037A1
:10451000BD46B0BD0C71000000C4004090B585B030
:1045200000AF0A4B3C460FCB84E80F0001233B70E1
:1045300001237B70064BBB6001233B733B46054860
:10454000194601F0B9FA1437BD4690BD2471000038
:10455000DDFB050000A0004090B585B000AF0A4B20
:104560003C460FCB84E80F0001233B7001237B7096
:10457000064BBB6001233B733B460548194601F0DF
:104580009BFA1437BD4690BD24710000DDFB050089
:1045900000A4004080B400AFB04BB04A126842F0B3
:1045A00003021A60AD4BAD4A526822F00F0242F08E
:1045B00001025A60A94BA94A526822F0F00242F067
:1045C00040025A60A54BA54A526822F4706242F438
:1045D00080625A60A14BA14A926822F00F0242F019
:1045E00001029A609D4B9D4A926822F0F00242F0CF
:1045F00030029A60994B994AD26842F40072DA60AC
:10460000964B964A926822F4706242F440729A6025
:10461000924B924AD26842F48062DA608F4B8F4AA2
:10462000526A42F003025A628C4B8C4A926C42F0FE
:1046300003029A64894B894AD26C22F4702242F4B4
:104640003022DA64854B854A526D42F010025A6579
:10465000824B824AD26C22F4700242F43002DA6455
:104660007E4B7E4A526D42F020025A657B4B7B4A5C
:10467000D26C22F0706242F03062DA64774B774A93
:10468000526D42F040025A65744B744AD26C22F06B
:10469000704242F03042DA64704B704A526D42F020
:1046A00080025A656D4B6D4AD26E42F00302DA66A3
:1046B0006A4B6A4A126F22F00F0242F004021A6734
:1046C000664B664A126F22F0F00242F010021A673F
:1046D000624B624A126F22F4706242F480621A677F
:1046E0005E4B5E4A126F22F4704242F480421A67B7
:1046F0005A4B5A4A126F22F4702242F480321A67DF
:10470000564B564A126F22F4700242F480021A6726
:10471000524B524A926F42F020029A674F4B4F4AD7
:10472000126F22F0706242F080721A674B4B4B4A54
:10473000126F22F0704242F080421A67474B474A9C
:10474000926F42F080029A67444B444A526F22F0C3
:104750000F0242F003025A67404B404A926F42F404
:1047600080729A673D4B3D4AD2F8902042F0030296
:10477000C3F89020394B394AD2F8982022F00F0222
:1047800042F00402C3F89820344B344AD2F89820FF
:1047900022F0F00242F04002C3F898202F4B2F4A3B
:1047A000D2F8982022F4706242F48062C3F8982014
:1047B0002A4B2A4AD2F8982022F4704242F48052BE
:1047C000C3F89820254B254AD2F8982022F470226D
:1047D00042F48022C3F89820204B204AD2F8982037
:1047E00022F4700242F48002C3F898201B4B1B4A4B
:1047F000D2F8B42042F00302C3F8B420174B174A92
:10480000D2F8B82022F00F0242F00402C3F8B82018
:10481000124B124AD2F8B82022F0F00242F01002F5
:10482000C3F8B8200D4B0D4AD2F8B82022F47062BC
:1048300042F48062C3F8B820084B084AD2F820211D
:1048400022F00302C3F82021054B054A926B22F4A3
:10485000E06242F400729A6304E000BF006000402E
:1048600000A00040154B154A926B42F003029A6378
:10487000134B134A926B42F003029A63114B114A95
:10488000926A22F4E06242F400729A620E4B0E4A7F
:10489000526D42F00F025A650C4B0C4A526D22F4D5
:1048A000E06242F480725A65084B084A526D42F049
:1048B0000F025A65BD465DF8047B704700A00040BA
:1048C00000A400400060084000C0004000C4004058
:1048D00080B582B000AF0C4B1B687B603B4618462E
:1048E00001F072FC7B681B0E0F2B0AD93B78032B5F
:1048F00007D1064B054A126822F0500242F010021E
:104900001A600837BD4680BDFC81E00FC0800C40B6
:1049100080B500AFFFF7DCFFFFF7B6FC02F08AF9C5
:10492000962002F049F902F02DFBFFF783FC02F01C
:104930004BF8074801F046FF012002F087F802F02B
:1049400033F9C82002F038F902F0DEF8F9E700BFC9
:104950003471000080B487B000AFF860B9607A604D
:10496000FB6803F10473DA00BB6813449B007B61AE
:104970007B697A681A601C37BD465DF8047B704716
:1049800080B483B000AF7860034B7A681A630C3749
:10499000BD465DF8047B70470010084080B582B0CA
:1049A00000AF0346FB71FB79002B05D00E4B1B6853
:1049B00003F00303002B05D1FB7983F00103DBB285
:1049C000002B00D000BFFB79002B05D00648032147
:1049D0000022FFF7BFFF04E0034803210122FFF795
:1049E000B9FF0837BD4680BD0010084080B582B0D1
:1049F00000AF0346FB71FB79034800211A46FFF71D
:104A0000A9FF0837BD4680BD3810084080B487B084
:104A100000AF78607B68002B04D07B68B3F5004F53
:104A200000D800BF7B683B613B69B3FA83F3FB604E
:104A3000FB68DBB2C3F11F037B617B6918461C373F
:104A4000BD465DF8047B704780B483B000AF7860EA
:104A50000C4B9B6B03F00103002B05D1094B1B682A
:104A600003F44053002B00D006E000BF054BDA6B87
:104A70007B681340002BF9D10C37BD465DF8047BF1
:104A8000704700BF0010084080B584B000AF786068
:104A90007B689B68002B04D07B689B68802B00D8C8
:104AA00000BF7B681B7883F00103DBB2002B07D1CA
:104AB0007B681B78002B04D07B685B78002B00D0D0
:104AC00000BF7B689B88B3F5405F08D17B689B88FB
:104AD000B3F5405F04D17B689B7C002B00D100BF05
:104AE0007B689B681846FFF791FFF8607B681B782E
:104AF000002B02D00120FFF779FF0120FFF7A4FF70
:104B00001A4B7A68927C5A607B685B7843F00803A2
:104B1000DBB21A467B689B789B001A437B685B7C00
:104B20001B011A437B68DB685B011A43FB681B02AD
:104B30001A437B689B881A437B681B7C9B03134347
:104B4000BB604FF0FF30FFF71BFF084BBA681A60DD
:104B50007B681B78002B05D00120FFF71FFF00208A
:104B6000FFF744FF1037BD4680BD00BF001008406E
:104B700080B582B000AF786039600220FFF764FF33
:104B8000024B3A68DA600837BD4680BD0010084025
:104B900080B487B000AFF860B9607A60FB6803F159
:104BA0000473DA00BB6813449B007B617B697A68FD
:104BB0001A601C37BD465DF8047B704780B483B033
:104BC00000AF1D4BDB6C03F47F031B0CFB71FB7907
:104BD0004A2B04D04B2B26D0482B22D025E0174B54
:104BE0001B699BB203F03F039BB21B02BB80134BBC
:104BF0009B699BB203F0F0039AB2BB881343BB805E
:104C00000E4BDB6903F0F0031B099AB2BB88134318
:104C1000BB80BB88B3F5017F01D3094B06E0094B8C
:104C200004E0084B02E0064B00E0002318460C3776
:104C3000BD465DF8047B7047B081E00FD0FF0FE008
:104C400000366E010048E80180B485B000AF78609E
:104C5000284BDB6B002B0CBF00230123BB72254BC1
:104C600041F67132DA63234B5B6803F00703FB60A4
:104C7000FB68012B01D9042B02D10023FB7202E057
:104C80000123FB7200BF7A681B4B9A4207D9FB7A5B
:104C9000002B01D0052300E00423FB6016E07A68B6
:104CA000154B9A420BD87A68144B9A4207D9FB7A73
:104CB000002B01D0032300E00123FB6006E0FB7A18
:104CC000002B01D0022300E00023FB60094B094ABE
:104CD000526822F00701FA680A435A60BB7A002B37
:104CE00002D0044B0022DA631437BD465DF8047B22
:104CF000704700BF00000C400048E8010024F400A9
:104D000080B582B000AF044B7B607868FFF79CFFF2
:104D10000837BD4680BD00BF006CDC0280B487B0A0
:104D200000AF78607B68002B04D07B68B3F5004F40
:104D300000D800BF7B683B613B69B3FA83F3FB603B
:104D4000FB68DBB2C3F11F037B617B6918461C372C
:104D5000BD465DF8047B704780B483B000AF7860D7
:104D60007B68012202FA03F318460C37BD465DF852
:104D7000047B704780B582B000AF104800F0D4FBD0
:104D80000346FB70FB78032B07D0082B09D0022BBE
:104D90000BD101F0C7FC78600AE001F0AFFC78604D
:104DA00006E001F00BFC786002E000237B6000BFAE
:104DB0007B6818460837BD4680BD00BF05231C0030
:104DC00080B483B000AF1A4B5B6903F4E063B3F5C2
:104DD000007F14D0B3F5007F05D8002B15D0B3F5B4
:104DE000807F0FD01AE0B3F5C06F14D0B3F5E06F39
:104DF0000ED0B3F5407F11D10E4B7B6011E00E4B0E
:104E00007B600EE00D4B7B600BE00D4B7B6008E0A0
:104E10000C4B7B6005E00C4B7B6002E000237B6069
:104E200000BF7B6818460C37BD465DF8047B7047B1
:104E300000800C4040420F00C0CF6A00C0D8A700DD
:104E4000809FD500406F4001003FAB0180B582B02C
:104E500000AF124800F068FB0346FB70FB78072B9D
:104E60000FD0082B11D101F0A9FB78600C4B1B6807
:104E700003F4E0339B0B01337A68B2FBF3F37B60FE
:104E800006E0FFF79DFF786002E000237B6000BF33
:104E90007B6818460837BD4680BD00BF0400180077
:104EA00000800C4080B584B000AF78607B68002B38
:104EB00002D07B68012B00D100BF264B9A6A7B6829
:104EC0005B0022FA03F303F00303032B3AD801A299
:104ED00052F823F0254F0000E54E0000ED4E000093
:104EE000F54E000001F00AFCF8602EE001F01AFC1B
:104EF000F8602AE0174B5B6803F48073002B05D140
:104F0000144B1B6803F08043002B05D001F032FBEB
:104F100003469B08FB6018E001F02CFB03465B088E
:104F2000FB6012E00B4B9A6A7B6804339B0022FA09
:104F300003F3002B03D001F0EBFBF86005E0002346
:104F4000FB6002E00023FB6000BFFB6818461037DF
:104F5000BD4680BD00800C4080B483B000AF786057
:104F6000094B5B6D03F00103002B00D006E000BF8E
:104F7000054B1A6D7B681340002BF9D10C37BD46E9
:104F80005DF8047B704700BF00800C4080B584B0A2
:104F900000AF78607B681B0903F00F03BB60BB6840
:104FA000013B042B77D801A252F823F0D14F000027
:104FB000E54F0000F94F000055500000C14F0000C0
:104FC000394B1B6803F4E0339B0B0133FB6065E056
:104FD000354B9B6803F00F03FB60F868FFF7BCFEDE
:104FE000F8605BE0304B5B6803F00F03FB60F86830
:104FF000FFF7B2FEF86051E07B682C4A934210D074
:105000002B4A934218D02B4A93421FD1264B9B6EBA
:1050100003F0F0031B09FB60F868FFF79DFEF860E2
:1050200017E0214B9B6E03F470631B0AFB60F8686A
:10503000FFF792FEF8600CE01B4B9B6E03F003033E
:10504000FB60F868FFF788FEF86002E00123FB6070
:1050500000BF23E07B68184A934203D0174A93426B
:105060000AD014E0104B1B6F03F00303FB60F868D9
:10507000FFF772FEF8600DE00B4B1B6F03F030037F
:105080001B09FB60F868FFF767FEF86002E0012388
:10509000FB6000BF02E00123FB6000BFFB68184615
:1050A0001037BD4680BD00BF00800C4030240A0090
:1050B000300410003014080040051400401516009C
:1050C00090B585B000AF786039607B681B0903F04C
:1050D0000F03FB60FB68013B042B00F2DA8001A2A6
:1050E00052F823F02D51000057510000C351000029
:1050F0003F520000F95000003B68002B03D03B6892
:10510000082B00D800BFFFF7FBFD644B634A126811
:1051100022F4E0313A68013A92030A431A6001F03E
:1051200029FAB860B868FFF78FFDB3E03B68002B41
:1051300004D03B68B3F5007F00D800BF3868FFF7A4
:10514000EDFD3860554B554A926822F00F013A68E0
:105150000A439A609EE0FFF7D3FD512000F01CF94E
:1051600002463B68B2FBF3F4FFF728FD03469C427E
:105170000AD84A481E210022FFF70AFD48480821A4
:105180000022FFF705FD09E044481E210122FFF738
:10519000FFFC434808210122FFF7FAFC3868FFF7BB
:1051A000BDFD38603D4B3D4A526822F00F013A6820
:1051B0000A435A6001F0DEF9B860B868FFF744FDB1
:1051C00068E07B68374A934217D0374A934225D02C
:1051D000364A934200D031E00420FFF7BDFE386824
:1051E000FFF79CFD38602D4B2C4A926E22F0F001A7
:1051F0003A6812010A439A6620E00420FFF7ACFEE9
:105200003868FFF78BFD3860244B244A926E22F4F5
:1052100070613A6812020A439A660FE00420FFF7B1
:105220009BFE3868FFF77AFD38601C4B1B4A926E74
:1052300022F003013A680A439A6600BF2AE07B68BD
:105240001B4A934203D01B4A934210D020E04020D7
:10525000FFF782FE3868FFF761FD38600F4B0F4A99
:10526000126F22F003013A680A431A6710E04020E7
:10527000FFF772FE3868FFF751FD3860074B074AA9
:10528000126F22F030013A6812010A431A6700BF18
:1052900000E000BF1437BD4690BD00BF00800C4049
:1052A00004800C4030240A00300410003014080040
:1052B000400514004015160090B587B000AF786027
:1052C0000B46FB7000233B617B681B0A03F00F0356
:1052D000013B052B4AD801A252F823F0F5520000F9
:1052E000FB520000015300002F530000395300000F
:1052F000435300001F4B7B6126E01F4B7B6123E083
:105300001E4B7B611E4800F047F80446FFF756FC31
:1053100003469C420AD91B481E210122FFF738FC94
:10532000194808210122FFF733FC0DE00CE0174B70
:105330007B6101233B6107E0154B7B6110233B61DF
:1053400002E0144B7B6100BF7B681B0B03F01F0363
:10535000FB603B69002B02D03869FFF7FDFDFB784D
:105360007869F9681A46FFF713FC00E000BF1C37A4
:10537000BD4690BD08800C4044800C4040800C40ED
:105380002000040000800C4004800C4058800C4039
:1053900060800C4078800C4080B584B000AF7860AD
:1053A0007B6803F47813B3F5801F7AD0B3F5801FC0
:1053B00015D8B3F5802F4FD0B3F5802F05D8002B2B
:1053C00026D0B3F5003F31D0A4E0B3F5002F4CD088
:1053D000B3F5202F57D0B3F5C02F41D09AE0B3F5E5
:1053E000B01F7DD0B3F5B01F06D8B3F5901F65D0C0
:1053F000B3F5A01F67D08DE0B3F5D01F00F0828019
:10540000B3F5E01F00F08280B3F5C01F76D081E0D5
:1054100001F0D4F8F860434B1B6803F4E0339B0BB6
:105420000133FA68B2FBF3F3FB6076E001F0C6F8F3
:10543000F8603C4B1B6803F4E0339B0B0133FA68C4
:10544000B2FBF3F3FB60374B9B6803F00F03FA6882
:1054500022FA03F3FB6060E001F08CF8F8605CE096
:105460000020FFF71FFDF86057E00020FFF71AFD4E
:10547000F8602C4B9B6E03F0F0031B09FA6822FACC
:1054800003F3FB6049E00020FFF70CFDF860254BBB
:105490009B6E03F470631B0AFA6822FA03F3FB6045
:1054A0003BE00020FFF7FEFCF8601E4B9B6E03F014
:1054B0000303FA6822FA03F3FB602EE00120FFF7F2
:1054C000F1FCF86029E00120FFF7ECFCF860154BD7
:1054D0001B6F03F00303FA6822FA03F3FB601CE07E
:1054E0000120FFF7DFFCF8600E4B1B6F03F0300369
:1054F0001B09FA6822FA03F3FB600EE0FFF7A6FC33
:10550000F8600AE0FFF75CFCF86006E0FFF732FCA9
:10551000F86002E00023FB6000BFFB68184610370C
:10552000BD4680BD00800C4080B487B000AF78607D
:105530000123FB754FF470533B617B6803F00F034D
:10554000FB60FB68013B042B00F2938001A252F840
:1055500023F000BF695500009F550000DB55000097
:10556000175600003D560000474BDA6A3B6913406E
:10557000B3F5805F09D0B3F5005F03D0B3F5006FDA
:1055800006D008E00223FB7508E00323FB7505E065
:105590000423FB7502E00523FB7500BF6CE03A4B6A
:1055A0009B6A03F00303022B06D0032B07D0012BC9
:1055B00008D10323FB750FE00223FB750CE00623E3
:1055C000FB7509E0304B9B6A03F48033002B02D05B
:1055D0000923FB7500E000BF4EE02B4B9B6A03F0F4
:1055E0000C03082B06D00C2B07D0042B08D1032367
:1055F000FB750FE00223FB750CE00623FB7509E049
:10560000214B9B6A03F48013002B02D00923FB7506
:1056100000E000BF30E00723FB751B4B1B6803F065
:105620008053002B03D0B3F1805F03D024E0072325
:10563000FB7502E00823FB7500BF1DE0124BDB6A1F
:1056400003F46033B3F5803F06D0B3F5003F06D0D6
:10565000B3F5004F06D008E00223FB7508E00323F2
:10566000FB7505E00823FB7502E00123FB7500BF15
:1056700002E00023FB7500BFFB7D18461C37BD46CA
:105680005DF8047B704700BF00800C4090B589B086
:1056900000AF78600B46FB700323FB610323FB76AE
:1056A00000237B617B6803F00F03FB60FB68013B19
:1056B000042B00F22A8101A252F823F0D1560000F7
:1056C0009D5700009D57000079580000A358000026
:1056D000FB78023B072B00F21A8101A252F823F05B
:1056E000015700000B5700001557000069570000D4
:1056F0000F5900000F5900000F59000073570000A8
:105700000423FB610023FB7634E00323FB610123C8
:10571000FB762FE00223FB610223FB7600F0C6FF3D
:105720000446FFF74BFA03469C4213D97B4A7B4B56
:105730001B6843F0804343F060031360774B1B6C9E
:1057400003F01003002B0ED0754808210122FFF74B
:105750001FFA0FE0714B714A126822F0600242F0AA
:1057600020021A6006E005E00123FB610323FB76BB
:1057700000E000BFFB7E18460121012200F0D4F8B2
:10578000FFF7BEFA654BFA695A6200F02DF900F096
:10579000F1FEB860B868FFF757FABBE0FB78013B51
:1057A000082B00F2B68001A252F823F0D157000076
:1057B000D7570000E75700001359000013590000A5
:1057C000F757000013590000135900002F5800002C
:1057D00000233B6130E000200121012200F0A4F809
:1057E00002233B6128E001200121012200F09CF806
:1057F00001233B6120E04B4804210122FFF7C8F957
:1058000003233B6100F0B6FEB860FFF7D7F902460C
:10581000BB689A420AD241481E210122FFF7B8F91B
:105820003F4808210122FFF7B3F905E004E0002317
:105830003B6101237B6100BFFB68022B0DD1374A1E
:10584000364B9B6A23F4803323F0030339691943F1
:105850007B691B040B4393625CE0304A2F4B9B6ACD
:1058600023F4801323F00C033969890019437B6901
:105870001B050B4393624DE0FB78072B02D0082BEE
:1058800007D047E0254B254A126822F080521A6063
:1058900006E0224B214A126842F080521A6000BF93
:1058A00038E0FB78032B14D0082B22D0022B00D039
:1058B00030E000200121012200F036F8174B402291
:1058C0005A6200BF154BDB6A03F48033002BF9D01A
:1058D0001AE001200121012200F026F80F4B60227E
:1058E0005A6200BF0D4BDB6A03F40033002BF9D082
:1058F0000AE00A4B20225A6200BF084BDB6A03F41D
:105900000043002BF9D000BF04E000BF02E000BF5D
:1059100000E000BF2437BD4690BD00BF00800C40B2
:1059200004800C4040800C4080B586B000AF134628
:105930000246FA710A46BA717B71FB79052B4CD885
:1059400001A252F823F000BF995900008B590000C2
:105950006F590000615900007D590000DB590000BB
:1059600001233B610223FB6002237B611EE00423D1
:105970003B610823FB6008237B6117E010233B6138
:105980002023FB6020237B6110E040233B618023C8
:10599000FB6080237B6109E04FF480733B614FF42F
:1059A0000073FB604FF400737B6100BFBB79002B79
:1059B0000DD00C4B3A691A627B79002B0AD000BFDC
:1059C000084BDA6A7B691340002BF9D002E0054BE3
:1059D000FA681A6200F008F800E000BF1837BD4608
:1059E00080BD00BF00800C4080B400AF034BDA6A7A
:1059F000034B1A60BD465DF8047B704700800C4085
:105A00009400002080B487B000AFF860B9607A607D
:105A1000FB6803F10473DA00BB6813449B007B61ED
:105A20007B697A681A601C37BD465DF8047B704755
:105A300080B586B000AFF860B9607A60FB707B68B3
:105A4000002B00D130E0FB681B6823F44072FB6838
:105A50001A60FB681A68FB781B021A43FB681A601D
:105A6000BB68002B03D11248FFF796FCB860FB78A7
:105A7000104AD35C3B617B689B00BA68D21A3B69D1
:105A8000796801FB03F3B2FBF3F37B61FB681B68EE
:105A900003F00203002B04D07B69002B01D101230A
:105AA0007B61FB687A691A611837BD4680BD00BF0B
:105AB00010810200B475000080B582B000AF78603C
:105AC00039607A68174B9A4203D07A68164B9A422B
:105AD00000D100BF7B6800225A637B68134A1A63B7
:105AE0007A683B685B78002B01D0002300E001233B
:105AF000104601211A46FFF785FF3B6859683B684D
:105B00009A683B681B7B7868FFF792FF7A683B686E
:105B10001B78104600211A46FFF774FF0837BD4670
:105B200080BD00BF00A0004000A40040CFFF0100E6
:105B300080B489B000AF78607A689D4B9A4203D0F8
:105B40007A689C4B9A4200D100BF7A68984B9A427F
:105B500002D1994BBB6108E07A68964B9A4202D118
:105B6000964BBB6101E0FC2300E2BB699B687B6153
:105B70007B689B6A3B613B6903F4C063002B14D0D4
:105B80003B6903F40073002B03D0BB69FD225A70FC
:105B900007E03B6903F48063002B02D0BB69FE225F
:105BA0005A70BB6909221A70CCE1BB691B78082BBB
:105BB00000F2C08101A252F823F000BFE15B0000B7
:105BC000335C0000B95C00000B5D00005D5D00000F
:105BD000C15D0000495E0000875E0000195F0000A3
:105BE0007B695B8803F01003002B09D07B691B885D
:105BF0001B0A9BB203F0060343F0F003FB610EE0C7
:105C00007B691B8803F0FE03FB617B695B8803F003
:105C10000203002B03D0FB6943F00103FB61BB6966
:105C200001221A707B68FA695A627B6801225A6005
:105C300088E13B6903F08003002B0CD07B68802255
:105C40001A63BB69FF225A70BB6908221A707B680D
:105C500002225A602FE03B6903F04003002B2AD058
:105C60007B6840221A637B695B8803F01003002B7A
:105C700008D0BB6902221A707B691B88DAB27B6884
:105C80005A6218E07B695B8803F00203002B0ED098
:105C9000BB6907221A70BB691B797A69DB00134460
:105CA0001B89012B07D17B6808225A604AE1BB6936
:105CB00005221A7045E145E13B6903F08003002BA2
:105CC0000CD07B6880221A63BB69FF225A70BB69C3
:105CD00008221A707B6802225A6015E03B6903F0C3
:105CE0004003002B10D07B6840221A637B695B88DD
:105CF00003F00203002B03D0BB6903221A7020E1DA
:105D0000BB6905221A701CE11CE17B695B8803F00A
:105D10001003002B09D07B691B881B0A9BB203F080
:105D2000060343F0F003FB6104E07B691B8803F08A
:105D3000FE03FB617B695B8803F00403002B03D047
:105D4000FB6943F00103FB61BB6904221A707B68A5
:105D500001225A607B68FA695A62F3E03B6903F0FA
:105D60008003002B0CD07B6880221A63BB69FF2262
:105D70005A70BB6908221A707B6802225A6015E0CB
:105D80003B6903F04003002B10D07B6840221A636C
:105D90007B695B8803F00403002B03D0BB690722F7
:105DA0001A7003E0BB6905221A70CAE0CAE000BF9E
:105DB00000A0004000A4004098000020A4000020A3
:105DC000BB695A88BB691B797969DB000B441B8965
:105DD0009A4224D3BB6900225A80BB691B790133E4
:105DE000DAB2BB691A717B695B8803F00403002B8C
:105DF00003D0BB6903221A70A3E07B695B8803F0C0
:105E00000103002B03D1BB691B79012B06D9BB69A8
:105E100008221A707B6802225A6093E091E0BB6905
:105E20001B797A69DB0013445A68BB695B88591C8B
:105E300088B2B969488013441B781A467B685A6255
:105E4000BB6906221A707DE03B6903F08003002BDA
:105E50000CD07B6880221A63BB69FF225A70BB6931
:105E600008221A707B6802225A600BE03B6903F03B
:105E70004003002B06D07B6840221A63BB690522D1
:105E80001A705EE05EE03B6903F02003002B42D015
:105E9000BB691B797A69DB0013441B89FB607B6853
:105EA000DB69FB72BB695B881A46FB689A420ED2BB
:105EB000BB691B797A69DB0013445A68BB695B884C
:105EC000591C88B2B96948801344FA7A1A70BB69C0
:105ED0005B881A46FB689A420CD3FB68012B02D1FF
:105EE0007B6808225A60BB6908221A707B6802220C
:105EF0005A6010E07B6804225A60FB68012B0AD9C3
:105F0000BB695B881A46FB68013B9A4203D17B68F8
:105F100008225A6016E015E03B6903F48073002BF9
:105F200007D07B684FF480721A63BB6909221A702C
:105F300008E007E0BB69FB225A70BB6909221A70AE
:105F400000E015E6BB691B78092B0BD17B680022AA
:105F50005A63BB695B785BB2012B05D1BB69002238
:105F60005A7001E0012301E0BB695B785BB218461F
:105F70002437BD465DF8047B704700BF80B584B010
:105F800000AF786039607A68304B9A4203D07A6803
:105F90002F4B9A4200D100BF7A682C4B9A4202D113
:105FA0002C4BFB6008E07A68294B9A4202D12A4BBD
:105FB000FB6001E0FC2343E07B689B6803F0010386
:105FC000002B02D07B6820225A603B685B8803F07C
:105FD0000203002B03D03B681B89002B09D03B68D0
:105FE0005B8803F00403002B05D03B681B8A002B61
:105FF00001D1FC2324E0FB6800221A70FB68012217
:106000005A70FB6800225A80FB6800221A71FB68F4
:106010003A689A607B68C0225A607B689B6A03F08A
:106020002003002B01D07B68DB697B680B4A1A6375
:106030007B684FF4FC625A637868FFF779FD03468A
:106040005BB218461037BD4680BD00BF00A00040BF
:1060500000A4004098000020A4000020CFFF010011
:1060600080B487B000AFF860B9607A60FB6803F174
:106070000473DA00BB6813449B007B617B697A6818
:106080001A601C37BD465DF8047B704780B582B04E
:1060900000AF02460B46FA71BB71FA79BB7904482E
:1060A00011461A46FFF7DCFF0837BD4680BD00BF2A
:1060B00000A00C4080B487B000AFF860B9607A608F
:1060C000FB6803F10473DA00BB6813449B007B6137
:1060D0007B697A681A601C37BD465DF8047B70479F
:1060E00080B485B000AF786039607B68012B05D83B
:1060F0003B6803F07F43002B00D100BF7B68002B7F
:1061000002D0012B03D008E0064BFB6002E0064BF7
:10611000FB6000BFFB683A681A601437BD465DF843
:10612000047B7047080008400C00084080B582B02E
:1061300000AF0346FB71FB79034800211A46FFF7C5
:10614000B9FF0837BD4680BD0000084080B483B069
:1061500000AF0346FB71FB79002B03D0054B0122F6
:106160001A6202E0034B00221A620C37BD465DF84A
:10617000047B70470000084080B485B000AF7860B1
:106180007B681B78002B02D00123FB6001E0002319
:10619000FB607B685B78002B03D0FB6843F0020355
:1061A000FB607B689B78002B03D0FB6843F0040303
:1061B000FB60044BFA681A601437BD465DF8047B37
:1061C000704700BF0000084080B485B000AF786021
:1061D000194B5B69DBB203F00F03DBB29B00FB736F
:1061E000154B1B6903F0C0039B09DAB2FB7B134319
:1061F000FB737B68FA7B9A700F4B1B69DBB203F071
:106200003F03DAB27B685A700B4B9B69DBB223F019
:106210000F03FB73084BDB6903F0F0031B09DAB2D1
:10622000FB7B1343FB737B68FA7B1A701437BD4604
:106230005DF8047B704700BFD0FF0FE080B586B0EB
:1062400000AFF860B9607A60BB68002B03D11448D6
:10625000FFF7A2F8B860BB685B007B617A687B6976
:106260001344013B7B617A697B68B2FBF3F37B618A
:106270007B69043B7B617B699B017B617B69C033EC
:106280007B617B6923F0FF037B617A69054B1340D7
:106290007B61FB687A695A611837BD4680BD00BFD3
:1062A00010810200C0FF1F0080B582B000AF78608F
:1062B00039607A682B4B9A4207D07A682A4B9A4207
:1062C00003D07A68294B9A4200D100BF786800F069
:1062D0007FF87B681A683B681B8A43F001039BB216
:1062E00019463B689B7B002B02D04FF4806300E093
:1062F00000230B431A437B681A607B6819683B686C
:106300009B7C002B01D0102200E000223B681B7D0B
:10631000002B02D04FF0005300E00023134341EA6A
:1063200003027B681A603B681B7B43F480527B68E6
:106330005A603B685A683B689B68786811461A4601
:10634000FFF77CFF3B685B7B002B02D07B68102251
:10635000DA603B681B781A467B68DA600837BD460E
:1063600080BD00BF00C0004000C4004000C8004025
:1063700080B485B000AF786039607B689B6823F09B
:106380007703FB603B681B78002B03D0FB6843F06E
:106390004003FB603B689B78002B03D0FB6843F015
:1063A0002003FB603B685B78002B03D0FB6843F065
:1063B0001003FB603B68DB78FA681343FB607B6883
:1063C000FA689A601437BD465DF8047B704700BFD9
:1063D00080B483B000AF78607A68204B9A4207D0CF
:1063E0007A681F4B9A4203D07A681E4B9A4200D1BA
:1063F00000BF7B6840F6AA62DA607B6800221A6000
:106400007B6841F205025A607B6800229A607B68D3
:1064100000225A617B680022DA647B6841F6F972D7
:106420009A647B6800225A657A680C4B9A4202D1C2
:106430007B6800221A657B6800229A657A68084B9F
:106440009A4203D07A68074B9A4202D17B680022B5
:10645000DA650C37BD465DF8047B704700C000402C
:1064600000C4004000C8004080B483B000AF786032
:106470000B46FB7000BF7B681B6903F04003002BD9
:10648000F9D0FA787B685A630C37BD465DF8047B17
:10649000704700BF80B483B000AF78600B467B804C
:1064A00000BF7B681B6903F04003002BF9D07A889A
:1064B0007B68DA630C37BD465DF8047B704700BF2C
:1064C000074880470749084A084B9B1A40F3058054
:1064D000043BC858D0503FF7FBAF054800470000C9
:1064E000F1660000EC75000000000020780000203C
:1064F00055410000FEE7FEE7FEE7FEE7FEE7FEE7A8
:10650000FEE7FEE7FEE7FEE7FEE7FEE7FEE7FEE763
:10651000FEE7FEE7FEE7FEE7FEE7FEE7FEE7FEE753
:10652000FEE7FEE7FEE7FEE7FEE7FEE7FEE7FEE743
:10653000FEE7FEE7FEE7FEE7FEE7FEE7FEE7FEE733
:10654000FEE7FEE7FEE7FEE7FEE7FEE7FEE7FEE723
:10655000FEE7FEE7FEE700BF80B400AF044BDB6C54
:106560001B0EDBB21846BD465DF8047B704700BFCA
:10657000B081E00F80B582B000AF00F01FF8786006
:106580000C4B1B6803F4E0339B0B01337A68B2FBBE
:10659000F3F37B60074B5B6803F00F037A6822FA22
:1065A00003F37B60044B7A681A607B6818460837EF
:1065B000BD4680BD00800C401C0A002080B582B022
:1065C00000AF2F4BDB6A03F47053B3F5805F0AD042
:1065D000B3F5005F03D0B3F5006F08D00BE0294B93
:1065E0001B687B6047E04FF400437B6043E0264B31
:1065F0001B687B603FE0224BDB6803F4E063B3F58C
:10660000007F1BD0B3F5007F05D8002B24D0B3F555
:10661000807F16D02BE0B3F5806F09D0B3F5A06F63
:1066200003D0B3F5407F06D021E0184B7B6021E01A
:10663000174B7B601EE0174B7B601BE0164B7B60AB
:1066400018E0FFF789FF0346122B02D9134B7B603A
:1066500010E0134B7B600DE0FFF77EFF0346122B2B
:1066600002D9104B7B6005E00F4B7B6002E00023FA
:106670007B6000BF00BF7B6818460837BD4680BD01
:1066800000800C400400002000000020003FAB010F
:10669000406F4001809FD500C0D8A70040B564007E
:1066A000C0CF6A00804F120040420F0080B400AF9C
:1066B000034B1B681846BD465DF8047B704700BF5E
:1066C0000000002080B582B000AF7860064B7A6889
:1066D0001A60064BDB6A03F40063002B01D0FFF75E
:1066E00049FF0837BD4680BD0000002000800C40F7
:1066F00080B400AFBD465DF8047B704780B400AF46
:106700004FF400431846BD465DF8047B704700BF58
:1067100080B400AF4FF47A731846BD465DF8047B31
:10672000704700BF80B400AF034B1B681846BD46DE
:106730005DF8047B704700BF0400002080B483B084
:1067400000AF03463960FB71FB79052B03D83B682A
:106750000F2B00D800BF0948FA793B68012101FAE4
:1067600003F319461346DB0013449B000344103324
:1067700059600C37BD465DF8047B704700600040EF
:1067800080B483B000AF03463960FB71FB79052B01
:1067900003D83B680F2B00D800BF0948FA793B6843
:1067A000012101FA03F319461346DB0013449B0051
:1067B0000344103319600C37BD465DF8047B704705
:1067C0000060004080B584B000AF78600B48796805
:1067D0004FF4906200F066FC0023FB6007E0084A7B
:1067E000FB68134401221A70FB680133FB60FB68ED
:1067F0005E2BF4DD1037BD4680BD00BFB000002029
:10680000B009002080B483B000AF00237B6008E0B3
:10681000084B7A6853F8223000221A807B680133D3
:106820007B607B68012BF3D90C37BD465DF8047B98
:10683000704700BFB000002080B483B000AF0023D9
:106840007B600EE00B4B7A6853F82230094A796876
:1068500052F821201288D24392B21A807B68013309
:106860007B607B68012BEDD90C37BD465DF8047B5E
:10687000704700BFB000002080B582B000AF7860E4
:10688000396020E03B68012B04D07B6803F00103F2
:10689000002B0CD07B681B7811481946FFF7E4FDEC
:1068A0003B68013B3B607B6801337B600BE07B68AE
:1068B0001B880B481946FFF7EDFD3B68023B3B6028
:1068C0007B6802337B603B68002BDBD100BF044B4D
:1068D0001B6903F02003002BF9D00837BD4680BDAB
:1068E00000C0004080B582B000AF0B463A6002465F
:1068F000FA71BB7104200921FFF742FF062000F066
:106900006DFAFB790133FB713B681A88FB799BB206
:1069100013449AB23B681A8019E0A0200121FFF7C6
:10692000ABFFFB795B0018460121FFF7A5FF386834
:106930003021FFF7A1FFBB79013BBB71FB7901332C
:10694000FB713B681B8802339AB23B681A80BB79A3
:10695000002BE2D100200221FFF78EFF022000F081
:106960003DFA04200921FFF7E9FE0837BD4680BD46
:1069700080B582B000AF04200921FFF701FF062097
:1069800000F02CFA00237B600E4B1B78002B03D009
:106990007B6820221A7002E07B68A0221A70786857
:1069A0000121FFF769FF00200221FFF765FF0220A8
:1069B00000F014FA04200921FFF7C0FE0837BD4695
:1069C00080BD00BF110A0020B0B588B000AF1D4BDC
:1069D00007F108041D460FCD0FC495E8030084E8B5
:1069E00003004FF4E1333B6105233B7501237B75C5
:1069F0000123BB7500233B830023BB760023FB767A
:106A000000233B7707F108030F481946FFF74CFCBA
:106A100000233B7100237B710023BB710023FB71BA
:106A200000237B710023BB710023FB713B1D0648D3
:106A30001946FFF79DFCFFF7E5FEFFF799FF2037AA
:106A4000BD46B0BDB875000000C0004080B584B040
:106A500000AF0346FB71FFF7EFFEFB79002B15D06B
:106A6000274B1B6800205F211A46FFF73BFF0023DE
:106A7000FB6007E0234AFB68134400221A70FB689E
:106A80000133FB60FB685E2BF4DD34E00023FB7216
:106A90000023BB722CE0BB7A1A4AD35C002B27D0B0
:106AA00008E0FB7A0133FB72BA7AFB7A1344154A89
:106AB0000021D154BA7AFB7A1344124AD35C1A46A5
:106AC000B97AFB7A0B445F2BCCBF00230123DBB2E6
:106AD0001343002BE5D10A4B1B68B97AFA7A0846B2
:106AE00011461A46FFF7FEFEBA7AFB7A1344BB72D0
:106AF000BB7A5F2BCFD9FFF79FFE1037BD4680BD15
:106B0000B0000020B009002080B582B000AF0420A2
:106B10000921FFF735FE062000F060F9204B1B78B5
:106B200083F00103DBB2002B1CD000237B601D4BE4
:106B30001B78002B03D07B6840221A7002E07B6830
:106B4000E0221A7078680121FFF796FE154B1B783A
:106B5000002B03D000200221FFF78EFE104B0122F4
:106B60001A7013E00F4B1B78002B08D00020012176
:106B7000FFF782FE00200221FFF77EFE03E0A02047
:106B80000121FFF779FE064B00221A70022000F067
:106B900025F904200921FFF7D1FD0837BD4680BD46
:106BA000100A0020110A002080B500AF042008213F
:106BB000FFF7E6FD80BD00BF80B582B000AF0346A1
:106BC000FB710AE04FF4FA7000F008F94FF4FA7024
:106BD00000F004F9FB79013BFB71FB79002BF1D14B
:106BE0000837BD4680BD00BF80B483B000AF034608
:106BF000FB71094B97F907205209F97901F01F0140
:106C0000012000FA01F1603243F822100C37BD4632
:106C10005DF8047B704700BF00E100E080B400AF86
:106C2000034B5B681846BD465DF8047B704700BFA8
:106C30000000084080B58AB000AF002387F82730F5
:106C4000002387F82630002387F82530002387F8B3
:106C50002430002387F823305A4A3B1D118892784C
:106C600019809A700023FB610023BB6100237B61C4
:106C700000233B61544B1B6C03F01003002B06D127
:106C800052480121FEF718FB012387F826305048AF
:106C9000FEF74AFC0346FB73FB7B032B02D0012368
:106CA00087F82430484BDB6A03F04003002B02D105
:106CB000012387F8233046480321FEF7E7FC4548C7
:106CC000FEF764F9B86043484FF48071FEF7F8F9B5
:106CD0003D4B9B6D03F00203002B06D13D48012183
:106CE000FEF7EAFA012387F825303B4B1B6803F0D7
:106CF0000103002B1AD0384B1B68FB61364B9B6895
:106D0000BB61354BDB687B61334BDB693B61324BED
:106D100000221A60304B0022DA612F4B07229A6161
:106D20001E20FFF761FF012387F827300023BB7186
:106D30003B1D1846FFF720FA00F06CF897F8273053
:106D4000002B16D02348B968FEF7BAF90120FFF7E7
:106D5000FDF9214BBA699A601F4B7A69DA601E4BC4
:106D6000FA691A601C4B3A69DA610020FFF7EEF904
:106D700002E00020FFF7DAF997F82530002B03D066
:106D800014480021FEF798FA97F82430002B04D01D
:106D9000FB7B0F481946FEF779FC97F82330002B50
:106DA00004D0012000210022FEF7BEFD97F8263016
:106DB000002B03D005480021FEF77EFA2837BD4698
:106DC00080BD00BFD075000000800C40004304006F
:106DD00002000600301408000000084080B483B0B0
:106DE00000AF78607B680A49002B0CD0013B8822F9
:106DF0001202003253430A68D80AD20A504380096B
:106E000001D00138FDD80C37BD465DF8047B7047D2
:106E10000800002080B584B000AF0823BB60324B6F
:106E20004FF480521A601BE000F060F8786000BFF9
:106E300000F05CF802467B689A42F9D000F056F800
:106E40007860294B1B68184600F058F800F04EF89F
:106E500002467B68D31A7B607B68002B00D006E07B
:106E6000214B1B685B00204A1360002BDCD11E4BBA
:106E70001B685A081C4B1A601B4B1B68FB6024E004
:106E8000194B1A68FB681A43174B1A6000F02EF86A
:106E9000786000BF00F02AF802467B689A42F9D079
:106EA00000F024F87860104B1B68184600F026F8B4
:106EB00000F01CF802467B689A4206D0FB68DA4371
:106EC000094B1B681A40084B1A60BB685A1EBA600F
:106ED000002B05D0FB685B08FB60FB68002BCFD163
:106EE0001037BD4680BD00BF0800002080B500AF50
:106EF000FFF794FE0346184680BD00BF80B483B000
:106F000000AF78607B68013BFDD80C37BD465DF86B
:106F1000047B704780B483B000AF0346FB71084B1D
:106F200097F907205209F97901F01F01012000FAB1
:106F300001F143F822100C37BD465DF8047B704721
:106F400000E100E080B483B000AF7860034B7A6862
:106F50009A610C37BD465DF8047B7047000008401D
:106F600080B483B000AF7860054B054AD1697A6878
:106F70000A43DA610C37BD465DF8047B704700BFF9
:106F80000000084080B582B000AF104A3B1D118858
:106F9000927819809A7000233B7100237B71012342
:106FA000BB713B1D1846FFF7E7F8002040F2FF31A8
:106FB000FFF796F81E20FFF7ADFF0220FFF7D0FF86
:106FC0000120FFF7B3F80837BD4680BDD475000037
:106FD00080B500AF0220FFF7B5FF124B1B685A1CAB
:106FE000104B1A600F4B1B683B2B1AD90D4B00221C
:106FF0001A600D4B1B685A1C0B4B1A600A4B1B681E
:107000003B2B0ED9084B00221A60084B1B685A1CF8
:10701000064B1A60054B1B68172B02D9034B002245
:107020001A6080BD180A0020140A00200C000020FD
:1070300008B5074B044613B10021AFF30080054BA0
:107040001868836A03B19847204600F03DF800BFF6
:1070500000000000DC75000070B50E4B0E4D0024E2
:10706000ED1AAD101E46AC4204D056F824209047CD
:107070000134F8E700F02AF8084D094B0024ED1A16
:10708000AD101E46AC4204D056F82420904701347F
:10709000F8E770BD70000020700000207400002030
:1070A0007000002010B50023934203D0CC5CC45480
:1070B0000133F9E710BD02440346934202D003F8BE
:1070C000011BFAE770470000FEE700BFF8B500BFFC
:1070D000F8BC08BC9E467047F8B500BFF8BC08BCB9
:1070E0009E4670470101000000000000606701003B
:1070F000000000000101000000300000010000005D
:107100000000000001000000010001000500000077
:107110000000000040420F000501000000000000D8
:107120000000000001010000000000006067010095
:107130000000000000C0FF00E0FF0300FFFF00F0C0
:1071400000C0FF00E0FF0300FFFF00E000E0FF00E1
:10715000E0FF0300FFFF00E000E07F00E0FF07002A
:10716000FFFF00C000F07F00E0FF0700FFFF00C04E
:1071700000F07F00E0FF0700FFFF008000F83F0005
:10718000E0FF0F00FFFF000000FC3F00E0FF0F00EA
:10719000FFFF000000FC3F00E0FF0F00FEFF0000CB
:1071A00000FE3F00E0FF0F00FEFF000000FE1F009A
:1071B000E0FF1F00FCFF000000FF1F00E0FF1F00BA
:1071C000FCFF000000FF1F00E0FF1F00F8FF0000B1
:1071D00080FF1F00E0FF1F00F0FF0000C0FF0F0056
:1071E000E0FF3F00F0FF0000C0FF0F00E0FF3F00A6
:1071F000E0FF0000E0FF0F00E0FF3F00E0FF0000C5
:10720000E0FF0F00E0FF3F00C0FF0000F0FF0700BD
:10721000E0FF7F0080FF0000F0FF0700E0FF7F003D
:1072200080FF0000F8FF0700E0FF7F0000FF010083
:10723000FCFF0300E0FF7F0000FF0700FCFF0300EE
:10724000E0FFFF0000FE0700FEFF0300E0FFFF007D
:1072500000FE1F00FEFF0300E0FFFF0000FC1F0018
:10726000FFFF0100E0FFFF0100F83F00FFFF01808A
:10727000E0FFFF0100F8FF00FFFF0180E0FFFF01DA
:1072800000F0FF01FFFF01C0E0FFFF0100F0FF037E
:10729000FF7F00C0E0FFFF0300E0FF07FF3F00E0CB
:1072A000E0FFFF0300E0FF07FF1F00E0E0FF1F001B
:1072B00000C0FF1FFF0F00F0007F00000080FF3FB5
:1072C000FF0700F8007C00000000FF3FFF0300F80C
:1072D000007800000000FFFFFF0100FC00700000CC
:1072E0000000FFFFFF0000FC006000000100FFFF46
:1072F0007F0000FE000000000300FFFF3F0000FED3
:10730000000000000F00FFFF1F0000FF0000000052
:107310001F00FFFF0F0080FF000000001F00FFFFA5
:10732000070080FF000000007F00FEFF0300C0FF99
:10733000000000007F00F8FF0100C0FFF001000026
:107340007F00F0FF0000E0FFF00100007F00C0FFC1
:107350000000E07FF00300003F0000FF0000F03F6E
:10736000F00300003F0000FC0000F81FF00F0000D9
:107370003F0000F800C0F80FFF0FFCFF3F0000E0E7
:1073800000F0FC07FF0FFFFF3FFF008000FCFC0345
:10739000FF00FFFFFEFF000000FEFC0100000000F8
:1073A000FCFF000080FFFC000300E0FF7000000015
:1073B000E0FF780003C0FCFF40030000F0FF39004D
:1073C00003E0F8FF80030000FCFF190003E0E0FF8A
:1073D00080030000FFFF080001E080FF8003000041
:1073E000FFFF00C0304000FE00030000FFFF00E090
:1073F0003000003800000300FFFF00F838000000F4
:1074000000003F00FF7F00FE7C0000000000FF0343
:10741000FF0780FF7C0000000000FF3FFF0080FFAF
:107420007F0000000300FFFF0F0080FF3F0000000F
:107430001F00FFFF000000FF3E000000FF00FFFFF5
:107440000000001F180000007F3CFFFF000000004C
:10745000000000007FFCFFFF0000000000000300B0
:107460007FFEFFFF0000000000100700FFFCFFFF91
:107470000000000000001F00FFC0FFFF0000000030
:1074800000007F00FF00FFFF000000000000F0018F
:107490007F00FFFFFFFF00FF0000800100000000F1
:1074A000FFFF80FF0000000000000000FFFFE0FF82
:1074B0000000000000000000FFFFFCFF00000000D3
:1074C00000000000FFFF8FFF000000000000000030
:1074D000FFFF0FF80000000000000000FFFF0FC0DA
:1074E0000080000000000000FCFF0F0000E0000032
:1074F00000180000C0FF070000F80000001800009E
:1075000000FC000000FE00000E18000000C000009B
:10751000003F00000F3800C000000000800F800115
:107520000F7800FC000000028007E003C7F9C0FFED
:1075300000000003C001E107C1FFF8FF0000800167
:10754000E000E307C0FFFF7F000080012000C707C5
:10755000C0F3FF1F0000C0000000870100E0FF0F24
:107560000000E0000000070000C0FF030000600012
:10757000000000000000FF010000600000000000AB
:107580000001FF00000030000000000000017F004B
:10759000000030000000000080007F00000030008C
:1075A0000000000080003F000000300000000000EC
:1075B00040001F000809110805000000000000003D
:1075C00040420F0005010000000000000000000024
:1075D0000100010001000100430000001000002034
:0475E00000000000A7
:0875E40070CBFF7F01000000E5
:1075EC00006CDC0200800000001000000C000000A9
:1075FC00000000000000000000000000000000007F
:10760C00000000000000000000000000000000006E
:10761C00D875000000000000000000000000000011
:10762C00000000000000000000000000000000004E
:10763C00000000000000000000000000000000003E
:10764C00000000000000000000000000000000002E
:08765C0025410000014100007E
:04000003000064C1D4
:00000001FF
