:1040000000000220A55B0000DB5B0000DD5B000020
:10401000DF5B0000E15B0000E35B0000D95B0000B8
:10402000D95B0000D95B0000D95B0000E55B0000B4
:10403000E75B0000D95B0000E95B0000EB5B000080
:10404000ED5B0000EF5B0000F15B0000F35B000044
:10405000F55B0000F75B0000F95B0000FB5B000014
:10406000FD5B0000FF5B0000015C0000035C0000E2
:10407000055C0000075C0000095C00000B5C0000B0
:104080000D5C00000F5C0000115C0000135C000080
:10409000155C0000175C0000195C00001B5C000050
:1040A0001D5C00001F5C0000215C0000235C000020
:1040B000255C0000275C00003D5E00002B5C0000DA
:1040C0002D5C00002F5C0000315C0000335C0000C0
:1040D000355C0000375C0000395C00000000000027
:1040E00000000000000000000000000000000000D0
:1040F00000000000000000000000000000000000C0
:1041000010B5054C237833B9044B13B10448AFF311
:1041100000800123237010BD740000200000000007
:104120008C64000008B5064B1BB106480649AFF386
:1041300000800648036813B1054B03B1984708BDDA
:10414000000000008C640000780000207400002053
:1041500000000000154B002B08BF134B9D46A3F534
:10416000803A00218B460F461348144A121A02F077
:1041700051F90F4B002B00D098470E4B002B00D06D
:1041800098470020002104000D000D48002802D0AF
:104190000C48AFF3008002F017F92000290000F06E
:1041A0008DFB02F0FDF800BF0000080000000220B7
:1041B00000000000000000007400002084050020C2
:1041C000000000000000000080B483B000AF786001
:1041D00039607B683A685A620C37BD465DF8047BEB
:1041E000704700BF80B400AF00BFBD465DF8047BE0
:1041F000704700BF80B584B000AF78607A6813461E
:104200009B001344DB001C3BFB6009480021FFF7C7
:10421000DBFF074B01225A6000BF054B5A6AFB685F
:104220009A42FAD3024B02225A601037BD4680BD33
:104230000000014080B500AF00F08AF800F09EF861
:1042400000F010F800F04AF800F0ACF800F0C0F808
:1042500000F0FCF800F038F900F054F900F070F9C3
:1042600080BD00BF80B500AF5120042101F090F85F
:104270001348022101F08CF81248012100F09EFE43
:104280001148012100F09AFE1048012100F096FE2D
:104290000F48012100F092FE0E48012100F08EFE31
:1042A0000D48012100F08AFE00200121012201F0C9
:1042B000BDF902200121012201F0B8F980BD00BF43
:1042C0000200060000B2020000C202003014080022
:1042D000000202000012020000D20200B0B586B057
:1042E00000AF1948012100F069FE002001210122E0
:1042F00001F09CF90120002101F0B2FA134B3C1DA2
:104300001D460FCD0FC42B68236000233B71012392
:104310007B710123BB714FF480533B812023FB60F1
:1043200000233B7501237B750023BB7500233B6194
:104330003B1D184600F0ECFB0020002100F05CFC67
:104340001837BD46B0BD00BF004304004064000004
:1043500080B500AF074B074A126822F003021A60CB
:10436000044B044A126822F00C021A60024801F061
:104370001BFD80BD00800C40006CDC0280B400AFEF
:10438000074B074A126822F4C0521A60044B044AD1
:10439000126822F400521A60BD465DF8047B704733
:1043A00000800C4080B582B000AF084A3B1D1188E8
:1043B000927819809A7000237B710123BB713B1D99
:1043C000184601F061FA0837BD4680BD546400000C
:1043D000B0B588B000AF1B4B07F108041D460FCDE8
:1043E0000FC495E8030084E803004FF4E1333B6118
:1043F00005233B7501237B750023BB7500233B839D
:104400000023BB760023FB7600233B7707F10803EC
:104410000D48194601F0D0FA00233B7100237B714F
:104420000023BB710023FB7100237B710023BB7150
:104430000023FB713B1D0448194601F021FB203786
:10444000BD46B0BD5864000000C00040B0B588B0A3
:1044500000AF1B4B07F108041D460FCD0FC495E8B4
:10446000030084E803004FF4E1333B6105233B750F
:1044700001237B750123BB7500233B830023BB769F
:104480000023FB7600233B7707F108030D4819460C
:1044900001F092FA00233B7100237B710023BB7172
:1044A0000023FB7100237B710023BB710023FB7190
:1044B0003B1D0448194601F0E3FA2037BD46B0BD64
:1044C0005864000000C4004090B585B000AF0A4BAE
:1044D0003C460FCB84E80F0001233B7001237B7027
:1044E000064BBB6001233B733B460548194601F070
:1044F00065F91437BD4690BD70640000DDFB050012
:1045000000A0004090B585B000AF0A4B3C460FCBF1
:1045100084E80F0001233B7001237B70064BBB60D6
:1045200001233B733B460548194601F047F9143710
:10453000BD4690BD70640000DDFB050000A4004096
:1045400080B400AFB04BB04A126842F003021A6068
:10455000AD4BAD4A526822F00F0242F001025A60A0
:10456000A94BA94A526822F0F00242F040025A6078
:10457000A54BA54A526822F4706242F480625A60E8
:10458000A14BA14A926822F00F0242F001029A6008
:104590009D4B9D4A926822F0F00242F030029A60F0
:1045A000994B994AD26842F40072DA60964B964A67
:1045B000926822F4706242F440729A60924B924A7E
:1045C000D26842F48062DA608F4B8F4A526A42F0BE
:1045D00003025A628C4B8C4A926C42F003029A643A
:1045E000894B894AD26C22F4702242F43022DA6478
:1045F000854B854A526D42F010025A65824B824AC1
:10460000D26C22F4700242F43002DA647E4B7E4AAD
:10461000526D42F020025A657B4B7B4AD26C22F0ED
:10462000706242F03062DA64774B774A526D42F042
:1046300040025A65744B744AD26C22F0704242F0C8
:104640003042DA64704B704A526D42F080025A6513
:104650006D4B6D4AD26E42F00302DA666A4B6A4ACB
:10466000126F22F00F0242F004021A67664B664A8C
:10467000126F22F0F00242F010021A67624B624A97
:10468000126F22F4706242F480621A675E4B5E4AD7
:10469000126F22F4704242F480421A675A4B5A4A0F
:1046A000126F22F4702242F480321A67564B564A37
:1046B000126F22F4700242F480021A67524B524A7F
:1046C000926F42F020029A674F4B4F4A126F22F0CE
:1046D000706242F080721A674B4B4B4A126F22F0A5
:1046E000704242F080421A67474B474A926F42F04D
:1046F00080029A67444B444A526F22F00F0242F004
:1047000003025A67404B404A926F42F480729A67A4
:104710003D4B3D4AD2F8902042F00302C3F890206E
:10472000394B394AD2F8982022F00F0242F00402A5
:10473000C3F89820344B344AD2F8982022F0F00283
:1047400042F04002C3F898202F4B2F4AD2F898200D
:1047500022F4706242F48062C3F898202A4B2A4AFD
:10476000D2F8982022F4704242F48052C3F8982084
:10477000254B254AD2F8982022F4702242F4802258
:10478000C3F89820204B204AD2F8982022F47002D7
:1047900042F48002C3F898201B4B1B4AD2F8B42085
:1047A00042F00302C3F8B420174B174AD2F8B820DE
:1047B00022F00F0242F00402C3F8B820124B124A52
:1047C000D2F8B82022F0F00242F01002C3F8B8206C
:1047D0000D4B0D4AD2F8B82022F4706242F4806288
:1047E000C3F8B820084B084AD2F8202122F003026F
:1047F000C3F82021054B054A926B22F4E06242F493
:1048000000729A6304E000BF0060004000A0004016
:10481000154B154A926B42F003029A63134B134AED
:10482000926B42F003029A63114B114A926A22F48E
:10483000E06242F400729A620E4B0E4A526D42F0F0
:104840000F025A650C4B0C4A526D22F4E06242F49E
:1048500080725A65084B084A526D42F00F025A6541
:10486000BD465DF8047B704700A0004000A40040F6
:104870000060084000C0004000C4004080B582B025
:1048800000AF0C4B1B687B603B46184601F024F8D8
:104890007B681B0E0F2B0AD93B78032B07D1064BE5
:1048A000054A126822F0500242F010021A600837DE
:1048B000BD4680BDFC81E00FC0800C4080B58AB051
:1048C00002AFFFF7DBFFFFF7B5FCFFF78BFC01F052
:1048D000DBFB01F05DFDFA20FFF78CFC4AF25A5336
:1048E0003B8145F6A5237B814AF25A53BB8145F6AD
:1048F000A523FB8108237B7008233B7007F1080385
:104900007B600A23FB6114E0F8690A213B460CCB6B
:1049100001F0C4FC002001F0BFFB3B781A467B7815
:1049200000210091F8690A2101F04CFCFB69013378
:10493000FB61FB694F2BE7D90A23BB6114E05020D0
:10494000B9693B460CCB01F0A9FC002001F0A4FBA7
:104950003B781A467B78002100915020B96901F01C
:1049600031FCBB690133BB61BB694F2BE7D95023D5
:104970007B6114E0786950213B460CCB01F08EFC42
:10498000002001F089FB3B781A467B7800210091DA
:104990007869502101F016FC7B69013B7B617B69E2
:1049A0000A2BE7D850233B6114E00A2039693B46C3
:1049B0000CCB01F073FC002001F06EFB3B781A4633
:1049C0007B78002100910A20396901F0FBFB3B69EB
:1049D000013B3B613B690A2BE7D892E780B487B083
:1049E00000AFF860B9607A60FB6803F10473DA0025
:1049F000BB6813449B007B617B697A681A601C3733
:104A0000BD465DF8047B704780B483B000AF78602A
:104A1000034B7A681A630C37BD465DF8047B704718
:104A20000010084080B582B000AF0346FB71FB79EF
:104A3000002B05D00E4B1B6803F00303002B05D1A0
:104A4000FB7983F00103DBB2002B00D000BFFB79C0
:104A5000002B05D0064803210022FFF7BFFF04E02A
:104A6000034803210122FFF7B9FF0837BD4680BD87
:104A70000010084080B582B000AF0346FB71FB799F
:104A8000034800211A46FFF7A9FF0837BD4680BD3D
:104A90003810084080B487B000AF78607B68002B86
:104AA00004D07B68B3F5004F00D800BF7B683B6142
:104AB0003B69B3FA83F3FB60FB68DBB2C3F11F030E
:104AC0007B617B6918461C37BD465DF8047B7047E7
:104AD00080B483B000AF78600C4B9B6B03F0010394
:104AE000002B05D1094B1B6803F44053002B00D069
:104AF00006E000BF054BDA6B7B681340002BF9D151
:104B00000C37BD465DF8047B704700BF00100840BD
:104B100080B584B000AF78607B689B68002B04D0C0
:104B20007B689B68802B00D800BF7B681B7883F074
:104B30000103DBB2002B07D17B681B78002B04D06C
:104B40007B685B78002B00D000BF7B689B88B3F547
:104B5000405F08D17B689B88B3F5405F04D17B68D8
:104B60009B7C002B00D100BF7B689B681846FFF739
:104B700091FFF8607B681B78002B02D00120FFF7C3
:104B800079FF0120FFF7A4FF1A4B7A68927C5A60E4
:104B90007B685B7843F00803DBB21A467B689B783E
:104BA0009B001A437B685B7C1B011A437B68DB68B4
:104BB0005B011A43FB681B021A437B689B881A43FC
:104BC0007B681B7C9B031343BB604FF0FF30FFF7F8
:104BD0001BFF084BBA681A607B681B78002B05D056
:104BE0000120FFF71FFF0020FFF744FF1037BD46ED
:104BF00080BD00BF0010084080B582B000AF786073
:104C000039600220FFF764FF024B3A68DA60083728
:104C1000BD4680BD0010084080B487B000AFF8608A
:104C2000B9607A60FB6803F10473DA00BB6813446F
:104C30009B007B617B697A681A601C37BD465DF812
:104C4000047B704780B483B000AF1D4BDB6C03F472
:104C50007F031B0CFB71FB794A2B04D04B2B26D016
:104C6000482B22D025E0174B1B699BB203F03F0372
:104C70009BB21B02BB80134B9B699BB203F0F003FA
:104C80009AB2BB881343BB800E4BDB6903F0F00381
:104C90001B099AB2BB881343BB80BB88B3F5017F65
:104CA00001D3094B06E0094B04E0084B02E0064B38
:104CB00000E0002318460C37BD465DF8047B7047C2
:104CC000B081E00FD0FF0FE000366E010048E80130
:104CD00080B485B000AF7860284BDB6B002B0CBF35
:104CE00000230123BB72254B41F67132DA63234B5B
:104CF0005B6803F00703FB60FB68012B01D9042B01
:104D000002D10023FB7202E00123FB7200BF7A682C
:104D10001B4B9A4207D9FB7A002B01D0052300E0F8
:104D20000423FB6016E07A68154B9A420BD87A6828
:104D3000144B9A4207D9FB7A002B01D0032300E0E1
:104D40000123FB6006E0FB7A002B01D0022300E088
:104D50000023FB60094B094A526822F00701FA68F8
:104D60000A435A60BB7A002B02D0044B0022DA635C
:104D70001437BD465DF8047B704700BF00000C404F
:104D80000048E8010024F40080B582B000AF044B75
:104D90007B607868FFF79CFF0837BD4680BD00BF89
:104DA000006CDC0280B582B000AF104800F03EFA23
:104DB0000346FB70FB78032B07D0082B09D0022B8E
:104DC0000BD101F021F878600AE001F009F8786071
:104DD00006E000F065FF786002E000237B6000BF22
:104DE0007B6818460837BD4680BD00BF05231C0000
:104DF00080B483B000AF1A4B5B6903F4E063B3F592
:104E0000007F14D0B3F5007F05D8002B15D0B3F583
:104E1000807F0FD01AE0B3F5C06F14D0B3F5E06F08
:104E20000ED0B3F5407F11D10E4B7B6011E00E4BDD
:104E30007B600EE00D4B7B600BE00D4B7B6008E070
:104E40000C4B7B6005E00C4B7B6002E000237B6039
:104E500000BF7B6818460C37BD465DF8047B704781
:104E600000800C4040420F00C0CF6A00C0D8A700AD
:104E7000809FD500406F4001003FAB0180B582B0FC
:104E800000AF124800F0D2F90346FB70FB78072B05
:104E90000FD0082B11D100F003FF78600C4B1B687A
:104EA00003F4E0339B0B01337A68B2FBF3F37B60CE
:104EB00006E0FFF79DFF786002E000237B6000BF03
:104EC0007B6818460837BD4680BD00BF0400180047
:104ED00000800C4080B584B000AF78607B68002B08
:104EE00002D07B68012B00D100BF264B9A6A7B68F9
:104EF0005B0022FA03F303F00303032B3AD801A269
:104F000052F823F0554F0000154F00001D4F0000D0
:104F1000254F000000F064FFF8602EE000F074FF01
:104F2000F8602AE0174B5B6803F48073002B05D10F
:104F3000144B1B6803F08043002B05D000F08CFE5F
:104F400003469B08FB6018E000F086FE03465B0802
:104F5000FB6012E00B4B9A6A7B6804339B0022FAD9
:104F600003F3002B03D000F045FFF86005E00023B9
:104F7000FB6002E00023FB6000BFFB6818461037AF
:104F8000BD4680BD00800C4080B483B000AF786027
:104F9000094B5B6D03F00103002B00D006E000BF5E
:104FA000054B1A6D7B681340002BF9D10C37BD46B9
:104FB0005DF8047B704700BF00800C4090B587B05F
:104FC00000AF78600B46FB7000233B617B681B0AD7
:104FD00003F00F03013B052B4AD801A252F823F03E
:104FE000F94F0000FF4F0000055000003350000053
:104FF0003D500000475000001F4B7B6126E01F4BD7
:105000007B6123E01E4B7B611E4800F047F804469D
:10501000FFF718FE03469C420AD91B481E210122B5
:10502000FFF7FAFD194808210122FFF7F5FD0DE011
:105030000CE0174B7B6101233B6107E0154B7B6163
:1050400010233B6102E0144B7B6100BF7B681B0BAC
:1050500003F01F03FB603B69002B02D03869FFF7A8
:1050600093FFFB787869F9681A46FFF7D5FD00E0F1
:1050700000BF1C37BD4690BD08800C4044800C40EA
:1050800040800C402000040000800C4004800C4054
:1050900058800C4060800C4078800C4080B584B013
:1050A00000AF78607B6803F47813B3F5801F7AD083
:1050B000B3F5801F15D8B3F5802F4FD0B3F5802FEF
:1050C00005D8002B26D0B3F5003F31D0A4E0B3F5CE
:1050D000002F4CD0B3F5202F57D0B3F5C02F41D0BF
:1050E0009AE0B3F5B01F7DD0B3F5B01F06D8B3F585
:1050F000901F65D0B3F5A01F67D08DE0B3F5D01F2A
:1051000000F08280B3F5E01F00F08280B3F5C01F8D
:1051100076D081E000F0C4FDF860434B1B6803F4D7
:10512000E0339B0B0133FA68B2FBF3F3FB6076E0EC
:1051300000F0B6FDF8603C4B1B6803F4E0339B0BBA
:105140000133FA68B2FBF3F3FB60374B9B6803F063
:105150000F03FA6822FA03F3FB6060E000F07CFDC5
:10516000F8605CE00020FFF7B5FEF86057E0002033
:10517000FFF7B0FEF8602C4B9B6E03F0F0031B09A9
:10518000FA6822FA03F3FB6049E00020FFF7A2FE71
:10519000F860254B9B6E03F470631B0AFA6822FAD1
:1051A00003F3FB603BE00020FFF794FEF8601E4B2A
:1051B0009B6E03F00303FA6822FA03F3FB602EE010
:1051C0000120FFF787FEF86029E00120FFF782FE4B
:1051D000F860154B1B6F03F00303FA6822FA03F320
:1051E000FB601CE00120FFF775FEF8600E4B1B6FA3
:1051F00003F030031B09FA6822FA03F3FB600EE0A8
:10520000FFF73CFEF8600AE0FFF7F2FDF86006E009
:10521000FFF7C8FDF86002E00023FB6000BFFB68F9
:1052200018461037BD4680BD00800C4080B487B062
:1052300000AF78600123FB754FF470533B617B68CE
:1052400003F00F03FB60FB68013B042B00F293802B
:1052500001A252F823F000BF6D520000A3520000DB
:10526000DF5200001B53000041530000474BDA6A35
:105270003B691340B3F5805F09D0B3F5005F03D0FD
:10528000B3F5006F06D008E00223FB7508E00323A6
:10529000FB7505E00423FB7502E00523FB7500BFE9
:1052A0006CE03A4B9B6A03F00303022B06D0032BFE
:1052B00007D0012B08D10323FB750FE00223FB75F8
:1052C0000CE00623FB7509E0304B9B6A03F4803346
:1052D000002B02D00923FB7500E000BF4EE02B4BF2
:1052E0009B6A03F00C03082B06D00C2B07D0042B71
:1052F00008D10323FB750FE00223FB750CE00623A6
:10530000FB7509E0214B9B6A03F48013002B02D04C
:105310000923FB7500E000BF30E00723FB751B4B42
:105320001B6803F08053002B03D0B3F1805F03D0E0
:1053300024E00723FB7502E00823FB7500BF1DE096
:10534000124BDB6A03F46033B3F5803F06D0B3F54C
:10535000003F06D0B3F5004F06D008E00223FB75EE
:1053600008E00323FB7505E00823FB7502E0012339
:10537000FB7500BF02E00023FB7500BFFB7D1846F4
:105380001C37BD465DF8047B704700BF00800C40B1
:1053900090B589B000AF78600B46FB700323FB61CA
:1053A0000323FB7600237B617B6803F00F03FB6024
:1053B000FB68013B042B00F22A8101A252F823F082
:1053C000D5530000A1540000A15400007D550000F9
:1053D000A7550000FB78023B072B00F21A8101A2BF
:1053E00052F823F0055400000F5400001954000037
:1053F0006D540000135600001356000013560000B1
:10540000775400000423FB610023FB7634E0032380
:10541000FB610123FB762FE00223FB610223FB7675
:1054200000F0B6FC0446FFF70DFC03469C4213D97E
:105430007B4A7B4B1B6843F0804343F0600313605F
:10544000774B1B6C03F01003002B0ED0754808211E
:105450000122FFF7E1FB0FE0714B714A126822F065
:10546000600242F020021A6006E005E00123FB61C1
:105470000323FB7600E000BFFB7E184601210122DA
:1054800000F0D4F8FFF780FC654BFA695A6200F02F
:105490002DF900F0E1FBB860B868FFF719FCBBE03C
:1054A000FB78013B082B00F2B68001A252F823F0F2
:1054B000D5540000DB540000EB54000017560000E8
:1054C00017560000FB540000175600001756000046
:1054D0003355000000233B6130E000200121012210
:1054E00000F0A4F802233B6128E001200121012201
:1054F00000F09CF801233B6120E04B48042101228D
:10550000FFF78AFB03233B6100F0A6FBB860FFF7BF
:1055100099FB0246BB689A420AD241481E210122E9
:10552000FFF77AFB3F4808210122FFF775FB05E0F2
:1055300004E000233B6101237B6100BFFB68022B79
:105540000DD1374A364B9B6A23F4803323F0030393
:10555000396919437B691B040B4393625CE0304A51
:105560002F4B9B6A23F4801323F00C0339698900C5
:1055700019437B691B050B4393624DE0FB78072BB6
:1055800002D0082B07D047E0254B254A126822F0AD
:1055900080521A6006E0224B214A126842F0805283
:1055A0001A6000BF38E0FB78032B14D0082B22D000
:1055B000022B00D030E000200121012200F036F85B
:1055C000174B40225A6200BF154BDB6A03F480334D
:1055D000002BF9D01AE001200121012200F026F869
:1055E0000F4B60225A6200BF0D4BDB6A03F400339D
:1055F000002BF9D00AE00A4B20225A6200BF084B68
:10560000DB6A03F40043002BF9D000BF04E000BFC5
:1056100002E000BF00E000BF2437BD4690BD00BFE0
:1056200000800C4004800C4040800C4080B586B067
:1056300000AF13460246FA710A46BA717B71FB79D4
:10564000052B4CD801A252F823F000BF9D56000054
:105650008F5600007356000065560000815600000A
:10566000DF56000001233B610223FB6002237B61C4
:105670001EE004233B610823FB6008237B6117E0E5
:1056800010233B612023FB6020237B6110E040233B
:105690003B618023FB6080237B6109E04FF48073D2
:1056A0003B614FF40073FB604FF400737B6100BFFC
:1056B000BB79002B0DD00C4B3A691A627B79002B19
:1056C0000AD000BF084BDA6A7B691340002BF9D07F
:1056D00002E0054BFA681A6200F008F800E000BF2B
:1056E0001837BD4680BD00BF00800C4080B400AFBD
:1056F000034BDA6A034B1A60BD465DF8047B7047C2
:1057000000800C409000002080B487B000AFF860AB
:10571000B9607A60FB6803F10473DA00BB68134474
:105720009B007B617B697A681A601C37BD465DF817
:10573000047B704780B586B000AFF860B9607A60CE
:10574000FB707B68002B00D130E0FB681B6823F402
:105750004072FB681A60FB681A68FB781B021A43E8
:10576000FB681A60BB68002B03D11248FFF796FC58
:10577000B860FB78104AD35C3B617B689B00BA68D9
:10578000D21A3B69796801FB03F3B2FBF3F37B6147
:10579000FB681B6803F00203002B04D07B69002B1D
:1057A00001D101237B61FB687A691A611837BD4614
:1057B00080BD00BF108102008064000080B582B00F
:1057C00000AF786039607A68174B9A4203D07A68E4
:1057D000164B9A4200D100BF7B6800225A637B6857
:1057E000134A1A637A683B685B78002B01D0002368
:1057F00000E00123104601211A46FFF785FF3B68B0
:1058000059683B689A683B681B7B7868FFF792FF92
:105810007A683B681B78104600211A46FFF774FF30
:105820000837BD4680BD00BF00A0004000A4004076
:10583000CFFF010080B487B000AFF860B9607A6034
:10584000FB6803F10473DA00BB6813449B007B61BF
:105850007B697A681A601C37BD465DF8047B704727
:1058600080B582B000AF02460B46FA71BB71FA797F
:10587000BB79044811461A46FFF7DCFF0837BD46DE
:1058800080BD00BF00A00C4080B485B000AF786040
:105890007B681B78002B02D00123FB6001E0002312
:1058A000FB607B685B78002B03D0FB6843F002034E
:1058B000FB607B689B78002B03D0FB6843F00403FC
:1058C000FB60044BFA681A601437BD465DF8047B30
:1058D000704700BF0000084080B485B000AF78601A
:1058E000194B5B69DBB203F00F03DBB29B00FB7368
:1058F000154B1B6903F0C0039B09DAB2FB7B134312
:10590000FB737B68FA7B9A700F4B1B69DBB203F069
:105910003F03DAB27B685A700B4B9B69DBB223F012
:105920000F03FB73084BDB6903F0F0031B09DAB2CA
:10593000FB7B1343FB737B68FA7B1A701437BD46FD
:105940005DF8047B704700BFD0FF0FE080B586B0E4
:1059500000AFF860B9607A60BB68002B03D11448CF
:10596000FFF79CFBB860BB685B007B617A687B6972
:105970001344013B7B617A697B68B2FBF3F37B6183
:105980007B69043B7B617B699B017B617B69C033E5
:105990007B617B6923F0FF037B617A69054B1340D0
:1059A0007B61FB687A695A611837BD4680BD00BFCC
:1059B00010810200C0FF1F0080B582B000AF786088
:1059C00039607A682B4B9A4207D07A682A4B9A4200
:1059D00003D07A68294B9A4200D100BF786800F062
:1059E0007FF87B681A683B681B8A43F001039BB20F
:1059F00019463B689B7B002B02D04FF4806300E08C
:105A000000230B431A437B681A607B6819683B6864
:105A10009B7C002B01D0102200E000223B681B7D04
:105A2000002B02D04FF0005300E00023134341EA63
:105A300003027B681A603B681B7B43F480527B68DF
:105A40005A603B685A683B689B68786811461A46FA
:105A5000FFF77CFF3B685B7B002B02D07B6810224A
:105A6000DA603B681B781A467B68DA600837BD4607
:105A700080BD00BF00C0004000C4004000C800401E
:105A800080B485B000AF786039607B689B6823F094
:105A90007703FB603B681B78002B03D0FB6843F067
:105AA0004003FB603B689B78002B03D0FB6843F00E
:105AB0002003FB603B685B78002B03D0FB6843F05E
:105AC0001003FB603B68DB78FA681343FB607B687C
:105AD000FA689A601437BD465DF8047B704700BFD2
:105AE00080B483B000AF78607A68204B9A4207D0C8
:105AF0007A681F4B9A4203D07A681E4B9A4200D1B3
:105B000000BF7B6840F6AA62DA607B6800221A60F8
:105B10007B6841F205025A607B6800229A607B68CC
:105B200000225A617B680022DA647B6841F6F972D0
:105B30009A647B6800225A657A680C4B9A4202D1BB
:105B40007B6800221A657B6800229A657A68084B98
:105B50009A4203D07A68074B9A4202D17B680022AE
:105B6000DA650C37BD465DF8047B704700C0004025
:105B700000C4004000C8004080B483B000AF78602B
:105B80000B467B8000BF7B681B6903F04003002B42
:105B9000F9D07A887B68DA630C37BD465DF8047B00
:105BA000704700BF074880470749084A084B9B1ABF
:105BB00040F30580043BC858D0503FF7FBAF054881
:105BC00000470000D55D0000986400000000002040
:105BD0007400002055410000FEE7FEE7FEE7FEE707
:105BE000FEE7FEE7FEE7FEE7FEE7FEE7FEE7FEE78D
:105BF000FEE7FEE7FEE7FEE7FEE7FEE7FEE7FEE77D
:105C0000FEE7FEE7FEE7FEE7FEE7FEE7FEE7FEE76C
:105C1000FEE7FEE7FEE7FEE7FEE7FEE7FEE7FEE75C
:105C2000FEE7FEE7FEE7FEE7FEE7FEE7FEE7FEE74C
:105C3000FEE7FEE7FEE7FEE7FEE700BF80B400AF49
:105C4000044BDB6C1B0EDBB21846BD465DF8047BD3
:105C5000704700BFB081E00F80B582B000AF00F0A8
:105C60001FF878600C4B1B6803F4E0339B0B013387
:105C70007A68B2FBF3F37B60074B5B6803F00F03BA
:105C80007A6822FA03F37B60044B7A681A607B68B7
:105C900018460837BD4680BD00800C4080050020B6
:105CA00080B582B000AF2F4BDB6A03F47053B3F5BD
:105CB000805F0AD0B3F5005F03D0B3F5006F08D062
:105CC0000BE0294B1B687B6047E04FF400437B608F
:105CD00043E0264B1B687B603FE0224BDB6803F40C
:105CE000E063B3F5007F1BD0B3F5007F05D8002B30
:105CF00024D0B3F5807F16D02BE0B3F5806F09D0A8
:105D0000B3F5A06F03D0B3F5407F06D021E0184B68
:105D10007B6021E0174B7B601EE0174B7B601BE034
:105D2000164B7B6018E0FFF789FF0346122B02D960
:105D3000134B7B6010E0134B7B600DE0FFF77EFFA1
:105D40000346122B02D9104B7B6005E00F4B7B60A2
:105D500002E000237B6000BF00BF7B681846083765
:105D6000BD4680BD00800C400400002000000020E3
:105D7000003FAB01406F4001809FD500C0D8A70015
:105D800040B56400C0CF6A00804F120040420F004F
:105D900080B400AF034B1B681846BD465DF8047B1A
:105DA000704700BF0000002080B582B000AF78606F
:105DB000064B7A681A60064BDB6A03F40063002B1B
:105DC00001D0FFF749FF0837BD4680BD0000002025
:105DD00000800C4080B400AFBD465DF8047B704786
:105DE00080B400AF4FF400431846BD465DF8047B15
:105DF000704700BF80B400AF4FF47A731846BD46B9
:105E00005DF8047B704700BF80B400AF034B1B6894
:105E10001846BD465DF8047B704700BF04000020B3
:105E200080B483B000AF7860034B7A689A610C3716
:105E3000BD465DF8047B70470000084080B500AFA8
:105E40000220FFF7EDFF124B1B685A1C104B1A6023
:105E50000F4B1B683B2B1AD90D4B00221A600D4BC0
:105E60001B685A1C0B4B1A600A4B1B683B2B0ED944
:105E7000084B00221A60084B1B685A1C064B1A601C
:105E8000054B1B68172B02D9034B00221A6080BDFB
:105E900098000020940000200800002080B483B007
:105EA00000AF03463960FB71FB79052B03D83B68D3
:105EB0000F2B00D800BF0948FA793B68012101FA8D
:105EC00003F319461346DB0013449B0003441033CD
:105ED00059600C37BD465DF8047B70470060004098
:105EE00080B483B000AF03463960FB71FB79052BAA
:105EF00003D83B680F2B00D800BF0948FA793B68EC
:105F0000012101FA03F319461346DB0013449B00F9
:105F10000344103319600C37BD465DF8047B7047AD
:105F20000060004080B483B000AF00237B6007E0D6
:105F3000084B7A68002123F812107B6801337B60DC
:105F40007B68B3F5107FF3D30C37BD465DF8047B57
:105F5000704700BF9C00002080B584B000AF78601F
:105F600039607B68FB600023BB600BE0FB681B882B
:105F70000B481946FFF700FEFB680233FB60BB6865
:105F80000133BB60BA683B689A42EFD300BF044B51
:105F90001B6903F02003002BF9D01037BD4680BDEC
:105FA00000C0004080B586B000AF0B463A600246A4
:105FB000FA71BB7104200921FFF792FF0620FEF75A
:105FC00019F93B687B61FA7913465B0013449B0027
:105FD0007A6913447B61FB790133FB7100233B61D8
:105FE00019E0FA793B6913441B029BB243F00103A9
:105FF0009BB29BB2FB8107F10E0318460121FFF70C
:10600000ABFF78690621FFF7A7FF7B690C337B6143
:106010003B6901333B61BA793B699A42E1DC00207C
:106020000121FFF799FF0220FEF7E4F8042009217F
:10603000FFF734FF1837BD4680BD00BF80B582B082
:1060400000AF04200921FFF74BFF0620FEF7D2F82E
:106050000023FB800B4B1B78002B02D00423FB801A
:1060600001E00523FB80BB1D18460121FFF774FFEB
:106070000220FEF7BFF804200921FFF70FFF0837C1
:10608000BD4680BD7C05002080B500AFFFF74AFF0C
:10609000FFF7D4FF80BD00BF80B5ADF5936D00AFB5
:1060A0000246FB1D1A7007F10803C7F88834002365
:1060B000C7F8943411E0414BD7F8942433F81230E8
:1060C000DB4399B207F10803D7F8942423F81210A0
:1060D000D7F894340133C7F89434D7F89434B3F52F
:1060E000107FE8DBFB1D1B78002B19D000205F21FF
:1060F000D7F88824FFF756FF0023C7F890340AE04A
:106100002F4AD7F89034134400221A70D7F89034ED
:106110000133C7F89034D7F890345E2BF0DD49E0B6
:106120000023A7F88E340023A7F88C343EE0B7F89C
:106130008C34234AD35C002B38D00CE0B7F88E3473
:106140000133A7F88E34B7F88C24B7F88E34134493
:106150001B4A0021D154B7F88C24B7F88E3413446D
:10616000174AD35C1A46B7F88C14B7F88E340B4430
:106170005F2BCCBF00230123DBB21343002BDDD107
:10618000B7F88C34DAB2B7F88E34DBB21046194661
:10619000D7F88824FFF706FFB7F88C24B7F88E34B9
:1061A0001344A7F88C340023A7F88E34B7F88C3446
:1061B0005F2BBCD907F59367BD4680BD9C000020CE
:1061C0001C05002080B489B000AFF860B9607A6027
:1061D0003B60BB68BB6152E0FB68FB6133E0BA69BE
:1061E00013465B0013445B011A46FB6913441B0909
:1061F0005A00284B13447B61FB6903F00F033B619A
:10620000BB6A002B0DD07B691B889AB201213B69C8
:1062100001FA03F39BB213439BB29AB27B691A80D3
:106220000EE07B691B889AB201213B6901FA03F3F6
:106230009BB2DB439BB213409BB29AB27B691A803C
:10624000FB690133FB61FA687B681A44FB699A4277
:10625000C5D8BB691B09104AD25C1146BA6902F065
:106260000F02012000FA02F20A43002A0CBF0022AA
:106270000122D1B2084AD154BB690133BB61BA686B
:106280003B681A44BB699A42A6D82437BD465DF8DC
:10629000047B70479C0000201C05002080B48BB05C
:1062A00000AFF860B960394681E80C0000233B621A
:1062B00060E000237B623EE07A687B6A19093B78E4
:1062C000386A00FB03F31B090B445B0013441B8873
:1062D000FB837B6A03F00F03BB61FA8BBB6942FA55
:1062E00003F303F00103002B22D0FA687B6AD11874
:1062F000BA683B6A1A4413465B0013445B010B44C3
:106300001B095A00204B13447B61FA687B6A1344D3
:1063100003F00F033B617B691B889AB23B69012143
:1063200001FA03F39BB213439BB29AB27B691A80C2
:106330007B6A01337B623B781A467B6A9A42BBD800
:10634000BA683B6A13441B09104AD25C1146B8680C
:106350003A6A024402F00F02012000FA02F20A43F4
:10636000002A0CBF00220122D1B2084AD1543B6A54
:1063700001333B627B781A463B6A9A4299D82C37A4
:10638000BD465DF8047B70479C0000201C05002082
:1063900080B500AF04200821FFF7A2FD80BD00BF3B
:1063A00008B5074B044613B10021AFF30080054B3D
:1063B0001868836A03B19847204600F033F800BF9D
:1063C000000000008864000070B50E4B0E4D0024E4
:1063D000ED1AAD101E46AC4204D056F8242090476A
:1063E0000134F8E700F020F8084D094B0024ED1ABD
:1063F000AD101E46AC4204D056F82420904701341C
:10640000F8E770BD6C0000206C00002070000020D8
:106410006C00002002440346934202D003F8011BA3
:10642000FAE77047FEE700BFF8B500BFF8BC08BC4C
:106430009E467047F8B500BFF8BC08BC9E46704742
:106440000101000000300000010000000000000019
:106450000100000001000100050000000000000034
:1064600040420F0005010000000000000000000095
:106470000101000000000000606701000000000052
:1064800008091108430000000C0000200000000073
:08649000C4DCFF7F01000000E5
:10649800006CDC02008000000C000000000000001E
:1064A80000000000000000000000000000000000E4
:1064B80000000000000000000000000084640000EC
:1064C80000000000000000000000000000000000C4
:1064D80000000000000000000000000000000000B4
:1064E80000000000000000000000000000000000A4
:1064F800000000000000000000000000254100002E
:04650800014100004D
:0400000300005BA5F9
:00000001FF
