:100000000000022079380000AF380000B13800004D
:10001000B3380000B5380000B7380000AD38000034
:10002000AD380000AD380000AD380000B938000030
:10003000BB380000AD380000BD380000BF380000FC
:10004000C1380000C3380000C5380000C7380000C0
:10005000C9380000CB380000CD380000CF38000090
:10006000D1380000D3380000D5380000D738000060
:10007000D9380000DB380000DD380000DF38000030
:10008000E1380000E3380000E5380000E738000000
:10009000E9380000EB380000ED380000EF380000D0
:1000A000F1380000F3380000F5380000F7380000A0
:1000B000F9380000FB380000FD380000FF38000070
:1000C000013900000339000005390000073900003C
:1000D000093900000B3900000D3900000000000054
:1000E0000000000000000000000000000000000010
:1000F0000000000000000000000000000000000000
:1001000010B5054C237833B9044B13B10448AFF351
:1001100000800123237010BD740000200000000047
:10012000EC48000008B5064B1BB106480649AFF382
:1001300000800648036813B1054B03B1984708BD1A
:1001400000000000EC48000078000020740000204F
:1001500000000000154B002B08BF134B9D46A3F574
:10016000803A00218B460F461348144A121A04F0B5
:1001700073FB0F4B002B00D098470E4B002B00D089
:1001800098470020002104000D000D48002802D0EF
:100190000C48AFF3008004F039FB2000290002F086
:1001A0000DF804F01FFB00BF000008000000022053
:1001B000000000000000000074000020B4000020D7
:1001C000000000000000000080B400AF074B074AA9
:1001D000D26822F00202DA60044B044AD26842F08C
:1001E0000402DA60BD465DF8047B704700600040A1
:1001F00080B586B000AFAA239BB23B8004237B80EE
:100200007B6800221A707B68013301221A707B68B8
:10021000023300221A7003233B8102233B823B46B8
:100220000D48194603F03CF900BF0B4802F012FFDD
:100230000346002BF9D1FB6801331B787B617B6996
:100240001B027B61FB681B787A6913447B617B69C5
:1002500018461837BD4680BD00A0004090B585B057
:1002600000AF104B3C460FCB84E80F0001233B70DE
:1002700001237B700C4BBB6001233B733B460B4857
:10028000194602F0ABFEFFF7B3FF024640F22143EE
:100290009A4201D0002300E0012318461437BD46DE
:1002A00090BD00BF84480000DDFB050000A00040B9
:1002B00080B500AF00F07CF800F090F800F00EF888
:1002C00000F03CF800F09EF800F0DAF800F016F9C3
:1002D00000F032F900F04EF980BD00BF80B500AFEC
:1002E0005120042102F064FC0F48012102F076FA4B
:1002F0000E48012102F072FA0D48012102F06EFA57
:100300000C48012102F06AFA0B48012102F066FA5A
:1003100000200121012202F099FD02200121012289
:1003200002F094FD80BD00BF00B2020000C20200D6
:10033000000202000012020000D20200B0B586B036
:1003400000AF1948012102F049FA002001210122E1
:1003500002F07CFD0120002103F02AF9134B3C1D23
:100360001D460FCD0FC42B68236000233B71012372
:100370007B710123BB714FF480533B810123FB60F0
:1003800000233B7501237B750023BB7500233B6174
:100390003B1D184601F0CCFF0020002102F03CF884
:1003A0001837BD46B0BD00BF0043040094480000AC
:1003B00080B500AF074B074A126822F003021A60AB
:1003C000044B044A126822F00C021A60024803F03F
:1003D00055FB80BD00800C40006CDC0280B400AF97
:1003E000074B074A126822F4C0521A60044B044AB1
:1003F000126822F400521A60BD465DF8047B704713
:1004000000800C40B0B588B000AF1B4B07F108046A
:100410001D460FCD0FC495E8030084E803004FF498
:10042000E1333B6105233B7501237B750123BB75DC
:1004300000233B830023BB760023FB7600233B771E
:1004400007F108030D48194603F036F900233B7104
:1004500000237B710023BB710023FB7100237B71A0
:100460000023BB710023FB713B1D0448194603F0B8
:1004700087F92037BD46B0BDA848000000C0004045
:10048000B0B588B000AF1B4B07F108041D460FCD77
:100490000FC495E8030084E803004FF4E1333B61A7
:1004A00005233B7501237B750123BB7500233B832B
:1004B0000023BB760023FB7600233B7707F108037C
:1004C0000D48194603F0F8F800233B7100237B71B7
:1004D0000023BB710023FB7100237B710023BB71E0
:1004E0000023FB713B1D0448194603F049F92037EE
:1004F000BD46B0BDA848000000C4004090B585B01E
:1005000000AF0A4B3C460FCB84E80F0001233B7041
:1005100001237B70064BBB6001233B733B460548C0
:10052000194602F05BFD1437BD4690BDC04800007F
:10053000DDFB050000A0004090B585B000AF0A4B80
:100540003C460FCB84E80F0001233B7001237B70F6
:10055000064BBB6001233B733B460548194602F03E
:100560003DFD1437BD4690BDC0480000DDFB0500D1
:1005700000A4004080B400AFB04BB04A126842F013
:1005800003021A60AD4BAD4A526822F00F0242F0EE
:1005900001025A60A94BA94A526822F0F00242F0C7
:1005A00040025A60A54BA54A526822F4706242F498
:1005B00080625A60A14BA14A926822F00F0242F079
:1005C00001029A609D4B9D4A926822F0F00242F02F
:1005D00030029A60994B994AD26842F40072DA600C
:1005E000964B964A926822F4706242F440729A6086
:1005F000924B924AD26842F48062DA608F4B8F4A03
:10060000526A42F003025A628C4B8C4A926C42F05E
:1006100003029A64894B894AD26C22F4702242F414
:100620003022DA64854B854A526D42F010025A65D9
:10063000824B824AD26C22F4700242F43002DA64B5
:100640007E4B7E4A526D42F020025A657B4B7B4ABC
:10065000D26C22F0706242F03062DA64774B774AF3
:10066000526D42F040025A65744B744AD26C22F0CB
:10067000704242F03042DA64704B704A526D42F080
:1006800080025A656D4B6D4AD26E42F00302DA6603
:100690006A4B6A4A126F22F00F0242F004021A6794
:1006A000664B664A126F22F0F00242F010021A679F
:1006B000624B624A126F22F4706242F480621A67DF
:1006C0005E4B5E4A126F22F4704242F480421A6717
:1006D0005A4B5A4A126F22F4702242F480321A673F
:1006E000564B564A126F22F4700242F480021A6787
:1006F000524B524A926F42F020029A674F4B4F4A38
:10070000126F22F0706242F080721A674B4B4B4AB4
:10071000126F22F0704242F080421A67474B474AFC
:10072000926F42F080029A67444B444A526F22F023
:100730000F0242F003025A67404B404A926F42F464
:1007400080729A673D4B3D4AD2F8902042F00302F6
:10075000C3F89020394B394AD2F8982022F00F0282
:1007600042F00402C3F89820344B344AD2F898205F
:1007700022F0F00242F04002C3F898202F4B2F4A9B
:10078000D2F8982022F4706242F48062C3F8982074
:100790002A4B2A4AD2F8982022F4704242F480521E
:1007A000C3F89820254B254AD2F8982022F47022CD
:1007B00042F48022C3F89820204B204AD2F8982097
:1007C00022F4700242F48002C3F898201B4B1B4AAB
:1007D000D2F8B42042F00302C3F8B420174B174AF2
:1007E000D2F8B82022F00F0242F00402C3F8B82079
:1007F000124B124AD2F8B82022F0F00242F0100256
:10080000C3F8B8200D4B0D4AD2F8B82022F470621C
:1008100042F48062C3F8B820084B084AD2F820217D
:1008200022F00302C3F82021054B054A926B22F403
:10083000E06242F400729A6304E000BF006000408E
:1008400000A00040154B154A926B42F003029A63D8
:10085000134B134A926B42F003029A63114B114AF5
:10086000926A22F4E06242F400729A620E4B0E4ADF
:10087000526D42F00F025A650C4B0C4A526D22F435
:10088000E06242F480725A65084B084A526D42F0A9
:100890000F025A65BD465DF8047B704700A000401A
:1008A00000A400400060084000C0004000C40040B8
:1008B00090B589B000AF78601823BB810123FB811C
:1008C0003B690A221A703B69013300221A70022325
:1008D000BB8207F10C037848194602F0E1FD00BF26
:1008E000754802F0B7FB0346002BF9D11823BB81F2
:1008F0000123FB813B690A221A703B6901330F22F5
:100900001A700223BB8207F10C036B48194602F0F0
:10091000C7FD00BF684802F09DFB0346002BF9D1DC
:100920001823BB810423FB813B6910221A70012329
:10093000BB820323BB8307F10C035F48194602F017
:10094000AFFD00BF5C4802F085FB0346002BF9D1E8
:10095000BB691B78803B184603F0A0FD0346184690
:1009600003F02CFA02460B46104619464FF00002DF
:10097000524B03F0A1FB02460B46104619464FF0BE
:1009800000024F4B03F0BCF802460B4610461946D6
:1009900003F07AFC02467B681A607B681C1DBB6909
:1009A00001331B78803B184603F078FD0346184658
:1009B00003F004FA02460B46104619464FF00002B7
:1009C0003E4B03F079FB02460B46104619464FF0AA
:1009D00000023B4B03F094F802460B4610461946C2
:1009E00003F052FC034623607B6803F10804BB69F3
:1009F00002331B78803B184603F050FD034618462F
:100A000003F0DCF902460B46104619464FF000028F
:100A10002A4B03F051FB02460B46104619464FF095
:100A20000002274B03F06CF802460B4610461946AD
:100A300003F02AFC034623601823BB810123FB81BA
:100A40003B690A221A703B69013300221A700223A3
:100A5000BB8207F10C031848194602F021FD00BFC4
:100A6000154802F0F7FA0346002BF9D11823BB8191
:100A70000123FB813B690A221A703B690133114A49
:100A800012781201D1B2104A1278D2B20A43D2B20D
:100A9000D2B21A700223BB8207F10C030648194632
:100AA00002F0FEFC00BF044802F0D4FA0346002B1B
:100AB000F9D12437BD4690BD00A40040000070402D
:100AC0000000F03F000000200100002090B58BB036
:100AD00000AFAC4B07F114040FCB84E80F000123E7
:100AE0003B7501237B75A84BFB61012387F8203000
:100AF00007F11403A548194602F070FAD0233B8091
:100B000001237B807B686B221A707B680133002293
:100B10001A7002233B813B469C48194602F0C0FCF8
:100B200000BF9A4802F096FA0346002BF9D1D02371
:100B30003B8001237B807B686B221A707B680133CA
:100B400001221A7002233B813B469048194602F06D
:100B5000A7FC00BF8D4802F07DFA0346002BF9D1B7
:100B6000D0233B8001237B807B681A221A707B682C
:100B7000013303221A7002233B813B468348194606
:100B800002F08EFC00BF814802F064FA0346002B9D
:100B9000F9D1D0233B8001237B807B6819221A7016
:100BA0007B68013304221A7002233B813B4677485D
:100BB000194602F075FC00BF744802F04BFA034678
:100BC000002BF9D1D0233B8004237B807B681B2240
:100BD0001A7001233B8101233B823B466B48194637
:100BE00002F05EFC00BF694802F034FA0346002BB5
:100BF000F9D1FB681B787B62D0233B8001237B808B
:100C00007B681B221A707B6801337A6AD2B222F0A9
:100C10000202D2B21A7002233B813B465B4819465E
:100C200002F03EFC00BF594802F014FA0346002BC4
:100C3000F9D1D0233B8001237B807B681B221A7073
:100C40007B6801337A6AD2B222F01802D2B21A70EB
:100C500002233B813B464D48194602F021FC00BF70
:100C60004A4802F0F7F90346002BF9D1D0233B8024
:100C700001237B807B681B221A707B680133444A06
:100C80001278D200D1B27A6AD2B20A43D2B21A70C2
:100C900002233B813B463D48194602F001FC00BF60
:100CA0003A4802F0D7F90346002BF9D1D0233B8014
:100CB00004237B807B681C221A7001233B81012363
:100CC0003B823B463148194602F0EAFB00BF2F4801
:100CD00002F0C0F90346002BF9D1FB681B787B6258
:100CE000D0233B8001237B807B681C221A707B68A9
:100CF00001337A6AD2B222F01802D2B21A700223F9
:100D00003B813B462148194602F0CAFB00BF1F4801
:100D100002F0A0F90346002BF9D1D0233B80012338
:100D20007B807B681C221A707B680133194A127819
:100D3000D200D1B27A6AD2B20A43D2B21A70022376
:100D40003B813B461148194602F0AAFB00BF0F4801
:100D500002F080F90346002BF9D1D0233B80042315
:100D60007B807B681D221A7001233B8101233B821B
:100D70003B460648194602F093FB00BF034802F0C9
:100D800069F909E0D0480000DDFB050000A400403F
:100D900090000020910000200346002BEED1FB685C
:100DA0001B787B62D0233B8001237B807B681D22E4
:100DB0001A707B6801337A6AD2B222F00F02D2B283
:100DC0001A7002233B813B462F48194602F068FB0C
:100DD00000BF2D4802F03EF90346002BF9D1D02385
:100DE0003B8001237B807B681D221A707B68013366
:100DF0007A6AD2B242F00302D2B21A7002233B8165
:100E00003B462148194602F04BFB00BF1E4802F04A
:100E100021F90346002BF9D1D0233B8001237B80AD
:100E20007B6837221A707B68013322221A700223F2
:100E30003B813B461448194602F032FB00BF124882
:100E400002F008F90346002BF9D1D0233B8001239F
:100E50007B807B6838221A707B68013301221A700C
:100E600002233B813B460848194602F019FB00BFAC
:100E7000054802F0EFF80346002BF9D1012318468C
:100E80002C37BD4690BD00BF00A40040B0B59CB05B
:100E900000AF786039600023BB640023FB6400234B
:100EA0003B650023FB6300233B6400237B64D0236A
:100EB0003B8501237B85FB6A6B221A70FB6A013339
:100EC00080221A7002233B8607F12803B248194694
:100ED00002F0E6FA00BFB04802F0BCF80346002B6F
:100EE000F9D1D0233B8501237B85FB6A6B221A70E5
:100EF000FB6A013301221A7002233B8607F12803A3
:100F0000A548194602F0CCFA00BFA34802F0A2F8A7
:100F10000346002BF9D1D0233B8501237B85FB6A57
:100F20006C221A70FB6A013300221A7002233B867E
:100F300007F128039848194602F0B2FA00BF964814
:100F400002F088F80346002BF9D1D0233B8501231A
:100F50007B85FB6A38221A70FB6A013300221A7003
:100F600002233B8607F128038B48194602F098FAC2
:100F700000BF894802F06EF80346002BF9D1D02358
:100F80003B8501237B85FB6A23221A70FB6A0133B0
:100F900000221A7002233B8607F128037E48194677
:100FA00002F07EFA00BF7C4802F054F80346002BA2
:100FB000F9D1D0233B8501237B85FB6A6B221A7014
:100FC000FB6A013300221A7002233B8607F12803D3
:100FD0007148194602F064FA00BF6F4802F03AF80F
:100FE0000346002BF9D1D0233B8501237B85FB6A87
:100FF00024221A70FB6A013300221A7002233B86F6
:1010000007F128036448194602F04AFA00BF624813
:1010100002F020F80346002BF9D1D0233B850123B1
:101020007B85FB6A6A221A70FB6A013300221A7000
:1010300002233B8607F128035748194602F030FA8D
:1010400000BF554802F006F80346002BF9D1D02323
:101050003B8501237B85FB6A6A221A70FB6A013398
:101060000C221A7002233B8607F128034A481946CE
:1010700002F016FA00BF484801F0ECFF0346002BCF
:10108000F9D1D0233B8501237B85FB6A1A221A7094
:10109000FB6A013301221A7002233B8607F1280301
:1010A0003D48194602F0FCF900BF3B4801F0D2FF71
:1010B0000346002BF9D1D0233B8501237B85FB6AB6
:1010C00019221A70FB6A013300221A7002233B8630
:1010D00007F128033048194602F0E2F900BF2E4814
:1010E00001F0B8FF0346002BF9D1D0233B85012343
:1010F0007B85FB6A1B221A70FB6A013300221A707F
:1011000002233B8607F128032348194602F0C8F959
:1011100000BF214801F09EFF0346002BF9D1D023E8
:101120003B8501237B85FB6A1C221A70FB6A013315
:1011300000221A7002233B8607F12803164819463D
:1011400002F0AEF900BF144801F084FF0346002B03
:10115000F9D18323A7F86C304FF48043A7F86A30A5
:10116000D0233B8501237B85FB6A6A221A70FB6AC8
:10117000013340221A7002233B8607F128030648F8
:10118000194602F08DF900BF034801F063FF0346E2
:10119000002BF9D102E000BF00A40040D0233B8522
:1011A00001237B85FB6A23221A70FB6A01337822B4
:1011B0001A7002233B8607F128038848194602F07B
:1011C0006FF900BF854801F045FF0346002BF9D1B8
:1011D000D0233B8501237B85FB6A23221A70FB6A9F
:1011E000013300221A7002233B8607F128037B4853
:1011F000194602F055F900BF784801F02BFF03466D
:10120000002BF9D1D0233B8504237B85FB6A722216
:101210001A7001233B8602233B8707F128036F489E
:10122000194602F03DF900BF6C4801F013FF034678
:10123000002BF9D17B6B1B781B029AB27B6B0133BD
:101240001B7813439BB2A7F86830B7F86820644B4B
:10125000A3FB0213DB08A7F866300023A7F86E3063
:1012600087E000233B8200237B820023BB82002394
:101270003B8100237B810023BB81D0233B8504235A
:101280007B85FB6A74221A7001233B860C233B8703
:1012900007F128035148194602F002F900BF4F48F0
:1012A00001F0D8FE0346002BF9D17B6B1B781B02A3
:1012B0009AB27B6B01331B7813439BB23B827B6BEF
:1012C00002331B781B029AB27B6B03331B781343E8
:1012D0009BB27B827B6B04331B781B029AB27B6BC5
:1012E00005331B7813439BB2BB827B6B06331B78A1
:1012F0001B029AB27B6B07331B7813439BB23B8173
:101300007B6B08331B781B029AB27B6B09331B780B
:1013100013439BB27B817B6B0A331B781B029AB20F
:101320007B6B0B331B7813439BB2BB81FA6B3B8AFD
:101330001BB21344FB633A6C7B8A1BB213443B64BD
:101340007A6CBB8A1BB213447B64BA6C3B891BB2B8
:101350001344BB64FA6C7B891BB21344FB643A6D83
:10136000BB891BB213443B65B7F86E300133A7F855
:101370006E30B7F86E20B7F866309A42FFF471AF5E
:10138000FA6BB7F8663092FBF3F3FB633A6CB7F88D
:10139000663092FBF3F33B647A6CB7F8663092FBED
:1013A000F3F37B64BA6CB7F8663092FBF3F3BB647B
:1013B000FA6CB7F8663092FBF3F3FB643A6DB7F85A
:1013C000663092FBF3F33B657B6C002B0ADD7A6C95
:1013D000B7F86A30D31A7B6409E000BF00A400406C
:1013E000ABAAAAAA7A6CB7F86A3013447B64BB6CC8
:1013F0005B42002B00DA03339B101B12DBB287F831
:101400005430BB6C5B42002B00DA03339B10DBB221
:1014100087F85530FB6C5B42002B00DA03339B10DE
:101420001B12DBB287F85630FB6C5B42002B00DAF4
:1014300003339B10DBB287F857303B6D5B42002BC8
:1014400000DA03339B101B12DBB287F858303B6D78
:101450005B42002B00DA03339B10DBB287F8593074
:10146000D0233B8501237B85FB6A13221A70FB6A1C
:10147000013397F854201A7002233B8607F12803A2
:101480009E48194602F00CF800BF9C4801F0E2FDAE
:101490000346002BF9D1D0233B8501237B85FB6AD2
:1014A00014221A70FB6A013397F855201A70022330
:1014B0003B8607F128039148194601F0F1FF00BF70
:1014C0008E4801F0C7FD0346002BF9D1D0233B85A0
:1014D00001237B85FB6A15221A70FB6A013397F89A
:1014E00056201A7002233B8607F1280383481946C9
:1014F00001F0D6FF00BF814801F0ACFD0346002B90
:10150000F9D1D0233B8501237B85FB6A16221A7013
:10151000FB6A013397F857201A7002233B8607F1C4
:1015200028037648194601F0BBFF00BF734801F05D
:1015300091FD0346002BF9D1D0233B8501237B8508
:10154000FB6A17221A70FB6A013397F858201A7049
:1015500002233B8607F128036848194601F0A0FFE3
:1015600000BF664801F076FD0346002BF9D1D02379
:101570003B8501237B85FB6A18221A70FB6A0133C5
:1015800097F859201A7002233B8607F128035B481D
:10159000194601F085FF00BF584801F05BFD034686
:1015A000002BF9D1BB6C184602F078FF0446B7F85F
:1015B0006C30184602F06EFF03462046194603F0D1
:1015C00075F803461A467B681A607B681C1DFB6C25
:1015D000184602F063FF0546B7F86C30184602F073
:1015E00059FF03462846194603F060F80346236076
:1015F0007B6803F108043B6D184602F04FFF054677
:10160000B7F86C30184602F045FF034628461946E5
:1016100003F04CF8034623600023FB6100233B6288
:1016200000237B62D0233B8504237B85FB6A7722E2
:101630001A7001233B8602233B8707F128032F48BA
:10164000194601F02DFF00BF2C4801F003FD0346B1
:10165000002BF9D17B6B1B781A027B6B01331B7853
:101660001343FB61D0233B8504237B85FB6A7A22ED
:101670001A7001233B8602233B8707F128031F488A
:10168000194601F00DFF00BF1C4801F0E3FC0346C2
:10169000002BF9D17B6B1B781A027B6B01331B7813
:1016A00013433B62D0233B8504237B85FB6A7D2269
:1016B0001A7001233B8602233B8707F128030F485A
:1016C000194601F0EDFE00BF0C4801F0C3FC0346D3
:1016D000002BF9D17B6B1B781A027B6B01331B78D3
:1016E00013437B6201233B6600233B7600237B761A
:1016F0000023BB760023A7F86E301BE000A4004057
:10170000B7F86E309B0007F17002134453F8543C55
:101710001A463B6E1340002B07D0B7F86E3007F126
:1017200070010B44012203F8582CB7F86E300133D6
:10173000A7F86E30B7F86E30022BE1D9FA69FB6B6F
:10174000002B00DA0733DB10D31AFB613A6A3B6CDB
:10175000002B00DA0733DB10D31A3B627A6A7B6C0A
:10176000002B00DA0733DB10D31A7B62FB691B12F4
:10177000DBB287F85430FB69DBB287F8553097F855
:1017800055203B7E1343DBB287F855303B6A1B1272
:10179000DBB287F856303B6ADBB287F8573097F8F0
:1017A00057207B7E1343DBB287F857307B6A1B12CE
:1017B000DBB287F858307B6ADBB287F8593097F88C
:1017C0005920BB7E1343DBB287F85930D0233B85C9
:1017D00001237B85FB6A77221A70FB6A013397F835
:1017E00054201A7002233B8607F1280367481946E4
:1017F00001F056FE00BF654801F02CFC0346002BAB
:10180000F9D1D0233B8501237B85FB6A78221A70AE
:10181000FB6A013397F855201A7002233B8607F1C3
:1018200028035A48194601F03BFE00BF574801F013
:1018300011FC0346002BF9D1D0233B8501237B8586
:10184000FB6A7A221A70FB6A013397F856201A70E5
:1018500002233B8607F128034C48194601F020FE7D
:1018600000BF4A4801F0F6FB0346002BF9D1D02314
:101870003B8501237B85FB6A7B221A70FB6A01335F
:1018800097F857201A7002233B8607F128033F4838
:10189000194601F005FE00BF3C4801F0DBFB0346A2
:1018A000002BF9D1D0233B8501237B85FB6A7D2268
:1018B0001A70FB6A013397F858201A7002233B868E
:1018C00007F128033148194601F0EAFD00BF2F480F
:1018D00001F0C0FB0346002BF9D1D0233B85012347
:1018E0007B85FB6A7E221A70FB6A013397F85920C8
:1018F0001A7002233B8607F128032448194601F099
:10190000CFFD00BF214801F0A5FB0346002BF9D114
:10191000FB6B184602F0C2FD0446B7F86A30184661
:1019200002F0B8FD03462046194602F0BFFE03460A
:101930001A463B681A603B681C1D3B6C184602F057
:10194000ADFD0546B7F86A30184602F0A3FD034620
:101950002846194602F0AAFE034623603B6803F1BD
:1019600008047B6C184602F099FD0546B7F86A300A
:10197000184602F08FFD03462846194602F096FEEF
:10198000034623607037BD46B0BD00BF00A40040D1
:10199000F0B59DB000AF7860002387F85B30D023AE
:1019A0003B8101237B81FB6819221A70FB6801339C
:1019B00000221A7002233B8207F10803944819465B
:1019C00001F06EFD00BF924801F044FB0346002B7E
:1019D000F9D1D0233B8101237B81FB681A221A7045
:1019E000FB68013302221A7002233B8207F10803CD
:1019F0008748194601F054FD00BF854801F02AFBD5
:101A00000346002BF9D1D0233B8101237B81FB6866
:101A10001B221A70FB68013397F85B20012101FA41
:101A200002F2D2B21A7002233B8207F1080378480F
:101A3000194601F035FD00BF754801F00BFB034668
:101A4000002BF9D1D0233B8101237B81FB681D2230
:101A50001A70FB68013302221A7002233B8207F1DD
:101A600008036B48194601F01BFD00BF684801F0F0
:101A7000F1FA0346002BF9D1D0233B8101237B816E
:101A8000FB681C221A70FB68013397F85B20012168
:101A900001FA02F2D2B21A7002233B8207F1080364
:101AA0005B48194601F0FCFC00BF594801F0D2FA2E
:101AB0000346002BF9D10023FB66A2E0D0233B8133
:101AC00004237B81FB683B221A7001233B8206239F
:101AD0003B8307F108034E48194601F0E1FC00BFC3
:101AE0004B4801F0B7FA0346002BF9D1B7F8443060
:101AF0009AB27B691B781B0299B27B6901331B7810
:101B00000B439BB29BB213449BB29BB2A7F84430E9
:101B1000B7F846309AB27B6902331B781B0299B240
:101B20007B6903331B780B439BB29BB213449BB27C
:101B30009BB2A7F84630B7F848309AB27B690433B5
:101B40001B781B0299B27B6905331B780B439BB250
:101B50009BB213449BB29BB2A7F84830D0233B8181
:101B600004237B81FB6843221A7001233B820623F6
:101B70003B8307F108032648194601F091FC00BF9A
:101B8000234801F067FA0346002BF9D1B7F84C302F
:101B90009AB27B691B781B0299B27B6901331B786F
:101BA0000B439BB29BB213449BB29BB2A7F84C3041
:101BB000B7F84E309AB27B6902331B781B0299B298
:101BC0007B6903331B780B439BB29BB213449BB2DC
:101BD0009BB2A7F84E30B7F850309AB27B69043305
:101BE0001B781B0299B27B6905331B780B439BB2B0
:101BF0009BB213449BB29BB2A7F85030FB6E0133EB
:101C0000FB66FB6EC72B7FF759AF0023BB6630E046
:101C100000A40040BB6E5B0007F170010B4433F879
:101C20002C3C1BB2804A82FB03129211DB17D31AA1
:101C30009AB2BB6E5B0007F170010B4423F82C2CA9
:101C4000BB6E5B0007F17002134433F8243C1BB2F7
:101C5000754A82FB03129211DB17D31A9AB2BB6E3C
:101C60005B0007F170010B4423F8242CBB6E013399
:101C7000BB66BB6E022BCDDDD0233B8101237B8174
:101C8000FB681C221A70FB680133E0221A700223E1
:101C90003B8207F108036548194601F001FC00BFCB
:101CA000624801F0D7F90346002BF9D1D0233B81DC
:101CB00001237B81FB681B221A70FB680133E02241
:101CC0001A7002233B8207F108035848194601F0B5
:101CD000E7FB00BF554801F0BDF90346002BF9D1E1
:101CE00000237B6698E0D0233B8104237B81FB6843
:101CF0003B221A7001233B8206233B8307F1080332
:101D00004A48194601F0CCFB00BF484801F0A2F94F
:101D10000346002BF9D1BB8F9AB27B691B781B025B
:101D200099B27B6901331B780B439BB29BB213447E
:101D30009BB29BB2BB87FB8F9AB27B6902331B7845
:101D40001B0299B27B6903331B780B439BB29BB296
:101D500013449BB29BB2FB87B7F840309AB27B69C1
:101D600004331B781B0299B27B6905331B780B4344
:101D70009BB29BB213449BB29BB2A7F84030D023D6
:101D80003B8104237B81FB6843221A7001233B8241
:101D900006233B8307F108032448194601F080FB22
:101DA00000BF224801F056F90346002BF9D1BB8E43
:101DB0009AB27B691B781B0299B27B6901331B784D
:101DC0000B439BB29BB213449BB29BB2BB86FB8E70
:101DD0009AB27B6902331B781B0299B27B69033389
:101DE0001B780B439BB29BB213449BB29BB2FB8606
:101DF0003B8F9AB27B6904331B781B0299B27B69D3
:101E000005331B780B439BB29BB213449BB29BB22E
:101E10003B877B6E01337B667B6EC72B7FF763AF9F
:101E200000233B6633E000BF1F85EB5100A4004058
:101E30003B6E5B0007F17002134433F8343C1BB275
:101E4000844A82FB03129211DB17D31A9AB23B6EBB
:101E50005B0007F170010B4423F8342C3B6E5B00F0
:101E600007F17002134433F83C3C1BB2794A82FB01
:101E700003129211DB17D31A9AB23B6E5B0007F183
:101E800070010B4423F83C2C3B6E01333B663B6EE8
:101E9000022BCDDDD0233B8101237B81FB681C22FB
:101EA0001A70FB68013300221A7002233B8207F18B
:101EB00008036948194601F0F3FA00BF664801F0CB
:101EC000C9F80346002BF9D1D0233B8101237B8144
:101ED000FB681B221A70FB68013300221A70022370
:101EE0003B8207F108035C48194601F0D9FA00BFAC
:101EF000594801F0AFF80346002BF9D1D0233B81BC
:101F000004237B81FB680D221A7001233B8201238D
:101F10003B8307F108035048194601F0C1FA00BF9E
:101F20004D4801F097F80346002BF9D1FB685B7828
:101F300087F85430D0233B8104237B81FB680E2239
:101F40001A7001233B8201233B8307F108034248B7
:101F5000194601F0A5FA00BF3F4801F07BF803469F
:101F6000002BF9D1FB685B7887F85530D0233B8193
:101F700004237B81FB680F221A7001233B8201231B
:101F80003B8307F108033448194601F089FA00BF82
:101F9000314801F05FF80346002BF9D1FB685B780C
:101FA00087F85630D0233B8104237B81FB680022D5
:101FB0001A7001233B8201233B8307F10803264863
:101FC000194601F06DFA00BF234801F043F80346BB
:101FD000002BF9D1FB685B7887F85730D0233B8121
:101FE00004237B81FB6801221A7001233B820123B9
:101FF0003B8307F108031848194601F051FA00BF66
:10200000154801F027F80346002BF9D1FB685B78EF
:1020100087F85830D0233B8104237B81FB68022260
:102020001A7001233B8201233B8307F108030A480E
:10203000194601F035FA00BF074801F00BF80346D6
:10204000002BF9D1FB685B7887F859300023FB65DA
:102050008BE000BF1F85EB5100A40040FB6D9B008F
:102060007A68D618FB6D5B0007F17002134433F8F1
:10207000343C1AB2FB6D5B0007F170010B4433F87E
:102080002C3C1BB2D31A184602F008FA0346184635
:1020900001F094FE02460B46104619464FF000022E
:1020A000354B01F0DFFE02460B4614461D46FB6D24
:1020B0009B0007F17002134453F8543C184601F09A
:1020C0007DFE02460B462046294601F0F5FF0246FA
:1020D0000B461046194602F0D7F803463360FB6DF5
:1020E00003339B007A68D618FB6D5B0007F1700123
:1020F0000B4433F83C3C1AB2FB6D5B0007F17001F6
:102100000B4433F8243C1BB2D31A184602F0C6F92C
:102110000346184601F052FE02460B461046194689
:102120004FF00002144B01F09DFE02460B46144690
:102130001D46FB6D03339B0007F17002134453F8F7
:10214000543C184601F03AFE02460B46204629460A
:1021500001F0B2FF02460B461046194602F094F811
:1021600003463360FB6D0133FB65FB6D022B7FF78C
:1021700075AF7437BD46F0BD0000594080B582B0E0
:1021800000AF0C4B1B687B603B46184601F024FAFD
:102190007B681B0E0F2B0AD93B78032B07D1064B0C
:1021A000054A126822F0500242F010021A60083705
:1021B000BD4680BDFC81E00FC0800C4080B590B072
:1021C00000AFFFF7DBFFFEF773F8FDF7FDFFFEF74B
:1021D00045F8FEF77BFC07F134031846FEF768FB71
:1021E00007F1280207F11C0310461946FEF74EFEC0
:1021F0003B1D1846FFF7CCFBFEE700BF80B487B05D
:1022000000AFF860B9607A60FB6803F10473DA002C
:10221000BB6813449B007B617B697A681A601C373A
:10222000BD465DF8047B704780B483B000AF786032
:10223000034B7A681A630C37BD465DF8047B704720
:102240000010084080B582B000AF0346FB71FB79F7
:10225000002B05D00E4B1B6803F00303002B05D1A8
:10226000FB7983F00103DBB2002B00D000BFFB79C8
:10227000002B05D0064803210022FFF7BFFF04E032
:10228000034803210122FFF7B9FF0837BD4680BD8F
:102290000010084080B582B000AF0346FB71FB79A7
:1022A000034800211A46FFF7A9FF0837BD4680BD45
:1022B0003810084080B487B000AF78607B68002B8E
:1022C00004D07B68B3F5004F00D800BF7B683B614A
:1022D0003B69B3FA83F3FB60FB68DBB2C3F11F0316
:1022E0007B617B6918461C37BD465DF8047B7047EF
:1022F00080B483B000AF78600C4B9B6B03F001039C
:10230000002B05D1094B1B6803F44053002B00D070
:1023100006E000BF054BDA6B7B681340002BF9D158
:102320000C37BD465DF8047B704700BF00100840C5
:1023300080B584B000AF78607B689B68002B04D0C8
:102340007B689B68802B00D800BF7B681B7883F07C
:102350000103DBB2002B07D17B681B78002B04D074
:102360007B685B78002B00D000BF7B689B88B3F54F
:10237000405F08D17B689B88B3F5405F04D17B68E0
:102380009B7C002B00D100BF7B689B681846FFF741
:1023900091FFF8607B681B78002B02D00120FFF7CB
:1023A00079FF0120FFF7A4FF1A4B7A68927C5A60EC
:1023B0007B685B7843F00803DBB21A467B689B7846
:1023C0009B001A437B685B7C1B011A437B68DB68BC
:1023D0005B011A43FB681B021A437B689B881A4304
:1023E0007B681B7C9B031343BB604FF0FF30FFF700
:1023F0001BFF084BBA681A607B681B78002B05D05E
:102400000120FFF71FFF0020FFF744FF1037BD46F4
:1024100080BD00BF0010084080B582B000AF78607A
:1024200039600220FFF764FF024B3A68DA60083730
:10243000BD4680BD0010084080B487B000AFF86092
:10244000B9607A60FB6803F10473DA00BB68134477
:102450009B007B617B697A681A601C37BD465DF81A
:10246000047B704780B483B000AF1D4BDB6C03F47A
:102470007F031B0CFB71FB794A2B04D04B2B26D01E
:10248000482B22D025E0174B1B699BB203F03F037A
:102490009BB21B02BB80134B9B699BB203F0F00302
:1024A0009AB2BB881343BB800E4BDB6903F0F00389
:1024B0001B099AB2BB881343BB80BB88B3F5017F6D
:1024C00001D3094B06E0094B04E0084B02E0064B40
:1024D00000E0002318460C37BD465DF8047B7047CA
:1024E000B081E00FD0FF0FE000366E010048E80138
:1024F00080B485B000AF7860284BDB6B002B0CBF3D
:1025000000230123BB72254B41F67132DA63234B62
:102510005B6803F00703FB60FB68012B01D9042B08
:1025200002D10023FB7202E00123FB7200BF7A6834
:102530001B4B9A4207D9FB7A002B01D0052300E000
:102540000423FB6016E07A68154B9A420BD87A6830
:10255000144B9A4207D9FB7A002B01D0032300E0E9
:102560000123FB6006E0FB7A002B01D0022300E090
:102570000023FB60094B094A526822F00701FA6800
:102580000A435A60BB7A002B02D0044B0022DA6364
:102590001437BD465DF8047B704700BF00000C4057
:1025A0000048E8010024F40080B582B000AF044B7D
:1025B0007B607868FFF79CFF0837BD4680BD00BF91
:1025C000006CDC0280B582B000AF104800F03EFA2B
:1025D0000346FB70FB78032B07D0082B09D0022B96
:1025E0000BD101F07BFA78600AE001F063FA7860C1
:1025F00006E001F0BFF9786002E000237B6000BFD5
:102600007B6818460837BD4680BD00BF05231C0007
:1026100080B483B000AF1A4B5B6903F4E063B3F599
:10262000007F14D0B3F5007F05D8002B15D0B3F58B
:10263000807F0FD01AE0B3F5C06F14D0B3F5E06F10
:102640000ED0B3F5407F11D10E4B7B6011E00E4BE5
:102650007B600EE00D4B7B600BE00D4B7B6008E078
:102660000C4B7B6005E00C4B7B6002E000237B6041
:1026700000BF7B6818460C37BD465DF8047B704789
:1026800000800C4040420F00C0CF6A00C0D8A700B5
:10269000809FD500406F4001003FAB0180B582B004
:1026A00000AF124800F0D2F90346FB70FB78072B0D
:1026B0000FD0082B11D101F05DF978600C4B1B682D
:1026C00003F4E0339B0B01337A68B2FBF3F37B60D6
:1026D00006E0FFF79DFF786002E000237B6000BF0B
:1026E0007B6818460837BD4680BD00BF040018004F
:1026F00000800C4080B584B000AF78607B68002B10
:1027000002D07B68012B00D100BF264B9A6A7B6800
:102710005B0022FA03F303F00303032B3AD801A270
:1027200052F823F075270000352700003D270000F0
:102730004527000001F0BEF9F8602EE001F0CEF967
:10274000F8602AE0174B5B6803F48073002B05D117
:10275000144B1B6803F08043002B05D001F0E6F812
:1027600003469B08FB6018E001F0E0F803465B08B5
:10277000FB6012E00B4B9A6A7B6804339B0022FAE1
:1027800003F3002B03D001F09FF9F86005E000236C
:10279000FB6002E00023FB6000BFFB6818461037B7
:1027A000BD4680BD00800C4080B483B000AF78602F
:1027B000094B5B6D03F00103002B00D006E000BF66
:1027C000054B1A6D7B681340002BF9D10C37BD46C1
:1027D0005DF8047B704700BF00800C4090B587B067
:1027E00000AF78600B46FB7000233B617B681B0ADF
:1027F00003F00F03013B052B4AD801A252F823F046
:10280000192800001F280000252800005328000078
:102810005D280000672800001F4B7B6126E01F4BEE
:102820007B6123E01E4B7B611E4800F047F80446A5
:10283000FFF718FE03469C420AD91B481E210122BD
:10284000FFF7FAFD194808210122FFF7F5FD0DE019
:102850000CE0174B7B6101233B6107E0154B7B616B
:1028600010233B6102E0144B7B6100BF7B681B0BB4
:1028700003F01F03FB603B69002B02D03869FFF7B0
:1028800093FFFB787869F9681A46FFF7D5FD00E0F9
:1028900000BF1C37BD4690BD08800C4044800C40F2
:1028A00040800C402000040000800C4004800C405C
:1028B00058800C4060800C4078800C4080B584B01B
:1028C00000AF78607B6803F47813B3F5801F7AD08B
:1028D000B3F5801F15D8B3F5802F4FD0B3F5802FF7
:1028E00005D8002B26D0B3F5003F31D0A4E0B3F5D6
:1028F000002F4CD0B3F5202F57D0B3F5C02F41D0C7
:102900009AE0B3F5B01F7DD0B3F5B01F06D8B3F58C
:10291000901F65D0B3F5A01F67D08DE0B3F5D01F31
:1029200000F08280B3F5E01F00F08280B3F5C01F95
:1029300076D081E001F01EF8F860434B1B6803F489
:10294000E0339B0B0133FA68B2FBF3F3FB6076E0F4
:1029500001F010F8F8603C4B1B6803F4E0339B0B6C
:102960000133FA68B2FBF3F3FB60374B9B6803F06B
:102970000F03FA6822FA03F3FB6060E000F0D6FF71
:10298000F8605CE00020FFF7B5FEF86057E000203B
:10299000FFF7B0FEF8602C4B9B6E03F0F0031B09B1
:1029A000FA6822FA03F3FB6049E00020FFF7A2FE79
:1029B000F860254B9B6E03F470631B0AFA6822FAD9
:1029C00003F3FB603BE00020FFF794FEF8601E4B32
:1029D0009B6E03F00303FA6822FA03F3FB602EE018
:1029E0000120FFF787FEF86029E00120FFF782FE53
:1029F000F860154B1B6F03F00303FA6822FA03F328
:102A0000FB601CE00120FFF775FEF8600E4B1B6FAA
:102A100003F030031B09FA6822FA03F3FB600EE0AF
:102A2000FFF73CFEF8600AE0FFF7F2FDF86006E011
:102A3000FFF7C8FDF86002E00023FB6000BFFB6801
:102A400018461037BD4680BD00800C4080B487B06A
:102A500000AF78600123FB754FF470533B617B68D6
:102A600003F00F03FB60FB68013B042B00F2938033
:102A700001A252F823F000BF8D2A0000C32A0000F3
:102A8000FF2A00003B2B0000612B0000474BDA6A55
:102A90003B691340B3F5805F09D0B3F5005F03D005
:102AA000B3F5006F06D008E00223FB7508E00323AE
:102AB000FB7505E00423FB7502E00523FB7500BFF1
:102AC0006CE03A4B9B6A03F00303022B06D0032B06
:102AD00007D0012B08D10323FB750FE00223FB7500
:102AE0000CE00623FB7509E0304B9B6A03F480334E
:102AF000002B02D00923FB7500E000BF4EE02B4BFA
:102B00009B6A03F00C03082B06D00C2B07D0042B78
:102B100008D10323FB750FE00223FB750CE00623AD
:102B2000FB7509E0214B9B6A03F48013002B02D054
:102B30000923FB7500E000BF30E00723FB751B4B4A
:102B40001B6803F08053002B03D0B3F1805F03D0E8
:102B500024E00723FB7502E00823FB7500BF1DE09E
:102B6000124BDB6A03F46033B3F5803F06D0B3F554
:102B7000003F06D0B3F5004F06D008E00223FB75F6
:102B800008E00323FB7505E00823FB7502E0012341
:102B9000FB7500BF02E00023FB7500BFFB7D1846FC
:102BA0001C37BD465DF8047B704700BF00800C40B9
:102BB00090B589B000AF78600B46FB700323FB61D2
:102BC0000323FB7600237B617B6803F00F03FB602C
:102BD000FB68013B042B00F22A8101A252F823F08A
:102BE000F52B0000C12C0000C12C00009D2D000021
:102BF000C72D0000FB78023B072B00F21A8101A2CF
:102C000052F823F0252C00002F2C0000392C000056
:102C10008D2C0000332E0000332E0000332E0000D8
:102C2000972C00000423FB610023FB7634E0032390
:102C3000FB610123FB762FE00223FB610223FB767D
:102C400000F010FF0446FFF70DFC03469C4213D929
:102C50007B4A7B4B1B6843F0804343F06003136067
:102C6000774B1B6C03F01003002B0ED07548082126
:102C70000122FFF7E1FB0FE0714B714A126822F06D
:102C8000600242F020021A6006E005E00123FB61C9
:102C90000323FB7600E000BFFB7E184601210122E2
:102CA00000F0D4F8FFF780FC654BFA695A6200F037
:102CB0002DF900F03BFEB860B868FFF719FCBBE0E7
:102CC000FB78013B082B00F2B68001A252F823F0FA
:102CD000F52C0000FB2C00000B2D0000372E00000F
:102CE000372E00001B2D0000372E0000372E00006D
:102CF000532D000000233B6130E000200121012220
:102D000000F0A4F802233B6128E001200121012208
:102D100000F09CF801233B6120E04B480421012294
:102D2000FFF78AFB03233B6100F000FEB860FFF76A
:102D300099FB0246BB689A420AD241481E210122F1
:102D4000FFF77AFB3F4808210122FFF775FB05E0FA
:102D500004E000233B6101237B6100BFFB68022B81
:102D60000DD1374A364B9B6A23F4803323F003039B
:102D7000396919437B691B040B4393625CE0304A59
:102D80002F4B9B6A23F4801323F00C0339698900CD
:102D900019437B691B050B4393624DE0FB78072BBE
:102DA00002D0082B07D047E0254B254A126822F0B5
:102DB00080521A6006E0224B214A126842F080528B
:102DC0001A6000BF38E0FB78032B14D0082B22D008
:102DD000022B00D030E000200121012200F036F863
:102DE000174B40225A6200BF154BDB6A03F4803355
:102DF000002BF9D01AE001200121012200F026F871
:102E00000F4B60225A6200BF0D4BDB6A03F40033A4
:102E1000002BF9D00AE00A4B20225A6200BF084B6F
:102E2000DB6A03F40043002BF9D000BF04E000BFCD
:102E300002E000BF00E000BF2437BD4690BD00BFE8
:102E400000800C4004800C4040800C4080B586B06F
:102E500000AF13460246FA710A46BA717B71FB79DC
:102E6000052B4CD801A252F823F000BFBD2E000064
:102E7000AF2E0000932E0000852E0000A12E000032
:102E8000FF2E000001233B610223FB6002237B61D4
:102E90001EE004233B610823FB6008237B6117E0ED
:102EA00010233B612023FB6020237B6110E0402343
:102EB0003B618023FB6080237B6109E04FF48073DA
:102EC0003B614FF40073FB604FF400737B6100BF04
:102ED000BB79002B0DD00C4B3A691A627B79002B21
:102EE0000AD000BF084BDA6A7B691340002BF9D087
:102EF00002E0054BFA681A6200F008F800E000BF33
:102F00001837BD4680BD00BF00800C4080B400AFC4
:102F1000034BDA6A034B1A60BD465DF8047B7047C9
:102F200000800C409400002080B487B000AFF860AF
:102F3000B9607A60FB6803F10473DA00BB6813447C
:102F40009B007B617B697A681A601C37BD465DF81F
:102F5000047B704780B586B000AFF860B9607A60D6
:102F6000FB707B68002B00D130E0FB681B6823F40A
:102F70004072FB681A60FB681A68FB781B021A43F0
:102F8000FB681A60BB68002B03D11248FFF796FC60
:102F9000B860FB78104AD35C3B617B689B00BA68E1
:102FA000D21A3B69796801FB03F3B2FBF3F37B614F
:102FB000FB681B6803F00203002B04D07B69002B25
:102FC00001D101237B61FB687A691A611837BD461C
:102FD00080BD00BF10810200E048000080B582B0D3
:102FE00000AF786039607A68174B9A4203D07A68EC
:102FF000164B9A4200D100BF7B6800225A637B685F
:10300000134A1A637A683B685B78002B01D000236F
:1030100000E00123104601211A46FFF785FF3B68B7
:1030200059683B689A683B681B7B7868FFF792FF9A
:103030007A683B681B78104600211A46FFF774FF38
:103040000837BD4680BD00BF00A0004000A400407E
:10305000CFFF010080B489B000AF78607A689D4BE3
:103060009A4203D07A689C4B9A4200D100BF7A689A
:10307000984B9A4202D1994BBB6108E07A68964B13
:103080009A4202D1964BBB6101E0FC2300E2BB698E
:103090009B687B617B689B6A3B613B6903F4C0630F
:1030A000002B14D03B6903F40073002B03D0BB69E1
:1030B000FD225A7007E03B6903F48063002B02D0C5
:1030C000BB69FE225A70BB6909221A70CCE1BB6948
:1030D0001B78082B00F2C08101A252F823F000BF38
:1030E0000531000057310000DD3100002F320000B3
:1030F00081320000E53200006D330000AB33000088
:103100003D3400007B695B8803F01003002B09D07D
:103110007B691B881B0A9BB203F0060343F0F00394
:10312000FB610EE07B691B8803F0FE03FB617B699A
:103130005B8803F00203002B03D0FB6943F001031B
:10314000FB61BB6901221A707B68FA695A627B686D
:1031500001225A6088E13B6903F08003002B0CD008
:103160007B6880221A63BB69FF225A70BB69082200
:103170001A707B6802225A602FE03B6903F040031B
:10318000002B2AD07B6840221A637B695B8803F09E
:103190001003002B08D0BB6902221A707B691B88C0
:1031A000DAB27B685A6218E07B695B8803F002033D
:1031B000002B0ED0BB6907221A70BB691B797A6994
:1031C000DB0013441B89012B07D17B6808225A605E
:1031D0004AE1BB6905221A7045E145E13B6903F00C
:1031E0008003002B0CD07B6880221A63BB69FF220E
:1031F0005A70BB6908221A707B6802225A6015E077
:103200003B6903F04003002B10D07B6840221A6317
:103210007B695B8803F00203002B03D0BB690322A8
:103220001A7020E1BB6905221A701CE11CE17B6960
:103230005B8803F01003002B09D07B691B881B0AF5
:103240009BB203F0060343F0F003FB6104E07B69EB
:103250001B8803F0FE03FB617B695B8803F00403BA
:10326000002B03D0FB6943F00103FB61BB6904221F
:103270001A707B6801225A607B68FA695A62F3E02F
:103280003B6903F08003002B0CD07B6880221A631B
:10329000BB69FF225A70BB6908221A707B68022240
:1032A0005A6015E03B6903F04003002B10D07B68A7
:1032B00040221A637B695B8803F00403002B03D070
:1032C000BB6907221A7003E0BB6905221A70CAE0C5
:1032D000CAE000BF00A0004000A400409800002009
:1032E000A4000020BB695A88BB691B797969DB009F
:1032F0000B441B899A4224D3BB6900225A80BB69C4
:103300001B790133DAB2BB691A717B695B8803F000
:103310000403002B03D0BB6903221A70A3E07B696E
:103320005B8803F00103002B03D1BB691B79012BE0
:1033300006D9BB6908221A707B6802225A6093E0A2
:1033400091E0BB691B797A69DB0013445A68BB6959
:103350005B88591C88B2B969488013441B781A46A7
:103360007B685A62BB6906221A707DE03B6903F0F4
:103370008003002B0CD07B6880221A63BB69FF227C
:103380005A70BB6908221A707B6802225A600BE0EF
:103390003B6903F04003002B06D07B6840221A6390
:1033A000BB6905221A705EE05EE03B6903F0200312
:1033B000002B42D0BB691B797A69DB0013441B895F
:1033C000FB607B68DB69FB72BB695B881A46FB6844
:1033D0009A420ED2BB691B797A69DB0013445A68A2
:1033E000BB695B88591C88B2B96948801344FA7A72
:1033F0001A70BB695B881A46FB689A420CD3FB685B
:10340000012B02D17B6808225A60BB6908221A701E
:103410007B6802225A6010E07B6804225A60FB68D5
:10342000012B0AD9BB695B881A46FB68013B9A42AB
:1034300003D17B6808225A6016E015E03B6903F46B
:103440008073002B07D07B684FF480721A63BB69CE
:1034500009221A7008E007E0BB69FB225A70BB69B9
:1034600009221A7000E015E6BB691B78092B0BD105
:103470007B6800225A63BB695B785BB2012B05D184
:10348000BB6900225A7001E0012301E0BB695B784F
:103490005BB218462437BD465DF8047B704700BF19
:1034A00080B584B000AF786039607A68304B9A425A
:1034B00003D07A682F4B9A4200D100BF7A682C4B18
:1034C0009A4202D12C4BFB6008E07A68294B9A4261
:1034D00002D12A4BFB6001E0FC2343E07B689B6840
:1034E00003F00103002B02D07B6820225A603B6866
:1034F0005B8803F00203002B03D03B681B89002B81
:1035000009D03B685B8803F00403002B05D03B68BF
:103510001B8A002B01D1FC2324E0FB6800221A70D7
:10352000FB6801225A70FB6800225A80FB68002267
:103530001A71FB683A689A607B68C0225A607B689F
:103540009B6A03F02003002B01D07B68DB697B685A
:103550000B4A1A637B684FF4FC625A637868FFF782
:1035600079FD03465BB218461037BD4680BD00BFEB
:1035700000A0004000A4004098000020A40000200B
:10358000CFFF010080B487B000AFF860B9607A6007
:10359000FB6803F10473DA00BB6813449B007B6192
:1035A0007B697A681A601C37BD465DF8047B7047FA
:1035B00080B582B000AF02460B46FA71BB71FA7952
:1035C000BB79044811461A46FFF7DCFF0837BD46B1
:1035D00080BD00BF00A00C4080B485B000AF786013
:1035E000194B5B69DBB203F00F03DBB29B00FB738B
:1035F000154B1B6903F0C0039B09DAB2FB7B134335
:10360000FB737B68FA7B9A700F4B1B69DBB203F08C
:103610003F03DAB27B685A700B4B9B69DBB223F035
:103620000F03FB73084BDB6903F0F0031B09DAB2ED
:10363000FB7B1343FB737B68FA7B1A701437BD4620
:103640005DF8047B704700BFD0FF0FE080B586B007
:1036500000AFF860B9607A60BB68002B03D11448F2
:10366000FFF72CF9B860BB685B007B617A687B6907
:103670001344013B7B617A697B68B2FBF3F37B61A6
:103680007B69043B7B617B699B017B617B69C03308
:103690007B617B6923F0FF037B617A69054B1340F3
:1036A0007B61FB687A695A611837BD4680BD00BFEF
:1036B00010810200C0FF1F0080B582B000AF7860AB
:1036C00039607A682B4B9A4207D07A682A4B9A4223
:1036D00003D07A68294B9A4200D100BF786800F085
:1036E0007FF87B681A683B681B8A43F001039BB232
:1036F00019463B689B7B002B02D04FF4806300E0AF
:1037000000230B431A437B681A607B6819683B6887
:103710009B7C002B01D0102200E000223B681B7D27
:10372000002B02D04FF0005300E00023134341EA86
:1037300003027B681A603B681B7B43F480527B6802
:103740005A603B685A683B689B68786811461A461D
:10375000FFF77CFF3B685B7B002B02D07B6810226D
:10376000DA603B681B781A467B68DA600837BD462A
:1037700080BD00BF00C0004000C4004000C8004041
:1037800080B485B000AF786039607B689B6823F0B7
:103790007703FB603B681B78002B03D0FB6843F08A
:1037A0004003FB603B689B78002B03D0FB6843F031
:1037B0002003FB603B685B78002B03D0FB6843F081
:1037C0001003FB603B68DB78FA681343FB607B689F
:1037D000FA689A601437BD465DF8047B704700BFF5
:1037E00080B483B000AF78607A68204B9A4207D0EB
:1037F0007A681F4B9A4203D07A681E4B9A4200D1D6
:1038000000BF7B6840F6AA62DA607B6800221A601B
:103810007B6841F205025A607B6800229A607B68EF
:1038200000225A617B680022DA647B6841F6F972F3
:103830009A647B6800225A657A680C4B9A4202D1DE
:103840007B6800221A657B6800229A657A68084BBB
:103850009A4203D07A68074B9A4202D17B680022D1
:10386000DA650C37BD465DF8047B704700C0004048
:1038700000C4004000C80040074880470749084A84
:10388000084B9B1A40F30580043BC858D0503FF7C3
:10389000FBAF054800470000A93A0000F8480000C7
:1038A000000000207400002055010000FEE7FEE744
:1038B000FEE7FEE7FEE7FEE7FEE7FEE7FEE7FEE7E0
:1038C000FEE7FEE7FEE7FEE7FEE7FEE7FEE7FEE7D0
:1038D000FEE7FEE7FEE7FEE7FEE7FEE7FEE7FEE7C0
:1038E000FEE7FEE7FEE7FEE7FEE7FEE7FEE7FEE7B0
:1038F000FEE7FEE7FEE7FEE7FEE7FEE7FEE7FEE7A0
:10390000FEE7FEE7FEE7FEE7FEE7FEE7FEE700BFB5
:1039100080B400AF044BDB6C1B0EDBB21846BD4617
:103920005DF8047B704700BFB081E00F80B582B0C6
:1039300000AF00F01FF878600C4B1B6803F4E03315
:103940009B0B01337A68B2FBF3F37B60074B5B6838
:1039500003F00F037A6822FA03F37B60044B7A6862
:103960001A607B6818460837BD4680BD00800C4051
:10397000B000002080B582B000AF2F4BDB6A03F4AB
:103980007053B3F5805F0AD0B3F5005F03D0B3F591
:10399000006F08D00BE0294B1B687B6047E04FF4B9
:1039A00000437B6043E0264B1B687B603FE0224B7B
:1039B000DB6803F4E063B3F5007F1BD0B3F5007F51
:1039C00005D8002B24D0B3F5807F16D02BE0B3F5BB
:1039D000806F09D0B3F5A06F03D0B3F5407F06D058
:1039E00021E0184B7B6021E0174B7B601EE0174BFA
:1039F0007B601BE0164B7B6018E0FFF789FF0346F6
:103A0000122B02D9134B7B6010E0134B7B600DE04F
:103A1000FFF77EFF0346122B02D9104B7B6005E0B7
:103A20000F4B7B6002E000237B6000BF00BF7B6820
:103A300018460837BD4680BD00800C4008000020B5
:103A400004000020003FAB01406F4001809FD50083
:103A5000C0D8A70040B56400C0CF6A00804F1200F4
:103A600040420F0080B400AF034B1B681846BD46B0
:103A70005DF8047B704700BF0400002080B582B071
:103A800000AF7860064B7A681A60064BDB6A03F475
:103A90000063002B01D0FFF749FF0837BD4680BD0A
:103AA0000400002000800C4080B400AFBD465DF8EB
:103AB000047B704780B400AF4FF400431846BD4606
:103AC0005DF8047B704700BF80B400AF4FF47A7399
:103AD0001846BD465DF8047B704700BF80B400AF58
:103AE000034B1B681846BD465DF8047B704700BF5A
:103AF0000800002081F0004102E000BF83F0004395
:103B000030B54FEA41044FEA430594EA050F08BF78
:103B100090EA020F1FBF54EA000C55EA020C7FEA3C
:103B2000645C7FEA655C00F0E2804FEA5454D4EBB9
:103B30005555B8BF6D420CDD2C4480EA020281EA83
:103B4000030382EA000083EA010180EA020281EABB
:103B50000303362D88BF30BD11F0004F4FEA01310D
:103B60004FF4801C4CEA113102D0404261EB41011C
:103B700013F0004F4FEA03334CEA133302D05242A2
:103B800063EB430394EA050F00F0A780A4F101045E
:103B9000D5F1200E0DDB02FA0EFC22FA05F2801898
:103BA00041F1000103FA0EF2801843FA05F359417E
:103BB0000EE0A5F120050EF1200E012A03FA0EFCFD
:103BC00028BF4CF0020C43FA05F3C01851EBE37127
:103BD00001F0004507D54FF0000EDCF1000C7EEB44
:103BE00000006EEB0101B1F5801F1BD3B1F5001F82
:103BF0000CD349085FEA30004FEA3C0C04F10104A1
:103C00004FEA445212F5800F80F09A80BCF1004FC9
:103C100008BF5FEA500C50F1000041EB045141EA4B
:103C2000050130BD5FEA4C0C404141EB010111F44C
:103C3000801FA4F10104E9D191F0000F04BF0146F7
:103C40000020B1FA81F308BF2033A3F10B03B3F1D5
:103C500020020CDA0C3208DD02F1140CC2F10C0265
:103C600001FA0CF021FA02F10CE002F11402D8BFC3
:103C7000C2F1200C01FA02F120FA0CFCDCBF41EA8F
:103C80000C019040E41AA2BF01EB0451294330BD5E
:103C90006FEA04041F3C1CDA0C340EDC04F114043B
:103CA000C4F1200220FA04F001FA02F340EA030012
:103CB00021FA04F345EA030130BDC4F10C04C4F158
:103CC000200220FA02F001FA04F340EA0300294638
:103CD00030BD21FA04F0294630BD94F0000F83F482
:103CE000801306BF81F480110134013D4EE77FEA65
:103CF000645C18BF7FEA655C29D094EA050F08BFB1
:103D000090EA020F05D054EA000C04BF1946104691
:103D100030BD91EA030F1EBF0021002030BD5FEAD5
:103D2000545C05D14000494128BF41F0004130BDFD
:103D300014F580043CBF01F5801130BD01F0004551
:103D400045F0FE4141F470014FF0000030BD7FEAC4
:103D5000645C1ABF194610467FEA655C1CBF0B46BF
:103D6000024650EA013406BF52EA033591EA030FD6
:103D700041F4002130BD00BF90F0000F04BF0021CE
:103D8000704730B54FF4806404F132044FF0000501
:103D90004FF0000150E700BF90F0000F04BF00217A
:103DA000704730B54FF4806404F1320410F00045E0
:103DB00048BF40424FF000013EE700BF42004FEADB
:103DC000E2014FEA31014FEA02701FBF12F07F4358
:103DD00093F07F4F81F06051704792F0000F14BF55
:103DE00093F07F4F704730B54FF4607401F0004599
:103DF00021F0004120E700BF50EA010208BF7047F0
:103E000030B54FF000050AE050EA010208BF7047E4
:103E100030B511F0004502D5404261EB41014FF44D
:103E2000806404F132045FEA915C3FF4DCAE4FF051
:103E300003025FEADC0C18BF03325FEADC0C18BF38
:103E4000033202EBDC02C2F1200300FA03FC20FA89
:103E500002F001FA03FE40EA0E0021FA02F11444D6
:103E6000C1E600BF70B54FF0FF0C4CF4E06C1CEAEB
:103E700011541DBF1CEA135594EA0C0F95EA0C0F60
:103E800000F0DEF82C4481EA030621EA4C5123EAD3
:103E90004C5350EA013518BF52EA033541F4801102
:103EA00043F4801338D0A0FB02CE4FF00005E1FBB5
:103EB00002E506F00042E0FB03E54FF00006E1FBFF
:103EC00003569CF0000F18BF4EF0010EA4F1FF0442
:103ED000B6F5007F64F5407404D25FEA4E0E6D4182
:103EE00046EB060642EAC62141EA55514FEAC52093
:103EF00040EA5E504FEACE2EB4F1FD0C88BFBCF50F
:103F0000E06F1ED8BEF1004F08BF5FEA500E50F1BF
:103F1000000041EB045170BD06F0004646EA010185
:103F200040EA020081EA0301B4EB5C04C2BFD4EBB7
:103F30000C0541EA045170BD41F480114FF0000EB0
:103F4000013C00F3AB8014F1360FDEBF002001F01E
:103F5000004170BDC4F10004203C35DA0C341BDC98
:103F600004F11404C4F1200500FA05F320FA04F06A
:103F700001FA05F240EA020001F0004221F000419E
:103F800010EBD37021FA04F642EB06015EEA430E11
:103F900008BF20EAD37070BDC4F10C04C4F1200541
:103FA00000FA04F320FA05F001FA04F240EA0200F4
:103FB00001F0004110EBD37041F100015EEA430EC5
:103FC00008BF20EAD37070BDC4F1200500FA05F2E5
:103FD0004EEA020E20FA04F301FA05F243EA020364
:103FE00021FA04F001F0004121FA04F220EA020073
:103FF00000EBD3705EEA430E08BF20EAD37070BDB9
:1040000094F0000F0FD101F00046400041EB010198
:1040100011F4801F08BF013CF7D041EA060195F07A
:10402000000F18BF704703F00046520043EB030334
:1040300013F4801F08BF013DF7D043EA0603704721
:1040400094EA0C0F0CEA135518BF95EA0C0F0CD02C
:1040500050EA410618BF52EA4306D1D181EA030172
:1040600001F000414FF0000070BD50EA410606BF6C
:104070001046194652EA430619D094EA0C0F02D1B1
:1040800050EA013613D195EA0C0F05D152EA0336F6
:104090001CBF104619460AD181EA030101F0004114
:1040A00041F0FE4141F470014FF0000070BD41F05D
:1040B000FE4141F4780170BD70B54FF0FF0C4CF437
:1040C000E06C1CEA11541DBF1CEA135594EA0C0F56
:1040D00095EA0C0F00F0A7F8A4EB050481EA030EA3
:1040E00052EA03354FEA013100F088804FEA03338A
:1040F0004FF0805545EA131343EA12634FEA022258
:1041000045EA111545EA10654FEA00260EF0004118
:104110009D4208BF964244F1FD0404F5407402D26A
:104120005B084FEA3202B61A65EB03055B084FEAFB
:1041300032024FF480104FF4002CB6EB020E75EBF8
:10414000030E22BFB61A754640EA0C005B084FEA20
:104150003202B6EB020E75EB030E22BFB61A75469D
:1041600040EA5C005B084FEA3202B6EB020E75EBE8
:10417000030E22BFB61A754640EA9C005B084FEA60
:104180003202B6EB020E75EB030E22BFB61A75466D
:1041900040EADC0055EA060E18D04FEA051545EA5C
:1041A00016754FEA06164FEAC30343EA52734FEA05
:1041B000C2025FEA1C1CC0D111F4801F0BD141EA7E
:1041C00000014FF000004FF0004CB6E711F4801FE3
:1041D00004BF01430020B4F1FD0C88BFBCF5E06FC3
:1041E0003FF6AFAEB5EB030C04BFB6EB020C5FEAD3
:1041F000500C50F1000041EB045170BD0EF0004E28
:104200004EEA113114EB5C04C2BFD4EB0C0541EA59
:10421000045170BD41F480114FF0000E013C90E656
:1042200045EA060E8DE60CEA135594EA0C0F08BF1A
:1042300095EA0C0F3FF43BAF94EA0C0F0AD150EA19
:1042400001347FF434AF95EA0C0F7FF425AF1046AC
:1042500019462CE795EA0C0F06D152EA03353FF4D4
:10426000FDAE1046194622E750EA410618BF52EA51
:1042700043067FF4C5AE50EA41047FF40DAF52EA25
:1042800043057FF4EBAE12E74FEA4102B2F1E0439F
:1042900024BFB3F5001CDCF1FE5C0DD901F0004C2D
:1042A0004FEAC0024CEA5070B2F1004F40EB83007D
:1042B00008BF20F00100704711F0804F21D113F1A9
:1042C0003872BCBF01F00040704741F480114FEAE2
:1042D0005252C2F11802C2F1200C10FA0CF320FA6B
:1042E00002F018BF40F001004FEAC1234FEAD32388
:1042F00003FA0CFC40EA0C0023FA02F34FEA4303F2
:10430000CCE77FEA625307D150EA01331EBF4FF07A
:10431000FE4040F44000704701F0004040F0FE4095
:1043200040F40000704700BF80F0004002E000BF92
:1043300081F0004142001FBF5FEA410392EA030F90
:104340007FEA226C7FEA236C6AD04FEA1262D2EBDA
:104350001363C1BFD218414048404140B8BF5B42DF
:10436000192B88BF704710F0004F40F4000020F078
:104370007F4018BF404211F0004F41F4000121F08E
:104380007F4118BF494292EA030F3FD0A2F10102D8
:1043900041FA03FC10EB0C00C3F1200301FA03F116
:1043A00000F0004302D5494260EB4000B0F5000F39
:1043B00013D3B0F1807F06D340084FEA310102F1F8
:1043C0000102FE2A51D2B1F1004F40EBC25008BFAA
:1043D00020F0010040EA03007047490040EB000074
:1043E00010F4000FA2F10102EDD1B0FA80FCACF1A3
:1043F000080CB2EB0C0200FA0CF0AABF00EBC250A2
:1044000052421843BCBFD0401843704792F0000F8F
:1044100081F4000106BF80F400000132013BB5E7E2
:104420004FEA41037FEA226C18BF7FEA236C21D058
:1044300092EA030F04D092F0000F08BF08467047BD
:1044400090EA010F1CBF0020704712F07F4F04D18B
:10445000400028BF40F00040704712F100723CBF9E
:1044600000F50000704700F0004343F0FE4040F4C8
:10447000000070477FEA226216BF08467FEA236386
:104480000146420206BF5FEA412390EA010F40F471
:10449000800070474FF0000304E000BF10F00043BD
:1044A00048BF40425FEA000C08BF704743F09643A4
:1044B00001464FF000001CE050EA010208BF7047BF
:1044C0004FF000030AE000BF50EA010208BF704746
:1044D00011F0004302D5404261EB41015FEA010C5B
:1044E00002BF84460146002043F0B64308BFA3F153
:1044F0008053A3F50003BCFA8CF2083AA3EBC25335
:1045000010DB01FA02FC634400FA02FCC2F1200253
:10451000BCF1004F20FA02F243EB020008BF20F08A
:104520000100704702F1200201FA02FCC2F12002F0
:1045300050EA4C0021FA02F243EB020008BF20EAE5
:10454000DC7070474FF0FF0C1CEAD0521EBF1CEA13
:10455000D15392EA0C0F93EA0C0F6FD01A4480EA01
:10456000010C400218BF5FEA41211ED04FF00063EA
:1045700043EA501043EA5111A0FB01310CF0004016
:10458000B1F5000F3EBF490041EAD3715B0040EA3C
:10459000010062F17F02FD2A1DD8B3F1004F40EB0C
:1045A000C25008BF20F00100704790F0000F0CF0DF
:1045B000004C08BF49024CEA502040EA51207F3AA3
:1045C000C2BFD2F1FF0340EAC250704740F400007E
:1045D0004FF00003013A5DDC12F1190FDCBF00F06F
:1045E00000407047C2F10002410021FA02F1C2F11D
:1045F000200200FA02FC5FEA310040F1000053EAB9
:104600004C0308BF20EADC70704792F0000F00F006
:10461000004C02BF400010F4000F013AF9D040EA0C
:104620000C0093F0000F01F0004C02BF490011F4A0
:10463000000F013BF9D041EA0C018FE70CEAD1539E
:1046400092EA0C0F18BF93EA0C0F0AD030F0004C1E
:1046500018BF31F0004CD8D180EA010000F00040D2
:10466000704790F0000F17BF90F0004F084691F090
:10467000000F91F0004F14D092EA0C0F01D14202CA
:104680000FD193EA0C0F03D14B0218BF084608D193
:1046900080EA010000F0004040F0FE4040F40000DD
:1046A000704740F0FE4040F4400070474FF0FF0C70
:1046B0001CEAD0521EBF1CEAD15392EA0C0F93EAB7
:1046C0000C0F69D0A2EB030280EA010C49024FEA09
:1046D000402037D04FF0805343EA111143EA1013C2
:1046E0000CF000408B4238BF5B0042F17D024FF47A
:1046F000000C8B4224BF5B1A40EA0C00B3EB510F55
:1047000024BFA3EB510340EA5C00B3EB910F24BF3D
:10471000A3EB910340EA9C00B3EBD10F24BFA3EBC2
:10472000D10340EADC001B0118BF5FEA1C1CE0D18A
:10473000FD2A3FF650AF8B4240EBC25008BF20F03D
:10474000010070470CF0004C4CEA50207F32C2BF91
:10475000D2F1FF0340EAC250704740F400004FF02E
:104760000003013A37E792F0000F00F0004C02BF5F
:10477000400010F4000F013AF9D040EA0C0093F029
:10478000000F01F0004C02BF490011F4000F013B83
:10479000F9D041EA0C0195E70CEAD15392EA0C0FEB
:1047A00008D142027FF47DAF93EA0C0F7FF470AF23
:1047B000084676E793EA0C0F04D14B023FF44CAF66
:1047C00008466EE730F0004C18BF31F0004CCAD1FB
:1047D00030F000427FF45CAF31F000437FF43CAF37
:1047E0005FE700BF08B5074B044613B10021AFF3E4
:1047F0000080054B1868836A03B19847204600F093
:1048000033F800BF00000000E848000070B50E4B10
:104810000E4D0024ED1AAD101E46AC4204D056F8E1
:10482000242090470134F8E700F020F8084D094BA8
:104830000024ED1AAD101E46AC4204D056F82420D8
:1048400090470134F8E770BD6C0000206C00002038
:10485000700000206C00002002440346934202D006
:1048600003F8011BFAE77047FEE700BFF8B500BF89
:10487000F8BC08BC9E467047F8B500BFF8BC08BC41
:104880009E467047010100000000000060670100C3
:1048900000000000010100000030000001000000E5
:1048A0000000000001000000050000000000000002
:1048B00040420F0005010000000000000000000061
:1048C000010100000000000060670100000000001E
:1048D000010100000000000060670100000000000E
:1048E00008091108430000000C000020000000002F
:0848F00064B8FF7F0100000025
:1048F80001020000006CDC020080000000000000E3
:10490800000000000000000000000000000000009F
:10491800000000000000000000000000E448000063
:10492800000000000000000000000000000000007F
:10493800000000000000000000000000000000006F
:10494800000000000000000000000000000000005F
:104958000000000000000000000000002501000029
:044968000101000049
:040000030000387948
:00000001FF
