:1000000000000220491700007F1700008117000040
:100010008317000085170000871700007D17000078
:100020007D1700007D1700007D1700008917000074
:100030008B1700007D1700008D1700008F17000040
:100040009117000093170000951700009717000004
:10005000991700009B1700009D1700009F170000D4
:10006000A1170000A3170000A5170000A7170000A4
:10007000A9170000AB170000AD170000AF17000074
:10008000B1170000B3170000B5170000B717000044
:10009000B9170000BB170000BD170000BF17000014
:1000A000C1170000C3170000C5170000C7170000E4
:1000B000C9170000CB170000CD170000CF170000B4
:1000C000D1170000D3170000D5170000D717000084
:1000D000D9170000DB170000DD170000000000004A
:1000E0000000000000000000000000000000000010
:1000F0000000000000000000000000000000000000
:1001000010B5054C237833B9044B13B10448AFF351
:1001100000800123237010BD70000020000000004B
:10012000A81A000008B5064B1BB106480649AFF3F4
:1001300000800648036813B1054B03B1984708BD1A
:1001400000000000A81A00007400002070000020C9
:1001500000000000154B002B08BF134B9D46A3F574
:10016000803A00218B460F461348144A121A01F0B8
:1001700057FC0F4B002B00D098470E4B002B00D0A4
:1001800098470020002104000D000D48002802D0EF
:100190000C48AFF3008001F01DFC2000290000F0A6
:1001A000B1FA01F003FC00BF0000080000000220CB
:1001B000000000000000000070000020AC000020E3
:1001C0000000000000000000044BDA6822F0020288
:1001D000DA60DA6842F00402DA60704700600040DA
:1001E00070B51D4B8AB01D4E0FCB01258DE80F0059
:1001F00069461B4802968DF800508DF801508DF825
:100200000C5000F06BFF059AAA2004210023ADF8E2
:100210001210ADF810001370059A03265570059A58
:10022000022493700E4804A9ADF81860ADF8204080
:1002300001F0A4F80A4800F08FFF0028FAD1079BCC
:1002400040F2214258781B7803EB0020831A584271
:1002500058410AB070BD00BF4C1A000034FD0500C3
:1002600000A00040954B70B41A68954942F0030213
:100270001A605A68934D22F00F0242F001025A6050
:100280005A68914C22F0F00242F040025A605E68D7
:100290008E4826F4706646F480665E609E688C4ADE
:1002A00026F00F0646F001069E609E6826F0F006D6
:1002B00046F020069E60DE6846F40076DE609E68AA
:1002C00026F4706646F400769E60DE6846F480662A
:1002D000DE605E6A46F003065E629E6C46F00306D0
:1002E0009E64DE6C26F4702646F43026DE645E6D75
:1002F00046F010065E65DE6C26F4700646F43006A5
:10030000DE645E6D46F020065E65DE6C26F070668B
:1003100046F03066DE645E6D46F040065E65DE6C7B
:1003200026F0704646F03046DE645E6D46F080068C
:100330005E65DE6E46F00306DE661E6F26F00F0673
:1003400046F004061E671E6F26F0F00646F0100603
:100350001E671E6F26F4706646F480661E671E6F69
:1003600026F4704646F480461E671E6F26F47026FB
:1003700046F480361E671E6F26F4700646F480062B
:100380001E679E6F46F020069E671E6F26F0706601
:1003900046F080761E671E6F26F0704646F0804657
:1003A0001E679E6F46F080069E675E6F26F00F0602
:1003B00046F002065E679E6F46F480769E67D3F82D
:1003C000906046F00306C3F89060D3F8986026F07A
:1003D0000F0646F00406C3F89860D3F8986026F03C
:1003E000F00646F04006C3F89860D3F8986026F40B
:1003F000706646F48066C3F89860D3F8986026F477
:10040000704646F48056C3F89860D3F8986026F496
:10041000702646F48026C3F89860D3F8986026F4D6
:10042000700646F48006C3F89860D3F8B46046F0CE
:100430000306C3F8B460D3F8B86026F00F0646F0A0
:100440000406C3F8B860D3F8B86026F0F00646F0AA
:100450001006C3F8B860D3F8B86026F4706646F4A6
:100460008066C3F8B860D3F8206126F00306C3F8AD
:1004700020618B6B23F4E06343F400738B638B6B1D
:1004800043F003038B63AB6B43F00303AB63A36ADB
:1004900023F4E06343F40073A362436D43F00F035E
:1004A0004365536D23F4E06343F480735365536DE8
:1004B00043F00F03536570BC704700BF00600040FD
:1004C00000A0004000A400400060084000C00040C0
:1004D00000C400402DE9F047512088B0052100F00C
:1004E0001DFC01200246014600F0C6FD77480321AD
:1004F00000F014FC7648012100F094FB75480121BE
:1005000000F090FB7448012100F08CFB734801213E
:1005100000F088FB7248012100F084FB7148012142
:1005200000F080FB7048012100F07CFB01216F4F3F
:100530000A46002000F0A0FD0120002101F05AF839
:100540003C460DF1080E0FCCAEE80F0002AD23685B
:10055000012600244FF480522846CEF80030ADF832
:100560000C208DF808408DF80A408DF818408DF861
:100570001A4005948DF8096004968DF8196000F012
:10058000E5F82046214600F021F9594BBA8A19684E
:10059000284621F0030119601968DFF860A121F0F5
:1005A0000C01196019684FF4E13921F4C051196048
:1005B00019684FF0050821F400511960ADF80820C2
:1005C0008DF80A608DF8096001F01CF807F1180C2D
:1005D000AE46BCE80F00AEE80F009CE803008EE8D2
:1005E0000300294650468DF814808DF815608DF86B
:1005F0001660ADF818408DF81A408DF81B408DF844
:100600001C40CDF8109001F025F8504601A98DF856
:1006100004408DF805408DF806408DF8074001F044
:100620007FF807F1180CAE46BCE80F00AEE80F00EB
:100630009CE803000AF5806A8EE8030029465046CC
:1006400030378DF81480CDF81090DFF8B4808DF835
:1006500015608DF81660ADF818408DF81A408DF8C9
:100660001B408DF81C4000F0F5FF504601A98DF8A5
:1006700004408DF805408DF806408DF8074001F0E4
:100680004FF897E80F0085E80F00294619488DF8C4
:1006900008608DF809608DF81460CDF8108000F0C6
:1006A0001DFD97E80F0085E80F00294612488DF8D8
:1006B00008608DF80960CDF810808DF8146000F0A6
:1006C0000DFDFFF7CFFD08B0BDE8F0870200060082
:1006D00000B2020000C20200301408000002020052
:1006E0000012020000D20200004304005C1A000065
:1006F00000800C4000A0004000A4004000C000406A
:1007000034FD050000B50F4B83B01C68684600F04F
:1007100087FFB4F1805F03D39DF80030032B08D02E
:10072000FFF7D8FEFFF750FDFFF75AFD0028FBD07A
:10073000FEE7054B1A6822F0500242F010021A60E0
:10074000EEE700BFFC81E00FC0800C4070B4017880
:100750008368B3FA83F4E4B2C4F11F0411B1184BF7
:1007600001221A60174A936BDD0706D4136813F44D
:10077000405F02D1D36BDB07FCD4827C114B8688AF
:100780005A60C268457846EA421245F00805867804
:100790002A43457C42EA8602007C42EA051242EA8C
:1007A000803242EA04224FF0FF3018631A6029B108
:1007B0000548034900221B6802600A6070BC70474C
:1007C00000070243001008400C000243064A936BE6
:1007D000D80706D4136813F4405F02D1D36B9B078C
:1007E000FCD4014BD96070470010084000F00F00A6
:1007F0000138042850D8DFE800F013233241030009
:10080000264BDB6A03F46033B3F5803F40D0B3F589
:10081000003F3BD0B3F5004F0CBF082001207047CC
:100820001E4BDB6A03F47053B3F5805F2ED0B3F533
:10083000005F2DD0B3F5006F0CBF0420052070477A
:10084000164B986A00F00300022820D0032821D01C
:1008500001281BD09B6ADA030ED5092070470F4A86
:10086000936A03F00C03082B12D00C2B12D0042B2C
:100870000CD0936ADB02F0D401207047074B1B6851
:1008800013F0805F14BF08200720704703207047D3
:1008900002207047062070470020704700800C40FF
:1008A00000F47810B0F5801F08B500F0DB8010D997
:1008B000B0F5B01F00F0A38063D9B0F5D01F31D0E0
:1008C000B0F5E01F00F0E580B0F5C01F25D0002096
:1008D00008BDB0F5802F00F0C18071D9B0F5002FB0
:1008E00037D0B0F5202F00F0A280B0F5C02FEED1A8
:1008F000B54A936A03F00303022B00F0D480032B64
:1009000000F00681012B00F03681AF4B9B6A180C7A
:10091000DED0BDE8084001F03FB8AC48FFF766FF05
:1009200007285FD1A84B5B6903F4E063B3F5007F50
:1009300000F0438140F2CA80B3F5C06F00F05481EB
:10094000B3F5E06F00F03D81B3F5407FBFD1A04823
:1009500008BD9D4A936A03F00303022B00F01E8139
:10096000032B00F0EA80012B00F00F81936A180C32
:1009700001D001F011F8944B9B6EC3F30313D840E0
:1009800008BDB0F5901F00F09280B0F5A01F9ED179
:100990008D4A936AC3F38103022B00F00881032B75
:1009A00000F0AB80012B00F0F680936A1B0D40F045
:1009B00020810020844B1B6F03F00303D84008BD47
:1009C00098B1B0F5003F82D100F07AFF7E4B1A68F3
:1009D0009B68C2F382320132B0FBF2F003F00F03E6
:1009E000D84008BD08287FF472AF00F069FF764B4D
:1009F0001B68C3F382330133B0FBF3F008BD724AC6
:100A0000936AC3F38103022B00F0D480032B00F020
:100A10008A80012B00F0BC80936A180D01D000F091
:100A2000BBFF694B1B6FC3F30113D84008BD664A77
:100A3000936A03F00303022B00F0B680032B51D01E
:100A4000012B00F0AE80936A1B0C40F0CF80002099
:100A50005D4B9B6EC3F30323D84008BDBDE808403F
:100A600000F0BEBE584A936A03F00303022B00F065
:100A70008980032B6BD0012B00F08180936A180CC6
:100A800001D000F089FF504B9B6E03F00303D84068
:100A900008BD5048FFF7AAFE03286CD008281DD0D7
:100AA00002287FF414AFBDE8084000F079BF464A41
:100AB000936AC3F38103022BF5D0032B51D0012B92
:100AC00059D0936A180D3FF403AF22E7002B76D07C
:100AD000B3F5807F7FF4FBAE3F4808BDBDE808401A
:100AE00000F0EEBE5368D90503D413685A0040F1F4
:100AF000938000F075FE8008AAE75368DB0503D4F5
:100B00001368580040F1848000F06AFE800851E7C5
:100B10005368D90503D42C4B1B685A0027D500F025
:100B20005FFE800808BD5368D90502D413685B00D6
:100B30006AD500F055FE800873E75368DB0502D4E0
:100B40001368580058D500F04BFE800813E753682F
:100B5000DB0502D41368580052D500F041FE80082E
:100B600091E75368D905DAD413685A00D7D400F056
:100B700037FE400808BDBDE8084000F009BF00F09E
:100B800007FF80E700F00CFF7DE700F001FFF2E6D1
:100B900000F0FEFE45E700F0FBFE0BE700F000FF73
:100BA000E9E600F0F5FE53E700F0FAFE50E700F04A
:100BB000F7FEFFE600F0F4FE33E7084808BD0848FA
:100BC00008BD084808BD00BF00800C4004001800A4
:100BD00040420F0005231C00C0D8A700C0CF6A0008
:100BE000809FD500406F40010D4808BD00F0D4FE45
:100BF0002EE700F0D1FEDDE600F0F2FD4008BAE697
:100C000000F0EEFD40083EE700F0EAFD400808E78E
:100C100000F0E6FD4008CDE600F0E2FD400817E7F1
:100C2000003FAB0170B5C0F30323013B82B0044623
:100C3000052B0FD8DFE803F02017221D031B294ADC
:100C40001020294DC4F304346B6DDB0704D5224416
:100C50009200116002B070BD2B6D1842F7D02B6D61
:100C60001842F9D1F3E7214AC4F30434EFE7204AEC
:100C7000FAE7204A0120E4E71F4AF5E71F480191FF
:100C8000FFF70EFE1E4B0199DB6CC3F307434A2BA3
:100C900011D04B2B24D01B4A482B0CBF13460023EA
:100CA000984206D9184A194801231360184A03606C
:100CB000DAE7174AD8E7174A124D16699369D269DD
:100CC00006F03F06C2F3031242EA062603F0F003E1
:100CD000114A3343B3F5017F34BF2B461346DFE798
:100CE0000D4BDDE70003E41000800C402002E4100F
:100CF000C003E410C002E4104000E410200004002F
:100D0000B081E00F0048E80178009043A0009043D4
:100D10000002E410D0FF0FE000366E0138B500F09D
:100D20000F04631E042B0AD8DFE803F0280F0F0A14
:100D3000030003293ED0082961D0022949D038BDDB
:100D4000072931D0082954D038BD01390829F6D8EF
:100D500001A252F821F000BFC50E0000CD0E000028
:100D6000E70E00003F0D00003F0D0000FF0E0000E9
:100D70003F0D00003F0D00009B0E000002390729C7
:100D8000DDD801A353F821F07D0F0000BD0E000057
:100D9000390F00000D0E00003F0D00003F0D000058
:100DA0003F0D0000890F0000A84B1A6822F0805206
:100DB0001A6038BDA54A40231362D36AA34C1906B2
:100DC000FBD500F081F960236362E36A9A03FCD5E6
:100DD00038BD9E4A4FF480731362D36A9B4C9D05C5
:100DE000FBD500F071F940236362E36AD803FCD5B8
:100DF00038BD964B1A6842F080521A6038BD934A4B
:100E000020235362D36A1B04FCD538BD012401237F
:100E100002228E490B62CB6A1A42FCD000F054F9D0
:100E20008B4B41F67132D86BDA635B6803F00703D2
:100E3000042B40F2B7800521854B5A6822F0070247
:100E40000A435A6008B10022DA63804B5C6200F00A
:100E50003BF900F0C5FC7E4B41F67131DA6BD9638A
:100E60005B6803F00703042B40F29080794B9842B3
:100E700000F2E180784B794903448B4294BF032010
:100E80000220734B596821F0070101435960002A81
:100E90003FF455AF0022DA6338BD4FF480114FF4B0
:100EA00080330022022C00F08680684A936A23F483
:100EB000801323F00C030B43936238BD03244023BB
:100EC0008022A6E700210B460A46EBE75F4A4FF473
:100ED00080731362D36A9905FCD500F0F5F80821F8
:100EE00000230222DEE7594A40231362D36A1B061D
:100EF000FCD500F0E9F8042100230122D2E7584B89
:100F000001221A6000F06CFC564BDB6CC3F3074304
:100F10004A2B7CD04B2B78D04E4A482B0CBF134623
:100F20000023984257D95049504A01230B6013605F
:100F30000C2100230322B5E700F022FD494BDB6CB6
:100F4000C3F307434A2B4CD04B2B48D0414A482B84
:100F50000CBF1346002398423C4B1A6835D942F027
:100F6000804242F060021A601B6CD80602D53F4BEB
:100F700001221A600224042308224AE704244FF4C1
:100F800080734FF4007244E7032440E7012101FA23
:100F900003F313F0130F3FF469AF2E4B98424CD973
:100FA00004206EE7012202FA03F313F0130F0CBFC3
:100FB0000521042140E725481343816A21F480314B
:100FC00021F003011943816238BD22F0600242F032
:100FD00020021A60CEE70C210023032262E7244B93
:100FE000B9E7244A1B4B14699169D26904F03F04A4
:100FF000C2F3031242EA042401F0F0011C4A214327
:10100000B1F5017F28BF1346A5E7194B89E7194AB7
:10101000104B15699169D26905F03F05C2F30312BF
:1010200042EA052501F0F001114A2943B1F5017F9B
:1010300028BF134675E7052023E7074B07490344FC
:101040008B428CBF002001201BE700BF00800C40BA
:1010500000000C400048E801FFDB0BFFFF23F40019
:1010600010089043B081E00F78009043A0009043B7
:1010700000366E01D0FF0FE0042822D8DFE800F030
:101080001C13031619000423082041B10D490B62FB
:101090001AB10A46D36A1842FCD000F015B8094BC1
:1010A000186200F011B840238020EEE701230220EF
:1010B000EBE710232020E8E74FF480734FF4007033
:1010C000E3E7704700800C40024A034BD26A1A6083
:1010D000704700BF00800C408C000020F0B500F18C
:1010E00004764A78F6000446731C184800259B00D5
:1010F00082F00102656320631A608D6883B04868DE
:101100000F7BA5B1236823F440732360236843EA6F
:1011100007232360A0B10E4AA0EB8500D25D2368AF
:1011200005FB02F59B07B0FBF5F005D420610B78B9
:10113000B600336003B0F0BD002808BF0120F5E71A
:1011400004480191FFF7ACFB0199E4E7CFFF0100F0
:101150009C1A000010810200854A2DE9F00390429C
:10116000034600F0C68002F58062904240F0BC80E9
:10117000804A94684025052600274FF0030C996AA1
:1011800011F4C06F40F0CB801078082800F2B380D3
:10119000DFE800F016284B573F906C730500C90537
:1011A0001CD54FF48070186309215078117040B23B
:1011B00000210128596300F0A380BDE8F0037047C7
:1011C00061882088CD0640F19E80000A00F006006C
:1011D00040F0F00001211170586259600120BDE813
:1011E000F0037047080600F1A7804906F6D561882C
:1011F0001D63C80600F1B68089073CD51179072028
:1012000004EBC104218910700129E7D108225A603A
:10121000E4E7080600F190804806DFD561881D6389
:10122000490728D507231370D8E7080600F1848002
:101230004806D3D561881D6389071CD582F800C094
:101240009DE760882188C50643BF090A01F00601B1
:1012500041F0F00101F0FE01440748BF41F00101F7
:1012600004240120147058605962B7E7080663D45B
:101270004906B3D51D63167081E78806AED511798E
:10128000508804EBC1042189DD69814242D9646838
:10129000461C56802554508881423BD9042401299C
:1012A0005C6002D0013988424FD01178092995D16C
:1012B00050787CE71179508804EBC108B8F80890A1
:1012C000814546D80131C9B211716088578010F04C
:1012D000040FB3D1C00702D401297FF650AF082014
:1012E00002211070596079E76FF00300BDE8F00348
:1012F0007047214A3DE7FB2009215070117056E7E5
:101300005170084659E700F0FE008C0748BF40F0D6
:1013100001005FE70129E2D108215960DFE78F056D
:1013200004D5FD2050700921117040E74E054ABFD9
:10133000FE2050785070F6E78025FF240820022117
:101340001D6354701070596048E708215960117886
:10135000ACE7D8F80410441C5480085C062158629D
:1013600011703BE7217802201070596236E700BF08
:1013700000A000409C00002090000020994A2DE928
:10138000F0039042034600F0D78002F5806290425D
:1013900041D1954A9868C50744BF202058604888C5
:1013A000840702D50C89002C35D0400730D40020AA
:1013B0000125C024107191601070508055705C60E0
:1013C0009A6A8A48920648BFDA69864A4FF4FC61F5
:1013D00093421863596300F0B18002F58062934232
:1013E00019D1814A94684025052600274FF0030C47
:1013F000996A11F4C06F40F0C9801078082800F293
:101400009F80DFE800F01684616C263248500D00A2
:10141000088A0028CBD16FF00300BDE8F0037047C5
:10142000C90570D54FF48070092118635078117088
:101430008AE061882088CD0600F18F8000F0FE00F0
:101440008C0748BF40F001000121117058625960BB
:1014500059E0080600F1A780480654D561881D634D
:1014600049071ED5072313704DE01179508804EB0E
:10147000C108B8F80890814500F2A5800131C9B2D1
:1014800011716088578010F0040F25D1C00716D461
:10149000012914D8ACE7080600F18580490632D549
:1014A0001D631670A4E788062DD51179508804EBCA
:1014B000C1042189DD69814255D801297CD00820E9
:1014C0000221107059601EE008066CD448061AD537
:1014D00061881D638907E4D582F800C088E76088C9
:1014E0002188C50643BF090A01F0060141F0F00159
:1014F00001F0FE01440748BF41F00101042401202E
:101500001470586059620120BDE8F0037047080666
:1015100049D44906F7D561881D63C8065CD489079C
:10152000BFD51179072004EBC1042189107001296E
:10153000E9D108225A60E6E72D4A2BE72C4A51E709
:10154000FB2009215070117040B20021012859631D
:101550007FF463AF517008465FE7000A00F00600B1
:1015600040F0F00070E76468461C568025545088AF
:101570008142A2D9042401295C6002D00139884249
:101580001DD011780929BED15078DDE78F0504D52B
:10159000FD20507009211170D6E74E054ABFFE208C
:1015A00050785070F6E78025FF24082002211D6343
:1015B000547010705960A6E7082159607FE7082130
:1015C00059601178DEE7D8F80410441C5480085C98
:1015D00006215862117096E7217802201070596236
:1015E00091E700BF00A000409C000020CFFF010059
:1015F0009000002000F1875000F5A02080000160DD
:10160000704700BF427803780AB143F00203827842
:101610000AB143F00403014A136070470000084018
:101620000B4B59691A6901F00F01C2F3811242EAAA
:10163000810282701A6902F03F0242709A69DB6986
:1016400002F0F002C3F3031313430370704700BFAB
:10165000D0FF0FE02D4AF8B50446002340F6AA67F4
:1016600041F2050641F6F9709442E7600D462360A9
:101670006660A3606361E364A064636543D0244A49
:10168000A36594423CD0234B9C4239D02A8AA97B43
:10169000236842F00102002992B242EA03020CBF21
:1016A00000234FF480631A43AB7C287D22602268BC
:1016B000002B0CBF002110212B7B002841EA0202E5
:1016C00068680CBF00214FF000510A4343F4805377
:1016D0002260AE68636010B90F48FFF7E1F8731E2F
:1016E00003EB4000B0FBF6F6B6010C4B403E6A7BC4
:1016F000334063610AB11023E3602B78E360F8BDE7
:101700000023E365C2E72365A365BFE700C000408F
:1017100000C4004000C800401081020000FF1F000C
:1017200083680A7823F077030AB143F040038A788C
:101730000AB143F020034A780AB143F01003CA7893
:1017400013438360704700BF074880470749084A32
:10175000084B9B1A40F30580043BC858D0503FF714
:10176000FBAF0548004700008D190000B41A0000C7
:10177000000000207000002055010000FEE7FEE799
:10178000FEE7FEE7FEE7FEE7FEE7FEE7FEE7FEE731
:10179000FEE7FEE7FEE7FEE7FEE7FEE7FEE7FEE721
:1017A000FEE7FEE7FEE7FEE7FEE7FEE7FEE7FEE711
:1017B000FEE7FEE7FEE7FEE7FEE7FEE7FEE7FEE701
:1017C000FEE7FEE7FEE7FEE7FEE7FEE7FEE7FEE7F1
:1017D000FEE7FEE7FEE7FEE7FEE7FEE7FEE700BF07
:1017E0002A4AD36A03F47053B3F5805F2AD0B3F565
:1017F000005F24D0B3F5006F11D0D36803F4E06329
:10180000B3F5007F3FD020D9B3F5806F39D0B3F561
:10181000A06F34D0B3F5407F25D0002101E01C4BF0
:1018200019681A4B1B4A18685B68C0F38230013094
:10183000B1FBF0F003F00F03D84010607047164B77
:101840001968EEE74FF40041EBE773B1B3F5807F21
:10185000E3D1124B124AD96C124BB1F1985F34BFED
:1018600011461946DDE71049DBE70C4B0F4AD96CEE
:101870000F4BB1F1985F34BF11461946D1E70D49BE
:10188000CFE70D49CDE70D49CBE700BF00800C4005
:1018900004000020A800002000000020B081E00F1C
:1018A000C0CF6A0040B56400809FD50040420F0061
:1018B000804F1200003FAB01406F4001C0D8A7002D
:1018C000234AD36A03F47053B3F5805F1DD0B3F598
:1018D000005F17D0B3F5006F11D0D36803F4E06355
:1018E000B3F5007F32D013D9B3F5806F2CD0B3F5A8
:1018F000A06F27D0B3F5407F18D000207047154B5C
:1019000018687047144B186870474FF400407047D0
:1019100073B1B3F5807FF0D1104B114AD86C114BE5
:10192000B0F1985F34BF1046184670470E487047B4
:101930000A4B0E4AD86C0E4BB0F1985F34BF10467C
:10194000184670470B4870470B4870470B48704764
:1019500000800C400400002000000020B081E00F57
:10196000C0CF6A0040B56400809FD50040420F00A0
:10197000804F1200003FAB01406F4001C0D8A7006C
:10198000014B1868704700BF04000020704700BF7B
:101990004FF40040704700BF4FF47A70704700BFAB
:1019A000014B1868704700BF0000002008B5074BC6
:1019B000044613B10021AFF30080054B1868836A19
:1019C00003B19847204600F033F800BF0000000044
:1019D000A41A000070B50E4B0E4D0024ED1AAD1088
:1019E0001E46AC4204D056F8242090470134F8E754
:1019F00000F020F8084D094B0024ED1AAD101E46EA
:101A0000AC4204D056F8242090470134F8E770BD6A
:101A100068000020680000206C00002068000020A2
:101A200002440346934202D003F8011BFAE77047D1
:101A3000FEE700BFF8B500BFF8BC08BC9E46704783
:101A4000F8B500BFF8BC08BC9E4670470101000015
:101A500000000000606701000000000001010000BC
:101A60000030000001000000000000000100000044
:101A700001000100050000000000000040420F00CE
:101A8000050100000000000000000000010100004E
:101A90000000000060670100000000000809110854
:0C1AA000430000000800002000000000CF
:081AAC00A8E6FF7F0100000025
:101AB40000800000006CDC02000000000000000058
:101AC4000000000000000000000000000000000012
:101AD4000000000000000000A01A00000000000048
:101AE40000000000000000000000000000000000F2
:101AF40000000000000000000000000000000000E2
:101B040000000000000000000000000000000000D1
:101B14000000000000000000250100000101000099
:040000030000174999
:00000001FF
