:1000000000000220D12C0000072D0000092D000067
:100010000B2D00000D2D00000F2D0000052D000000
:10002000052D0000052D0000052D0000112D0000FC
:10003000132D0000052D0000152D0000172D0000C8
:10004000192D00001B2D00001D2D00001F2D00008C
:10005000212D0000232D0000252D0000272D00005C
:10006000292D00002B2D00002D2D00002F2D00002C
:10007000312D0000332D0000352D0000372D0000FC
:10008000392D00003B2D00003D2D00003F2D0000CC
:10009000412D0000432D0000452D0000472D00009C
:1000A000492D00004B2D00004D2D00004F2D00006C
:1000B000512D0000532D0000552D0000572D00003C
:1000C000592D00005B2D00005D2D00005F2D00000C
:1000D000612D0000632D0000652D00000000000070
:1000E0000000000000000000000000000000000010
:1000F0000000000000000000000000000000000000
:1001000010B5054C237833B9044B13B10448AFF351
:1001100000800123237010BD7C000020000000003F
:100120007050000008B5064B1BB106480649AFF3F6
:1001300000800648036813B1054B03B1984708BD1A
:100140000000000070500000800000207C000020B3
:1001500000000000154B002B08BF134B9D46A3F574
:10016000803A00218B460F461348144A121A04F0B5
:100170000DFF0F4B002B00D098470E4B002B00D0EB
:1001800098470020002104000D000D48002802D0EF
:100190000C48AFF3008004F0D3FE2000290001F0EA
:1001A0006BFD04F0B9FE00BF000008000000022053
:1001B00000000000000000007C000020BC000020C7
:1001C0000000000000000000044BDA6822F0020288
:1001D000DA60DA6842F00402DA60704700600040DA
:1001E00070B51D4B8AB01D4E0FCB01258DE80F0059
:1001F00069461B4802968DF800508DF801508DF825
:100200000C5002F02FFA059AAA2004210023ADF821
:100210001210ADF810001370059A03265570059A58
:10022000022493700E4804A9ADF81860ADF8204080
:1002300002F068FB0A4802F053FA0028FAD1079B43
:1002400040F2214258781B7803EB0020831A584271
:1002500058410AB070BD00BFB84F000034FD050022
:1002600000A00040954B70B41A68954942F0030213
:100270001A605A68934D22F00F0242F001025A6050
:100280005A68914C22F0F00242F040025A605E68D7
:100290008E4826F4706646F480665E609E688C4ADE
:1002A00026F00F0646F001069E609E6826F0F006D6
:1002B00046F020069E60DE6846F40076DE609E68AA
:1002C00026F4706646F400769E60DE6846F480662A
:1002D000DE605E6A46F003065E629E6C46F00306D0
:1002E0009E64DE6C26F4702646F43026DE645E6D75
:1002F00046F010065E65DE6C26F4700646F43006A5
:10030000DE645E6D46F020065E65DE6C26F070668B
:1003100046F03066DE645E6D46F040065E65DE6C7B
:1003200026F0704646F03046DE645E6D46F080068C
:100330005E65DE6E46F00306DE661E6F26F00F0673
:1003400046F004061E671E6F26F0F00646F0100603
:100350001E671E6F26F4706646F480661E671E6F69
:1003600026F4704646F480461E671E6F26F47026FB
:1003700046F480361E671E6F26F4700646F480062B
:100380001E679E6F46F020069E671E6F26F0706601
:1003900046F080761E671E6F26F0704646F0804657
:1003A0001E679E6F46F080069E675E6F26F00F0602
:1003B00046F002065E679E6F46F480769E67D3F82D
:1003C000906046F00306C3F89060D3F8986026F07A
:1003D0000F0646F00406C3F89860D3F8986026F03C
:1003E000F00646F04006C3F89860D3F8986026F40B
:1003F000706646F48066C3F89860D3F8986026F477
:10040000704646F48056C3F89860D3F8986026F496
:10041000702646F48026C3F89860D3F8986026F4D6
:10042000700646F48006C3F89860D3F8B46046F0CE
:100430000306C3F8B460D3F8B86026F00F0646F0A0
:100440000406C3F8B860D3F8B86026F0F00646F0AA
:100450001006C3F8B860D3F8B86026F4706646F4A6
:100460008066C3F8B860D3F8206126F00306C3F8AD
:1004700020618B6B23F4E06343F400738B638B6B1D
:1004800043F003038B63AB6B43F00303AB63A36ADB
:1004900023F4E06343F40073A362436D43F00F035E
:1004A0004365536D23F4E06343F480735365536DE8
:1004B00043F00F03536570BC704700BF00600040FD
:1004C00000A0004000A400400060084000C00040C0
:1004D00000C400402DE9F047512088B0052101F00B
:1004E000E1FE01200246014602F08AF87748032126
:1004F00001F0D8FE7648012101F058FE754801212F
:1005000001F054FE7448012101F050FE73480121AE
:1005100001F04CFE7248012101F048FE71480121B2
:1005200001F044FE7048012101F040FE01216F4FAF
:100530000A46002002F064F80120002102F01EFBB0
:100540003C460DF1080E0FCCAEE80F0002AD23685B
:10055000012600244FF480522846CEF80030ADF832
:100560000C208DF808408DF80A408DF818408DF861
:100570001A4005948DF8096004968DF8196001F011
:10058000A9FB2046214601F0E5FB594BBA8A1968C0
:10059000284621F0030119601968DFF860A121F0F5
:1005A0000C01196019684FF4E13921F4C051196048
:1005B00019684FF0050821F400511960ADF80820C2
:1005C0008DF80A608DF8096002F0E0FA07F1180C66
:1005D000AE46BCE80F00AEE80F009CE803008EE8D2
:1005E0000300294650468DF814808DF815608DF86B
:1005F0001660ADF818408DF81A408DF81B408DF844
:100600001C40CDF8109002F0E9FA504601A98DF88F
:1006100004408DF805408DF806408DF8074002F043
:1006200043FB07F1180CAE46BCE80F00AEE80F0024
:100630009CE803000AF5806A8EE8030029465046CC
:1006400030378DF81480CDF81090DFF8B4808DF835
:1006500015608DF81660ADF818408DF81A408DF8C9
:100660001B408DF81C4002F0B9FA504601A98DF8E4
:1006700004408DF805408DF806408DF8074002F0E3
:1006800013FB97E80F0085E80F00294619488DF8FD
:1006900008608DF809608DF81460CDF8108001F0C5
:1006A000E1FF97E80F0085E80F00294612488DF812
:1006B00008608DF80960CDF810808DF8146001F0A5
:1006C000D1FFFFF7CFFD08B0BDE8F08702000600BC
:1006D00000B2020000C20200301408000002020052
:1006E0000012020000D2020000430400C84F0000C4
:1006F00000800C4000A0004000A4004000C000406A
:1007000034FD050070B586B0029B01210A22182431
:10071000ADF80610ADF804401A70029B00225A7022
:100720000546022301A95248ADF80C3002F0EAF860
:100730004F4801F0D5FF0028FAD1029B1820012173
:100740000A22ADF80400ADF806101A70029B0F22C1
:100750005A704748022301A9ADF80C3002F0D2F8D4
:10076000434801F0BDFF0028FAD1029B1820042263
:100770001021ADF80400ADF806203D4819700122A3
:10078000032301A9ADF80C20ADF8143002F0BAF83B
:10079000374801F0A5FF04460028F9D1049E3078BF
:1007A000803804F00FFA03F015FE0022314B03F0FD
:1007B00065FE0022304B03F0AFFC04F0F9F828602E
:1007C0007078803804F0FEF903F004FE0022294B13
:1007D00003F054FE0022284B03F09EFC04F0E8F8DE
:1007E0006860B0781826803804F0ECF903F0F2FD68
:1007F0000022204B03F042FE00221F4B03F08CFC32
:1008000004F0D6F8029B01210A22A860ADF8061078
:10081000ADF804601A70029B02225C70144801A9B2
:10082000ADF80C2002F06EF8114801F059FF0028D5
:10083000FAD1029B0A20182501241049104AADF86C
:100840000450ADF80640187009781278029B42EA0D
:1008500001125A7001A902230548ADF80C3002F0CC
:1008600051F8034801F03CFF0028FAD106B070BDF2
:1008700000A400400000703F0000F03F0100002095
:100880000000002070B5C34B8AB001ACC24E0FCB44
:10089000012584E80F002146C04803968DF80450D6
:1008A0008DF805508DF8105001F0DCFE069BD0212C
:1008B0006B22ADF81410ADF816501A70069B00228A
:1008C0005A7005A90223B548ADF81C3002F01AF899
:1008D000B24801F005FF0028FAD1069AD020012382
:1008E0006B21ADF81400ADF816301170069A022491
:1008F0005370AA4805A9ADF81C4002F003F8A748B8
:1009000001F0EEFE0028FAD1069BD02001211A2228
:10091000ADF81400ADF816101A70069B03225A7039
:100920009E48022305A9ADF81C3001F0EBFF9B485F
:1009300001F0D6FE0028FAD1069BD0200121192211
:10094000ADF81400ADF816101A70069B04225A7008
:100950009248022305A9ADF81C3001F0D3FF8F485F
:1009600001F0BEFE0028FAD1069AD02004231B21F4
:10097000ADF81400ADF8163088481170012305A9B0
:10098000ADF81C30ADF8243001F0BCFF834801F015
:10099000A7FE0028FAD1089A069B01201B21D0252A
:1009A0001478ADF81600ADF814501970069B24F0B9
:1009B00002025A707948022305A9ADF81C3001F0F3
:1009C000A1FF764801F08CFE0028FAD1069BD020CA
:1009D00001211B22ADF81400ADF816101A70069B09
:1009E00024F018025A706D48022305A9ADF81C3096
:1009F00001F088FF694801F073FE0028FAD1069BD8
:100A000001201B21D025664AADF81600ADF8145020
:100A100019701278069B44EAC2045C705F48022396
:100A200005A9ADF81C3001F06DFF5C4801F058FEDF
:100A30000028FAD1069AD02004231C21ADF8140016
:100A4000ADF8163055481170012305A9ADF81C30DA
:100A5000ADF8243001F056FF504801F041FE002867
:100A6000FAD1089A069B01201C21D0251478ADF8F4
:100A70001600ADF814501970069B24F018025A7035
:100A80004648022305A9ADF81C3001F03BFF43485E
:100A900001F026FE0028FAD1069B01201C21D0255A
:100AA000404AADF81600ADF8145019701278069B44
:100AB00044EAC2045C703948022305A9ADF81C3031
:100AC00001F020FF354801F00BFE0028FAD1069A0C
:100AD000D02004231D21ADF81400ADF816302F48A6
:100AE0001170012305A9ADF81C30ADF8243001F0D8
:100AF00009FF2A4801F0F4FD0028FAD1089A069B64
:100B000001201D21D0251478ADF81600ADF8145041
:100B10001970069B24F00F025A702048022305A981
:100B2000ADF81C3001F0EEFE1C4801F0D9FD0028A4
:100B3000FAD1069BD02001211D22ADF81400ADF89A
:100B400016101A70069B44F003045C7013480223CD
:100B500005A9ADF81C3001F0D5FE104801F0C0FD2C
:100B60000028FAD1069BD02001213722ADF81400CD
:100B7000ADF816101A70069B22225A7007480223FD
:100B800005A9ADF81C3001F0BDFE044801F0A8FD38
:100B90000AE000BF0850000034FD050000A400403A
:100BA00099000020980000200028EED1069A012329
:100BB000D0203821ADF81400ADF816301170069A27
:100BC00005A9537006480223ADF81C3001F09AFEC7
:100BD000034801F085FD0028FAD101200AB070BD5C
:100BE00000A400402DE9F04F91B00B9B6B22D02563
:100BF0000124ADF82850ADF82A401A700B9B8022D2
:100C00005A700190029102230AA9C348ADF830300E
:100C100001F078FEC04801F063FD0028FAD10B9A7C
:100C2000D02001236B21ADF82800ADF82A301170D7
:100C30000B9A02245370B8480AA9ADF8304001F06D
:100C400061FEB54801F04CFD0028FAD10B9B012153
:100C50006C22D024ADF82A10ADF828401A700B9BF6
:100C6000022258700AA9AC48ADF8302001F04AFEC3
:100C7000A94801F035FD0028FAD10B9B012138224B
:100C8000D024ADF82A10ADF828401A700B9B022230
:100C900058700AA9A048ADF8302001F033FE9E48F4
:100CA00001F01EFD0028FAD10B9B01212322D02444
:100CB000ADF82A10ADF828401A700B9B022258702C
:100CC0000AA99548ADF8302001F01CFE924801F0C9
:100CD00007FD0028FAD10B9B01216B22D024ADF82F
:100CE0002A10ADF828401A700B9B022258700AA9EE
:100CF0008948ADF8302001F005FE874801F0F0FC8E
:100D00000028FAD10B9B01212422D024ADF82A100F
:100D1000ADF828401A700B9B022258700AA97E4831
:100D2000ADF8302001F0EEFD7B4801F0D9FC002841
:100D3000FAD10B9B01216A22D024ADF82A10ADF81C
:100D400028401A700B9B022258700AA97248ADF80D
:100D5000302001F0D7FD704801F0C2FC0028FAD124
:100D60000B9BD02001216A22ADF82800ADF82A1093
:100D70001A700B9B0C225A70674802230AA9ADF81F
:100D8000303001F0BFFD644801F0AAFC0028FAD120
:100D90000B9AD02001231A21ADF82800ADF82A3093
:100DA00011700B9A022453705B480AA9ADF83040C9
:100DB00001F0A8FD584801F093FC0028FAD10B9BE4
:100DC00001211922D024ADF82A10ADF828401A705C
:100DD0000B9B022258700AA94F48ADF8302001F051
:100DE00091FD4D4801F07CFC0028FAD10B9B0121BC
:100DF0001B22D024ADF82A10ADF828401A700B9BA6
:100E0000022258700AA94448ADF8302001F07AFD5A
:100E1000414801F065FC0028FAD10B9B01211C22FE
:100E2000D024ADF82A10ADF828401A700B9B02228E
:100E300058700AA93848ADF8302001F063FD3648F3
:100E400001F04EFC0028FAD10B9BD02001216A2230
:100E5000ADF82800ADF82A101A700B9B40225A708A
:100E60002D4802230AA9ADF8303001F04BFD2A4885
:100E700001F036FC0028FAD10B9BD020012123225F
:100E8000ADF82800ADF82A101A700B9B78225A7022
:100E9000214802230AA9ADF8303001F033FD1E4885
:100EA00001F01EFC0028FAD10B9B01212322D02443
:100EB000ADF82A10ADF828401A700B9B022258702A
:100EC0000AA91548ADF8302001F01CFD124801F0C8
:100ED00007FC0028FAD10B9BD02004227221ADF828
:100EE0002800ADF82A200C481970012202230AA913
:100EF000ADF83020ADF8383001F004FD064801F0BF
:100F0000EFFB0028FAD10D9B044A93F800B05B7800
:100F100043EA0B2B04E000BF00A40040ABAAAAAA3E
:100F2000A2FB0B1B5FEADB0B00F070820446074656
:100F3000064605468146804682460B9B4FF0D0010F
:100F40007422ADF828104FF00401ADF82A10B4480F
:100F50001A700AA901220C23ADF83020ADF8383000
:100F600001F0D0FCAE4801F0BBFB0028FAD10D9B8C
:100F7000013419785A7893F802C042EA0122D978EC
:100F800093F804E041EA0C2C5979987941EA0E2E45
:100F9000D97912B241EA00209144197A5A7A0FFAAB
:100FA0008CFC42EA01219A7ADB7A0FFA8EFE43EA40
:100FB0000222A3B200B209B212B29B45E044F2444D
:100FC00007440E441544B8D89AFBFBFA97FBFBF78D
:100FD000BAF1000FCCBFAAF5804A0AF5804A002F6B
:100FE0003B46B8BFFB1C9B1096FBFBF65A42D3B2A4
:100FF000002E03933346B8BFF31C9B105B42C3F330
:101000000721DBB204910593D0210B9B95FBFBF5E7
:10101000ADF8281001201321ADF82A00002D197019
:101020002C460B9BB8BFEC1CA410121264425A70E1
:101030007B4802230AA999FBFBF998FBFBF8ADF862
:101040003030C4F3072BE4B201F05CFC744801F0CB
:1010500047FB0028FAD10B9BD022ADF828200121B4
:101060001422ADF82A101A7003990B9B02225970B2
:101070006B480AA9ADF8302001F044FC684801F043
:101080002FFB0028FAD10B9BD022ADF8282001219C
:101090001522ADF82A101A7004990B9B0222597080
:1010A0005F480AA9ADF8302001F02CFC5C4801F043
:1010B00017FB0028FAD10B9BD022ADF82820012184
:1010C0001622ADF82A101A7005990B9B022259704E
:1010D00053480AA9ADF8302001F014FC504801F043
:1010E000FFFA0028FAD10B9BD022ADF8282001216D
:1010F0001722ADF82A101A700B9B022283F801B058
:1011000047480AA9ADF8302001F0FCFB444801F043
:10111000E7FA0028FAD10B9BD02001211822ADF864
:101120002800ADF82A101A700B9B02225C703C4814
:101130000AA9ADF8302001F0E5FB394801F0D0FAFA
:101140000028FAD1384603F03DFD364903F042FE4F
:10115000019BD0241860304603F034FD314903F080
:1011600039FE019B5860284603F02CFD2D4903F001
:1011700031FE0B9B019D04227721A860ADF82A2047
:10118000ADF8284001221970254802230AA9ADF8BC
:101190003020ADF8383001F0B5FB214801F0A0FA5D
:1011A0000028FAD10D9B0B9A5C781D78D020042181
:1011B0007A2344EA0525ADF82800ADF82A10012469
:1011C0001370174802230AA90795ADF83040ADF80F
:1011D000383001F097FB124801F082FA0028FAD16A
:1011E0000D9B0B9A1E785C78D02004217D2344EA65
:1011F0000624ADF82800ADF82A100126137008481F
:1012000002230AA90894ADF83060ADF8383001F037
:1012100079FB034801F064FA0028FAD104E000BF2A
:1012200000A400400000034307990D9A8DF81800B0
:101230008DF819008DF81A00C8071678537844BF46
:1012400001228DF81820089A43EA0623D10748BFE7
:101250000122099348BF8DF81920099A4746D20701
:1012600044BF01228DF81A20B9F1000F4A46B8BFD9
:1012700009F10702B8F1000FA5EBE205B8BF08F1CC
:1012800007070B9AA4EBE707D02601247720ADF8D7
:101290002860ADF82A40BAF1000F107051460B9A41
:1012A000B8BF0AF107019DF81A409DF818B09DF8E3
:1012B0001960A3EBE1032912517045EA0B0B3E4381
:1012C0001C43022255480AA9E4B2C3F307255FFA7A
:1012D0008BFBF6B2C7F30727ADF8302001F012FB05
:1012E0004E4801F0FDF90028FAD10B9BD0200121D6
:1012F0007822ADF82800ADF82A101A700B9B022254
:1013000083F801B045480AA9ADF8302001F0FAFA97
:10131000424801F0E5F90028FAD10B9BD0200121C9
:101320007A22ADF82800ADF82A101A700B9B022221
:101330005F703A480AA9ADF8302001F0E3FA374867
:1013400001F0CEF90028FAD10B9BD02001217B229D
:10135000ADF82800ADF82A101A700B9B02225E70BF
:101360002E480AA9ADF8302001F0CCFA2B4801F044
:10137000B7F90028FAD10B9BD02001217D22ADF8CE
:101380002800ADF82A101A700B9B02225D702348CA
:101390000AA9ADF8302001F0B5FA204801F0A0F913
:1013A0000028FAD10B9BD02001217E22ADF8280025
:1013B000ADF82A101A700B9B0AA95C70174802231B
:1013C000ADF8303001F09EFA144801F089F9002898
:1013D000FAD1484603F0F6FB4FF0625103F046FCA9
:1013E000029B1860404603F0EDFB4FF0625103F0A2
:1013F0003DFC029D6860504603F0E4FB4FF06251F3
:1014000003F034FCA86011B0BDE8F08F5F465E4683
:101410005D46D946D846DA46D6E500BF00A400406E
:101420002DE9F04F97B00B9B01211922D024ADF884
:101430002A10ADF828401A700B9B00225A700190B8
:1014400002230AA9CE48ADF8303001F05BFACC484F
:1014500001F046F90028FAD10B9BD02001211A2275
:10146000ADF82800ADF82A101A700B9A02235370B9
:10147000C3480AA9ADF8303001F044FAC04801F081
:101480002FF90028FAD10B9AD02001231B21ADF8A7
:101490002800ADF82A3011700B9A02245370B84816
:1014A0000AA9ADF8304001F02DFAB54801F018F95D
:1014B0000028FAD10B9BD02001211D22ADF8280075
:1014C000ADF82A101A700B9A02235370AC480AA97F
:1014D000ADF8303001F016FAA94801F001F9002802
:1014E000FAD10B9AD02001231C21ADF82800ADF8C9
:1014F0002A3011700B9A02245370A1480AA9ADF842
:10150000304001F0FFF99E4801F0EAF80028FAD1D6
:10151000BDF810A0BDF81290BDF81480BDF8087099
:10152000BDF80A60BDF80C50C8244FF0D00B0B9BDF
:101530003B224FF00401ADF82A10ADF828B09048D6
:101540001A700AA901220623ADF83020ADF8383010
:1015500001F0D8F98A4801F0C3F80028FAD10D9BB0
:101560000B9A597893F800E0987841EA0E2ED978D2
:10157000F24441EA002019795B79814443EA01236E
:1015800098444FF004014323ADF82A101FFA8AFA59
:10159000ADF828B01FFA89F913701FFA88F80122F4
:1015A000062377480AA9ADF810A0ADF81290ADF85F
:1015B0001480ADF83020ADF8383001F0A3F9704850
:1015C00001F08EF80028FAD10D9B013C5A78197869
:1015D00093F802E042EA01211879DA785B7942EA6D
:1015E0000E2243EA00230F4416441D44BFB2B6B294
:1015F000ADB2ADF80870ADF80A60ADF80C5096D1F8
:10160000604BBDF91070BDF90850BDF9124030B201
:10161000BDF914100B9EBDF90C204FF0D0084FF00F
:10162000010C4FF01C0E83FB07A9ADF82880ADF824
:101630002AC083FB05B883FB04AC86F800E083FB7B
:1016400000BA83FB016E83FB026B0B9EE023C01785
:10165000C917FF17ED17E417D2177370C0EBAA1A5A
:10166000C1EBAE1EC7EBA917C5EBA815C4EBAC14B4
:10167000C2EBAB12022342480AA9ADF81070ADF8D4
:101680000850ADF81240ADF80AA0ADF814E0ADF87E
:101690000C20ADF8303001F035F9394801F020F870
:1016A0000028FAD10B9BD02001211B22ADF8280085
:1016B000ADF82A101A700B9BE0225A7030480223B2
:1016C0000AA9ADF8303001F01DF92D4801F008F8F5
:1016D0000028FAD1BDF81890BDF81A80BDF81C702A
:1016E000BDF82060BDF82250BDF824404FF0C80B73
:1016F0004FF0040A0B9B3B224FF0D001ADF82810AD
:10170000ADF82AA01E481A700AA901220623ADF8D6
:101710003020ADF8383001F0F5F8194800F0E0FF5E
:101720000028FAD10D9B0B9A597893F800E098782D
:1017300041EA0E2ED978F14441EA002019795B790B
:10174000804443EA01231F444FF0D0014323ADF806
:1017500028101FFA89F91FFA88F8ADF82AA0BFB23D
:1017600013700748012206230AA9ADF81890ADF8B6
:101770001A80ADF81C70ADF83020ADF8383003E0B9
:1017800000A400401F85EB5101F0BCF8C84800F0F0
:10179000A7FF0028FAD10D9BBBF1010B5A781978ED
:1017A00093F802E042EA01211879DA785B7942EA9B
:1017B0000E2243EA00230E4415441C44B6B2ADB2D7
:1017C000A4B2ADF82060ADF82250ADF8244091D11C
:1017D000B84BBDF91870BDF91A4028B2BDF91C10FC
:1017E0000B9DBDF9242036B24FF0D0084FF0010C0C
:1017F0004FF01C0EADF82880ADF82AC083FB079887
:1018000085F800E083FB06AC83FB045983FB00AE44
:1018100083FB015A83FB02530B9DC017C917FF17A7
:10182000F617E417D21785F801B0C0EBAE1EC1EB76
:10183000AA1AC7EBA817C6EBAC16C4EBA914C2EBE7
:10184000A31302259A480AA9ADF81870ADF82060D4
:10185000ADF81A40ADF822E0ADF81CA0ADF8243088
:10186000ADF8305001F04EF8914800F039FF0028F3
:10187000FAD10B9B01211B22D024ADF82A10ADF820
:1018800028401A700B9B022258700AA98848ADF8AC
:10189000302001F037F8864800F022FF0028FAD106
:1018A0000B9AD02004230D21ADF82800ADF82A3082
:1018B0007F48117001230AA9ADF83030ADF83830F7
:1018C00001F020F87A4800F00BFF0028FAD10B9ABB
:1018D00004200E21D02455780123ADF82A00ADF85C
:1018E0002840734811700AA9ADF83030ADF838308F
:1018F00001F008F86E4800F0F3FE0028FAD10B9AC8
:1019000004200F21D02492F801800123ADF82A0091
:10191000ADF82840664811700AA9ADF83030ADF82E
:10192000383000F0EFFF624800F0DAFE0028FAD10C
:101930000B990346D02404204F780122ADF82A00E9
:10194000ADF828405A480B700AA9ADF83020ADF820
:10195000382000F0D7FF564800F0C2FE0028FAD128
:101960000B9A01230421D02456785148ADF82A104F
:10197000ADF828400AA91370ADF83030ADF8383012
:1019800000F0C0FF4A4800F0ABFE0028FAD10B9AE5
:1019900004204FF0D00C4FF0020E54780123ADF824
:1019A0002A00ADF828C00AA982F800E04048ADF846
:1019B0003030ADF8383000F0A5FF3D4800F090FE23
:1019C0000028FAD10B9B28465D7803F0F7F802F067
:1019D00001FD0022384B02F09DFB02460B4630A170
:1019E000D1E9000101F0A6FA2FA3D3E9002302F008
:1019F00045FD02F0DDFF1090404603F0DFF802F0F5
:101A0000E9FC00222C4B02F085FB02460B4624A188
:101A1000D1E9000101F08EFA23A3D3E9002302F0FB
:101A20002DFD02F0C5FF1190384603F0C7F802F013
:101A3000D1FC0022204B02F06DFB02460B4618A1A0
:101A4000D1E9000101F076FA17A3D3E9002302F0EF
:101A500015FD02F0ADFF1290304603F0AFF802F032
:101A6000B9FC0022144B02F055FB02460B460CA1B8
:101A7000D1E9000101F05EFA0BA3D3E9002302F0E3
:101A8000FDFC02F095FF1390204603F097F802F05A
:101A9000A1FC0022084B02F03DFB02460B460DE084
:101AA000295C8FC2F528F03F000000000078A440B8
:101AB00000A400401F85EB510000F03F68A1D1E970
:101AC000000101F037FA68A3D3E9002302F0D6FC45
:101AD00002F06EFF1490284603F070F802F07AFCD2
:101AE0000022634B02F016FB02460B465CA1D1E9D3
:101AF000000101F01FFA5CA3D3E9002302F0BEFC51
:101B000002F056FFBDF910300646BDF91800C01AA4
:101B100003F058F802F05EFC0022564B02F0AEFCD7
:101B2000044610980D4602F055FC02460B4620462E
:101B3000294602F0CDFD02F03BFFDDF80490BDF92F
:101B40002020BDF90830C9F80000D01A03F03AF897
:101B500002F040FC0022474B02F090FC0446139830
:101B60000D4602F037FC02460B462046294602F09D
:101B7000AFFD02F01DFFBDF91A20BDF91230C9F802
:101B80000C00D01A03F01EF802F024FC0022394B9E
:101B900002F074FC044611980D4602F01BFC02464C
:101BA0000B462046294602F093FD02F001FFBDF9E5
:101BB0002220BDF90A30C9F80400D01A03F002F857
:101BC00002F008FC00222B4B02F058FC044614984B
:101BD0000D4602F0FFFB02460B462046294602F066
:101BE00077FD02F0E5FEC9F81000BDF91430BDF92B
:101BF0001C00C01A02F0E6FF02F0ECFB00221D4BB5
:101C000002F03CFC044612980D4602F0E3FB02464B
:101C10000B462046294602F05BFD02F0C9FEBDF9E5
:101C20002420BDF90C30C9F80800D01A02F0CAFF10
:101C300002F0D0FB00220F4B02F020FC044630469D
:101C40000D4602F0C7FB02460B462046294602F02D
:101C50003FFD02F0ADFEC9F8140017B0BDE8F08FEB
:101C6000295C8FC2F528F03F000000000078A440F6
:101C70000000F03F0000594010B5144B90B01C68B4
:101C80000AA800F091FFB4F1805F03D39DF82830DB
:101C9000032B12D0FEF71EFCFEF796FAFEF7A0FA11
:101CA000FEF7F0FD01A8FEF72DFD04A807A9FEF739
:101CB00099FF0AA8FFF7B4FBFEE7054B1A6822F06C
:101CC000500242F010021A60E4E700BFFC81E00F0E
:101CD000C0800C4070B401788368B3FA83F4E4B236
:101CE000C4F11F0411B1184B01221A60174A936BFB
:101CF000DD0706D4136813F4405F02D1D36BDB0712
:101D0000FCD4827C114B86885A60C268457846EACA
:101D1000421245F0080586782A43457C42EA86024D
:101D2000007C42EA051242EA803242EA04224FF085
:101D3000FF3018631A6029B10548034900221B6867
:101D400002600A6070BC7047000702430010084040
:101D50000C000243064A936BD80706D4136813F4A9
:101D6000405F02D1D36B9B07FCD4014BD960704715
:101D70000010084000F00F000138042850D8DFE8B8
:101D800000F0132332410300264BDB6A03F4603377
:101D9000B3F5803F40D0B3F5003F3BD0B3F5004FE3
:101DA0000CBF0820012070471E4BDB6A03F4705300
:101DB000B3F5805F2ED0B3F5005F2DD0B3F5006F83
:101DC0000CBF042005207047164B986A00F00300F2
:101DD000022820D0032821D001281BD09B6ADA03D7
:101DE0000ED5092070470F4A936A03F00C03082BA5
:101DF00012D00C2B12D0042B0CD0936ADB02F0D43F
:101E000001207047074B1B6813F0805F14BF082048
:101E10000720704703207047022070470620704754
:101E20000020704700800C4000F47810B0F5801F4F
:101E300008B500F0DB8010D9B0F5B01F00F0A3802A
:101E400063D9B0F5D01F31D0B0F5E01F00F0E580C8
:101E5000B0F5C01F25D0002008BDB0F5802F00F0E0
:101E6000C18071D9B0F5002F37D0B0F5202F00F028
:101E7000A280B0F5C02FEED1B54A936A03F00303F8
:101E8000022B00F0D480032B00F00681012B00F020
:101E90003681AF4B9B6A180CDED0BDE8084001F0DC
:101EA0003FB8AC48FFF766FF07285FD1A84B5B69D6
:101EB00003F4E063B3F5007F00F0438140F2CA8091
:101EC000B3F5C06F00F05481B3F5E06F00F03D81D1
:101ED000B3F5407FBFD1A04808BD9D4A936A03F087
:101EE0000303022B00F01E81032B00F0EA80012B7C
:101EF00000F00F81936A180C01D001F011F8944B97
:101F00009B6EC3F30313D84008BDB0F5901F00F0DB
:101F10009280B0F5A01F9ED18D4A936AC3F38103CE
:101F2000022B00F00881032B00F0AB80012B00F0A6
:101F3000F680936A1B0D40F020810020844B1B6FBC
:101F400003F00303D84008BD98B1B0F5003F82D13B
:101F500000F07AFF7E4B1A689B68C2F3823201322E
:101F6000B0FBF2F003F00F03D84008BD08287FF45F
:101F700072AF00F069FF764B1B68C3F38233013305
:101F8000B0FBF3F008BD724A936AC3F38103022BDE
:101F900000F0D480032B00F08A80012B00F0BC807D
:101FA000936A180D01D000F0BBFF694B1B6FC3F3A0
:101FB0000113D84008BD664A936A03F00303022B5D
:101FC00000F0B680032B51D0012B00F0AE80936A55
:101FD0001B0C40F0CF8000205D4B9B6EC3F30323AE
:101FE000D84008BDBDE8084000F0BEBE584A936A1C
:101FF00003F00303022B00F08980032B6BD0012B2D
:1020000000F08180936A180C01D000F089FF504BDA
:102010009B6E03F00303D84008BD5048FFF7AAFEAB
:1020200003286CD008281DD002287FF414AFBDE827
:10203000084000F079BF464A936AC3F38103022B3C
:10204000F5D0032B51D0012B59D0936A180D3FF4D2
:1020500003AF22E7002B76D0B3F5807F7FF4FBAE91
:102060003F4808BDBDE8084000F0EEBE5368D90502
:1020700003D413685A0040F1938000F075FE800885
:10208000AAE75368DB0503D41368580040F1848045
:1020900000F06AFE800851E75368D90503D42C4B41
:1020A0001B685A0027D500F05FFE800808BD536802
:1020B000D90502D413685B006AD500F055FE80088C
:1020C00073E75368DB0502D41368580058D500F055
:1020D0004BFE800813E75368DB0502D413685800F1
:1020E00052D500F041FE800891E75368D905DAD453
:1020F00013685A00D7D400F037FE400808BDBDE889
:10210000084000F009BF00F007FF80E700F00CFF77
:102110007DE700F001FFF2E600F0FEFE45E700F08B
:10212000FBFE0BE700F000FFE9E600F0F5FE53E7E9
:1021300000F0FAFE50E700F0F7FEFFE600F0F4FED4
:1021400033E7084808BD084808BD084808BD00BF77
:1021500000800C400400180040420F0005231C00C2
:10216000C0D8A700C0CF6A00809FD500406F400153
:102170000D4808BD00F0D4FE2EE700F0D1FEDDE6EC
:1021800000F0F2FD4008BAE600F0EEFD40083EE740
:1021900000F0EAFD400808E700F0E6FD4008CDE663
:1021A00000F0E2FD400817E7003FAB0170B5C0F357
:1021B0000323013B82B00446052B0FD8DFE803F070
:1021C0002017221D031B294A1020294DC4F3043473
:1021D0006B6DDB0704D522449200116002B070BD24
:1021E0002B6D1842F7D02B6D1842F9D1F3E7214A35
:1021F000C4F30434EFE7204AFAE7204A0120E4E779
:102200001F4AF5E71F480191FFF70EFE1E4B01998B
:10221000DB6CC3F307434A2B11D04B2B24D01B4A52
:10222000482B0CBF13460023984206D9184A194878
:1022300001231360184A0360DAE7174AD8E7174A00
:10224000124D16699369D26906F03F06C2F3031274
:1022500042EA062603F0F003114A3343B3F5017F47
:1022600034BF2B461346DFE70D4BDDE70003E410D8
:1022700000800C402002E410C003E410C002E4100F
:102280004000E41020000400B081E00F0048E801A5
:1022900078009043A00090430002E410D0FF0FE0CC
:1022A00000366E0138B500F00F04631E042B0AD807
:1022B000DFE803F0280F0F0A030003293ED00829A6
:1022C00061D0022949D038BD072931D0082954D01E
:1022D00038BD01390829F6D801A252F821F000BF13
:1022E0004D240000552400006F240000C722000088
:1022F000C722000087240000C7220000C722000078
:102300002324000002390729DDD801A353F821F066
:102310000525000045240000C1240000952300008D
:10232000C7220000C7220000C722000011250000BC
:10233000A84B1A6822F080521A6038BDA54A402383
:102340001362D36AA34C1906FBD500F081F9602310
:102350006362E36A9A03FCD538BD9E4A4FF48073EA
:102360001362D36A9B4C9D05FBD500F071F94023A5
:102370006362E36AD803FCD538BD964B1A6842F015
:1023800080521A6038BD934A20235362D36A1B04DB
:10239000FCD538BD0124012302228E490B62CB6A91
:1023A0001A42FCD000F054F98B4B41F67132D86BD5
:1023B000DA635B6803F00703042B40F2B780052162
:1023C000854B5A6822F007020A435A6008B100227E
:1023D000DA63804B5C6200F03BF900F0C5FC7E4B99
:1023E00041F67131DA6BD9635B6803F00703042BA4
:1023F00040F29080794B984200F2E180784B794925
:1024000003448B4294BF03200220734B596821F090
:10241000070101435960002A3FF455AF0022DA63F7
:1024200038BD4FF480114FF480330022022C00F0AD
:102430008680684A936A23F4801323F00C030B43CD
:10244000936238BD032440238022A6E700210B4677
:102450000A46EBE75F4A4FF480731362D36A99052B
:10246000FCD500F0F5F8082100230222DEE7594AE6
:1024700040231362D36A1B06FCD500F0E9F804215F
:1024800000230122D2E7584B01221A6000F06CFCB5
:10249000564BDB6CC3F307434A2B7CD04B2B78D0D5
:1024A0004E4A482B0CBF13460023984257D9504937
:1024B000504A01230B6013600C2100230322B5E76F
:1024C00000F022FD494BDB6CC3F307434A2B4CD091
:1024D0004B2B48D0414A482B0CBF1346002398424F
:1024E0003C4B1A6835D942F0804242F060021A60D3
:1024F0001B6CD80602D53F4B01221A60022404232C
:1025000008224AE704244FF480734FF4007244E732
:10251000032440E7012101FA03F313F0130F3FF402
:1025200069AF2E4B98424CD904206EE7012202FA83
:1025300003F313F0130F0CBF0521042140E72548D6
:102540001343816A21F4803121F003011943816230
:1025500038BD22F0600242F020021A60CEE70C2162
:102560000023032262E7244BB9E7244A1B4B14697A
:102570009169D26904F03F04C2F3031242EA0424D1
:1025800001F0F0011C4A2143B1F5017F28BF134639
:10259000A5E7194B89E7194A104B15699169D2696A
:1025A00005F03F05C2F3031242EA052501F0F001F0
:1025B000114A2943B1F5017F28BF134675E705206D
:1025C00023E7074B074903448B428CBF00200120BF
:1025D0001BE700BF00800C4000000C400048E801F1
:1025E000FFDB0BFFFF23F40010089043B081E00FE6
:1025F00078009043A000904300366E01D0FF0FE0BA
:10260000042822D8DFE800F01C1303161900042365
:10261000082041B10D490B621AB10A46D36A18422B
:10262000FCD000F015B8094B186200F011B8402337
:102630008020EEE701230220EBE710232020E8E7CB
:102640004FF480734FF40070E3E7704700800C4054
:10265000024A034BD26A1A60704700BF00800C40E8
:102660009C000020F0B500F104764A78F60004469C
:10267000731C184800259B0082F0010265632063EB
:102680001A608D6883B048680F7BA5B1236823F476
:1026900040732360236843EA07232360A0B10E4AF6
:1026A000A0EB8500D25D236805FB02F59B07B0FB1C
:1026B000F5F005D420610B78B600336003B0F0BDAF
:1026C000002808BF0120F5E704480191FFF7ACFBA3
:1026D0000199E4E7CFFF01001850000010810200CB
:1026E000854A2DE9F0039042034600F0C68002F5CA
:1026F0008062904240F0BC80804A94684025052664
:1027000000274FF0030C996A11F4C06F40F0CB80A2
:102710001078082800F2B380DFE800F016284B5745
:102720003F906C730500C9051CD54FF48070186389
:1027300009215078117040B200210128596300F03E
:10274000A380BDE8F003704761882088CD0640F182
:102750009E80000A00F0060040F0F0000121117098
:10276000586259600120BDE8F0037047080600F187
:10277000A7804906F6D561881D63C80600F1B680BA
:1027800089073CD51179072004EBC1042189107019
:102790000129E7D108225A60E4E7080600F1908099
:1027A0004806DFD561881D63490728D507231370C4
:1027B000D8E7080600F184804806D3D561881D63F8
:1027C00089071CD582F800C09DE760882188C5066E
:1027D00043BF090A01F0060141F0F00101F0FE01DA
:1027E000440748BF41F001010424012014705860DF
:1027F0005962B7E7080663D44906B3D51D6316705E
:1028000081E78806AED51179508804EBC10421898F
:10281000DD69814242D96468461C5680255450883F
:1028200081423BD9042401295C6002D001398842ED
:102830004FD01178092995D150787CE711795088CB
:1028400004EBC108B8F80890814546D80131C9B2F7
:1028500011716088578010F0040FB3D1C00702D403
:1028600001297FF650AF082002211070596079E7E6
:102870006FF00300BDE8F0037047214A3DE7FB20FD
:1028800009215070117056E75170084659E700F061
:10289000FE008C0748BF40F001005FE70129E2D14C
:1028A00008215960DFE78F0504D5FD20507009210C
:1028B000117040E74E054ABFFE2050785070F6E791
:1028C0008025FF24082002211D6354701070596078
:1028D00048E7082159601178ACE7D8F80410441C87
:1028E0005480085C0621586211703BE72178022071
:1028F0001070596236E700BF00A00040AC00002015
:10290000A0000020994A2DE9F0039042034600F010
:10291000D78002F58062904241D1954A9868C507F8
:1029200044BF202058604888840702D50C89002CB9
:1029300035D0400730D400200125C02410719160AB
:102940001070508055705C609A6A8A48920648BF41
:10295000DA69864A4FF4FC6193421863596300F0C8
:10296000B18002F58062934219D1814A9468402572
:10297000052600274FF0030C996A11F4C06F40F050
:10298000C9801078082800F29F80DFE800F01684E4
:10299000616C263248500D00088A0028CBD16FF0B8
:1029A0000300BDE8F0037047C90570D54FF480708F
:1029B00009211863507811708AE061882088CD065B
:1029C00000F18F8000F0FE008C0748BF40F001004E
:1029D000012111705862596059E0080600F1A78082
:1029E000480654D561881D6349071ED50723137017
:1029F0004DE01179508804EBC108B8F80890814582
:102A000000F2A5800131C9B211716088578010F0C1
:102A1000040F25D1C00716D4012914D8ACE7080645
:102A200000F18580490632D51D631670A4E788063B
:102A30002DD51179508804EBC1042189DD698142CB
:102A400055D801297CD008200221107059601EE061
:102A500008066CD448061AD561881D638907E4D539
:102A600082F800C088E760882188C50643BF090A4C
:102A700001F0060141F0F00101F0FE01440748BFFA
:102A800041F00101042401201470586059620120B2
:102A9000BDE8F0037047080649D44906F7D56188B8
:102AA0001D63C8065CD48907BFD51179072004EBE4
:102AB000C104218910700129E9D108225A60E6E792
:102AC0002D4A2BE72C4A51E7FB2009215070117049
:102AD00040B20021012859637FF463AF517008466A
:102AE0005FE7000A00F0060040F0F00070E764685D
:102AF000461C5680255450888142A2D904240129BD
:102B00005C6002D0013988421DD011780929BED1FC
:102B10005078DDE78F0504D5FD2050700921117034
:102B2000D6E74E054ABFFE2050785070F6E7802564
:102B3000FF24082002211D63547010705960A6E71D
:102B4000082159607FE7082159601178DEE7D8F83D
:102B50000410441C5480085C06215862117096E7EA
:102B6000217802201070596291E700BF00A0004058
:102B7000AC000020CFFF0100A000002000F1875032
:102B800000F5A02080000160704700BF4278037804
:102B90000AB143F0020382780AB143F00403014A08
:102BA00013607047000008400B4B59691A6901F027
:102BB0000F01C2F3811242EA810282701A6902F0A7
:102BC0003F0242709A69DB6902F0F002C3F303131B
:102BD00013430370704700BFD0FF0FE02D4AF8B5D4
:102BE0000446002340F6AA6741F2050641F6F97053
:102BF0009442E7600D4623606660A3606361E3640E
:102C0000A064636543D0244AA36594423CD0234B1F
:102C10009C4239D02A8AA97B236842F0010200290C
:102C200092B242EA03020CBF00234FF480631A43BE
:102C3000AB7C287D22602268002B0CBF0021102174
:102C40002B7B002841EA020268680CBF00214FF08C
:102C500000510A4343F480532260AE68636010B9A8
:102C60000F48FFF7E1F8731E03EB4000B0FBF6F6E8
:102C7000B6010C4B403E6A7B334063610AB11023BE
:102C8000E3602B78E360F8BD0023E365C2E72365CA
:102C9000A365BFE700C0004000C4004000C800407A
:102CA0001081020000FF1F0083680A7823F0770379
:102CB0000AB143F040038A780AB143F020034A780E
:102CC0000AB143F01003CA7813438360704700BF12
:102CD000074880470749084A084B9B1A40F305807C
:102CE000043BC858D0503FF7FBAF054800470000F1
:102CF000152F00007C500000000000207C00002008
:102D000055010000FEE7FEE7FEE7FEE7FEE7FEE70F
:102D1000FEE7FEE7FEE7FEE7FEE7FEE7FEE7FEE78B
:102D2000FEE7FEE7FEE7FEE7FEE7FEE7FEE7FEE77B
:102D3000FEE7FEE7FEE7FEE7FEE7FEE7FEE7FEE76B
:102D4000FEE7FEE7FEE7FEE7FEE7FEE7FEE7FEE75B
:102D5000FEE7FEE7FEE7FEE7FEE7FEE7FEE7FEE74B
:102D6000FEE7FEE7FEE700BF2A4AD36A03F470538A
:102D7000B3F5805F2AD0B3F5005F24D0B3F5006FC0
:102D800011D0D36803F4E063B3F5007F3FD020D9BE
:102D9000B3F5806F39D0B3F5A06F34D0B3F5407F71
:102DA00025D0002101E01C4B19681A4B1B4A1868FA
:102DB0005B68C0F382300130B1FBF0F003F00F0329
:102DC000D84010607047164B1968EEE74FF4004189
:102DD000EBE773B1B3F5807FE3D1124B124AD96CA4
:102DE000124BB1F1985F34BF11461946DDE7104927
:102DF000DBE70C4B0F4AD96C0F4BB1F1985F34BF36
:102E000011461946D1E70D49CFE70D49CDE70D49E8
:102E1000CBE700BF00800C4008000020B800002075
:102E200004000020B081E00FC0CF6A0040B564000C
:102E3000809FD50040420F00804F1200003FAB0141
:102E4000406F4001C0D8A700234AD36A03F47053EF
:102E5000B3F5805F1DD0B3F5005F17D0B3F5006FF9
:102E600011D0D36803F4E063B3F5007F32D013D9F7
:102E7000B3F5806F2CD0B3F5A06F27D0B3F5407FAA
:102E800018D000207047154B18687047144B18680D
:102E900070474FF40040704773B1B3F5807FF0D1B5
:102EA000104B114AD86C114BB0F1985F34BF1046EB
:102EB000184670470E4870470A4B0E4AD86C0E4BA6
:102EC000B0F1985F34BF1046184670470B48704702
:102ED0000B4870470B48704700800C4008000020EA
:102EE00004000020B081E00FC0CF6A0040B564004C
:102EF000809FD50040420F00804F1200003FAB0181
:102F0000406F4001C0D8A700014B1868704700BF50
:102F100008000020704700BF4FF40040704700BF1A
:102F20004FF47A70704700BF014B1868704700BFBC
:102F3000040000202DE9F04F8BB01D4680468946E5
:102F4000144600F075F9DFF8ACA206469AF9003095
:102F50000F46013304D02046294600F08FFF20B9E8
:102F6000304639460BB0BDE8F08F4046494600F088
:102F700085FF834600282CD12046294600220023C5
:102F800001F0E4FC0028EBD0944B9AF90010944E29
:102F900000220120CDE906234B1CCDF820B0CDE95D
:102FA0000289CDE904458DE841000DD002290BD0FE
:102FB000684600F08BFF002800F09580089B1BB14D
:102FC00001F0A4FF089B0360DDE906010BB0BDE83A
:102FD000F08F002200234046494601F0B7FCF8B1CB
:102FE000204629460022002301F0B0FC8346002839
:102FF0004DD07B489AF90030CDE9044501210022EB
:1030000000240025CDE90289CDE906450190009113
:103010000892002BCCD0714B0022CDE90623D3E7D8
:103020003046394600F024FF8346002860D0002255
:1030300000233046394601F089FC002890D04046F4
:10304000494600F015FF00288AD02046294600F0A6
:103050000FFF002884D09AF900306148CDE904457B
:103060000421002200240025022BCDE90289CDE9AC
:10307000064501900091089200F08280684600F0B9
:1030800025FF00287CD0089B002B9DD098E7204688
:10309000294600F0EDFE00283FF462AF20462946A5
:1030A0000022002301F05CFC00283FF459AF4C4A99
:1030B0009AF8001001230192CDF820B0CDE90289E1
:1030C000CDE9044500930022002934D10023CDE945
:1030D0000623684600F0FAFE0028D4D101F016FF5E
:1030E00021230360CFE701F011FF2123036065E78F
:1030F0004046494600F0BCFE002898D020462946AC
:1031000000F0B6FE002892D03046394600F0B6FEF8
:10311000B8B9334A9AF8006001230890CDE90289D2
:10312000CDE9044501920093002E2ED10024002504
:10313000CDE90645CDE72B4B0229CDE90623CDD0BD
:10314000C7E727499AF90030032201910092CDF890
:1031500020B0CDE90289CDE9044540464946002228
:10316000F3B9214F4FF060460023CDE9066701F027
:10317000F7FB002840D19AF90030022B7FF47EAF94
:1031800001F0C4FE222303607DE7002000210246F7
:103190000B4601F09DFA022ECDE906019ED098E77C
:1031A000124F00260023CDE9066701F0D9FB002865
:1031B000E1D000220E4B2046294601F05FF904467B
:1031C0000D4600F08BFE22462B4601F0BFFB002887
:1031D000D1D1044B0022CDE90623CCE70000F03F1B
:1031E0001C5000000000F0FFFFFFEF470000F07FE1
:1031F0000000E03F0C00002000220A4B2046294638
:1032000001F03CF904460D4600F068FE22462B46CC
:1032100001F09CFB0028AED1034B4FF06042CDE99A
:103220000623A8E70000E03FFFFFEFC70000000013
:103230002DE9F04F23F0004B91B089460F465BEA31
:103240000201CDE9022314461D46804606462ED0D3
:10325000634B29F0004A9A4522DC1FD0604B9B4506
:103260001EDC77D0002F78DB0022049264BB5C4B1D
:103270009B4500F091805B4B9B4565D0B5F1804F3D
:1032800000F0F983584B9D421ED1002F1CDB4046B5
:10329000494611B0BDE8F04F00F026BD0028DDD052
:1032A0000AF1404A0AF5801A5AEA060A04D14D4941
:1032B000002011B0BDE8F08F4C4811B0BDE8F04FD0
:1032C00000F006BE002104914046494600F0CCFDC6
:1032D000E6B9BAF1000F04D0424B27F040429A42BF
:1032E00014D1002DC0F20884002FE2DA0AF1404A1E
:1032F000DDF810B00AF5801A5BEA0A0B5ED0049A7A
:10330000012AD6D101F100431946D2E7FB0F03F1A0
:10331000FF3C049B53EA0C034ED0354B9B456DDDBF
:1033200003F104739B4540F3EF83324B9A4540F31E
:103330009C83002D40F39C8327A1D1E90001024624
:103340000B4601F09BF8B4E7002DC0F24B844046D9
:103350004946AEE7002C85D0A2E7274B9B4536DCDB
:10336000A3F154739B4540F38D834FEA2B5340F2F6
:103370001342934240F33E84C3F58663033324FA39
:1033800003F202FA03F3A3427FF46EAF02F00102EC
:10339000C2F10202049269E70AF1404303F5801387
:1033A000334384D0134B9A4540F39E83002DC0F2E3
:1033B0005F83DDE902017CE74046494602460B4651
:1033C00000F0A8FE02460B4601F082F971E70223E5
:1033D00004934BE7AFF300809C7500883CE4377E94
:1033E0000000F07F0000F03F0000E03F5050000080
:1033F0000000E041FFFFEF3FFFFF3F43BAF5801FB2
:1034000080F2EE83AA4B0022CDF804C001F036F81A
:10341000DDF804C08A466FF034034FEA2A55A54A06
:10342000CAF3130AA5F2FF354AF07F541D449245B2
:103430000F9544F4401440F3D0839F4B9A4540F3DA
:10344000EF83DDF83CA000250AF1010ACDF83CA08D
:10345000A4F580142B46994ADB000E931344D3E95C
:103460000067214632463B46CDF804C0CDE90A014B
:1034700000F050FE3246804689463B46DDE90A01AF
:1034800000F04AFE02460B4600208D4901F020F96B
:10349000CDE90C01DDE90C234046494600F0EEFF82
:1034A000CDE90601DDE906AB611041F0005101F5FF
:1034B00000214B190021CDE908AB0891DDE908ABEB
:1034C00000225046594614461D4600F0D7FF0246DA
:1034D0000B464046494600F01DFE3246804689466E
:1034E0003B462046294600F015FE02460B46DDE924
:1034F0000A0100F00FFE02460B465046594600F006
:10350000BDFF02460B464046494600F003FEDDE99A
:103510000C2300F0B3FF06460F46DDE90601024624
:103520000B4600F0ABFF02460B4604460D4600F08A
:10353000A5FF4FA3D3E900238046894620462946AC
:1035400000F09CFF4CA3D3E9002300F0E5FD2246E8
:103550002B4600F093FF4AA3D3E9002300F0DCFDE3
:1035600022462B4600F08AFF47A3D3E9002300F050
:10357000D3FD22462B4600F081FF45A3D3E900236B
:1035800000F0CAFD22462B4600F078FF42A3D3E9A3
:10359000002300F0C1FD02460B464046494600F0BC
:1035A0006DFFDDE9062304460D465046594600F0FE
:1035B000B3FD32463B4600F061FF22462B4600F049
:1035C000ABFD5246804689465B465046594600F060
:1035D00055FF00223B4BCDE90A0100F09DFD42461C
:1035E0004B4600F099FD08980D46044622462B46AE
:1035F0005046594600F042FF224682468B462B46F3
:103600003046394600F03AFF002206460F46204673
:1036100029462C4B00F07EFDDDE90A2300F07AFDFF
:1036200002460B464046494600F074FDDDE906239C
:1036300000F024FF02460B463046394600F06CFD90
:103640008046894642464B465046594600F064FD46
:1036500013A3D3E9002308980D46044600F00EFF9B
:1036600011A3D3E90023CDE90601204629462BE02A
:10367000EF4E454A287ECA3F65DBC9934A86CD3F57
:1036800001411DA96074D13F4D268F515555D53F3D
:10369000FFAB6FDBB66DDB3F033333333333E33FD5
:1036A000000000E009C7EE3FF5015B14E02F3EBECD
:1036B000000040438E98030079B60B004050000094
:1036C0000000F03F0000084000F0D8FE52460646D9
:1036D0000F465B462046294600F01CFD02460B467D
:1036E0004046494600F016FD9FA3D3E9002300F0B1
:1036F000C5FE02460B463046394600F00DFDDDF8AA
:1037000038A0AB4B5344D3E9002300F005FD8246BB
:103710000F988B4600F04CFE0E9AA64B04461344BD
:10372000D3E900670D4652465B46DDE9060100F02D
:10373000F3FC32463B4600F0EFFC22462B4600F0FD
:10374000EBFC089822462B468046894600F0E2FCB6
:1037500032463B4600F0DEFCDDE9062300F0DAFCF1
:1037600002460B465046594600F0D4FCDDF804C032
:1037700082468B46049900224B1E53EA0C030CBF71
:103780008D4B8E4BDDE90201CDE90823DDE90223F3
:10379000CDE9042300230493DDE904452B462246AA
:1037A00000F0B8FC42464B4600F068FE5246064622
:1037B0000F465B46DDE9020100F060FE02460B4663
:1037C0003046394600F0A8FC42464B4682468B46BE
:1037D0002046294600F052FE06460F463B4650461C
:1037E0005946324600F098FC754B8046994289460E
:1037F0000D4640F34B8101F13F4303F5E0030343E2
:1038000040F012825AA3D3E900235046594600F0F3
:1038100083FC3246CDE902013B464046494600F072
:1038200079FC02460B46DDE9020101F0B7F80028F9
:1038300040F00882CC464FEA2C53A3F2FE334FF4FB
:10384000801018412844C0F30A515E4AA1F2FF33A8
:1038500042FA03FEC1F58261C0F3130420EA0E03AD
:10386000033144F4801040FA01F1002D0491BCBFF3
:103870004942049100223046394600F04BFC06468E
:103880000F463246504659463B4600F045FC049AE6
:1038900012050292002438A3D3E9002320460D46E6
:1038A00000F0ECFD3246804689463B4620462946DC
:1038B00000F030FC02460B465046594600F02AFC08
:1038C0002FA3D3E9002300F0D9FD2FA3D3E90023D0
:1038D00006460F462046294600F0D0FD02460B461C
:1038E0003046394600F018FC06460F4632463B4645
:1038F0004046494600F010FC42464B4604460D4601
:1039000000F008FC02460B463046394600F002FC47
:10391000224682468B4620462B46294600F0AEFDC5
:103920001BA3D3E9002306460F4600F0A7FD1AA308
:10393000D3E9002300F0EEFB32463B4600F09EFD4B
:1039400017A3D3E9002300F0E7FB32463B4600F023
:1039500095FD15A3D3E9002300F0DCFB32463B467E
:1039600032E000BFAFF30080FD033ADC09C7EE3F51
:10397000FE822B654715973C00000000432EE63F72
:10398000EF39FAFE422EE63F396CA80C615C20BE8E
:10399000D0A4BE726937663EF16BD2C541BDBB3E55
:1039A0002CDE25AF6A56113F93BDBE166CC1663F33
:1039B00030500000205000000000F0BF0000F03F39
:1039C000FFFF8F40FFFF0F0000F058FDACA3D3E9CD
:1039D000002300F0A1FB32463B4600F04FFD0246BB
:1039E0000B462046294600F095FB06460F46324618
:1039F0003B462046294600F041FD0022804689468C
:103A0000304639464FF0804300F084FB02460B46B7
:103A10004046494600F05CFE524606460F462046A8
:103A20005B46294600F02AFD52465B4600F074FBD7
:103A300002460B463046394600F06CFB22462B46C8
:103A400000F068FB02460B4600209B4900F062FB39
:103A5000029C02460C44B4F5801FC0F23781234615
:103A6000DDE9080100F00AFD23E4002DFFF664AC57
:103A7000002000211DE44046494642464B4600F0E6
:103A8000FDFC16E400210491FFF7F0BB8B4B21F005
:103A9000004C9C4540F3BD8001F17D5303F53C1380
:103AA00003F55053034340F0DB8032463B46CDF8EC
:103AB00004C000F02FFB02460B465046594600F06A
:103AC00059FFDDF804C000283FF4B5AEDDE9080178
:103AD0006DA3D3E9002300F0D1FC6BA3D3E900234D
:103AE00000F0CCFCFFF7E5BB002DC1DA039B029888
:103AF00003F10041FFF7DDBB02460B4600206E4993
:103B000000F0E6FDFFF7F0BB6D4B9A45ADDD6A4B6B
:103B10009A453FF70EAC0022674BCDF804C000F089
:103B2000F9FA5BA3D3E9002304460D4600F0A6FC96
:103B300059A3D3E9002306460F462046294600F044
:103B40009DFC224682468B462B462046294600F0A5
:103B500095FC00228046894620462946594B00F0B4
:103B60008DFC02460B464EA1D1E9000100F0D2FACD
:103B700022462B4600F082FC02460B4600205249AA
:103B800000F0C8FA02460B464046494600F076FC73
:103B900045A3D3E9002300F071FC02460B465046D2
:103BA000594600F0B7FA04460D4622462B463046E9
:103BB000394600F0B1FA002032463B46804689463D
:103BC00000F0A8FA02460B462046294600F0A2FA69
:103BD000DDF804C082468B46CCE500252B463AE44E
:103BE00000231AE442464B460020334900F070FDA2
:103BF000FFF75FBB002C7FF465ABC3F58263033333
:103C00004BFA03F202FA03F35B4565D00494FFF725
:103C100032BB2D4B9C453FF70EAE049B029339E619
:103C20004FF48025012316E421A3D3E90023DDE925
:103C3000080100F023FC1EA3D3E9002300F01EFCC2
:103C4000FFF737BBDDE9080119A3D3E9002300F032
:103C500015FC17A3D3E9002300F010FCFFF729BBE4
:103C600009A3D3E90023DDE9080100F007FC06A35E
:103C7000D3E9002300F002FCFFF71BBBAFF3008089
:103C80003E5555555555C53F59F3F8C21F6EA50110
:103C9000000000604715F73F44DF5DF80BAE543E6F
:103CA000555555555555D53FFE822B654715F73F60
:103CB0009C7500883CE4377E0000F03FFFCB9040CD
:103CC000FEFFEF3F0000D03F0000E03F049A00F00D
:103CD00093F902460B46C3E602F00102C2F102026A
:103CE0000492FFF7C8BA00BF21F0004C2DE9F84359
:103CF0004FEA1C5CDFF86C814FEA0C5CC445064659
:103D00000F460B46024600F08F8000296FDD0F152D
:103D100078D0A7F2FF37C3F31303F90743F48013F6
:103D200060D4D10F4FF0000C01EB43037F10520021
:103D3000654616204FF400116C189C424FEAD2766B
:103D40004FEA420202DC1B1B65188C44013806EB6B
:103D500043034FEA5101EFD1804620264FF0004146
:103D600009E023D0D40F013E4FEA510104EB430395
:103D70004FEA42021ED0AB4201EB0804F1DD04F031
:103D80000049B9F1004F04EB010809D0A9465B1BBB
:103D9000944288BF03F1FF33121B08444D46E1E70C
:103DA000B8F1000FF2DB05F10109F0E79442E6D922
:103DB0001D46D7E71A4304D0431C41D000F001034D
:103DC000184446084FEA6C031CF0010F03F17F53BF
:103DD00003F5001318BF46F0004603EB07513046C9
:103DE000BDE8F883D10F01EB4303520099E721F0BE
:103DF0000043034322D051BB0F46D30A153F52055F
:103E0000002BFAD013F480111DD15B00D80201F110
:103E10000101FAD5C1F10100C1F1200422FA04F434
:103E200007448A40234374E702460B4600F026FB12
:103E300032463B4600F070F9BDE8F883BDE8F883F0
:103E40000CF1010CBEE7202401200021E6E7024628
:103E50000B4600F05FF902460B4600F039FCBDE866
:103E6000F88300BF0000F07F21F00041704700BFE1
:103E700041F0004101F58010C00F704731F0004360
:103E800010B408D00F4AA3F5801494420AD8042035
:103E90005DF8044B704700280CBF022003205DF83A
:103EA000044B7047B3F5801F01D20320F7E7064AA1
:103EB000934201D00020F2E7D0F1010038BF00208A
:103EC000EDE700BFFFFFDF7F0000F07F00207047BD
:103ED00000200149704700BF0000F87F2DE9F04342
:103EE000C1F30A5CACF2FF37132F83B002460B46D6
:103EF0000D46894680464FEAD17630DC002F4CDBF8
:103F00003A49394101EA030010432DD0490801EA3A
:103F1000030858EA02080CD04FF480233B41132FCA
:103F200025EA010141EA030914BF4FF000084FF0F0
:103F300000482F494B4601EBC606D6E900454246EC
:103F40002046294600F0E8F8CDE90001DDE900014E
:103F500022462B4600F0DEF803B0BDE8F083332F95
:103F600007DDB7F5806F3ED01046194603B0BDE8B7
:103F7000F083ACF2134C4FF0FF3121FA0CF1014207
:103F8000F2D049080142D4D04FF0804848FA0CFCE6
:103F900020EA010141EA0C08CBE721F0004101438E
:103FA000E2D0C3F3130101434C420C431048590CB7
:103FB000240B490404F4002444EA010300EBC60185
:103FC000D1E900452046294600F0A6F8CDE90001D8
:103FD000DDE900012B46224600F09CF821F0004369
:103FE00043EAC671C2E700F097F8BFE7FFFF0F0092
:103FF0005850000000000000C1F30A532DE9F041C1
:10400000904606460F460A461BBB21F00043034379
:1040100034D0354B002200F031FA344B0646984537
:104020000F463BDBC1F30A53363B0A46434440F29A
:10403000FE718B4216DD28A1D1E9000132463B46D4
:1040400000F05AF824A3D3E9002300F017FABDE8E2
:10405000F08140F2FF74A34227D0434440F2FE7146
:104060008B42E8DC002B0BDD22F0FF4222F4E00261
:1040700042EA035730463946BDE8F081BDE8F08199
:1040800013F1350F17DA4CF250339845D3DC14A1F5
:10409000D1E9000132463B4600F02EF810A3D3E9E7
:1040A000002300F0EBF9BDE8F08102460B4600F07A
:1040B00033F8BDE8F08122F0FF4222F4E00236330B
:1040C00042EA0357304639460022094B00F0D6F940
:1040D000BDE8F081AFF300809C7500883CE4377E3A
:1040E00059F3F8C21F6EA50100005043B03CFFFF1A
:1040F0000000903CAFF3008030B403F0004321F0A7
:10410000004243EA020130BC704700BF81F0004129
:1041100002E000BF83F0004330B54FEA41044FEAAC
:10412000430594EA050F08BF90EA020F1FBF54EA47
:10413000000C55EA020C7FEA645C7FEA655C00F0E3
:10414000E2804FEA5454D4EB5555B8BF6D420CDDB4
:104150002C4480EA020281EA030382EA000083EA37
:10416000010180EA020281EA0303362D88BF30BDD7
:1041700011F0004F4FEA01314FF4801C4CEA11312D
:1041800002D0404261EB410113F0004F4FEA03338C
:104190004CEA133302D0524263EB430394EA050F17
:1041A00000F0A780A4F10104D5F1200E0DDB02FA86
:1041B0000EFC22FA05F2801841F1000103FA0EF21A
:1041C000801843FA05F359410EE0A5F120050EF1E0
:1041D000200E012A03FA0EFC28BF4CF0020C43FA11
:1041E00005F3C01851EBE37101F0004507D54FF01E
:1041F000000EDCF1000C7EEB00006EEB0101B1F56E
:10420000801F1BD3B1F5001F0CD349085FEA3000B3
:104210004FEA3C0C04F101044FEA445212F5800FBE
:1042200080F09A80BCF1004F08BF5FEA500C50F15B
:10423000000041EB045141EA050130BD5FEA4C0C3E
:10424000404141EB010111F4801FA4F10104E9D1C7
:1042500091F0000F04BF01460020B1FA81F308BFBE
:104260002033A3F10B03B3F120020CDA0C3208DD8A
:1042700002F1140CC2F10C0201FA0CF021FA02F165
:104280000CE002F11402D8BFC2F1200C01FA02F1D5
:1042900020FA0CFCDCBF41EA0C019040E41AA2BFFA
:1042A00001EB0451294330BD6FEA04041F3C1CDAC2
:1042B0000C340EDC04F11404C4F1200220FA04F0E2
:1042C00001FA02F340EA030021FA04F345EA03018C
:1042D00030BDC4F10C04C4F1200220FA02F001FA4E
:1042E00004F340EA0300294630BD21FA04F02946D0
:1042F00030BD94F0000F83F4801306BF81F4801169
:104300000134013D4EE77FEA645C18BF7FEA655CDB
:1043100029D094EA050F08BF90EA020F05D054EAAD
:10432000000C04BF1946104630BD91EA030F1EBFB2
:104330000021002030BD5FEA545C05D140004941B6
:1043400028BF41F0004130BD14F580043CBF01F5A9
:10435000801130BD01F0004545F0FE4141F470018F
:104360004FF0000030BD7FEA645C1ABF194610466A
:104370007FEA655C1CBF0B46024650EA013406BF6B
:1043800052EA033591EA030F41F4002130BD00BF2A
:1043900090F0000F04BF0021704730B54FF48064E7
:1043A00004F132044FF000054FF0000150E700BF68
:1043B00090F0000F04BF0021704730B54FF48064C7
:1043C00004F1320410F0004548BF40424FF00001B4
:1043D0003EE700BF42004FEAE2014FEA31014FEAF7
:1043E00002701FBF12F07F4393F07F4F81F0605146
:1043F000704792F0000F14BF93F07F4F704730B5B5
:104400004FF4607401F0004521F0004120E700BF47
:1044100050EA010208BF704730B54FF000050AE0CE
:1044200050EA010208BF704730B511F0004502D5CF
:10443000404261EB41014FF4806404F132045FEAD1
:10444000915C3FF4DCAE4FF003025FEADC0C18BF76
:1044500003325FEADC0C18BF033202EBDC02C2F16C
:10446000200300FA03FC20FA02F001FA03FE40EAFE
:104470000E0021FA02F11444C1E600BF70B54FF0FE
:10448000FF0C4CF4E06C1CEA11541DBF1CEA1355E0
:1044900094EA0C0F95EA0C0F00F0DEF82C4481EA48
:1044A000030621EA4C5123EA4C5350EA013518BF68
:1044B00052EA033541F4801143F4801338D0A0FB55
:1044C00002CE4FF00005E1FB02E506F00042E0FB02
:1044D00003E54FF00006E1FB03569CF0000F18BF08
:1044E0004EF0010EA4F1FF04B6F5007F64F54074B0
:1044F00004D25FEA4E0E6D4146EB060642EAC62143
:1045000041EA55514FEAC52040EA5E504FEACE2EAF
:10451000B4F1FD0C88BFBCF5E06F1ED8BEF1004FB2
:1045200008BF5FEA500E50F1000041EB045170BD2E
:1045300006F0004646EA010140EA020081EA030172
:10454000B4EB5C04C2BFD4EB0C0541EA045170BD6E
:1045500041F480114FF0000E013C00F3AB8014F1E8
:10456000360FDEBF002001F0004170BDC4F1000431
:10457000203C35DA0C341BDC04F11404C4F12005B2
:1045800000FA05F320FA04F001FA05F240EA02000D
:1045900001F0004221F0004110EBD37021FA04F643
:1045A00042EB06015EEA430E08BF20EAD37070BDFD
:1045B000C4F10C04C4F1200500FA04F320FA05F05C
:1045C00001FA04F240EA020001F0004110EBD3705E
:1045D00041F100015EEA430E08BF20EAD37070BDCE
:1045E000C4F1200500FA05F24EEA020E20FA04F3A7
:1045F00001FA05F243EA020321FA04F001F0004156
:1046000021FA04F220EA020000EBD3705EEA430EC6
:1046100008BF20EAD37070BD94F0000F0FD101F0F5
:104620000046400041EB010111F4801F08BF013C2E
:10463000F7D041EA060195F0000F18BF704703F06C
:104640000046520043EB030313F4801F08BF013DF3
:10465000F7D043EA0603704794EA0C0F0CEA1355AF
:1046600018BF95EA0C0F0CD050EA410618BF52EA69
:104670004306D1D181EA030101F000414FF000006F
:1046800070BD50EA410606BF1046194652EA43067D
:1046900019D094EA0C0F02D150EA013613D195EAF1
:1046A0000C0F05D152EA03361CBF104619460AD139
:1046B00081EA030101F0004141F0FE4141F4700143
:1046C0004FF0000070BD41F0FE4141F4780170BD33
:1046D00070B54FF0FF0C4CF4E06C1CEA11541DBF98
:1046E0001CEA135594EA0C0F95EA0C0F00F0A7F89A
:1046F000A4EB050481EA030E52EA03354FEA0131C7
:1047000000F088804FEA03334FF0805545EA1313D9
:1047100043EA12634FEA022245EA111545EA1065A1
:104720004FEA00260EF000419D4208BF964244F138
:10473000FD0404F5407402D25B084FEA3202B61A57
:1047400065EB03055B084FEA32024FF480104FF42B
:10475000002CB6EB020E75EB030E22BFB61A75469F
:1047600040EA0C005B084FEA3202B6EB020E75EB32
:10477000030E22BFB61A754640EA5C005B084FEA9A
:104780003202B6EB020E75EB030E22BFB61A754667
:1047900040EA9C005B084FEA3202B6EB020E75EB72
:1047A000030E22BFB61A754640EADC0055EA060E33
:1047B00018D04FEA051545EA16754FEA06164FEA76
:1047C000C30343EA52734FEAC2025FEA1C1CC0D122
:1047D00011F4801F0BD141EA00014FF000004FF0AF
:1047E000004CB6E711F4801F04BF01430020B4F170
:1047F000FD0C88BFBCF5E06F3FF6AFAEB5EB030C28
:1048000004BFB6EB020C5FEA500C50F1000041EB24
:10481000045170BD0EF0004E4EEA113114EB5C04F1
:10482000C2BFD4EB0C0541EA045170BD41F48011C4
:104830004FF0000E013C90E645EA060E8DE60CEACC
:10484000135594EA0C0F08BF95EA0C0F3FF43BAFE9
:1048500094EA0C0F0AD150EA01347FF434AF95EAA0
:104860000C0F7FF425AF104619462CE795EA0C0F84
:1048700006D152EA03353FF4FDAE1046194622E751
:1048800050EA410618BF52EA43067FF4C5AE50EA2B
:1048900041047FF40DAF52EA43057FF4EBAE12E71B
:1048A0004FF0FF3C06E000BF4FF0010C02E000BFFC
:1048B0004FF0010C4DF804CD4FEA410C7FEA6C5CDF
:1048C0004FEA430C18BF7FEA6C5C1BD001B050EA82
:1048D000410C0CBF52EA430C91EA030F02BF90EA6D
:1048E000020F0020704710F1000F91EA030F58BF2C
:1048F000994208BF90422CBFD8176FEAE37040F08E
:10490000010070474FEA410C7FEA6C5C02D150EA2B
:10491000013C07D14FEA430C7FEA6C5CD6D152EAE6
:10492000033CD3D05DF8040B704700BF84461046AB
:1049300062468C461946634600E000BF01B5FFF7AA
:10494000B7FF002848BF10F1000F01BD4DF808ED7A
:10495000FFF7F4FF0CBF012000205DF808FB00BF4B
:104960004DF808EDFFF7EAFF34BF012000205DF8A5
:1049700008FB00BF4DF808EDFFF7E0FF94BF0120F2
:1049800000205DF808FB00BF4DF808EDFFF7CEFFF3
:1049900094BF012000205DF808FB00BF4DF808ED32
:1049A000FFF7C4FF34BF012000205DF808FB00BF03
:1049B0004FEA4102B2F1E04324BFB3F5001CDCF141
:1049C000FE5C0DD901F0004C4FEAC0024CEA507079
:1049D000B2F1004F40EB830008BF20F001007047A8
:1049E00011F0804F21D113F13872BCBF01F00040AB
:1049F000704741F480114FEA5252C2F11802C2F1DD
:104A0000200C10FA0CF320FA02F018BF40F001005D
:104A10004FEAC1234FEAD32303FA0CFC40EA0C000F
:104A200023FA02F34FEA4303CCE77FEA625307D14C
:104A300050EA01331EBF4FF0FE4040F44000704783
:104A400001F0004040F0FE4040F40000704700BF1D
:104A500080F0004002E000BF81F0004142001FBF33
:104A60005FEA410392EA030F7FEA226C7FEA236C3C
:104A70006AD04FEA1262D2EB1363C1BFD218414031
:104A800048404140B8BF5B42192B88BF704710F0C7
:104A9000004F40F4000020F07F4018BF404211F06A
:104AA000004F41F4000121F07F4118BF494292EAD2
:104AB000030F3FD0A2F1010241FA03FC10EB0C00FE
:104AC000C3F1200301FA03F100F0004302D549428B
:104AD00060EB4000B0F5000F13D3B0F1807F06D338
:104AE00040084FEA310102F10102FE2A51D2B1F130
:104AF000004F40EBC25008BF20F0010040EA030025
:104B00007047490040EB000010F4000FA2F10102D1
:104B1000EDD1B0FA80FCACF1080CB2EB0C0200FA5B
:104B20000CF0AABF00EBC25052421843BCBFD040A9
:104B30001843704792F0000F81F4000106BF80F423
:104B400000000132013BB5E74FEA41037FEA226CE6
:104B500018BF7FEA236C21D092EA030F04D092F0B1
:104B6000000F08BF0846704790EA010F1CBF0020E5
:104B7000704712F07F4F04D1400028BF40F0004042
:104B8000704712F100723CBF00F50000704700F062
:104B9000004343F0FE4040F4000070477FEA226289
:104BA00016BF08467FEA23630146420206BF5FEA5A
:104BB000412390EA010F40F4800070474FF000035A
:104BC00004E000BF10F0004348BF40425FEA000C21
:104BD00008BF704743F0964301464FF000001CE0C9
:104BE00050EA010208BF70474FF000030AE000BF1F
:104BF00050EA010208BF704711F0004302D540425D
:104C000061EB41015FEA010C02BF844601460020CE
:104C100043F0B64308BFA3F18053A3F50003BCFAE9
:104C20008CF2083AA3EBC25310DB01FA02FC634496
:104C300000FA02FCC2F12002BCF1004F20FA02F29D
:104C400043EB020008BF20F00100704702F1200290
:104C500001FA02FCC2F1200250EA4C0021FA02F2F1
:104C600043EB020008BF20EADC7070474FF0FF0CF6
:104C70001CEAD0521EBF1CEAD15392EA0C0F93EAF1
:104C80000C0F6FD01A4480EA010C400218BF5FEA93
:104C900041211ED04FF0006343EA501043EA511106
:104CA000A0FB01310CF00040B1F5000F3EBF490000
:104CB00041EAD3715B0040EA010062F17F02FD2A04
:104CC0001DD8B3F1004F40EBC25008BF20F00100E7
:104CD000704790F0000F0CF0004C08BF49024CEAFE
:104CE000502040EA51207F3AC2BFD2F1FF0340EA90
:104CF000C250704740F400004FF00003013A5DDC01
:104D000012F1190FDCBF00F000407047C2F1000241
:104D1000410021FA02F1C2F1200200FA02FC5FEA2E
:104D2000310040F1000053EA4C0308BF20EADC7078
:104D3000704792F0000F00F0004C02BF400010F4EA
:104D4000000F013AF9D040EA0C0093F0000F01F097
:104D5000004C02BF490011F4000F013BF9D041EAB9
:104D60000C018FE70CEAD15392EA0C0F18BF93EABB
:104D70000C0F0AD030F0004C18BF31F0004CD8D1E5
:104D800080EA010000F00040704790F0000F17BF6C
:104D900090F0004F084691F0000F91F0004F14D0B2
:104DA00092EA0C0F01D142020FD193EA0C0F03D10A
:104DB0004B0218BF084608D180EA010000F000400D
:104DC00040F0FE4040F40000704740F0FE4040F4E8
:104DD000400070474FF0FF0C1CEAD0521EBF1CEA87
:104DE000D15392EA0C0F93EA0C0F69D0A2EB0302A5
:104DF00080EA010C49024FEA402037D04FF080533F
:104E000043EA111143EA10130CF000408B4238BF03
:104E10005B0042F17D024FF4000C8B4224BF5B1A11
:104E200040EA0C00B3EB510F24BFA3EB510340EA5F
:104E30005C00B3EB910F24BFA3EB910340EA9C000D
:104E4000B3EBD10F24BFA3EBD10340EADC001B017D
:104E500018BF5FEA1C1CE0D1FD2A3FF650AF8B4221
:104E600040EBC25008BF20F0010070470CF0004C2E
:104E70004CEA50207F32C2BFD2F1FF0340EAC25059
:104E8000704740F400004FF00003013A37E792F01A
:104E9000000F00F0004C02BF400010F4000F013A78
:104EA000F9D040EA0C0093F0000F01F0004C02BF73
:104EB000490011F4000F013BF9D041EA0C0195E7DC
:104EC0000CEAD15392EA0C0F08D142027FF47DAF75
:104ED00093EA0C0F7FF470AF084676E793EA0C0F65
:104EE00004D14B023FF44CAF08466EE730F0004C63
:104EF00018BF31F0004CCAD130F000427FF45CAFF3
:104F000031F000437FF43CAF5FE700BF014B18680E
:104F1000704700BF7000002008B5074B044613B16E
:104F20000021AFF30080054B1868836A03B19847EE
:104F3000204600F033F800BF000000006C50000075
:104F400070B50E4B0E4D0024ED1AAD101E46AC424E
:104F500004D056F8242090470134F8E700F020F8F8
:104F6000084D094B0024ED1AAD101E46AC4204D08A
:104F700056F8242090470134F8E770BD74000020F3
:104F800074000020780000207400002002440346D2
:104F9000934202D003F8011BFAE77047FEE700BF17
:104FA000F8B500BFF8BC08BC9E467047F8B500BF16
:104FB000F8BC08BC9E4670470101000000000000DC
:104FC00060670100000000000101000000300000E7
:104FD00001000000000000000100000001000100CD
:104FE000050000000000000040420F000501000025
:104FF00000000000000000000101000000000000AF
:1050000060670100000000000101000000000000D6
:10501000606701000000000008091108706F770048
:1050200000000000000000000000004003B8E23F64
:10503000000000000000000006D0CF43EBFD4C3E16
:10504000000000000000F03F000000000000F83FFA
:1050500000000000000000000000000000003043DD
:1050600000000000000030C34300000010000020DA
:04507000000000003C
:08507400E0B0FF7F0100000025
:10507C000201000000800000006CDC020100000056
:10508C000000000000000000000000000000000014
:10509C000000000000000000000000000000000004
:1050AC00685000000000000000000000000000003C
:1050BC0000000000000000000000000000000000E4
:1050CC0000000000000000000000000000000000D4
:1050DC0000000000000000000000000000000000C4
:0C50EC0010000020250100000101000060
:0400000300002CD1FC
:00000001FF
