:100000000000022051020000870200008902000067
:100010008B0200008D0200008F02000085020000AC
:1000200085020000850200008502000091020000A8
:100030009302000085020000950200009702000074
:10004000990200009B0200009D0200009F02000038
:10005000A1020000A3020000A5020000A702000008
:10006000A9020000AB020000AD020000AF020000D8
:10007000B1020000B3020000B5020000B7020000A8
:10008000B9020000BB020000BD020000BF02000078
:10009000C1020000C3020000C5020000C702000048
:1000A000C9020000CB020000CD020000CF02000018
:1000B000D1020000D3020000D5020000D7020000E8
:1000C000D9020000DB020000DD020000DF020000B8
:1000D000E1020000E3020000E50200000000000071
:1000E0000000000000000000000000000000000010
:1000F0000000000000000000000000000000000000
:1001000010B5054C237833B9044B13B10448AFF351
:1001100000800123237010BD680000200000000053
:100120009403000008B5064B1BB106480649AFF31F
:1001300000800648036813B1054B03B1984708BD1A
:1001400000000000940300006C0000206800002004
:1001500000000000154B002B08BF134B9D46A3F574
:10016000803A00218B460F461348144A121A00F0B9
:10017000F7F80F4B002B00D098470E4B002B00D008
:1001800098470020002104000D000D48002802D0EF
:100190000C48AFF3008000F0BDF82000290000F00B
:1001A0001FF800F0A3F800BF0000080000000220C4
:1001B0000000000000000000680000208400002013
:1001C0000000000000000000044BDA6822F0020288
:1001D000DA60DA6842F00402DA60704700600040DA
:1001E00000B50C4B83B01C68684600F017F8B4F1FA
:1001F000805F03D39DF80030032B02D0FFF7E4FFAC
:10020000FEE7054B1A6822F0500242F010021A6015
:10021000F4E700BFFC81E00FC0800C400B4B596934
:100220001A6901F00F01C2F3811242EA8102827061
:100230001A6902F03F0242709A69DB6902F0F0022B
:10024000C3F3031313430370704700BFD0FF0FE0E5
:10025000074880470749084A084B9B1A40F3058026
:10026000043BC858D0503FF7FBAF0548004700009B
:10027000E9020000A0030000000000206800002048
:1002800055010000FEE7FEE7FEE7FEE7FEE7FEE7BA
:10029000FEE7FEE7FEE7FEE7FEE7FEE7FEE7FEE736
:1002A000FEE7FEE7FEE7FEE7FEE7FEE7FEE7FEE726
:1002B000FEE7FEE7FEE7FEE7FEE7FEE7FEE7FEE716
:1002C000FEE7FEE7FEE7FEE7FEE7FEE7FEE7FEE706
:1002D000FEE7FEE7FEE7FEE7FEE7FEE7FEE7FEE7F6
:1002E000FEE7FEE7FEE700BF704700BF08B5074B1B
:1002F000044613B10021AFF30080054B1868836AF0
:1003000003B19847204600F033F800BF000000001A
:100310009003000070B50E4B0E4D0024ED1AAD1089
:100320001E46AC4204D056F8242090470134F8E72A
:1003300000F020F8084D094B0024ED1AAD101E46C0
:10034000AC4204D056F8242090470134F8E770BD41
:100350006000002060000020640000206000002099
:1003600002440346934202D003F8011BFAE77047A8
:10037000FEE700BFF8B500BFF8BC08BC9E4670475A
:10038000F8B500BFF8BC08BC9E46704743000000AB
:08039000000000200000000045
:08039800BCFDFF7F0100000025
:1003A000000000000000000000000000000000004D
:1003B000000000000000000000000000000000003D
:1003C0008C0300000000000000000000000000009E
:1003D000000000000000000000000000000000001D
:1003E000000000000000000000000000000000000D
:1003F00000000000000000000000000000000000FD
:080400002501000001010000CC
:0400000300000251A6
:00000001FF
