:100000000000022089020000BF020000C1020000BF
:10001000C3020000C5020000C7020000BD020000CC
:10002000BD020000BD020000BD020000C9020000C8
:10003000CB020000BD020000CD020000CF02000094
:10004000D1020000D3020000D5020000D702000058
:10005000D9020000DB020000DD020000DF02000028
:10006000E1020000E3020000E5020000E7020000F8
:10007000E9020000EB020000ED020000EF020000C8
:10008000F1020000F3020000F5020000F702000098
:10009000F9020000FB020000FD020000FF02000068
:1000A0000103000003030000050300000703000034
:1000B000090300000B0300000D0300000F03000004
:1000C00011030000130300001503000017030000D4
:1000D000190300001B0300001D03000000000000C6
:1000E0000000000000000000000000000000000010
:1000F0000000000000000000000000000000000000
:1001000010B5054C237833B9044B13B10448AFF351
:1001100000800123237010BD680000200000000053
:10012000D403000008B5064B1BB106480649AFF3DF
:1001300000800648036813B1054B03B1984708BD1A
:1001400000000000D40300006C00002068000020C4
:1001500000000000154B002B08BF134B9D46A3F574
:10016000803A00218B460F461348144A121A00F0B9
:1001700017F90F4B002B00D098470E4B002B00D0E7
:1001800098470020002104000D000D48002802D0EF
:100190000C48AFF3008000F0DDF82000290000F0EB
:1001A00033F800F0C3F800BF000008000000022090
:1001B0000000000000000000680000208400002013
:1001C000000000000000000080B582B000AF0C4BC2
:1001D0001B687B603B46184600F01CF87B681B0ED2
:1001E0000F2B0AD93B78032B07D1064B054A12681F
:1001F00022F0500242F010021A600837BD4680BD5E
:10020000FC81E00FC0800C4080B500AFFFF7DCFF41
:10021000FEE700BF80B485B000AF7860194B5B6922
:10022000DBB203F00F03DBB29B00FB73154B1B69C2
:1002300003F0C0039B09DAB2FB7B1343FB737B68BB
:10024000FA7B9A700F4B1B69DBB203F03F03DAB203
:100250007B685A700B4B9B69DBB223F00F03FB7377
:10026000084BDB6903F0F0031B09DAB2FB7B134395
:10027000FB737B68FA7B1A701437BD465DF8047B0C
:10028000704700BFD0FF0FE0074880470749084A82
:10029000084B9B1A40F30580043BC858D0503FF7E9
:1002A000FBAF05480047000021030000E003000009
:1002B000000000206800002055010000FEE7FEE776
:1002C000FEE7FEE7FEE7FEE7FEE7FEE7FEE7FEE706
:1002D000FEE7FEE7FEE7FEE7FEE7FEE7FEE7FEE7F6
:1002E000FEE7FEE7FEE7FEE7FEE7FEE7FEE7FEE7E6
:1002F000FEE7FEE7FEE7FEE7FEE7FEE7FEE7FEE7D6
:10030000FEE7FEE7FEE7FEE7FEE7FEE7FEE7FEE7C5
:10031000FEE7FEE7FEE7FEE7FEE7FEE7FEE700BFDB
:1003200080B400AFBD465DF8047B704708B5074B4D
:10033000044613B10021AFF30080054B1868836AAF
:1003400003B19847204600F033F800BF00000000DA
:10035000D003000070B50E4B0E4D0024ED1AAD1009
:100360001E46AC4204D056F8242090470134F8E7EA
:1003700000F020F8084D094B0024ED1AAD101E4680
:10038000AC4204D056F8242090470134F8E770BD01
:100390006000002060000020640000206000002059
:1003A00002440346934202D003F8011BFAE7704768
:1003B000FEE700BFF8B500BFF8BC08BC9E4670471A
:1003C000F8B500BFF8BC08BC9E467047430000006B
:0803D000000000200000000005
:0803D8007CFDFF7F0100000025
:1003E000000000000000000000000000000000000D
:1003F00000000000000000000000000000000000FD
:10040000CC0300000000000000000000000000001D
:1004100000000000000000000000000000000000DC
:1004200000000000000000000000000000000000CC
:1004300000000000000000000000000000000000BC
:0804400025010000010100008C
:04000003000002896E
:00000001FF
