:1000000000000220A53B0000DB3B0000DD3B0000C0
:10001000DF3B0000E13B0000E33B0000D93B000078
:10002000D93B0000D93B0000D93B0000E53B000074
:10003000E73B0000D93B0000E93B0000EB3B000040
:10004000ED3B0000EF3B0000F13B0000F33B000004
:10005000F53B0000F73B0000F93B0000FB3B0000D4
:10006000FD3B0000FF3B0000013C0000033C0000A2
:10007000053C0000073C0000093C00000B3C000070
:100080000D3C00000F3C0000113C0000133C000040
:10009000153C0000173C0000193C00001B3C000010
:1000A0001D3C00001F3C0000213C0000233C0000E0
:1000B000253C0000273C0000293C00002B3C0000B0
:1000C0002D3C00002F3C0000313C0000333C000080
:1000D000353C0000373C0000393C000000000000C7
:1000E0000000000000000000000000000000000010
:1000F0000000000000000000000000000000000000
:1001000010B5054C237833B9044B13B10448AFF351
:1001100000800123237010BD7C000020000000003F
:10012000305F000008B5064B1BB106480649AFF327
:1001300000800648036813B1054B03B1984708BD1A
:1001400000000000305F0000800000207C000020E4
:1001500000000000154B002B08BF134B9D46A3F574
:10016000803A00218B460F461348144A121A05F0B4
:100170006DFE0F4B002B00D098470E4B002B00D08C
:1001800098470020002104000D000D48002802D0EF
:100190000C48AFF3008005F033FE2000290002F088
:1001A0007BF905F019FE00BF0000080000000220E6
:1001B00000000000000000007C000020BC000020C7
:1001C000000000000000000080B400AF074B074AA9
:1001D000D26822F00202DA60044B044AD26842F08C
:1001E0000402DA60BD465DF8047B704700600040A1
:1001F00080B586B000AFAA239BB23B8004237B80EE
:100200007B6800221A707B68013301221A707B68B8
:10021000023300221A7003233B8102233B823B46B8
:100220000D48194603F0AAFA00BF0B4803F080F806
:100230000346002BF9D1FB6801331B787B617B6996
:100240001B027B61FB681B787A6913447B617B69C5
:1002500018461837BD4680BD00A0004090B585B057
:1002600000AF104B3C460FCB84E80F0001233B70DE
:1002700001237B700C4BBB6001233B733B460B4857
:10028000194603F019F8FFF7B3FF024640F2214385
:100290009A4201D0002300E0012318461437BD46DE
:1002A00090BD00BF785E000034FD050000A0004056
:1002B00080B500AF00F014F800F048F800F080F8C6
:1002C00000F092F800F0A4F800F0B8F800F0F4F8AC
:1002D00000F030F900F04CF900F068F980BD00BF83
:1002E00080B500AF5120052102F0D0FD0120012191
:1002F000012202F019FF0E48032102F0C7FD0D484C
:10030000012102F0D9FB0C48012102F0D5FB0B487A
:10031000012102F0D1FB0A48012102F0CDFB09487E
:10032000012102F0C9FB0848012102F0C5FB80BD94
:100330000200060000B2020000C2020030140800F1
:10034000000202000012020000D20200B0B586B026
:1003500000AF1948012102F0AFFB0020012101226A
:1003600002F0E2FE0120002103F090FA134B3C1D45
:100370001D460FCD0FC42B68236000233B71012362
:100380007B710023BB714FF480533B810123FB60E1
:1003900000233B7501237B750023BB7500233B6164
:1003A0003B1D184602F032F90020002102F0A2F9AC
:1003B0001837BD46B0BD00BF00430400885E000092
:1003C00080B400AF074B074A126822F003021A609C
:1003D000044B044A126822F00C021A60BD465DF814
:1003E000047B704700800C4080B400AF074B074A85
:1003F000126822F4C0521A60044B044A126822F4B4
:1004000000521A60BD465DF8047B704700800C40C6
:1004100080B582B000AF084A3B1D118892781980E0
:100420009A7001237B710123BB713B1D184603F0B9
:1004300041FA0837BD4680BD9C5E0000B0B588B06B
:1004400000AF1B4B07F108041D460FCD0FC495E804
:10045000030084E803004FF4E1333B6105233B755F
:1004600001237B750123BB7500233B830023BB76EF
:100470000023FB7600233B7707F108030D4819465C
:1004800003F0B0FA00233B7100237B710023BB71A2
:100490000023FB7100237B710023BB710023FB71E0
:1004A0003B1D0448194603F001FB2037BD46B0BD93
:1004B000A05E000000C00040B0B588B000AF1B4B8C
:1004C00007F108041D460FCD0FC495E8030084E82A
:1004D00003004FF4E1333B6105233B7501237B753A
:1004E0000123BB7500233B830023BB760023FB76EF
:1004F00000233B7707F108030D48194603F072FA11
:1005000000233B7100237B710023BB710023FB712F
:1005100000237B710023BB710023FB713B1D04484A
:10052000194603F0C3FA2037BD46B0BDA05E0000F7
:1005300000C4004090B585B000AF0A4B3C460FCBDD
:1005400084E80F0001233B7001237B70064BBB60E6
:1005500001233B733B460548194602F0ADFE1437B4
:10056000BD4690BDB85E000034FD050000A000400F
:1005700090B585B000AF0A4B3C460FCB84E80F0026
:1005800001233B7001237B70064BBB6001233B734F
:100590003B460548194602F08FFE1437BD4690BD14
:1005A000B85E000034FD050000A4004080B400AF38
:1005B000B04BB04A126842F003021A60AD4BAD4A2C
:1005C000526822F00F0242F001025A60A94BA94A78
:1005D000526822F0F00242F040025A60A54BA54A50
:1005E000526822F4706242F480625A60A14BA14AC0
:1005F000926822F00F0242F001029A609D4B9D4AE0
:10060000926822F0F00242F020029A60994B994AD7
:10061000D26842F40072DA60964B964A926822F4ED
:10062000706242F400729A60924B924AD26842F42D
:100630008062DA608F4B8F4A526A42F003025A623C
:100640008C4B8C4A926C42F003029A64894B894A23
:10065000D26C22F4702242F43022DA64854B854A4F
:10066000526D42F010025A65824B824AD26C22F4DB
:10067000700242F43002DA647E4B7E4A526D42F0E0
:1006800020025A657B4B7B4AD26C22F0706242F0AA
:100690003062DA64774B774A526D42F040025A6515
:1006A000744B744AD26C22F0704242F03042DA64E9
:1006B000704B704A526D42F080025A656D4B6D4A24
:1006C000D26E42F00302DA666A4B6A4A126F22F077
:1006D0000F0242F004021A67664B664A126F22F05C
:1006E000F00242F010021A67624B624A126F22F463
:1006F000706242F480621A675E4B5E4A126F22F4A7
:10070000704242F480421A675A4B5A4A126F22F4DE
:10071000702242F480321A67564B564A126F22F406
:10072000700242F480021A67524B524A926F42F0B2
:1007300020029A674F4B4F4A126F22F0706242F0CC
:1007400080721A674B4B4B4A126F22F0704242F094
:1007500080421A67474B474A926F42F080029A677D
:10076000444B444A526F22F00F0242F002025A6791
:10077000404B404A926F42F480729A673D4B3D4A2B
:10078000D2F8902042F00302C3F89020394B394A46
:10079000D2F8982022F00F0242F00402C3F8982009
:1007A000344B344AD2F8982022F0F00242F0400252
:1007B000C3F898202F4B2F4AD2F8982022F4706269
:1007C00042F48062C3F898202A4B2A4AD2F8982033
:1007D00022F4704242F48052C3F89820254B254AF7
:1007E000D2F8982022F4702242F48022C3F8982094
:1007F000204B204AD2F8982022F4700242F4800262
:10080000C3F898201B4B1B4AD2F8B42042F00302D5
:10081000C3F8B420174B174AD2F8B82022F00F02C1
:1008200042F00402C3F8B820124B124AD2F8B820A2
:1008300022F0F00242F01002C3F8B8200D4B0D4A2E
:10084000D2F8B82022F4706242F48062C3F8B82073
:10085000084B084AD2F8202122F00302C3F82021D5
:10086000054B054A926B22F4E06242F400729A63EF
:1008700004E000BF0060004000A00040154B154A96
:10088000926B42F003029A63134B134A926B42F04D
:1008900003029A63114B114A926A22F4E06242F415
:1008A00000729A620E4B0E4A526D42F00F025A6568
:1008B0000C4B0C4A526D22F4E06242F480725A658D
:1008C000084B084A526D42F00F025A65BD465DF86A
:1008D000047B704700A0004000A400400060084076
:1008E00000C0004000C4004090B589B000AF7860FF
:1008F0001823BB810123FB813B690A221A703B69E3
:10090000013300221A700223BB8207F10C037848DE
:10091000194602F033FF00BF754802F009FD034697
:10092000002BF9D11823BB810123FB813B690A22EB
:100930001A703B6901330F221A700223BB8207F140
:100940000C036B48194602F019FF00BF684802F01B
:10095000EFFC0346002BF9D11823BB810423FB8154
:100960003B6910221A700123BB820323BB8307F16A
:100970000C035F48194602F001FF00BF5C4802F01B
:10098000D7FC0346002BF9D1BB691B78803B184686
:1009900005F078F80346184604F07CFC02460B4646
:1009A000104619464FF00002524B04F0F1FD02468A
:1009B0000B46104619464FF000024F4B04F00CFB5B
:1009C00002460B461046194604F052FF02467B6869
:1009D0001A607B681C1DBB6901331B78803B18467D
:1009E00005F050F80346184604F054FC02460B4646
:1009F000104619464FF000023E4B04F0C9FD024676
:100A00000B46104619464FF000023B4B04F0E4FA47
:100A100002460B461046194604F02AFF034623609F
:100A20007B6803F10804BB6902331B78803B1846DE
:100A300005F028F80346184604F02CFC02460B4645
:100A4000104619464FF000022A4B04F0A1FD024661
:100A50000B46104619464FF00002274B04F0BCFA33
:100A600002460B461046194604F002FF0346236077
:100A70001823BB810123FB813B690A221A703B6961
:100A8000013300221A700223BB8207F10C031848BD
:100A9000194602F073FE00BF154802F049FC0346F8
:100AA000002BF9D11823BB810123FB813B690A226A
:100AB0001A703B690133114A12781201D1B2104AFF
:100AC0001278D2B20A43D2B2D2B21A700223BB82D7
:100AD00007F10C030648194602F050FE00BF044817
:100AE00002F026FC0346002BF9D12437BD4690BD09
:100AF00000A40040000070400000F03F0000002013
:100B00000100002090B58BB000AFAC4B07F114048E
:100B10000FCB84E80F0001233B7501237B75A84BA5
:100B2000FB61012387F8203007F11403A54819461B
:100B300002F0C2FBD0233B8001237B807B686B22C9
:100B40001A707B68013300221A7002233B813B46F6
:100B50009C48194602F012FE00BF9A4802F0E8FBDA
:100B60000346002BF9D1D0233B8001237B807B6897
:100B70006B221A707B68013301221A7002233B81B9
:100B80003B469048194602F0F9FD00BF8D4802F03F
:100B9000CFFB0346002BF9D1D0233B8001237B8080
:100BA0007B681A221A707B68013303221A700223B1
:100BB0003B813B468348194602F0E0FD00BF814877
:100BC00002F0B6FB0346002BF9D1D0233B80012372
:100BD0007B807B6819221A707B68013304221A70AB
:100BE00002233B813B467748194602F0C7FD00BF10
:100BF000744802F09DFB0346002BF9D1D0233B80C3
:100C000004237B807B681B221A7001233B81012314
:100C10003B823B466B48194602F0B0FD00BF694875
:100C200002F086FB0346002BF9D1FB681B787B6240
:100C3000D0233B8001237B807B681B221A707B685A
:100C400001337A6AD2B222F00202D2B21A700223BF
:100C50003B813B465B48194602F090FD00BF594876
:100C600002F066FB0346002BF9D1D0233B80012321
:100C70007B807B681B221A707B6801337A6AD2B250
:100C800022F01802D2B21A7002233B813B464D4833
:100C9000194602F073FD00BF4A4802F049FB0346C3
:100CA000002BF9D1D0233B8001237B807B681B2262
:100CB0001A707B680133444A1278D200D1B27A6A42
:100CC000D2B20A43D2B21A7002233B813B463D485E
:100CD000194602F053FD00BF3A4802F029FB0346D3
:100CE000002BF9D1D0233B8004237B807B681C221E
:100CF0001A7001233B8101233B823B463148194650
:100D000002F03CFD00BF2F4802F012FB0346002B0F
:100D1000F9D1FB681B787B62D0233B8001237B8069
:100D20007B681C221A707B6801337A6AD2B222F087
:100D30001802D2B21A7002233B813B462148194661
:100D400002F01CFD00BF1F4802F0F2FA0346002B20
:100D5000F9D1D0233B8001237B807B681C221A7051
:100D60007B680133194A1278D200D1B27A6AD2B2C2
:100D70000A43D2B21A7002233B813B4611481946FE
:100D800002F0FCFC00BF0F4802F0D2FA0346002B31
:100D9000F9D1D0233B8004237B807B681D221A700D
:100DA00001233B8101233B823B460648194602F062
:100DB000E5FC00BF034802F0BBFA09E0C85E000092
:100DC00034FD050000A40040980000209900002098
:100DD0000346002BEED1FB681B787B62D0233B805F
:100DE00001237B807B681D221A707B6801337A6A3D
:100DF000D2B222F00F02D2B21A7002233B813B46DC
:100E00002F48194602F0BAFC00BF2D4802F090FAB4
:100E10000346002BF9D1D0233B8001237B807B68E4
:100E20001D221A707B6801337A6AD2B242F0030243
:100E3000D2B21A7002233B813B462148194602F088
:100E40009DFC00BF1E4802F073FA0346002BF9D147
:100E5000D0233B8001237B807B6837221A707B681C
:100E6000013322221A7002233B813B461448194663
:100E700002F084FC00BF124802F05AFA0346002B2D
:100E8000F9D1D0233B8001237B807B6838221A7004
:100E90007B68013301221A7002233B813B460848DC
:100EA000194602F06BFC00BF054802F041FA034608
:100EB000002BF9D1012318462C37BD4690BD00BF49
:100EC00000A40040B0B59CB000AF7860396000234A
:100ED000BB640023FB6400233B650023FB6300230A
:100EE0003B6400237B64D0233B8501237B85FB6A25
:100EF0006B221A70FB6A013380221A7002233B8630
:100F000007F12803B248194602F038FC00BFB04888
:100F100002F00EFA0346002BF9D1D0233B850123C2
:100F20007B85FB6A6B221A70FB6A013301221A70FF
:100F300002233B8607F12803A548194602F01EFC50
:100F400000BFA34802F0F4F90346002BF9D1D023E7
:100F50003B8501237B85FB6A6C221A70FB6A013397
:100F600000221A7002233B8607F12803984819468D
:100F700002F004FC00BF964802F0DAF90346002BA9
:100F8000F9D1D0233B8501237B85FB6A38221A7077
:100F9000FB6A013300221A7002233B8607F1280303
:100FA0008B48194602F0EAFB00BF894802F0C0F9FD
:100FB0000346002BF9D1D0233B8501237B85FB6AB7
:100FC00023221A70FB6A013300221A7002233B8627
:100FD00007F128037E48194602F0D0FB00BF7C4889
:100FE00002F0A6F90346002BF9D1D0233B8501235B
:100FF0007B85FB6A6B221A70FB6A013300221A7030
:1010000002233B8607F128037148194602F0B6FB1C
:1010100000BF6F4802F08CF90346002BF9D1D023B2
:101020003B8501237B85FB6A24221A70FB6A01330E
:1010300000221A7002233B8607F1280364481946F0
:1010400002F09CFB00BF624802F072F90346002BDD
:10105000F9D1D0233B8501237B85FB6A6A221A7074
:10106000FB6A013300221A7002233B8607F1280332
:101070005748194602F082FB00BF554802F058F964
:101080000346002BF9D1D0233B8501237B85FB6AE6
:101090006A221A70FB6A01330C221A7002233B8603
:1010A00007F128034A48194602F068FB00BF484888
:1010B00002F03EF90346002BF9D1D0233B850123F2
:1010C0007B85FB6A1A221A70FB6A013301221A70AF
:1010D00002233B8607F128033D48194602F04EFBE8
:1010E00000BF3B4802F024F90346002BF9D1D0237E
:1010F0003B8501237B85FB6A19221A70FB6A013349
:1011000000221A7002233B8607F128033048194653
:1011100002F034FB00BF2E4802F00AF90346002B10
:10112000F9D1D0233B8501237B85FB6A1B221A70F2
:10113000FB6A013300221A7002233B8607F1280361
:101140002348194602F01AFB00BF214802F0F0F8CC
:101150000346002BF9D1D0233B8501237B85FB6A15
:101160001C221A70FB6A013300221A7002233B868C
:1011700007F128031648194602F000FB00BF144887
:1011800002F0D6F80346002BF9D18323A7F86C3080
:101190004FF48043A7F86A30D0233B8501237B8539
:1011A000FB6A6A221A70FB6A013340221A7002231A
:1011B0003B8607F128030648194602F0DFFA00BF14
:1011C000034802F0B5F80346002BF9D102E000BF56
:1011D00000A40040D0233B8501237B85FB6A2322AA
:1011E0001A70FB6A013378221A7002233B8607F1DA
:1011F00028038848194602F0C1FA00BF854802F06A
:1012000097F80346002BF9D1D0233B8501237B853A
:10121000FB6A23221A70FB6A013300221A70022330
:101220003B8607F128037B48194602F0A7FA00BF66
:10123000784802F07DF80346002BF9D1D0233B8596
:1012400004237B85FB6A72221A7001233B860223EA
:101250003B8707F128036F48194602F08FFA00BF59
:101260006C4802F065F80346002BF9D17B6B1B78C4
:101270001B029AB27B6B01331B7813439BB2A7F816
:101280006830B7F86820644BA3FB0213DB08A7F8AB
:1012900066300023A7F86E3087E000233B820023EE
:1012A0007B820023BB8200233B8100237B810023C0
:1012B000BB81D0233B8504237B85FB6A74221A7093
:1012C00001233B860C233B8707F12803514819462D
:1012D00002F054FA00BF4F4802F02AF80346002BF0
:1012E000F9D17B6B1B781B029AB27B6B01331B78A5
:1012F00013439BB23B827B6B02331B781B029AB277
:101300007B6B03331B7813439BB27B827B6B043371
:101310001B781B029AB27B6B05331B7813439BB27D
:10132000BB827B6B06331B781B029AB27B6B073345
:101330001B7813439BB23B817B6B08331B781B02EA
:101340009AB27B6B09331B7813439BB27B817B6B17
:101350000A331B781B029AB27B6B0B331B78134347
:101360009BB2BB81FA6B3B8A1BB21344FB633A6CA2
:101370007B8A1BB213443B647A6CBB8A1BB2134456
:101380007B64BA6C3B891BB21344BB64FA6C7B89E7
:101390001BB21344FB643A6DBB891BB213443B651B
:1013A000B7F86E300133A7F86E30B7F86E20B7F893
:1013B00066309A42FFF471AFFA6BB7F8663092FB71
:1013C000F3F3FB633A6CB7F8663092FBF3F33B64DC
:1013D0007A6CB7F8663092FBF3F37B64BA6CB7F8BB
:1013E000663092FBF3F3BB64FA6CB7F8663092FB9D
:1013F000F3F3FB643A6DB7F8663092FBF3F33B65A9
:101400007B6C002B0ADD7A6CB7F86A30D31A7B64E8
:1014100009E000BF00A40040ABAAAAAA7A6CB7F802
:101420006A3013447B64BB6C5B42002B00DA0333ED
:101430009B101B12DBB287F85430BB6C5B42002B55
:1014400000DA03339B10DBB287F85530FB6C5B424C
:10145000002B00DA03339B101B12DBB287F85630E7
:10146000FB6C5B42002B00DA03339B10DBB287F886
:1014700057303B6D5B42002B00DA03339B101B128D
:10148000DBB287F858303B6D5B42002B00DA033348
:101490009B10DBB287F85930D0233B8501237B8535
:1014A000FB6A13221A70FB6A013397F854201A70F2
:1014B00002233B8607F128039E48194602F05EF995
:1014C00000BF9C4801F034FF0346002BF9D1D02324
:1014D0003B8501237B85FB6A14221A70FB6A01336A
:1014E00097F855201A7002233B8607F1280391488C
:1014F000194602F043F900BF8E4801F019FF034678
:10150000002BF9D1D0233B8501237B85FB6A152273
:101510001A70FB6A013397F856201A7002233B8633
:1015200007F128038348194602F028F900BF8148D3
:1015300001F0FEFE0346002BF9D1D0233B850123A9
:101540007B85FB6A16221A70FB6A013397F85720D5
:101550001A7002233B8607F128037648194602F0E9
:101560000DF900BF734801F0E3FE0346002BF9D1EB
:10157000D0233B8501237B85FB6A17221A70FB6A07
:10158000013397F858201A7002233B8607F128038D
:101590006848194602F0F2F800BF664801F0C8FE3C
:1015A0000346002BF9D1D0233B8501237B85FB6AC1
:1015B00018221A70FB6A013397F859201A70022317
:1015C0003B8607F128035B48194602F0D7F800BFB5
:1015D000584801F0ADFE0346002BF9D1BB6C18460C
:1015E00004F050FA0446B7F86C30184604F046FA96
:1015F00003462046194604F04DFB03461A467B6815
:101600001A607B681C1DFB6C184604F03BFA05460B
:10161000B7F86C30184604F031FA034628461946EC
:1016200004F038FB034623607B6803F108043B6D3C
:10163000184604F027FA0546B7F86C30184604F04F
:101640001DFA03462846194604F024FB034623608E
:101650000023FB6100233B6200237B62D0233B8598
:1016600004237B85FB6A77221A7001233B860223C1
:101670003B8707F128032F48194602F07FF800BF87
:101680002C4801F055FE0346002BF9D17B6B1B78EB
:101690001A027B6B01331B781343FB61D0233B851C
:1016A00004237B85FB6A7A221A7001233B8602237E
:1016B0003B8707F128031F48194602F05FF800BF77
:1016C0001C4801F035FE0346002BF9D17B6B1B78DB
:1016D0001A027B6B01331B7813433B62D0233B859B
:1016E00004237B85FB6A7D221A7001233B8602233B
:1016F0003B8707F128030F48194602F03FF800BF67
:101700000C4801F015FE0346002BF9D17B6B1B78CA
:101710001A027B6B01331B7813437B6201233B6608
:1017200000233B7600237B760023BB760023A7F8BB
:101730006E301BE000A40040B7F86E309B0007F14C
:101740007002134453F8543C1A463B6E1340002B6E
:1017500007D0B7F86E3007F170010B44012203F88F
:10176000582CB7F86E300133A7F86E30B7F86E30EA
:10177000022BE1D9FA69FB6B002B00DA0733DB108F
:10178000D31AFB613A6A3B6C002B00DA0733DB109B
:10179000D31A3B627A6A7B6C002B00DA0733DB10CA
:1017A000D31A7B62FB691B12DBB287F85430FB69EA
:1017B000DBB287F8553097F855203B7E1343DBB2F8
:1017C00087F855303B6A1B12DBB287F856303B6A0C
:1017D000DBB287F8573097F857207B7E1343DBB294
:1017E00087F857307B6A1B12DBB287F858307B6A68
:1017F000DBB287F8593097F85920BB7E1343DBB230
:1018000087F85930D0233B8501237B85FB6A7722FB
:101810001A70FB6A013397F854201A7002233B8632
:1018200007F128036748194601F0A8FF00BF654883
:1018300001F07EFD0346002BF9D1D0233B85012327
:101840007B85FB6A78221A70FB6A013397F8552072
:101850001A7002233B8607F128035A48194601F003
:101860008DFF00BF574801F063FD0346002BF9D1FF
:10187000D0233B8501237B85FB6A7A221A70FB6AA1
:10188000013397F856201A7002233B8607F128038C
:101890004C48194601F072FF00BF4A4801F048FD6C
:1018A0000346002BF9D1D0233B8501237B85FB6ABE
:1018B0007B221A70FB6A013397F857201A700223B3
:1018C0003B8607F128033F48194601F057FF00BF48
:1018D0003C4801F02DFD0346002BF9D1D0233B8578
:1018E00001237B85FB6A7D221A70FB6A013397F81E
:1018F00058201A7002233B8607F128033148194605
:1019000001F03CFF00BF2F4801F012FD0346002B01
:10191000F9D1D0233B8501237B85FB6A7E221A7097
:10192000FB6A013397F859201A7002233B8607F1AE
:1019300028032448194601F021FF00BF214801F087
:10194000F7FC0346002BF9D1FB6B184604F09AF81C
:101950000446B7F86A30184604F090F8034620466B
:10196000194604F097F903461A463B681A603B682B
:101970001C1D3B6C184604F085F80546B7F86A3024
:10198000184604F07BF803462846194604F082F90D
:10199000034623603B6803F108047B6C184604F09F
:1019A00071F80546B7F86A30184604F067F8034640
:1019B0002846194604F06EF9034623607037BD4689
:1019C000B0BD00BF00A40040F0B59DB000AF78608E
:1019D000002387F85B30D0233B8101237B81FB68A8
:1019E00019221A70FB68013300221A7002233B820D
:1019F00007F108039448194601F0C0FE00BF924861
:101A000001F096FC0346002BF9D1D0233B81012342
:101A10007B81FB681A221A70FB68013302221A705C
:101A200002233B8207F108038748194601F0A6FE0E
:101A300000BF854801F07CFC0346002BF9D1D02380
:101A40003B8101237B81FB681B221A70FB680133F9
:101A500097F85B20012101FA02F2D2B21A70022338
:101A60003B8207F108037848194601F087FE00BF62
:101A7000754801F05DFC0346002BF9D1D0233B8172
:101A800001237B81FB681D221A70FB68013302224F
:101A90001A7002233B8207F108036B48194601F0D4
:101AA0006DFE00BF684801F043FC0346002BF9D1EE
:101AB000D0233B8101237B81FB681C221A70FB68C9
:101AC000013397F85B20012101FA02F2D2B21A70B9
:101AD00002233B8207F108035B48194601F04EFEE2
:101AE00000BF594801F024FC0346002BF9D1002324
:101AF000FB66A2E0D0233B8104237B81FB683B2271
:101B00001A7001233B8206233B8307F108034E48EA
:101B1000194601F033FE00BF4B4801F009FC0346B3
:101B2000002BF9D1B7F844309AB27B691B781B02BD
:101B300099B27B6901331B780B439BB29BB2134470
:101B40009BB29BB2A7F84430B7F846309AB27B6993
:101B500002331B781B0299B27B6903331B780B435A
:101B60009BB29BB213449BB29BB2A7F84630B7F826
:101B700048309AB27B6904331B781B0299B27B69A7
:101B800005331B780B439BB29BB213449BB29BB2B1
:101B9000A7F84830D0233B8104237B81FB68432294
:101BA0001A7001233B8206233B8307F10803264872
:101BB000194601F0E3FD00BF234801F0B9FB0346DD
:101BC000002BF9D1B7F84C309AB27B691B781B0215
:101BD00099B27B6901331B780B439BB29BB21344D0
:101BE0009BB29BB2A7F84C30B7F84E309AB27B69E3
:101BF00002331B781B0299B27B6903331B780B43BA
:101C00009BB29BB213449BB29BB2A7F84E30B7F87D
:101C100050309AB27B6904331B781B0299B27B69FE
:101C200005331B780B439BB29BB213449BB29BB210
:101C3000A7F85030FB6E0133FB66FB6EC72B7FF7B6
:101C400059AF0023BB6630E000A40040BB6E5B00D0
:101C500007F170010B4433F82C3C1BB2804A82FB25
:101C600003129211DB17D31A9AB2BB6E5B0007F115
:101C700070010B4423F82C2CBB6E5B0007F1700243
:101C8000134433F8243C1BB2754A82FB03129211B1
:101C9000DB17D31A9AB2BB6E5B0007F170010B44DD
:101CA00023F8242CBB6E0133BB66BB6E022BCDDD4B
:101CB000D0233B8101237B81FB681C221A70FB68C7
:101CC0000133E0221A7002233B8207F108036548C2
:101CD000194601F053FD00BF624801F029FB03469D
:101CE000002BF9D1D0233B8101237B81FB681B2290
:101CF0001A70FB680133E0221A7002233B8207F15D
:101D000008035848194601F039FD00BF554801F055
:101D10000FFB0346002BF9D100237B6698E0D0230C
:101D20003B8104237B81FB683B221A7001233B82A9
:101D300006233B8307F108034A48194601F01EFDBC
:101D400000BF484801F0F4FA0346002BF9D1BB8FDD
:101D50009AB27B691B781B0299B27B6901331B78AD
:101D60000B439BB29BB213449BB29BB2BB87FB8FCE
:101D70009AB27B6902331B781B0299B27B690333E9
:101D80001B780B439BB29BB213449BB29BB2FB8765
:101D9000B7F840309AB27B6904331B781B0299B2C2
:101DA0007B6905331B780B439BB29BB213449BB2F8
:101DB0009BB2A7F84030D0233B8104237B81FB6892
:101DC00043221A7001233B8206233B8307F1080359
:101DD0002448194601F0D2FC00BF224801F0A8FABD
:101DE0000346002BF9D1BB8E9AB27B691B781B028C
:101DF00099B27B6901331B780B439BB29BB21344AE
:101E00009BB29BB2BB86FB8E9AB27B6902331B7876
:101E10001B0299B27B6903331B780B439BB29BB2C5
:101E200013449BB29BB2FB863B8F9AB27B6904330F
:101E30001B781B0299B27B6905331B780B439BB25D
:101E40009BB213449BB29BB23B877B6E01337B6694
:101E50007B6EC72B7FF763AF00233B6633E000BF89
:101E60001F85EB5100A400403B6E5B0007F1700240
:101E7000134433F8343C1BB2B14A82FB0312921173
:101E8000DB17D31A9AB23B6E5B0007F170010B446B
:101E900023F8342C3B6E5B0007F17002134433F8D7
:101EA0003C3C1BB2A64A82FB03129211DB17D31AE9
:101EB0009AB23B6E5B0007F170010B4423F83C2C97
:101EC0003B6E01333B663B6E022BCDDDD0233B8165
:101ED00001237B81FB681C221A70FB6801330022FE
:101EE0001A7002233B8207F108039648194601F055
:101EF00045FC00BF934801F01BFA0346002BF9D1C3
:101F0000D0233B8101237B81FB681B221A70FB6875
:101F1000013300221A7002233B8207F1080389482B
:101F2000194601F02BFC00BF864801F001FA034678
:101F3000002BF9D1D0233B8104237B81FB680D2248
:101F40001A7001233B8201233B8307F108037D487C
:101F5000194601F013FC00BF7A4801F0E9F9034685
:101F6000002BF9D1FB685B7887F85430D0233B8194
:101F700004237B81FB680E221A7001233B8201231C
:101F80003B8307F108036F48194601F0F7FB00BFD8
:101F90006C4801F0CDF90346002BF9D1FB685B7862
:101FA00087F85530D0233B8104237B81FB680F22C7
:101FB0001A7001233B8201233B8307F10803614828
:101FC000194601F0DBFB00BF5E4801F0B1F90346A2
:101FD000002BF9D1FB685B7887F85630D0233B8122
:101FE00004237B81FB6800221A7001233B820123BA
:101FF0003B8307F108035348194601F0BFFB00BFBC
:10200000504801F095F90346002BF9D1FB685B7845
:1020100087F85730D0233B8104237B81FB68012262
:102020001A7001233B8201233B8307F108034548D3
:10203000194601F0A3FB00BF424801F079F90346BD
:10204000002BF9D1FB685B7887F85830D0233B81AF
:1020500004237B81FB6802221A7001233B82012347
:102060003B8307F108033748194601F087FB00BF9F
:10207000344801F05DF90346002BF9D1FB685B7829
:1020800087F8593097F85B3040F63C2202FA03F3A8
:10209000184603F0F7FC0346184603F0FBF8044625
:1020A0000D4697F85430184603F0E8FC03461846EE
:1020B00003F0F0F802460B46104619464FF00002B6
:1020C000214B02F087FF02460B461BA1D1E900011C
:1020D00001F090FE02460B462046294603F02EF9F9
:1020E00002460B461046194603F0C2FB0346FB614D
:1020F00097F85B3040F63C2202FA03F3184603F0EF
:10210000C1FC0346184603F0C5F804460D4697F88F
:102110005530184603F0B2FC0346184603F0BAF8EF
:1021200002460B46104619464FF00002064B02F0DD
:1021300051FF02460B4609E0295C8FC2F528F03FAB
:102140001F85EB5100A400400000F03F76A1D1E9CB
:10215000000101F04FFE02460B462046294603F0DF
:10216000EDF802460B461046194603F081FB034684
:102170003B6297F85B3040F63C2202FA03F31846C4
:1021800003F080FC0346184603F084F804460D462D
:1021900097F85630184603F071FC0346184603F0D2
:1021A00079F802460B46104619464FF00002604B84
:1021B00002F010FF02460B465BA1D1E9000101F0DD
:1021C00019FE02460B462046294603F0B7F80246A0
:1021D0000B461046194603F04BFB03467B6297F80B
:1021E0005B3040F63C2202FA03F3184603F04AFC47
:1021F0000346184603F04EF804460D4697F857304C
:10220000184603F03BFC0346184603F043F8024629
:102210000B46104619464FF00002454B02F0DAFE1D
:1022200002460B4640A1D1E9000101F0E3FD024660
:102230000B462046294603F081F802460B4610461D
:10224000194603F015FB0346BB6297F85B3040F676
:102250003C2202FA03F3184603F014FC0346184626
:1022600003F018F804460D4697F85830184603F066
:1022700005FC0346184603F00DF802460B461046CF
:1022800019464FF000022A4B02F0A4FE02460B460C
:1022900025A1D1E9000101F0ADFD02460B46204623
:1022A000294603F04BF802460B461046194603F048
:1022B000DFFA0346FB6297F85B3040F63C2202FAF5
:1022C00003F3184603F0DEFB0346184602F0E2FF74
:1022D00004460D4697F85930184603F0CFFB0346E5
:1022E000184602F0D7FF02460B46104619464FF03B
:1022F00000020F4B02F06EFE02460B460AA1D1E926
:10230000000101F077FD02460B462046294603F006
:1023100015F802460B461046194603F0A9FA034683
:102320003B630023FB658CE0295C8FC2F528F03FFE
:102330000000F03FFB6D9B007A68D618FB6D5B00D8
:1023400007F17002134433F8343C1AB2FB6D5B00A2
:1023500007F170010B4433F82C3C1BB2D31A18461A
:1023600003F090FB0346184602F094FF02460B462A
:10237000104619464FF00002354B02F0DFFF0246CF
:102380000B4614461D46FB6D9B0007F1700213447B
:1023900053F8543C184602F07DFF02460B46204697
:1023A000294603F0F5F802460B461046194603F09D
:1023B0005FFA03463360FB6D03339B007A68D618DF
:1023C000FB6D5B0007F170010B4433F83C3C1AB223
:1023D000FB6D5B0007F170010B4433F8243C1BB22A
:1023E000D31A184603F04EFB0346184602F052FF7C
:1023F00002460B46104619464FF00002144B02F0FD
:102400009DFF02460B4614461D46FB6D03339B00A1
:1024100007F17002134453F8543C184602F03AFF97
:1024200002460B462046294603F0B2F802460B4608
:102430001046194603F01CFA03463360FB6D013366
:10244000FB65FB6D022B7FF775AF7437BD46F0BDA2
:1024500000005940AFF3008080B582B000AF0C4B54
:102460001B687B603B46184601F04CFA7B681B0EEC
:102470000F2B0AD93B78032B07D1064B054A12686C
:1024800022F0500242F010021A600837BD4680BDAB
:10249000FC81E00FC0800C4080B590B000AFFFF72A
:1024A000DBFFFDF705FFFDF78FFEFDF7D7FEFEF71B
:1024B00029FB07F134031846FEF716FA07F1280244
:1024C00007F11C0310461946FEF7FCFC3B1D18469D
:1024D000FFF77AFAFEE700BF80B487B000AFF8607C
:1024E000B9607A60FB6803F10473DA00BB681344D7
:1024F0009B007B617B697A681A601C37BD465DF87A
:10250000047B704780B483B000AF7860034B7A6877
:102510001A630C37BD465DF8047B70470010084015
:1025200080B582B000AF0346FB71FB79002B05D06C
:102530000E4B1B6803F00303002B05D1FB7983F0DE
:102540000103DBB2002B00D000BFFB79002B05D0CC
:10255000064803210022FFF7BFFF04E003480321E0
:102560000122FFF7B9FF0837BD4680BD00100840C3
:1025700080B582B000AF0346FB71FB7903480021B0
:102580001A46FFF7A9FF0837BD4680BD381008403E
:1025900080B487B000AF78607B68002B04D07B6884
:1025A000B3F5004F00D800BF7B683B613B69B3FACD
:1025B00083F3FB60FB68DBB2C3F11F037B617B69C4
:1025C00018461C37BD465DF8047B704780B483B065
:1025D00000AF78600C4B9B6B03F00103002B05D11F
:1025E000094B1B6803F44053002B00D006E000BFEA
:1025F000054BDA6B7B681340002BF9D10C37BD46D5
:102600005DF8047B704700BF0010084080B584B0BF
:1026100000AF78607B689B68002B04D07B689B6868
:10262000802B00D800BF7B681B7883F00103DBB2EE
:10263000002B07D17B681B78002B04D07B685B786C
:10264000002B00D000BF7B689B88B3F5405F08D1AA
:102650007B689B88B3F5405F04D17B689B7C002B33
:1026600000D100BF7B689B681846FFF791FFF860B8
:102670007B681B78002B02D00120FFF779FF012037
:10268000FFF7A4FF1A4B7A68927C5A607B685B78EC
:1026900043F00803DBB21A467B689B789B001A4321
:1026A0007B685B7C1B011A437B68DB685B011A4318
:1026B000FB681B021A437B689B881A437B681B7C60
:1026C0009B031343BB604FF0FF30FFF71BFF084B2A
:1026D000BA681A607B681B78002B05D00120FFF7D1
:1026E0001FFF0020FFF744FF1037BD4680BD00BF2D
:1026F0000010084080B582B000AF786039600220D9
:10270000FFF764FF024B3A68DA600837BD4680BDC8
:102710000010084080B487B000AFF860B9607A60FC
:10272000FB6803F10473DA00BB6813449B007B6110
:102730007B697A681A601C37BD465DF8047B704778
:1027400080B483B000AF1D4BDB6C03F47F031B0C24
:10275000FB71FB794A2B04D04B2B26D0482B22D07F
:1027600025E0174B1B699BB203F03F039BB21B0292
:10277000BB80134B9B699BB203F0F0039AB2BB88FA
:102780001343BB800E4BDB6903F0F0031B099AB2C5
:10279000BB881343BB80BB88B3F5017F01D3094BD2
:1027A00006E0094B04E0084B02E0064B00E0002382
:1027B00018460C37BD465DF8047B7047B081E00FCA
:1027C000D0FF0FE000366E010048E80180B485B00C
:1027D00000AF7860284BDB6B002B0CBF002301237C
:1027E000BB72254B41F67132DA63234B5B6803F011
:1027F0000703FB60FB68012B01D9042B02D10023E6
:10280000FB7202E00123FB7200BF7A681B4B9A4205
:1028100007D9FB7A002B01D0052300E00423FB60DD
:1028200016E07A68154B9A420BD87A68144B9A4294
:1028300007D9FB7A002B01D0032300E00123FB60C2
:1028400006E0FB7A002B01D0022300E00023FB60AE
:10285000094B094A526822F00701FA680A435A6094
:10286000BB7A002B02D0044B0022DA631437BD463A
:102870005DF8047B704700BF00000C400048E80191
:102880000024F40080B582B000AF044B7B60786810
:10289000FFF79CFF0837BD4680BD00BF006CDC021F
:1028A00080B582B000AF104800F03EFA0346FB70DE
:1028B000FB78032B07D0082B09D0022B0BD101F09A
:1028C0008DFA78600AE001F075FA786006E001F0B0
:1028D000E7F9786002E000237B6000BF7B68184660
:1028E0000837BD4680BD00BF05231C0080B483B0FF
:1028F00000AF1A4B5B6903F4E063B3F5007F14D0BB
:10290000B3F5007F05D8002B15D0B3F5807F0FD02D
:102910001AE0B3F5C06F14D0B3F5E06F0ED0B3F585
:10292000407F11D10E4B7B6011E00E4B7B600EE0BF
:102930000D4B7B600BE00D4B7B6008E00C4B7B602C
:1029400005E00C4B7B6002E000237B6000BF7B68EE
:1029500018460C37BD465DF8047B704700800C407C
:1029600040420F00C0CF6A00C0D8A700809FD500AA
:10297000406F4001003FAB0180B582B000AF12480C
:1029800000F0D2F90346FB70FB78072B0FD0082B21
:1029900011D101F085F978600C4B1B6803F4E0332A
:1029A0009B0B01337A68B2FBF3F37B6006E0FFF721
:1029B0009DFF786002E000237B6000BF7B681846C3
:1029C0000837BD4680BD00BF0400180000800C40E1
:1029D00080B584B000AF78607B68002B02D07B6844
:1029E000012B00D100BF264B9A6A7B685B0022FA5C
:1029F00003F303F00303032B3AD801A252F823F0A8
:102A0000512A0000112A0000192A0000212A000082
:102A100001F0D0F9F8602EE001F0E0F9F8602AE06A
:102A2000174B5B6803F48073002B05D1144B1B68B4
:102A300003F08043002B05D001F00EF903469B08FC
:102A4000FB6018E001F008F903465B08FB6012E048
:102A50000B4B9A6A7B6804339B0022FA03F3002B2A
:102A600003D001F0B1F9F86005E00023FB6002E05B
:102A70000023FB6000BFFB6818461037BD4680BDD1
:102A800000800C4080B483B000AF7860094B5B6D70
:102A900003F00103002B00D006E000BF054B1A6DC8
:102AA0007B681340002BF9D10C37BD465DF8047BE1
:102AB000704700BF00800C4090B587B000AF7860D1
:102AC0000B46FB7000233B617B681B0A03F00F037E
:102AD000013B052B4AD801A252F823F0F52A000049
:102AE000FB2A0000012B00002F2B0000392B0000D7
:102AF000432B00001F4B7B6126E01F4B7B6123E0D3
:102B00001E4B7B611E4800F047F80446FFF718FE95
:102B100003469C420AD91B481E210122FFF7FAFDF9
:102B2000194808210122FFF7F5FD0DE00CE0174BD5
:102B30007B6101233B6107E0154B7B6110233B6107
:102B400002E0144B7B6100BF7B681B0B03F01F038B
:102B5000FB603B69002B02D03869FFF793FFFB78DD
:102B60007869F9681A46FFF7D5FD00E000BF1C3709
:102B7000BD4690BD08800C4044800C4040800C4015
:102B80002000040000800C4004800C4058800C4061
:102B900060800C4078800C4080B584B000AF7860D5
:102BA0007B6803F47813B3F5801F7AD0B3F5801FE8
:102BB00015D8B3F5802F4FD0B3F5802F05D8002B53
:102BC00026D0B3F5003F31D0A4E0B3F5002F4CD0B0
:102BD000B3F5202F57D0B3F5C02F41D09AE0B3F50D
:102BE000B01F7DD0B3F5B01F06D8B3F5901F65D0E8
:102BF000B3F5A01F67D08DE0B3F5D01F00F0828041
:102C0000B3F5E01F00F08280B3F5C01F76D081E0FD
:102C100001F046F8F860434B1B6803F4E0339B0B6C
:102C20000133FA68B2FBF3F3FB6076E001F038F8A9
:102C3000F8603C4B1B6803F4E0339B0B0133FA68EC
:102C4000B2FBF3F3FB60374B9B6803F00F03FA68AA
:102C500022FA03F3FB6060E000F0FEFFF8605CE046
:102C60000020FFF7B5FEF86057E00020FFF7B0FE48
:102C7000F8602C4B9B6E03F0F0031B09FA6822FAF4
:102C800003F3FB6049E00020FFF7A2FEF860254B4C
:102C90009B6E03F470631B0AFA6822FA03F3FB606D
:102CA0003BE00020FFF794FEF8601E4B9B6E03F0A4
:102CB0000303FA6822FA03F3FB602EE00120FFF71A
:102CC00087FEF86029E00120FFF782FEF860154BCF
:102CD0001B6F03F00303FA6822FA03F3FB601CE0A6
:102CE0000120FFF775FEF8600E4B1B6F03F03003F9
:102CF0001B09FA6822FA03F3FB600EE0FFF73CFEC3
:102D0000F8600AE0FFF7F2FDF86006E0FFF7C8FDA3
:102D1000F86002E00023FB6000BFFB681846103734
:102D2000BD4680BD00800C4080B487B000AF7860A5
:102D30000123FB754FF470533B617B6803F00F0375
:102D4000FB60FB68013B042B00F2938001A252F868
:102D500023F000BF692D00009F2D0000DB2D000037
:102D6000172E00003D2E0000474BDA6A3B691340E6
:102D7000B3F5805F09D0B3F5005F03D0B3F5006F02
:102D800006D008E00223FB7508E00323FB7505E08D
:102D90000423FB7502E00523FB7500BF6CE03A4B92
:102DA0009B6A03F00303022B06D0032B07D0012BF1
:102DB00008D10323FB750FE00223FB750CE006230B
:102DC000FB7509E0304B9B6A03F48033002B02D083
:102DD0000923FB7500E000BF4EE02B4B9B6A03F01C
:102DE0000C03082B06D00C2B07D0042B08D103238F
:102DF000FB750FE00223FB750CE00623FB7509E071
:102E0000214B9B6A03F48013002B02D00923FB752E
:102E100000E000BF30E00723FB751B4B1B6803F08D
:102E20008053002B03D0B3F1805F03D024E007234D
:102E3000FB7502E00823FB7500BF1DE0124BDB6A47
:102E400003F46033B3F5803F06D0B3F5003F06D0FE
:102E5000B3F5004F06D008E00223FB7508E003231A
:102E6000FB7505E00823FB7502E00123FB7500BF3D
:102E700002E00023FB7500BFFB7D18461C37BD46F2
:102E80005DF8047B704700BF00800C4090B589B0AE
:102E900000AF78600B46FB700323FB610323FB76D6
:102EA00000237B617B6803F00F03FB60FB68013B41
:102EB000042B00F22A8101A252F823F0D12E000047
:102EC0009D2F00009D2F000079300000A3300000EE
:102ED000FB78023B072B00F21A8101A252F823F083
:102EE000012F00000B2F0000152F0000692F00009C
:102EF0000F3100000F3100000F310000732F000070
:102F00000423FB610023FB7634E00323FB610123F0
:102F1000FB762FE00223FB610223FB7600F038FFF3
:102F20000446FFF70DFC03469C4213D97B4A7B4BBA
:102F30001B6843F0804343F060031360774B1B6CC6
:102F400003F01003002B0ED0754808210122FFF773
:102F5000E1FB0FE0714B714A126822F0600242F00F
:102F600020021A6006E005E00123FB610323FB76E3
:102F700000E000BFFB7E18460121012200F0D4F8DA
:102F8000FFF780FC654BFA695A6200F02DF900F0FA
:102F900063FEB860B868FFF719FCBBE0FB78013B43
:102FA000082B00F2B68001A252F823F0D12F0000C6
:102FB000D72F0000E72F000013310000133100006D
:102FC000F72F000013310000133100002F300000F4
:102FD00000233B6130E000200121012200F0A4F831
:102FE00002233B6128E001200121012200F09CF82E
:102FF00001233B6120E04B4804210122FFF78AFBBB
:1030000003233B6100F028FEB860FFF799FB0246FE
:10301000BB689A420AD241481E210122FFF77AFB7F
:103020003F4808210122FFF775FB05E004E000237B
:103030003B6101237B6100BFFB68022B0DD1374A46
:10304000364B9B6A23F4803323F003033969194319
:103050007B691B040B4393625CE0304A2F4B9B6AF5
:1030600023F4801323F00C033969890019437B6929
:103070001B050B4393624DE0FB78072B02D0082B16
:1030800007D047E0254B254A126822F080521A608B
:1030900006E0224B214A126842F080521A6000BFBB
:1030A00038E0FB78032B14D0082B22D0022B00D061
:1030B00030E000200121012200F036F8174B4022B9
:1030C0005A6200BF154BDB6A03F48033002BF9D042
:1030D0001AE001200121012200F026F80F4B6022A6
:1030E0005A6200BF0D4BDB6A03F40033002BF9D0AA
:1030F0000AE00A4B20225A6200BF084BDB6A03F445
:103100000043002BF9D000BF04E000BF02E000BF85
:1031100000E000BF2437BD4690BD00BF00800C40DA
:1031200004800C4040800C4080B586B000AF134650
:103130000246FA710A46BA717B71FB79052B4CD8AD
:1031400001A252F823F000BF993100008B3100003A
:103150006F310000613100007D310000DB31000083
:1031600001233B610223FB6002237B611EE00423F9
:103170003B610823FB6008237B6117E010233B6160
:103180002023FB6020237B6110E040233B618023F0
:10319000FB6080237B6109E04FF480733B614FF457
:1031A0000073FB604FF400737B6100BFBB79002BA1
:1031B0000DD00C4B3A691A627B79002B0AD000BF04
:1031C000084BDA6A7B691340002BF9D002E0054B0B
:1031D000FA681A6200F008F800E000BF1837BD4630
:1031E00080BD00BF00800C4080B400AF034BDA6AA2
:1031F000034B1A60BD465DF8047B704700800C40AD
:103200009C00002080B487B000AFF860B9607A609D
:10321000FB6803F10473DA00BB6813449B007B6115
:103220007B697A681A601C37BD465DF8047B70477D
:1032300080B586B000AFF860B9607A60FB707B68DB
:10324000002B00D130E0FB681B6823F44072FB6860
:103250001A60FB681A68FB781B021A43FB681A6045
:10326000BB68002B03D11248FFF796FCB860FB78CF
:10327000104AD35C3B617B689B00BA68D21A3B69F9
:10328000796801FB03F3B2FBF3F37B61FB681B6816
:1032900003F00203002B04D07B69002B01D1012332
:1032A0007B61FB687A691A611837BD4680BD00BF33
:1032B00010810200D85E000080B582B000AF786057
:1032C00039607A68174B9A4203D07A68164B9A4253
:1032D00000D100BF7B6800225A637B68134A1A63DF
:1032E0007A683B685B78002B01D0002300E0012363
:1032F000104601211A46FFF785FF3B6859683B6875
:103300009A683B681B7B7868FFF792FF7A683B6896
:103310001B78104600211A46FFF774FF0837BD4698
:1033200080BD00BF00A0004000A40040CFFF01000E
:1033300080B489B000AF78607A689D4B9A4203D020
:103340007A689C4B9A4200D100BF7A68984B9A42A7
:1033500002D1994BBB6108E07A68964B9A4202D140
:10336000964BBB6101E0FC2300E2BB699B687B617B
:103370007B689B6A3B613B6903F4C063002B14D0FC
:103380003B6903F40073002B03D0BB69FD225A7024
:1033900007E03B6903F48063002B02D0BB69FE2287
:1033A0005A70BB6909221A70CCE1BB691B78082BE3
:1033B00000F2C08101A252F823F000BFE133000007
:1033C00033340000B93400000B3500005D350000D7
:1033D000C13500004936000087360000193700006B
:1033E0007B695B8803F01003002B09D07B691B8885
:1033F0001B0A9BB203F0060343F0F003FB610EE0EF
:103400007B691B8803F0FE03FB617B695B8803F02B
:103410000203002B03D0FB6943F00103FB61BB698E
:1034200001221A707B68FA695A627B6801225A602D
:1034300088E13B6903F08003002B0CD07B6880227D
:103440001A63BB69FF225A70BB6908221A707B6835
:1034500002225A602FE03B6903F04003002B2AD080
:103460007B6840221A637B695B8803F01003002BA2
:1034700008D0BB6902221A707B691B88DAB27B68AC
:103480005A6218E07B695B8803F00203002B0ED0C0
:10349000BB6907221A70BB691B797A69DB00134488
:1034A0001B89012B07D17B6808225A604AE1BB695E
:1034B00005221A7045E145E13B6903F08003002BCA
:1034C0000CD07B6880221A63BB69FF225A70BB69EB
:1034D00008221A707B6802225A6015E03B6903F0EB
:1034E0004003002B10D07B6840221A637B695B8805
:1034F00003F00203002B03D0BB6903221A7020E102
:10350000BB6905221A701CE11CE17B695B8803F032
:103510001003002B09D07B691B881B0A9BB203F0A8
:10352000060343F0F003FB6104E07B691B8803F0B2
:10353000FE03FB617B695B8803F00403002B03D06F
:10354000FB6943F00103FB61BB6904221A707B68CD
:1035500001225A607B68FA695A62F3E03B6903F022
:103560008003002B0CD07B6880221A63BB69FF228A
:103570005A70BB6908221A707B6802225A6015E0F3
:103580003B6903F04003002B10D07B6840221A6394
:103590007B695B8803F00403002B03D0BB6907221F
:1035A0001A7003E0BB6905221A70CAE0CAE000BFC6
:1035B00000A0004000A40040A0000020AC000020BB
:1035C000BB695A88BB691B797969DB000B441B898D
:1035D0009A4224D3BB6900225A80BB691B7901330C
:1035E000DAB2BB691A717B695B8803F00403002BB4
:1035F00003D0BB6903221A70A3E07B695B8803F0E8
:103600000103002B03D1BB691B79012B06D9BB69D0
:1036100008221A707B6802225A6093E091E0BB692D
:103620001B797A69DB0013445A68BB695B88591CB3
:1036300088B2B969488013441B781A467B685A627D
:10364000BB6906221A707DE03B6903F08003002B02
:103650000CD07B6880221A63BB69FF225A70BB6959
:1036600008221A707B6802225A600BE03B6903F063
:103670004003002B06D07B6840221A63BB690522F9
:103680001A705EE05EE03B6903F02003002B42D03D
:10369000BB691B797A69DB0013441B89FB607B687B
:1036A000DB69FB72BB695B881A46FB689A420ED2E3
:1036B000BB691B797A69DB0013445A68BB695B8874
:1036C000591C88B2B96948801344FA7A1A70BB69E8
:1036D0005B881A46FB689A420CD3FB68012B02D127
:1036E0007B6808225A60BB6908221A707B68022234
:1036F0005A6010E07B6804225A60FB68012B0AD9EB
:10370000BB695B881A46FB68013B9A4203D17B6820
:1037100008225A6016E015E03B6903F48073002B21
:1037200007D07B684FF480721A63BB6909221A7054
:1037300008E007E0BB69FB225A70BB6909221A70D6
:1037400000E015E6BB691B78092B0BD17B680022D2
:103750005A63BB695B785BB2012B05D1BB69002260
:103760005A7001E0012301E0BB695B785BB2184647
:103770002437BD465DF8047B704700BF80B584B038
:1037800000AF786039607A68304B9A4203D07A682B
:103790002F4B9A4200D100BF7A682C4B9A4202D13B
:1037A0002C4BFB6008E07A68294B9A4202D12A4BE5
:1037B000FB6001E0FC2343E07B689B6803F00103AE
:1037C000002B02D07B6820225A603B685B8803F0A4
:1037D0000203002B03D03B681B89002B09D03B68F8
:1037E0005B8803F00403002B05D03B681B8A002B89
:1037F00001D1FC2324E0FB6800221A70FB6801223F
:103800005A70FB6800225A80FB6800221A71FB681C
:103810003A689A607B68C0225A607B689B6A03F0B2
:103820002003002B01D07B68DB697B680B4A1A639D
:103830007B684FF4FC625A637868FFF779FD0346B2
:103840005BB218461037BD4680BD00BF00A00040E7
:1038500000A40040A0000020AC000020CFFF010029
:1038600080B487B000AFF860B9607A60FB6803F19C
:103870000473DA00BB6813449B007B617B697A6840
:103880001A601C37BD465DF8047B704780B582B076
:1038900000AF02460B46FA71BB71FA79BB79044856
:1038A00011461A46FFF7DCFF0837BD4680BD00BF52
:1038B00000A00C4080B485B000AF78607B681B78B6
:1038C000002B02D00123FB6001E00023FB607B683A
:1038D0005B78002B03D0FB6843F00203FB607B683E
:1038E0009B78002B03D0FB6843F00403FB60044B80
:1038F000FA681A601437BD465DF8047B704700BF54
:103900000000084080B485B000AF7860194B5B6957
:10391000DBB203F00F03DBB29B00FB73154B1B699B
:1039200003F0C0039B09DAB2FB7B1343FB737B6894
:10393000FA7B9A700F4B1B69DBB203F03F03DAB2DC
:103940007B685A700B4B9B69DBB223F00F03FB7350
:10395000084BDB6903F0F0031B09DAB2FB7B13436E
:10396000FB737B68FA7B1A701437BD465DF8047BE5
:10397000704700BFD0FF0FE080B586B000AFF860A1
:10398000B9607A60BB68002B03D11448FFF704F9D3
:10399000B860BB685B007B617A687B691344013B5C
:1039A0007B617A697B68B2FBF3F37B617B69043BE3
:1039B0007B617B699B017B617B69C0337B617B6938
:1039C00023F0FF037B617A69054B13407B61FB6841
:1039D0007A695A611837BD4680BD00BF1081020068
:1039E000C0FF1F0080B582B000AF786039607A6890
:1039F0002B4B9A4207D07A682A4B9A4203D07A68B6
:103A0000294B9A4200D100BF786800F07FF87B68AC
:103A10001A683B681B8A43F001039BB219463B6856
:103A20009B7B002B02D04FF4806300E000230B430C
:103A30001A437B681A607B6819683B689B7C002B83
:103A400001D0102200E000223B681B7D002B02D039
:103A50004FF0005300E00023134341EA03027B6868
:103A60001A603B681B7B43F480527B685A603B685A
:103A70005A683B689B68786811461A46FFF77CFFD6
:103A80003B685B7B002B02D07B681022DA603B68CE
:103A90001B781A467B68DA600837BD4680BD00BFD8
:103AA00000C0004000C4004000C8004080B485B0A1
:103AB00000AF786039607B689B6823F07703FB6018
:103AC0003B681B78002B03D0FB6843F04003FB608E
:103AD0003B689B78002B03D0FB6843F02003FB601E
:103AE0003B685B78002B03D0FB6843F01003FB605E
:103AF0003B68DB78FA681343FB607B68FA689A607E
:103B00001437BD465DF8047B704700BF80B483B0B6
:103B100000AF78607A68204B9A4207D07A681F4BD2
:103B20009A4203D07A681E4B9A4200D100BF7B684C
:103B300040F6AA62DA607B6800221A607B6841F274
:103B400005025A607B6800229A607B6800225A61F5
:103B50007B680022DA647B6841F6F9729A647B68BC
:103B600000225A657A680C4B9A4202D17B68002287
:103B70001A657B6800229A657A68084B9A4203D0DE
:103B80007A68074B9A4202D17B680022DA650C37CB
:103B9000BD465DF8047B704700C0004000C4004093
:103BA00000C80040074880470749084A084B9B1A4D
:103BB00040F30580043BC858D0503FF7FBAF0548A1
:103BC00000470000A93D00003C5F0000000000200D
:103BD0007C00002055010000FEE7FEE7FEE7FEE75F
:103BE000FEE7FEE7FEE7FEE7FEE7FEE7FEE7FEE7AD
:103BF000FEE7FEE7FEE7FEE7FEE7FEE7FEE7FEE79D
:103C0000FEE7FEE7FEE7FEE7FEE7FEE7FEE7FEE78C
:103C1000FEE7FEE7FEE7FEE7FEE7FEE7FEE7FEE77C
:103C2000FEE7FEE7FEE7FEE7FEE7FEE7FEE7FEE76C
:103C3000FEE7FEE7FEE7FEE7FEE700BF80B400AF69
:103C4000044BDB6C1B0EDBB21846BD465DF8047BF3
:103C5000704700BFB081E00F80B582B000AF00F0C8
:103C60001FF878600C4B1B6803F4E0339B0B0133A7
:103C70007A68B2FBF3F37B60074B5B6803F00F03DA
:103C80007A6822FA03F37B60044B7A681A607B68D7
:103C900018460837BD4680BD00800C40B8000020A3
:103CA00080B582B000AF2F4BDB6A03F47053B3F5DD
:103CB000805F0AD0B3F5005F03D0B3F5006F08D082
:103CC0000BE0294B1B687B6047E04FF400437B60AF
:103CD00043E0264B1B687B603FE0224BDB6803F42C
:103CE000E063B3F5007F1BD0B3F5007F05D8002B50
:103CF00024D0B3F5807F16D02BE0B3F5806F09D0C8
:103D0000B3F5A06F03D0B3F5407F06D021E0184B88
:103D10007B6021E0174B7B601EE0174B7B601BE054
:103D2000164B7B6018E0FFF789FF0346122B02D980
:103D3000134B7B6010E0134B7B600DE0FFF77EFFC1
:103D40000346122B02D9104B7B6005E00F4B7B60C2
:103D500002E000237B6000BF00BF7B681846083785
:103D6000BD4680BD00800C400800002004000020FB
:103D7000003FAB01406F4001809FD500C0D8A70035
:103D800040B56400C0CF6A00804F120040420F006F
:103D900080B400AF034B1B681846BD465DF8047B3A
:103DA000704700BF0400002080B400AFBD465DF83E
:103DB000047B704780B400AF4FF400431846BD4603
:103DC0005DF8047B704700BF80B400AF4FF47A7396
:103DD0001846BD465DF8047B704700BF80B400AF55
:103DE000034B1B681846BD465DF8047B704700BF57
:103DF000080000202DE9F04F8BB01D468046894613
:103E0000144600F075F9DFF8ACA206469AF90030C6
:103E10000F46013304D02046294600F08FFF20B919
:103E2000304639460BB0BDE8F08F4046494600F0B9
:103E300085FF834600282CD12046294600220023F6
:103E400001F0E4FC0028EBD0944B9AF90010944E5A
:103E500000220120CDE906234B1CCDF820B0CDE98E
:103E60000289CDE904458DE841000DD002290BD02F
:103E7000684600F08BFF002800F09580089B1BB17E
:103E800001F0A4FF089B0360DDE906010BB0BDE86B
:103E9000F08F002200234046494601F0B7FCF8B1FC
:103EA000204629460022002301F0B0FC834600286A
:103EB0004DD07B489AF90030CDE90445012100221C
:103EC00000240025CDE90289CDE906450190009145
:103ED0000892002BCCD0714B0022CDE90623D3E70A
:103EE0003046394600F024FF8346002860D0002287
:103EF00000233046394601F089FC002890D0404626
:103F0000494600F015FF00288AD02046294600F0D7
:103F10000FFF002884D09AF900306148CDE90445AC
:103F20000421002200240025022BCDE90289CDE9DD
:103F3000064501900091089200F08280684600F0EA
:103F400025FF00287CD0089B002B9DD098E72046B9
:103F5000294600F0EDFE00283FF462AF20462946D6
:103F60000022002301F05CFC00283FF459AF4C4ACA
:103F70009AF8001001230192CDF820B0CDE9028912
:103F8000CDE9044500930022002934D10023CDE976
:103F90000623684600F0FAFE0028D4D101F016FF8F
:103FA00021230360CFE701F011FF2123036065E7C0
:103FB0004046494600F0BCFE002898D020462946DD
:103FC00000F0B6FE002892D03046394600F0B6FE2A
:103FD000B8B9334A9AF8006001230890CDE9028904
:103FE000CDE9044501920093002E2ED10024002536
:103FF000CDE90645CDE72B4B0229CDE90623CDD0EF
:10400000C7E727499AF90030032201910092CDF8C1
:1040100020B0CDE90289CDE9044540464946002259
:10402000F3B9214F4FF060460023CDE9066701F058
:10403000F7FB002840D19AF90030022B7FF47EAFC5
:1040400001F0C4FE222303607DE700200021024628
:104050000B4601F09DFA022ECDE906019ED098E7AD
:10406000124F00260023CDE9066701F0D9FB002896
:10407000E1D000220E4B2046294601F05FF90446AC
:104080000D4600F08BFE22462B4601F0BFFB0028B8
:10409000D1D1044B0022CDE90623CCE70000F03F4C
:1040A000DC5E00000000F0FFFFFFEF470000F07F44
:1040B0000000E03F0C00002000220A4B2046294669
:1040C00001F03CF904460D4600F068FE22462B46FE
:1040D00001F09CFB0028AED1034B4FF06042CDE9CC
:1040E0000623A8E70000E03FFFFFEFC70000000045
:1040F0002DE9F04F23F0004B91B089460F465BEA63
:104100000201CDE9022314461D46804606462ED004
:10411000634B29F0004A9A4522DC1FD0604B9B4537
:104120001EDC77D0002F78DB0022049264BB5C4B4E
:104130009B4500F091805B4B9B4565D0B5F1804F6E
:1041400000F0F983584B9D421ED1002F1CDB4046E6
:10415000494611B0BDE8F04F00F026BD0028DDD083
:104160000AF1404A0AF5801A5AEA060A04D14D4972
:10417000002011B0BDE8F08F4C4811B0BDE8F04F01
:1041800000F006BE002104914046494600F0CCFDF7
:10419000E6B9BAF1000F04D0424B27F040429A42F0
:1041A00014D1002DC0F20884002FE2DA0AF1404A4F
:1041B000DDF810B00AF5801A5BEA0A0B5ED0049AAB
:1041C000012AD6D101F100431946D2E7FB0F03F1D2
:1041D000FF3C049B53EA0C034ED0354B9B456DDDF1
:1041E00003F104739B4540F3EF83324B9A4540F350
:1041F0009C83002D40F39C8327A1D1E90001024656
:104200000B4601F09BF8B4E7002DC0F24B8440460A
:104210004946AEE7002C85D0A2E7274B9B4536DC0C
:10422000A3F154739B4540F38D834FEA2B5340F227
:104230001342934240F33E84C3F58663033324FA6A
:1042400003F202FA03F3A3427FF46EAF02F001021D
:10425000C2F10202049269E70AF1404303F58013B8
:10426000334384D0134B9A4540F39E83002DC0F214
:104270005F83DDE902017CE74046494602460B4682
:1042800000F0A8FE02460B4601F082F971E7022316
:1042900004934BE7AFF300809C7500883CE4377EC5
:1042A0000000F07F0000F03F0000E03F105F0000E2
:1042B0000000E041FFFFEF3FFFFF3F43BAF5801FE3
:1042C00080F2EE83AA4B0022CDF804C001F036F84C
:1042D000DDF804C08A466FF034034FEA2A55A54A38
:1042E000CAF3130AA5F2FF354AF07F541D449245E4
:1042F0000F9544F4401440F3D0839F4B9A4540F30C
:10430000EF83DDF83CA000250AF1010ACDF83CA0BE
:10431000A4F580142B46994ADB000E931344D3E98D
:104320000067214632463B46CDF804C0CDE90A017C
:1043300000F050FE3246804689463B46DDE90A01E0
:1043400000F04AFE02460B4600208D4901F020F99C
:10435000CDE90C01DDE90C234046494600F0EEFFB3
:10436000CDE90601DDE906AB611041F0005101F530
:1043700000214B190021CDE908AB0891DDE908AB1C
:1043800000225046594614461D4600F0D7FF02460B
:104390000B464046494600F01DFE3246804689469F
:1043A0003B462046294600F015FE02460B46DDE955
:1043B0000A0100F00FFE02460B465046594600F037
:1043C000BDFF02460B464046494600F003FEDDE9CC
:1043D0000C2300F0B3FF06460F46DDE90601024656
:1043E0000B4600F0ABFF02460B4604460D4600F0BC
:1043F000A5FF4FA3D3E900238046894620462946DE
:1044000000F09CFF4CA3D3E9002300F0E5FD224619
:104410002B4600F093FF4AA3D3E9002300F0DCFD14
:1044200022462B4600F08AFF47A3D3E9002300F081
:10443000D3FD22462B4600F081FF45A3D3E900239C
:1044400000F0CAFD22462B4600F078FF42A3D3E9D4
:10445000002300F0C1FD02460B464046494600F0ED
:104460006DFFDDE9062304460D465046594600F02F
:10447000B3FD32463B4600F061FF22462B4600F07A
:10448000ABFD5246804689465B465046594600F091
:1044900055FF00223B4BCDE90A0100F09DFD42464D
:1044A0004B4600F099FD08980D46044622462B46DF
:1044B0005046594600F042FF224682468B462B4624
:1044C0003046394600F03AFF002206460F462046A5
:1044D00029462C4B00F07EFDDDE90A2300F07AFD31
:1044E00002460B464046494600F074FDDDE90623CE
:1044F00000F024FF02460B463046394600F06CFDC2
:104500008046894642464B465046594600F064FD77
:1045100013A3D3E9002308980D46044600F00EFFCC
:1045200011A3D3E90023CDE90601204629462BE05B
:10453000EF4E454A287ECA3F65DBC9934A86CD3F88
:1045400001411DA96074D13F4D268F515555D53F6E
:10455000FFAB6FDBB66DDB3F033333333333E33F06
:10456000000000E009C7EE3FF5015B14E02F3EBEFE
:10457000000040438E98030079B60B00005F0000F6
:104580000000F03F0000084000F0D8FE524606460A
:104590000F465B462046294600F01CFD02460B46AE
:1045A0004046494600F016FD9FA3D3E9002300F0E2
:1045B000C5FE02460B463046394600F00DFDDDF8DB
:1045C00038A0AB4B5344D3E9002300F005FD8246ED
:1045D0000F988B4600F04CFE0E9AA64B04461344EF
:1045E000D3E900670D4652465B46DDE9060100F05F
:1045F000F3FC32463B4600F0EFFC22462B4600F02F
:10460000EBFC089822462B468046894600F0E2FCE7
:1046100032463B4600F0DEFCDDE9062300F0DAFC22
:1046200002460B465046594600F0D4FCDDF804C063
:1046300082468B46049900224B1E53EA0C030CBFA2
:104640008D4B8E4BDDE90201CDE90823DDE9022324
:10465000CDE9042300230493DDE904452B462246DB
:1046600000F0B8FC42464B4600F068FE5246064653
:104670000F465B46DDE9020100F060FE02460B4694
:104680003046394600F0A8FC42464B4682468B46EF
:104690002046294600F052FE06460F463B4650464D
:1046A0005946324600F098FC754B8046994289463F
:1046B0000D4640F34B8101F13F4303F5E003034313
:1046C00040F012825AA3D3E900235046594600F025
:1046D00083FC3246CDE902013B464046494600F0A4
:1046E00079FC02460B46DDE9020101F0B7F800282B
:1046F00040F00882CC464FEA2C53A3F2FE334FF42D
:10470000801018412844C0F30A515E4AA1F2FF33D9
:1047100042FA03FEC1F58261C0F3130420EA0E03DE
:10472000033144F4801040FA01F1002D0491BCBF24
:104730004942049100223046394600F04BFC0646BF
:104740000F463246504659463B4600F045FC049A17
:1047500012050292002438A3D3E9002320460D4617
:1047600000F0ECFD3246804689463B46204629460D
:1047700000F030FC02460B465046594600F02AFC39
:104780002FA3D3E9002300F0D9FD2FA3D3E9002301
:1047900006460F462046294600F0D0FD02460B464D
:1047A0003046394600F018FC06460F4632463B4676
:1047B0004046494600F010FC42464B4604460D4632
:1047C00000F008FC02460B463046394600F002FC79
:1047D000224682468B4620462B46294600F0AEFDF7
:1047E0001BA3D3E9002306460F4600F0A7FD1AA33A
:1047F000D3E9002300F0EEFB32463B4600F09EFD7D
:1048000017A3D3E9002300F0E7FB32463B4600F054
:1048100095FD15A3D3E9002300F0DCFB32463B46AF
:1048200032E000BFAFF30080FD033ADC09C7EE3F82
:10483000FE822B654715973C00000000432EE63FA3
:10484000EF39FAFE422EE63F396CA80C615C20BEBF
:10485000D0A4BE726937663EF16BD2C541BDBB3E86
:104860002CDE25AF6A56113F93BDBE166CC1663F64
:10487000F05E0000E05E00000000F0BF0000F03FCE
:10488000FFFF8F40FFFF0F0000F058FDACA3D3E9FE
:10489000002300F0A1FB32463B4600F04FFD0246EC
:1048A0000B462046294600F095FB06460F46324649
:1048B0003B462046294600F041FD002280468946BD
:1048C000304639464FF0804300F084FB02460B46E9
:1048D0004046494600F05CFE524606460F462046DA
:1048E0005B46294600F02AFD52465B4600F074FB09
:1048F00002460B463046394600F06CFB22462B46FA
:1049000000F068FB02460B4600209B4900F062FB6A
:10491000029C02460C44B4F5801FC0F23781234646
:10492000DDE9080100F00AFD23E4002DFFF664AC88
:10493000002000211DE44046494642464B4600F017
:10494000FDFC16E400210491FFF7F0BB8B4B21F036
:10495000004C9C4540F3BD8001F17D5303F53C13B1
:1049600003F55053034340F0DB8032463B46CDF81D
:1049700004C000F02FFB02460B465046594600F09B
:1049800059FFDDF804C000283FF4B5AEDDE90801A9
:104990006DA3D3E9002300F0D1FC6BA3D3E900237E
:1049A00000F0CCFCFFF7E5BB002DC1DA039B0298B9
:1049B00003F10041FFF7DDBB02460B4600206E49C4
:1049C00000F0E6FDFFF7F0BB6D4B9A45ADDD6A4B9D
:1049D0009A453FF70EAC0022674BCDF804C000F0BB
:1049E000F9FA5BA3D3E9002304460D4600F0A6FCC8
:1049F00059A3D3E9002306460F462046294600F076
:104A00009DFC224682468B462B462046294600F0D6
:104A100095FC00228046894620462946594B00F0E5
:104A20008DFC02460B464EA1D1E9000100F0D2FAFE
:104A300022462B4600F082FC02460B4600205249DB
:104A400000F0C8FA02460B464046494600F076FCA4
:104A500045A3D3E9002300F071FC02460B46504603
:104A6000594600F0B7FA04460D4622462B4630461A
:104A7000394600F0B1FA002032463B46804689466E
:104A800000F0A8FA02460B462046294600F0A2FA9A
:104A9000DDF804C082468B46CCE500252B463AE47F
:104AA00000231AE442464B460020334900F070FDD3
:104AB000FFF75FBB002C7FF465ABC3F58263033364
:104AC0004BFA03F202FA03F35B4565D00494FFF757
:104AD00032BB2D4B9C453FF70EAE049B029339E64B
:104AE0004FF48025012316E421A3D3E90023DDE957
:104AF000080100F023FC1EA3D3E9002300F01EFCF4
:104B0000FFF737BBDDE9080119A3D3E9002300F063
:104B100015FC17A3D3E9002300F010FCFFF729BB15
:104B200009A3D3E90023DDE9080100F007FC06A38F
:104B3000D3E9002300F002FCFFF71BBBAFF30080BA
:104B40003E5555555555C53F59F3F8C21F6EA50141
:104B5000000000604715F73F44DF5DF80BAE543EA0
:104B6000555555555555D53FFE822B654715F73F91
:104B70009C7500883CE4377E0000F03FFFCB9040FE
:104B8000FEFFEF3F0000D03F0000E03F049A00F03E
:104B900093F902460B46C3E602F00102C2F102029B
:104BA0000492FFF7C8BA00BF21F0004C2DE9F8438A
:104BB0004FEA1C5CDFF86C814FEA0C5CC44506468A
:104BC0000F460B46024600F08F8000296FDD0F155F
:104BD00078D0A7F2FF37C3F31303F90743F4801328
:104BE00060D4D10F4FF0000C01EB43037F10520053
:104BF000654616204FF400116C189C424FEAD2769D
:104C00004FEA420202DC1B1B65188C44013806EB9C
:104C100043034FEA5101EFD1804620264FF0004177
:104C200009E023D0D40F013E4FEA510104EB4303C6
:104C30004FEA42021ED0AB4201EB0804F1DD04F062
:104C40000049B9F1004F04EB010809D0A9465B1BEC
:104C5000944288BF03F1FF33121B08444D46E1E73D
:104C6000B8F1000FF2DB05F10109F0E79442E6D953
:104C70001D46D7E71A4304D0431C41D000F001037E
:104C8000184446084FEA6C031CF0010F03F17F53F0
:104C900003F5001318BF46F0004603EB07513046FA
:104CA000BDE8F883D10F01EB4303520099E721F0EF
:104CB0000043034322D051BB0F46D30A153F520590
:104CC000002BFAD013F480111DD15B00D80201F142
:104CD0000101FAD5C1F10100C1F1200422FA04F466
:104CE00007448A40234374E702460B4600F026FB44
:104CF00032463B4600F070F9BDE8F883BDE8F88322
:104D00000CF1010CBEE7202401200021E6E7024659
:104D10000B4600F05FF902460B4600F039FCBDE897
:104D2000F88300BF0000F07F21F00041704700BF12
:104D300041F0004101F58010C00F704731F0004391
:104D400010B408D00F4AA3F5801494420AD8042066
:104D50005DF8044B704700280CBF022003205DF86B
:104D6000044B7047B3F5801F01D20320F7E7064AD2
:104D7000934201D00020F2E7D0F1010038BF0020BB
:104D8000EDE700BFFFFFDF7F0000F07F00207047EE
:104D900000200149704700BF0000F87F2DE9F04373
:104DA000C1F30A5CACF2FF37132F83B002460B4607
:104DB0000D46894680464FEAD17630DC002F4CDB29
:104DC0003A49394101EA030010432DD0490801EA6C
:104DD000030858EA02080CD04FF480233B41132FFC
:104DE00025EA010141EA030914BF4FF000084FF022
:104DF00000482F494B4601EBC606D6E9004542461E
:104E00002046294600F0E8F8CDE90001DDE900017F
:104E100022462B4600F0DEF803B0BDE8F083332FC6
:104E200007DDB7F5806F3ED01046194603B0BDE8E8
:104E3000F083ACF2134C4FF0FF3121FA0CF1014238
:104E4000F2D049080142D4D04FF0804848FA0CFC17
:104E500020EA010141EA0C08CBE721F000410143BF
:104E6000E2D0C3F3130101434C420C431048590CE8
:104E7000240B490404F4002444EA010300EBC601B6
:104E8000D1E900452046294600F0A6F8CDE9000109
:104E9000DDE900012B46224600F09CF821F000439A
:104EA00043EAC671C2E700F097F8BFE7FFFF0F00C3
:104EB000185F000000000000C1F30A532DE9F04123
:104EC000904606460F460A461BBB21F000430343AB
:104ED00034D0354B002200F031FA344B0646984569
:104EE0000F463BDBC1F30A53363B0A46434440F2CC
:104EF000FE718B4216DD28A1D1E9000132463B4606
:104F000000F05AF824A3D3E9002300F017FABDE813
:104F1000F08140F2FF74A34227D0434440F2FE7177
:104F20008B42E8DC002B0BDD22F0FF4222F4E00292
:104F300042EA035730463946BDE8F081BDE8F081CA
:104F400013F1350F17DA4CF250339845D3DC14A126
:104F5000D1E9000132463B4600F02EF810A3D3E918
:104F6000002300F0EBF9BDE8F08102460B4600F0AB
:104F700033F8BDE8F08122F0FF4222F4E00236333C
:104F800042EA0357304639460022094B00F0D6F971
:104F9000BDE8F081AFF300809C7500883CE4377E6B
:104FA00059F3F8C21F6EA50100005043B03CFFFF4B
:104FB0000000903CAFF3008030B403F0004321F0D8
:104FC000004243EA020130BC704700BF81F000415B
:104FD00002E000BF83F0004330B54FEA41044FEADE
:104FE000430594EA050F08BF90EA020F1FBF54EA79
:104FF000000C55EA020C7FEA645C7FEA655C00F015
:10500000E2804FEA5454D4EB5555B8BF6D420CDDE5
:105010002C4480EA020281EA030382EA000083EA68
:10502000010180EA020281EA0303362D88BF30BD08
:1050300011F0004F4FEA01314FF4801C4CEA11315E
:1050400002D0404261EB410113F0004F4FEA0333BD
:105050004CEA133302D0524263EB430394EA050F48
:1050600000F0A780A4F10104D5F1200E0DDB02FAB7
:105070000EFC22FA05F2801841F1000103FA0EF24B
:10508000801843FA05F359410EE0A5F120050EF111
:10509000200E012A03FA0EFC28BF4CF0020C43FA42
:1050A00005F3C01851EBE37101F0004507D54FF04F
:1050B000000EDCF1000C7EEB00006EEB0101B1F59F
:1050C000801F1BD3B1F5001F0CD349085FEA3000E5
:1050D0004FEA3C0C04F101044FEA445212F5800FF0
:1050E00080F09A80BCF1004F08BF5FEA500C50F18D
:1050F000000041EB045141EA050130BD5FEA4C0C70
:10510000404141EB010111F4801FA4F10104E9D1F8
:1051100091F0000F04BF01460020B1FA81F308BFEF
:105120002033A3F10B03B3F120020CDA0C3208DDBB
:1051300002F1140CC2F10C0201FA0CF021FA02F196
:105140000CE002F11402D8BFC2F1200C01FA02F106
:1051500020FA0CFCDCBF41EA0C019040E41AA2BF2B
:1051600001EB0451294330BD6FEA04041F3C1CDAF3
:105170000C340EDC04F11404C4F1200220FA04F013
:1051800001FA02F340EA030021FA04F345EA0301BD
:1051900030BDC4F10C04C4F1200220FA02F001FA7F
:1051A00004F340EA0300294630BD21FA04F0294601
:1051B00030BD94F0000F83F4801306BF81F480119A
:1051C0000134013D4EE77FEA645C18BF7FEA655C0D
:1051D00029D094EA050F08BF90EA020F05D054EADF
:1051E000000C04BF1946104630BD91EA030F1EBFE4
:1051F0000021002030BD5FEA545C05D140004941E8
:1052000028BF41F0004130BD14F580043CBF01F5DA
:10521000801130BD01F0004545F0FE4141F47001C0
:105220004FF0000030BD7FEA645C1ABF194610469B
:105230007FEA655C1CBF0B46024650EA013406BF9C
:1052400052EA033591EA030F41F4002130BD00BF5B
:1052500090F0000F04BF0021704730B54FF4806418
:1052600004F132044FF000054FF0000150E700BF99
:1052700090F0000F04BF0021704730B54FF48064F8
:1052800004F1320410F0004548BF40424FF00001E5
:105290003EE700BF42004FEAE2014FEA31014FEA28
:1052A00002701FBF12F07F4393F07F4F81F0605177
:1052B000704792F0000F14BF93F07F4F704730B5E6
:1052C0004FF4607401F0004521F0004120E700BF79
:1052D00050EA010208BF704730B54FF000050AE000
:1052E00050EA010208BF704730B511F0004502D501
:1052F000404261EB41014FF4806404F132045FEA03
:10530000915C3FF4DCAE4FF003025FEADC0C18BFA7
:1053100003325FEADC0C18BF033202EBDC02C2F19D
:10532000200300FA03FC20FA02F001FA03FE40EA2F
:105330000E0021FA02F11444C1E600BF70B54FF02F
:10534000FF0C4CF4E06C1CEA11541DBF1CEA135511
:1053500094EA0C0F95EA0C0F00F0DEF82C4481EA79
:10536000030621EA4C5123EA4C5350EA013518BF99
:1053700052EA033541F4801143F4801338D0A0FB86
:1053800002CE4FF00005E1FB02E506F00042E0FB33
:1053900003E54FF00006E1FB03569CF0000F18BF39
:1053A0004EF0010EA4F1FF04B6F5007F64F54074E1
:1053B00004D25FEA4E0E6D4146EB060642EAC62174
:1053C00041EA55514FEAC52040EA5E504FEACE2EE1
:1053D000B4F1FD0C88BFBCF5E06F1ED8BEF1004FE4
:1053E00008BF5FEA500E50F1000041EB045170BD60
:1053F00006F0004646EA010140EA020081EA0301A4
:10540000B4EB5C04C2BFD4EB0C0541EA045170BD9F
:1054100041F480114FF0000E013C00F3AB8014F119
:10542000360FDEBF002001F0004170BDC4F1000462
:10543000203C35DA0C341BDC04F11404C4F12005E3
:1054400000FA05F320FA04F001FA05F240EA02003E
:1054500001F0004221F0004110EBD37021FA04F674
:1054600042EB06015EEA430E08BF20EAD37070BD2E
:10547000C4F10C04C4F1200500FA04F320FA05F08D
:1054800001FA04F240EA020001F0004110EBD3708F
:1054900041F100015EEA430E08BF20EAD37070BDFF
:1054A000C4F1200500FA05F24EEA020E20FA04F3D8
:1054B00001FA05F243EA020321FA04F001F0004187
:1054C00021FA04F220EA020000EBD3705EEA430EF8
:1054D00008BF20EAD37070BD94F0000F0FD101F027
:1054E0000046400041EB010111F4801F08BF013C60
:1054F000F7D041EA060195F0000F18BF704703F09E
:105500000046520043EB030313F4801F08BF013D24
:10551000F7D043EA0603704794EA0C0F0CEA1355E0
:1055200018BF95EA0C0F0CD050EA410618BF52EA9A
:105530004306D1D181EA030101F000414FF00000A0
:1055400070BD50EA410606BF1046194652EA4306AE
:1055500019D094EA0C0F02D150EA013613D195EA22
:105560000C0F05D152EA03361CBF104619460AD16A
:1055700081EA030101F0004141F0FE4141F4700174
:105580004FF0000070BD41F0FE4141F4780170BD64
:1055900070B54FF0FF0C4CF4E06C1CEA11541DBFC9
:1055A0001CEA135594EA0C0F95EA0C0F00F0A7F8CB
:1055B000A4EB050481EA030E52EA03354FEA0131F8
:1055C00000F088804FEA03334FF0805545EA13130B
:1055D00043EA12634FEA022245EA111545EA1065D3
:1055E0004FEA00260EF000419D4208BF964244F16A
:1055F000FD0404F5407402D25B084FEA3202B61A89
:1056000065EB03055B084FEA32024FF480104FF45C
:10561000002CB6EB020E75EB030E22BFB61A7546D0
:1056200040EA0C005B084FEA3202B6EB020E75EB63
:10563000030E22BFB61A754640EA5C005B084FEACB
:105640003202B6EB020E75EB030E22BFB61A754698
:1056500040EA9C005B084FEA3202B6EB020E75EBA3
:10566000030E22BFB61A754640EADC0055EA060E64
:1056700018D04FEA051545EA16754FEA06164FEAA7
:10568000C30343EA52734FEAC2025FEA1C1CC0D153
:1056900011F4801F0BD141EA00014FF000004FF0E0
:1056A000004CB6E711F4801F04BF01430020B4F1A1
:1056B000FD0C88BFBCF5E06F3FF6AFAEB5EB030C59
:1056C00004BFB6EB020C5FEA500C50F1000041EB56
:1056D000045170BD0EF0004E4EEA113114EB5C0423
:1056E000C2BFD4EB0C0541EA045170BD41F48011F6
:1056F0004FF0000E013C90E645EA060E8DE60CEAFE
:10570000135594EA0C0F08BF95EA0C0F3FF43BAF1A
:1057100094EA0C0F0AD150EA01347FF434AF95EAD1
:105720000C0F7FF425AF104619462CE795EA0C0FB5
:1057300006D152EA03353FF4FDAE1046194622E782
:1057400050EA410618BF52EA43067FF4C5AE50EA5C
:1057500041047FF40DAF52EA43057FF4EBAE12E74C
:105760004FF0FF3C06E000BF4FF0010C02E000BF2D
:105770004FF0010C4DF804CD4FEA410C7FEA6C5C10
:105780004FEA430C18BF7FEA6C5C1BD001B050EAB3
:10579000410C0CBF52EA430C91EA030F02BF90EA9E
:1057A000020F0020704710F1000F91EA030F58BF5D
:1057B000994208BF90422CBFD8176FEAE37040F0BF
:1057C000010070474FEA410C7FEA6C5C02D150EA5D
:1057D000013C07D14FEA430C7FEA6C5CD6D152EA18
:1057E000033CD3D05DF8040B704700BF84461046DD
:1057F00062468C461946634600E000BF01B5FFF7DC
:10580000B7FF002848BF10F1000F01BD4DF808EDAB
:10581000FFF7F4FF0CBF012000205DF808FB00BF7C
:105820004DF808EDFFF7EAFF34BF012000205DF8D6
:1058300008FB00BF4DF808EDFFF7E0FF94BF012023
:1058400000205DF808FB00BF4DF808EDFFF7CEFF24
:1058500094BF012000205DF808FB00BF4DF808ED63
:10586000FFF7C4FF34BF012000205DF808FB00BF34
:105870004FEA4102B2F1E04324BFB3F5001CDCF172
:10588000FE5C0DD901F0004C4FEAC0024CEA5070AA
:10589000B2F1004F40EB830008BF20F001007047D9
:1058A00011F0804F21D113F13872BCBF01F00040DC
:1058B000704741F480114FEA5252C2F11802C2F10E
:1058C000200C10FA0CF320FA02F018BF40F001008F
:1058D0004FEAC1234FEAD32303FA0CFC40EA0C0041
:1058E00023FA02F34FEA4303CCE77FEA625307D17E
:1058F00050EA01331EBF4FF0FE4040F440007047B5
:1059000001F0004040F0FE4040F40000704700BF4E
:1059100080F0004002E000BF81F0004142001FBF64
:105920005FEA410392EA030F7FEA226C7FEA236C6D
:105930006AD04FEA1262D2EB1363C1BFD218414062
:1059400048404140B8BF5B42192B88BF704710F0F8
:10595000004F40F4000020F07F4018BF404211F09B
:10596000004F41F4000121F07F4118BF494292EA03
:10597000030F3FD0A2F1010241FA03FC10EB0C002F
:10598000C3F1200301FA03F100F0004302D54942BC
:1059900060EB4000B0F5000F13D3B0F1807F06D369
:1059A00040084FEA310102F10102FE2A51D2B1F161
:1059B000004F40EBC25008BF20F0010040EA030056
:1059C0007047490040EB000010F4000FA2F1010203
:1059D000EDD1B0FA80FCACF1080CB2EB0C0200FA8D
:1059E0000CF0AABF00EBC25052421843BCBFD040DB
:1059F0001843704792F0000F81F4000106BF80F455
:105A000000000132013BB5E74FEA41037FEA226C17
:105A100018BF7FEA236C21D092EA030F04D092F0E2
:105A2000000F08BF0846704790EA010F1CBF002016
:105A3000704712F07F4F04D1400028BF40F0004073
:105A4000704712F100723CBF00F50000704700F093
:105A5000004343F0FE4040F4000070477FEA2262BA
:105A600016BF08467FEA23630146420206BF5FEA8B
:105A7000412390EA010F40F4800070474FF000038B
:105A800004E000BF10F0004348BF40425FEA000C52
:105A900008BF704743F0964301464FF000001CE0FA
:105AA00050EA010208BF70474FF000030AE000BF50
:105AB00050EA010208BF704711F0004302D540428E
:105AC00061EB41015FEA010C02BF84460146002000
:105AD00043F0B64308BFA3F18053A3F50003BCFA1B
