:1000000000000220F91F00002F2000003120000016
:100010003320000035200000372000002D20000094
:100020002D2000002D2000002D2000003920000090
:100030003B2000002D2000003D2000003F2000005C
:100040004120000043200000452000004720000020
:10005000492000004B2000004D2000004F200000F0
:1000600051200000532000005520000057200000C0
:10007000592000005B2000005D2000005F20000090
:100080006120000063200000652000006720000060
:10009000692000006B2000006D2000006F20000030
:1000A0007120000073200000752000007720000000
:1000B000792000007B2000007D2000007F200000D0
:1000C00081200000832000008520000087200000A0
:1000D000892000008B2000008D200000000000001F
:1000E0000000000000000000000000000000000010
:1000F0000000000000000000000000000000000000
:1001000010B5054C237833B9044B13B10448AFF351
:1001100000800123237010BD70000020000000004B
:100120004423000008B5064B1BB106480649AFF34F
:1001300000800648036813B1054B03B1984708BD1A
:100140000000000044230000740000207000002024
:1001500000000000154B002B08BF134B9D46A3F574
:10016000803A00218B460F461348144A121A02F0B7
:10017000A5F80F4B002B00D098470E4B002B00D05A
:1001800098470020002104000D000D48002802D0EF
:100190000C48AFF3008002F06BF82000290000F05B
:1001A000B5FB02F051F800BF00000800000002207B
:1001B000000000000000000070000020AC000020E3
:1001C000000000000000000080B400AF074B074AA9
:1001D000D26822F00202DA60044B044AD26842F08C
:1001E0000402DA60BD465DF8047B704700600040A1
:1001F00080B586B000AFAA239BB23B8004237B80EE
:100200007B6800221A707B68013301221A707B68B8
:10021000023300221A7003233B8102233B823B46B8
:100220000D48194601F0D4FC00BF0B4801F0AAFAB2
:100230000346002BF9D1FB6801331B787B617B6996
:100240001B027B61FB681B787A6913447B617B69C5
:1002500018461837BD4680BD00A0004090B585B057
:1002600000AF104B3C460FCB84E80F0001233B70DE
:1002700001237B700C4BBB6001233B733B460B4857
:10028000194601F043FAFFF7B3FF024640F221435B
:100290009A4201D0002300E0012318461437BD46DE
:1002A00090BD00BFE822000034FD050000A0004022
:1002B00080B500AF00F014F800F048F800F080F8C6
:1002C00000F092F800F0A4F800F0B8F800F0F4F8AC
:1002D00000F030F900F04CF900F068F980BD00BF83
:1002E00080B500AF5120052100F0FAFF0120012167
:1002F000012201F043F90E48032100F0F1FF0D48FF
:10030000012100F003FE0C48012100F0FFFD0B4825
:10031000012100F0FBFD0A48012100F0F7FD09482A
:10032000012100F0F3FD0848012100F0EFFD80BD40
:100330000200060000B2020000C2020030140800F1
:10034000000202000012020000D20200B0B586B026
:1003500000AF1948012100F0D9FD00200121012240
:1003600001F00CF90120002101F0BAFC134B3C1DF7
:100370001D460FCD0FC42B68236000233B71012362
:100380007B710023BB714FF480533B810123FB60E1
:1003900000233B7501237B750023BB7500233B6164
:1003A0003B1D184600F05CFB0020002100F0CCFB58
:1003B0001837BD46B0BD00BF00430400F82200005E
:1003C00080B400AF074B074A126822F003021A609C
:1003D000044B044A126822F00C021A60BD465DF814
:1003E000047B704700800C4080B400AF074B074A85
:1003F000126822F4C0521A60044B044A126822F4B4
:1004000000521A60BD465DF8047B704700800C40C6
:1004100080B582B000AF084A3B1D118892781980E0
:100420009A7001237B710123BB713B1D184601F0BB
:100430006BFC0837BD4680BD0C230000B0B588B00A
:1004400000AF1B4B07F108041D460FCD0FC495E804
:10045000030084E803004FF4E1333B6105233B755F
:1004600001237B750123BB7500233B830023BB76EF
:100470000023FB7600233B7707F108030D4819465C
:1004800001F0DAFC00233B7100237B710023BB7178
:100490000023FB7100237B710023BB710023FB71E0
:1004A0003B1D0448194601F02BFD2037BD46B0BD69
:1004B0001023000000C00040B0B588B000AF1B4B57
:1004C00007F108041D460FCD0FC495E8030084E82A
:1004D00003004FF4E1333B6105233B7501237B753A
:1004E0000123BB7500233B830023BB760023FB76EF
:1004F00000233B7707F108030D48194601F09CFCE7
:1005000000233B7100237B710023BB710023FB712F
:1005100000237B710023BB710023FB713B1D04484A
:10052000194601F0EDFC2037BD46B0BD1023000098
:1005300000C4004090B585B000AF0A4B3C460FCBDD
:1005400084E80F0001233B7001237B70064BBB60E6
:1005500001233B733B460548194601F0D7F8143791
:10056000BD4690BD2823000034FD050000A00040DA
:1005700090B585B000AF0A4B3C460FCB84E80F0026
:1005800001233B7001237B70064BBB6000233B7350
:100590003B460548194601F0B9F81437BD4690BDF1
:1005A000282300006067010000A4004080B400AF71
:1005B000B04BB04A126842F003021A60AD4BAD4A2C
:1005C000526822F00F0242F001025A60A94BA94A78
:1005D000526822F0F00242F040025A60A54BA54A50
:1005E000526822F4706242F480625A60A14BA14AC0
:1005F000926822F00F0242F001029A609D4B9D4AE0
:10060000926822F0F00242F020029A60994B994AD7
:10061000D26842F40072DA60964B964A926822F4ED
:10062000706242F400729A60924B924AD26842F42D
:100630008062DA608F4B8F4A526A42F003025A623C
:100640008C4B8C4A926C42F003029A64894B894A23
:10065000D26C22F4702242F43022DA64854B854A4F
:10066000D26C22F4700242F43002DA64814B814A87
:10067000D26C22F0706242F03062DA647D4B7D4AC7
:10068000526D42F040025A657A4B7A4AD26C22F09F
:10069000704242F03042DA64764B764A526D42F054
:1006A00080025A65734B734AD26E42F00302DA66D7
:1006B000704B704A126F22F00F0242F004021A6768
:1006C0006C4B6C4A126F22F0F00242F010021A6773
:1006D000684B684A126F22F4706242F480621A67B3
:1006E000644B644A126F22F4704242F480421A67EB
:1006F000604B604A126F22F4702242F480321A6713
:100700005C4B5C4A126F22F4700242F480021A675A
:10071000584B584A926F42F020029A67554B554AFF
:10072000126F22F0706242F080721A67514B514A88
:10073000126F22F0704242F080421A674D4B4D4AD0
:10074000926F42F080029A674A4B4A4A526F22F0F7
:100750000F0242F002025A67464B464A926F42F439
:1007600080729A67434B434AD2F8902042F00302CA
:10077000C3F890203F4B3F4AD2F8982022F00F0256
:1007800042F00402C3F898203A4B3A4AD2F8982033
:1007900022F0F00242F04002C3F89820354B354A6F
:1007A000D2F8982022F4706242F48062C3F8982054
:1007B000304B304AD2F8982022F4704242F48052F2
:1007C000C3F898202B4B2B4AD2F8982022F47022A1
:1007D00042F48022C3F89820264B264AD2F898206B
:1007E00022F4700242F48002C3F89820214B214A7F
:1007F000D2F8B42042F00302C3F8B4201D4B1D4AC6
:10080000D2F8B82022F00F0242F00402C3F8B82058
:10081000184B184AD2F8B82022F0F00242F0100229
:10082000C3F8B820134B134AD2F8B82022F47062F0
:1008300042F48062C3F8B8200E4B0E4AD2F8202151
:1008400022F00302C3F820210B4B0B4A926B22F4D7
:10085000E06242F400729A63074B074A926B42F0DF
:1008600003029A63054B054A926B42F003029A63B6
:1008700006E000BF0060004000A0004000A400406F
:100880000F4B0F4A926A22F4E06242F400729A62BD
:100890000C4B0C4A526D42F00F025A650A4B0A4A41
:1008A000526D22F4E06242F480725A65064B064AA9
:1008B000526D42F00F025A65BD465DF8047B7047E9
:1008C0000060084000C0004000C4004080B582B015
:1008D00000AF0C4B1B687B603B46184601F03CFAAE
:1008E0007B681B0E0F2B0AD93B78032B07D1064BD5
:1008F000054A126822F0500242F010021A600837CE
:10090000BD4680BDFC81E00FC0800C4080B500AFCB
:10091000FFF7DCFFFFF7CCFCFFF756FC00BFFFF74B
:100920009DFC0346002BFAD0FEE700BF80B487B0E1
:1009300000AFF860B9607A60FB6803F10473DA0015
:10094000BB6813449B007B617B697A681A601C3723
:10095000BD465DF8047B704780B483B000AF78601B
:10096000034B7A681A630C37BD465DF8047B704709
:100970000010084080B582B000AF0346FB71FB79E0
:10098000002B05D00E4B1B6803F00303002B05D191
:10099000FB7983F00103DBB2002B00D000BFFB79B1
:1009A000002B05D0064803210022FFF7BFFF04E01B
:1009B000034803210122FFF7B9FF0837BD4680BD78
:1009C0000010084080B582B000AF0346FB71FB7990
:1009D000034800211A46FFF7A9FF0837BD4680BD2E
:1009E0003810084080B487B000AF78607B68002B77
:1009F00004D07B68B3F5004F00D800BF7B683B6133
:100A00003B69B3FA83F3FB60FB68DBB2C3F11F03FE
:100A10007B617B6918461C37BD465DF8047B7047D7
:100A200080B483B000AF78600C4B9B6B03F0010384
:100A3000002B05D1094B1B6803F44053002B00D059
:100A400006E000BF054BDA6B7B681340002BF9D141
:100A50000C37BD465DF8047B704700BF00100840AE
:100A600080B584B000AF78607B689B68002B04D0B1
:100A70007B689B68802B00D800BF7B681B7883F065
:100A80000103DBB2002B07D17B681B78002B04D05D
:100A90007B685B78002B00D000BF7B689B88B3F538
:100AA000405F08D17B689B88B3F5405F04D17B68C9
:100AB0009B7C002B00D100BF7B689B681846FFF72A
:100AC00091FFF8607B681B78002B02D00120FFF7B4
:100AD00079FF0120FFF7A4FF1A4B7A68927C5A60D5
:100AE0007B685B7843F00803DBB21A467B689B782F
:100AF0009B001A437B685B7C1B011A437B68DB68A5
:100B00005B011A43FB681B021A437B689B881A43EC
:100B10007B681B7C9B031343BB604FF0FF30FFF7E8
:100B20001BFF084BBA681A607B681B78002B05D046
:100B30000120FFF71FFF0020FFF744FF1037BD46DD
:100B400080BD00BF0010084080B582B000AF786063
:100B500039600220FFF764FF024B3A68DA60083719
:100B6000BD4680BD0010084080B487B000AFF8607B
:100B7000B9607A60FB6803F10473DA00BB68134460
:100B80009B007B617B697A681A601C37BD465DF803
:100B9000047B704780B483B000AF1D4BDB6C03F463
:100BA0007F031B0CFB71FB794A2B04D04B2B26D007
:100BB000482B22D025E0174B1B699BB203F03F0363
:100BC0009BB21B02BB80134B9B699BB203F0F003EB
:100BD0009AB2BB881343BB800E4BDB6903F0F00372
:100BE0001B099AB2BB881343BB80BB88B3F5017F56
:100BF00001D3094B06E0094B04E0084B02E0064B29
:100C000000E0002318460C37BD465DF8047B7047B2
:100C1000B081E00FD0FF0FE000366E010048E80120
:100C200080B485B000AF7860284BDB6B002B0CBF25
:100C300000230123BB72254B41F67132DA63234B4B
:100C40005B6803F00703FB60FB68012B01D9042BF1
:100C500002D10023FB7202E00123FB7200BF7A681D
:100C60001B4B9A4207D9FB7A002B01D0052300E0E9
:100C70000423FB6016E07A68154B9A420BD87A6819
:100C8000144B9A4207D9FB7A002B01D0032300E0D2
:100C90000123FB6006E0FB7A002B01D0022300E079
:100CA0000023FB60094B094A526822F00701FA68E9
:100CB0000A435A60BB7A002B02D0044B0022DA634D
:100CC0001437BD465DF8047B704700BF00000C4040
:100CD0000048E8010024F40080B582B000AF044B66
:100CE0007B607868FFF79CFF0837BD4680BD00BF7A
:100CF000006CDC0280B582B000AF104800F03EFA14
:100D00000346FB70FB78032B07D0082B09D0022B7E
:100D10000BD101F08DFA78600AE001F075FA786085
:100D200006E001F0E7F9786002E000237B6000BF95
:100D30007B6818460837BD4680BD00BF05231C00F0
:100D400080B483B000AF1A4B5B6903F4E063B3F582
:100D5000007F14D0B3F5007F05D8002B15D0B3F574
:100D6000807F0FD01AE0B3F5C06F14D0B3F5E06FF9
:100D70000ED0B3F5407F11D10E4B7B6011E00E4BCE
:100D80007B600EE00D4B7B600BE00D4B7B6008E061
:100D90000C4B7B6005E00C4B7B6002E000237B602A
:100DA00000BF7B6818460C37BD465DF8047B704772
:100DB00000800C4040420F00C0CF6A00C0D8A7009E
:100DC000809FD500406F4001003FAB0180B582B0ED
:100DD00000AF124800F0D2F90346FB70FB78072BF6
:100DE0000FD0082B11D101F085F978600C4B1B68EE
:100DF00003F4E0339B0B01337A68B2FBF3F37B60BF
:100E000006E0FFF79DFF786002E000237B6000BFF3
:100E10007B6818460837BD4680BD00BF0400180037
:100E200000800C4080B584B000AF78607B68002BF8
:100E300002D07B68012B00D100BF264B9A6A7B68E9
:100E40005B0022FA03F303F00303032B3AD801A259
:100E500052F823F0A50E0000650E00006D0E000094
:100E6000750E000001F0D0F9F8602EE001F0E0F915
:100E7000F8602AE0174B5B6803F48073002B05D100
:100E8000144B1B6803F08043002B05D001F00EF9D2
:100E900003469B08FB6018E001F008F903465B0875
:100EA000FB6012E00B4B9A6A7B6804339B0022FACA
:100EB00003F3002B03D001F0B1F9F86005E0002343
:100EC000FB6002E00023FB6000BFFB6818461037A0
:100ED000BD4680BD00800C4080B483B000AF786018
:100EE000094B5B6D03F00103002B00D006E000BF4F
:100EF000054B1A6D7B681340002BF9D10C37BD46AA
:100F00005DF8047B704700BF00800C4090B587B04F
:100F100000AF78600B46FB7000233B617B681B0AC7
:100F200003F00F03013B052B4AD801A252F823F02E
:100F3000490F00004F0F0000550F0000830F000005
:100F40008D0F0000970F00001F4B7B6126E01F4BA9
:100F50007B6123E01E4B7B611E4800F047F804468E
:100F6000FFF718FE03469C420AD91B481E210122A6
:100F7000FFF7FAFD194808210122FFF7F5FD0DE002
:100F80000CE0174B7B6101233B6107E0154B7B6154
:100F900010233B6102E0144B7B6100BF7B681B0B9D
:100FA00003F01F03FB603B69002B02D03869FFF799
:100FB00093FFFB787869F9681A46FFF7D5FD00E0E2
:100FC00000BF1C37BD4690BD08800C4044800C40DB
:100FD00040800C402000040000800C4004800C4045
:100FE00058800C4060800C4078800C4080B584B004
:100FF00000AF78607B6803F47813B3F5801F7AD074
:10100000B3F5801F15D8B3F5802F4FD0B3F5802FDF
:1010100005D8002B26D0B3F5003F31D0A4E0B3F5BE
:10102000002F4CD0B3F5202F57D0B3F5C02F41D0AF
:101030009AE0B3F5B01F7DD0B3F5B01F06D8B3F575
:10104000901F65D0B3F5A01F67D08DE0B3F5D01F1A
:1010500000F08280B3F5E01F00F08280B3F5C01F7E
:1010600076D081E001F046F8F860434B1B6803F44A
:10107000E0339B0B0133FA68B2FBF3F3FB6076E0DD
:1010800001F038F8F8603C4B1B6803F4E0339B0B2D
:101090000133FA68B2FBF3F3FB60374B9B6803F054
:1010A0000F03FA6822FA03F3FB6060E000F0FEFF32
:1010B000F8605CE00020FFF7B5FEF86057E0002024
:1010C000FFF7B0FEF8602C4B9B6E03F0F0031B099A
:1010D000FA6822FA03F3FB6049E00020FFF7A2FE62
:1010E000F860254B9B6E03F470631B0AFA6822FAC2
:1010F00003F3FB603BE00020FFF794FEF8601E4B1B
:101100009B6E03F00303FA6822FA03F3FB602EE000
:101110000120FFF787FEF86029E00120FFF782FE3B
:10112000F860154B1B6F03F00303FA6822FA03F310
:10113000FB601CE00120FFF775FEF8600E4B1B6F93
:1011400003F030031B09FA6822FA03F3FB600EE098
:10115000FFF73CFEF8600AE0FFF7F2FDF86006E0FA
:10116000FFF7C8FDF86002E00023FB6000BFFB68EA
:1011700018461037BD4680BD00800C4080B487B053
:1011800000AF78600123FB754FF470533B617B68BF
:1011900003F00F03FB60FB68013B042B00F293801C
:1011A00001A252F823F000BFBD110000F3110000AE
:1011B0002F1200006B12000091120000474BDA6AF8
:1011C0003B691340B3F5805F09D0B3F5005F03D0EE
:1011D000B3F5006F06D008E00223FB7508E0032397
:1011E000FB7505E00423FB7502E00523FB7500BFDA
:1011F0006CE03A4B9B6A03F00303022B06D0032BEF
:1012000007D0012B08D10323FB750FE00223FB75E8
:101210000CE00623FB7509E0304B9B6A03F4803336
:10122000002B02D00923FB7500E000BF4EE02B4BE2
:101230009B6A03F00C03082B06D00C2B07D0042B61
:1012400008D10323FB750FE00223FB750CE0062396
:10125000FB7509E0214B9B6A03F48013002B02D03D
:101260000923FB7500E000BF30E00723FB751B4B33
:101270001B6803F08053002B03D0B3F1805F03D0D1
:1012800024E00723FB7502E00823FB7500BF1DE087
:10129000124BDB6A03F46033B3F5803F06D0B3F53D
:1012A000003F06D0B3F5004F06D008E00223FB75DF
:1012B00008E00323FB7505E00823FB7502E001232A
:1012C000FB7500BF02E00023FB7500BFFB7D1846E5
:1012D0001C37BD465DF8047B704700BF00800C40A2
:1012E00090B589B000AF78600B46FB700323FB61BB
:1012F0000323FB7600237B617B6803F00F03FB6015
:10130000FB68013B042B00F22A8101A252F823F072
:1013100025130000F1130000F1130000CD140000AC
:10132000F7140000FB78023B072B00F21A8101A2A0
:1013300052F823F0551300005F13000069130000FA
:10134000BD13000063150000631500006315000065
:10135000C71300000423FB610023FB7634E0032362
:10136000FB610123FB762FE00223FB610223FB7666
:1013700000F038FF0446FFF70DFC03469C4213D9EA
:101380007B4A7B4B1B6843F0804343F06003136050
:10139000774B1B6C03F01003002B0ED0754808210F
:1013A0000122FFF7E1FB0FE0714B714A126822F056
:1013B000600242F020021A6006E005E00123FB61B2
:1013C0000323FB7600E000BFFB7E184601210122CB
:1013D00000F0D4F8FFF780FC654BFA695A6200F020
:1013E0002DF900F063FEB860B868FFF719FCBBE0A8
:1013F000FB78013B082B00F2B68001A252F823F0E3
:10140000251400002B1400003B1400006715000099
:10141000671500004B1400006715000067150000F9
:101420008314000000233B6130E0002001210122F1
:1014300000F0A4F802233B6128E0012001210122F1
:1014400000F09CF801233B6120E04B48042101227D
:10145000FFF78AFB03233B6100F028FEB860FFF72B
:1014600099FB0246BB689A420AD241481E210122DA
:10147000FFF77AFB3F4808210122FFF775FB05E0E3
:1014800004E000233B6101237B6100BFFB68022B6A
:101490000DD1374A364B9B6A23F4803323F0030384
:1014A000396919437B691B040B4393625CE0304A42
:1014B0002F4B9B6A23F4801323F00C0339698900B6
:1014C00019437B691B050B4393624DE0FB78072BA7
:1014D00002D0082B07D047E0254B254A126822F09E
:1014E00080521A6006E0224B214A126842F0805274
:1014F0001A6000BF38E0FB78032B14D0082B22D0F1
:10150000022B00D030E000200121012200F036F84B
:10151000174B40225A6200BF154BDB6A03F480333D
:10152000002BF9D01AE001200121012200F026F859
:101530000F4B60225A6200BF0D4BDB6A03F400338D
:10154000002BF9D00AE00A4B20225A6200BF084B58
:10155000DB6A03F40043002BF9D000BF04E000BFB6
:1015600002E000BF00E000BF2437BD4690BD00BFD1
:1015700000800C4004800C4040800C4080B586B058
:1015800000AF13460246FA710A46BA717B71FB79C5
:10159000052B4CD801A252F823F000BFED15000036
:1015A000DF150000C3150000B5150000D1150000BF
:1015B0002F16000001233B610223FB6002237B61A5
:1015C0001EE004233B610823FB6008237B6117E0D6
:1015D00010233B612023FB6020237B6110E040232C
:1015E0003B618023FB6080237B6109E04FF48073C3
:1015F0003B614FF40073FB604FF400737B6100BFED
:10160000BB79002B0DD00C4B3A691A627B79002B09
:101610000AD000BF084BDA6A7B691340002BF9D06F
:1016200002E0054BFA681A6200F008F800E000BF1B
:101630001837BD4680BD00BF00800C4080B400AFAD
:10164000034BDA6A034B1A60BD465DF8047B7047B2
:1016500000800C408C00002080B487B000AFF860A0
:10166000B9607A60FB6803F10473DA00BB68134465
:101670009B007B617B697A681A601C37BD465DF808
:10168000047B704780B586B000AFF860B9607A60BF
:10169000FB707B68002B00D130E0FB681B6823F4F3
:1016A0004072FB681A60FB681A68FB781B021A43D9
:1016B000FB681A60BB68002B03D11248FFF796FC49
:1016C000B860FB78104AD35C3B617B689B00BA68CA
:1016D000D21A3B69796801FB03F3B2FBF3F37B6138
:1016E000FB681B6803F00203002B04D07B69002B0E
:1016F00001D101237B61FB687A691A611837BD4605
:1017000080BD00BF108102003823000080B582B088
:1017100000AF786039607A68174B9A4203D07A68D4
:10172000164B9A4200D100BF7B6800225A637B6847
:10173000134A1A637A683B685B78002B01D0002358
:1017400000E00123104601211A46FFF785FF3B68A0
:1017500059683B689A683B681B7B7868FFF792FF83
:101760007A683B681B78104600211A46FFF774FF21
:101770000837BD4680BD00BF00A0004000A4004067
:10178000CFFF010080B489B000AF78607A689D4BCC
:101790009A4203D07A689C4B9A4200D100BF7A6883
:1017A000984B9A4202D1994BBB6108E07A68964BFC
:1017B0009A4202D1964BBB6101E0FC2300E2BB6977
:1017C0009B687B617B689B6A3B613B6903F4C063F8
:1017D000002B14D03B6903F40073002B03D0BB69CA
:1017E000FD225A7007E03B6903F48063002B02D0AE
:1017F000BB69FE225A70BB6909221A70CCE1BB6931
:101800001B78082B00F2C08101A252F823F000BF20
:1018100035180000871800000D1900005F1900003E
:10182000B1190000151A00009D1A0000DB1A000013
:101830006D1B00007B695B8803F01003002B09D04F
:101840007B691B881B0A9BB203F0060343F0F0037D
:10185000FB610EE07B691B8803F0FE03FB617B6983
:101860005B8803F00203002B03D0FB6943F0010304
:10187000FB61BB6901221A707B68FA695A627B6856
:1018800001225A6088E13B6903F08003002B0CD0F1
:101890007B6880221A63BB69FF225A70BB690822E9
:1018A0001A707B6802225A602FE03B6903F0400304
:1018B000002B2AD07B6840221A637B695B8803F087
:1018C0001003002B08D0BB6902221A707B691B88A9
:1018D000DAB27B685A6218E07B695B8803F0020326
:1018E000002B0ED0BB6907221A70BB691B797A697D
:1018F000DB0013441B89012B07D17B6808225A6047
:101900004AE1BB6905221A7045E145E13B6903F0F4
:101910008003002B0CD07B6880221A63BB69FF22F6
:101920005A70BB6908221A707B6802225A6015E05F
:101930003B6903F04003002B10D07B6840221A6300
:101940007B695B8803F00203002B03D0BB69032291
:101950001A7020E1BB6905221A701CE11CE17B6949
:101960005B8803F01003002B09D07B691B881B0ADE
:101970009BB203F0060343F0F003FB6104E07B69D4
:101980001B8803F0FE03FB617B695B8803F00403A3
:10199000002B03D0FB6943F00103FB61BB69042208
:1019A0001A707B6801225A607B68FA695A62F3E018
:1019B0003B6903F08003002B0CD07B6880221A6304
:1019C000BB69FF225A70BB6908221A707B68022229
:1019D0005A6015E03B6903F04003002B10D07B6890
:1019E00040221A637B695B8803F00403002B03D059
:1019F000BB6907221A7003E0BB6905221A70CAE0AE
:101A0000CAE000BF00A0004000A4004090000020F9
:101A10009C000020BB695A88BB691B797969DB008F
:101A20000B441B899A4224D3BB6900225A80BB69AC
:101A30001B790133DAB2BB691A717B695B8803F0E9
:101A40000403002B03D0BB6903221A70A3E07B6957
:101A50005B8803F00103002B03D1BB691B79012BC9
:101A600006D9BB6908221A707B6802225A6093E08B
:101A700091E0BB691B797A69DB0013445A68BB6942
:101A80005B88591C88B2B969488013441B781A4690
:101A90007B685A62BB6906221A707DE03B6903F0DD
:101AA0008003002B0CD07B6880221A63BB69FF2265
:101AB0005A70BB6908221A707B6802225A600BE0D8
:101AC0003B6903F04003002B06D07B6840221A6379
:101AD000BB6905221A705EE05EE03B6903F02003FB
:101AE000002B42D0BB691B797A69DB0013441B8948
:101AF000FB607B68DB69FB72BB695B881A46FB682D
:101B00009A420ED2BB691B797A69DB0013445A688A
:101B1000BB695B88591C88B2B96948801344FA7A5A
:101B20001A70BB695B881A46FB689A420CD3FB6843
:101B3000012B02D17B6808225A60BB6908221A7007
:101B40007B6802225A6010E07B6804225A60FB68BE
:101B5000012B0AD9BB695B881A46FB68013B9A4294
:101B600003D17B6808225A6016E015E03B6903F454
:101B70008073002B07D07B684FF480721A63BB69B7
:101B800009221A7008E007E0BB69FB225A70BB69A2
:101B900009221A7000E015E6BB691B78092B0BD1EE
:101BA0007B6800225A63BB695B785BB2012B05D16D
:101BB000BB6900225A7001E0012301E0BB695B7838
:101BC0005BB218462437BD465DF8047B704700BF02
:101BD00080B584B000AF786039607A68304B9A4243
:101BE00003D07A682F4B9A4200D100BF7A682C4B01
:101BF0009A4202D12C4BFB6008E07A68294B9A424A
:101C000002D12A4BFB6001E0FC2343E07B689B6828
:101C100003F00103002B02D07B6820225A603B684E
:101C20005B8803F00203002B03D03B681B89002B69
:101C300009D03B685B8803F00403002B05D03B68A8
:101C40001B8A002B01D1FC2324E0FB6800221A70C0
:101C5000FB6801225A70FB6800225A80FB68002250
:101C60001A71FB683A689A607B68C0225A607B6888
:101C70009B6A03F02003002B01D07B68DB697B6843
:101C80000B4A1A637B684FF4FC625A637868FFF76B
:101C900079FD03465BB218461037BD4680BD00BFD4
:101CA00000A0004000A40040900000209C00002004
:101CB000CFFF010080B487B000AFF860B9607A60F0
:101CC000FB6803F10473DA00BB6813449B007B617B
:101CD0007B697A681A601C37BD465DF8047B7047E3
:101CE00080B582B000AF02460B46FA71BB71FA793B
:101CF000BB79044811461A46FFF7DCFF0837BD469A
:101D000080BD00BF00A00C4080B485B000AF7860FB
:101D10007B681B78002B02D00123FB6001E00023CD
:101D2000FB607B685B78002B03D0FB6843F0020309
:101D3000FB607B689B78002B03D0FB6843F00403B7
:101D4000FB60044BFA681A601437BD465DF8047BEB
:101D5000704700BF0000084080B485B000AF7860D5
:101D6000194B5B69DBB203F00F03DBB29B00FB7323
:101D7000154B1B6903F0C0039B09DAB2FB7B1343CD
:101D8000FB737B68FA7B9A700F4B1B69DBB203F025
:101D90003F03DAB27B685A700B4B9B69DBB223F0CE
:101DA0000F03FB73084BDB6903F0F0031B09DAB286
:101DB000FB7B1343FB737B68FA7B1A701437BD46B9
:101DC0005DF8047B704700BFD0FF0FE080B586B0A0
:101DD00000AFF860B9607A60BB68002B03D114488B
:101DE000FFF704F9B860BB685B007B617A687B69C8
:101DF0001344013B7B617A697B68B2FBF3F37B613F
:101E00007B69043B7B617B699B017B617B69C033A0
:101E10007B617B6923F0FF037B617A69054B13408B
:101E20007B61FB687A695A611837BD4680BD00BF87
:101E300010810200C0FF1F0080B582B000AF786043
:101E400039607A682B4B9A4207D07A682A4B9A42BB
:101E500003D07A68294B9A4200D100BF786800F01D
:101E60007FF87B681A683B681B8A43F001039BB2CA
:101E700019463B689B7B002B02D04FF4806300E047
:101E800000230B431A437B681A607B6819683B6820
:101E90009B7C002B01D0102200E000223B681B7DC0
:101EA000002B02D04FF0005300E00023134341EA1F
:101EB00003027B681A603B681B7B43F480527B689B
:101EC0005A603B685A683B689B68786811461A46B6
:101ED000FFF77CFF3B685B7B002B02D07B68102206
:101EE000DA603B681B781A467B68DA600837BD46C3
:101EF00080BD00BF00C0004000C4004000C80040DA
:101F000080B485B000AF786039607B689B6823F04F
:101F10007703FB603B681B78002B03D0FB6843F022
:101F20004003FB603B689B78002B03D0FB6843F0C9
:101F30002003FB603B685B78002B03D0FB6843F019
:101F40001003FB603B68DB78FA681343FB607B6837
:101F5000FA689A601437BD465DF8047B704700BF8D
:101F600080B483B000AF78607A68204B9A4207D083
:101F70007A681F4B9A4203D07A681E4B9A4200D16E
:101F800000BF7B6840F6AA62DA607B6800221A60B4
:101F90007B6841F205025A607B6800229A607B6888
:101FA00000225A617B680022DA647B6841F6F9728C
:101FB0009A647B6800225A657A680C4B9A4202D177
:101FC0007B6800221A657B6800229A657A68084B54
:101FD0009A4203D07A68074B9A4202D17B6800226A
:101FE000DA650C37BD465DF8047B704700C00040E1
:101FF00000C4004000C80040074880470749084A1D
:10200000084B9B1A40F30580043BC858D0503FF75B
:10201000FBAF054800470000FD21000050230000F1
:10202000000000207000002055010000FEE7FEE7E0
:10203000FEE7FEE7FEE7FEE7FEE7FEE7FEE7FEE778
:10204000FEE7FEE7FEE7FEE7FEE7FEE7FEE7FEE768
:10205000FEE7FEE7FEE7FEE7FEE7FEE7FEE7FEE758
:10206000FEE7FEE7FEE7FEE7FEE7FEE7FEE7FEE748
:10207000FEE7FEE7FEE7FEE7FEE7FEE7FEE7FEE738
:10208000FEE7FEE7FEE7FEE7FEE7FEE7FEE700BF4E
:1020900080B400AF044BDB6C1B0EDBB21846BD46B0
:1020A0005DF8047B704700BFB081E00F80B582B05F
:1020B00000AF00F01FF878600C4B1B6803F4E033AE
:1020C0009B0B01337A68B2FBF3F37B60074B5B68D1
:1020D00003F00F037A6822FA03F37B60044B7A68FB
:1020E0001A607B6818460837BD4680BD00800C40EA
:1020F000A800002080B582B000AF2F4BDB6A03F44C
:102100007053B3F5805F0AD0B3F5005F03D0B3F529
:10211000006F08D00BE0294B1B687B6047E04FF451
:1021200000437B6043E0264B1B687B603FE0224B13
:10213000DB6803F4E063B3F5007F1BD0B3F5007FE9
:1021400005D8002B24D0B3F5807F16D02BE0B3F553
:10215000806F09D0B3F5A06F03D0B3F5407F06D0F0
:1021600021E0184B7B6021E0174B7B601EE0174B92
:102170007B601BE0164B7B6018E0FFF789FF03468E
:10218000122B02D9134B7B6010E0134B7B600DE0E8
:10219000FFF77EFF0346122B02D9104B7B6005E050
:1021A0000F4B7B6002E000237B6000BF00BF7B68B9
:1021B00018460837BD4680BD00800C400400002052
:1021C00000000020003FAB01406F4001809FD50020
:1021D000C0D8A70040B56400C0CF6A00804F12008D
:1021E00040420F0080B400AF034B1B681846BD4649
:1021F0005DF8047B704700BF0000002080B400AF92
:10220000BD465DF8047B704780B400AF4FF40043D7
:102210001846BD465DF8047B704700BF80B400AF30
:102220004FF47A731846BD465DF8047B704700BFD3
:1022300080B400AF034B1B681846BD465DF8047BB5
:10224000704700BF0400002008B5074B044613B1D7
:102250000021AFF30080054B1868836A03B19847EB
:10226000204600F033F800BF0000000040230000CB
:1022700070B50E4B0E4D0024ED1AAD101E46AC424B
:1022800004D056F8242090470134F8E700F020F8F5
:10229000084D094B0024ED1AAD101E46AC4204D087
:1022A00056F8242090470134F8E770BD68000020FC
:1022B000680000206C0000206800002002440346F3
:1022C000934202D003F8011BFAE77047FEE700BF14
:1022D000F8B500BFF8BC08BC9E467047F8B500BF13
:1022E000F8BC08BC9E4670470101000000000000D9
:1022F00060670100000000000101000000300000E4
:1023000001000000000000000100000001000100C9
:10231000050000000000000040420F000501000021
:1023200000000000000000000101000000000000AB
:102330006067010000000000080911084300000068
:0823400008000020000000006D
:082348000CDEFF7F0100000024
:10235000006CDC02008000000000000000000000B3
:10236000000000000000000000000000000000006D
:1023700000000000000000003C23000000000000FE
:10238000000000000000000000000000000000004D
:10239000000000000000000000000000000000003D
:1023A000000000000000000000000000000000002D
:1023B00000000000000000002501000001010000F5
:0400000300001FF9E1
:00000001FF
